{
	"data": {
		"bytecode": {
			"linkReferences": {},
			"object": "60c06040523480156200001157600080fd5b5060405162005cda38038062005cda83398101604081905262000034916200015f565b600054610100900460ff16620000515760005460ff16156200005b565b6200005b62000115565b620000c35760405162461bcd60e51b815260206004820152602e60248201527f496e697469616c697a61626c653a20636f6e747261637420697320616c72656160448201526d191e481a5b9a5d1a585b1a5e995960921b606482015260840160405180910390fd5b600054610100900460ff16158015620000e6576000805461ffff19166101011790555b6001600160a01b0380831660a052831660805280156200010c576000805461ff00191690555b50505062000197565b60006200012d306200013360201b620026b81760201c565b15905090565b6001600160a01b03163b151590565b80516001600160a01b03811681146200015a57600080fd5b919050565b600080604083850312156200017357600080fd5b6200017e8362000142565b91506200018e6020840162000142565b90509250929050565b60805160a051615b08620001d26000396000818161060f0152613ea5015260008181611c5e0152818161363b015261403b0152615b086000f3fe60806040526004361061021e5760003560e01c8063ac9650d811610123578063d45573f6116100ab578063ea0e02411161006f578063ea0e0241146107da578063ebdfbce5146107fa578063ec91f2a41461085b578063f23a6e611461087c578063fd967f47146108a857600080fd5b8063d45573f614610631578063d4ac9b8c14610669578063d547741f146106f1578063de74e57b14610711578063e8a3d485146107b857600080fd5b8063c4b5b15f116100f2578063c4b5b15f14610585578063c78b616c146105a5578063ca15c873146105bc578063cb2ef6f7146105dc578063cf8267b1146105fd57600080fd5b8063ac9650d8146104f9578063acb1ba6714610526578063b13c0e6314610539578063bc197c811461055957600080fd5b80636bab66ae116101a65780639010d07c116101755780639010d07c1461045057806391d1485414610488578063938e3d7b146104a8578063a0a8e460146104c8578063a217fddf146104e457600080fd5b80636bab66ae146103dd5780637506c84a146103fd5780637687ab021461041d5780638c8a84e21461043057600080fd5b8063296f4e16116101ed578063296f4e16146103045780632f2ff15d1461032457806336568abe146103445780634e03f28d14610364578063572b6c05146103a457600080fd5b806301ffc9a71461022a578063150b7a021461025f5780631e7ac488146102a4578063248a9ca3146102c657600080fd5b3661022557005b600080fd5b34801561023657600080fd5b5061024a610245366004614d08565b6108be565b60405190151581526020015b60405180910390f35b34801561026b57600080fd5b5061028b61027a366004614d9a565b630a85bd0160e11b95945050505050565b6040516001600160e01b03199091168152602001610256565b3480156102b057600080fd5b506102c46102bf366004614e0c565b610904565b005b3480156102d257600080fd5b506102f66102e1366004614e38565b600090815260fb602052604090206001015490565b604051908152602001610256565b34801561031057600080fd5b506102c461031f366004614ecf565b6109d7565b34801561033057600080fd5b506102c461033f366004614f5b565b610e98565b34801561035057600080fd5b506102c461035f366004614f5b565b610ec5565b34801561037057600080fd5b506101625461038c90600160401b90046001600160401b031681565b6040516001600160401b039091168152602001610256565b3480156103b057600080fd5b5061024a6103bf366004614f8b565b6001600160a01b031660009081526065602052604090205460ff1690565b3480156103e957600080fd5b506102c46103f8366004614f5b565b610f53565b34801561040957600080fd5b506102c4610418366004614e38565b61125e565b6102c461042b366004614fa8565b6114b0565b34801561043c57600080fd5b506102c461044b366004615074565b6116c9565b34801561045c57600080fd5b5061047061046b36600461516b565b611862565b6040516001600160a01b039091168152602001610256565b34801561049457600080fd5b5061024a6104a3366004614f5b565b611882565b3480156104b457600080fd5b506102c46104c336600461518d565b6118ad565b3480156104d457600080fd5b5060405160018152602001610256565b3480156104f057600080fd5b506102f6600081565b34801561050557600080fd5b506105196105143660046151ce565b6118ce565b604051610256919061529a565b6102c46105343660046152fc565b6119c2565b34801561054557600080fd5b506102c461055436600461533b565b611cb8565b34801561056557600080fd5b5061028b6105743660046153f9565b63bc197c8160e01b95945050505050565b34801561059157600080fd5b506102c46105a03660046154a6565b61207c565b3480156105b157600080fd5b506102f661015f5481565b3480156105c857600080fd5b506102f66105d7366004614e38565b612537565b3480156105e857600080fd5b506a4d61726b6574706c61636560a81b6102f6565b34801561060957600080fd5b506104707f000000000000000000000000000000000000000000000000000000000000000081565b34801561063d57600080fd5b5061016154604080516001600160a01b0383168152600160a01b90920461ffff16602083015201610256565b34801561067557600080fd5b506106bf610684366004614e38565b610165602052600090815260409020805460018201546002830154600384015460049094015492936001600160a01b03928316939192169085565b604080519586526001600160a01b0394851660208701528501929092529091166060830152608082015260a001610256565b3480156106fd57600080fd5b506102c461070c366004614f5b565b61254f565b34801561071d57600080fd5b506107a061072c366004614e38565b61016360205260009081526040902080546001820154600283015460038401546004850154600586015460068701546007880154600889015460098a0154600a909a015498996001600160a01b03988916999789169896979596949593949092169290919060ff808216916101009004168c565b6040516102569c9b9a99989796959493929190615546565b3480156107c457600080fd5b506107cd612577565b60405161025691906155ca565b3480156107e657600080fd5b506102c46107f536600461516b565b612606565b34801561080657600080fd5b506106bf610815366004614f5b565b6101646020908152600092835260408084209091529082529020805460018201546002830154600384015460049094015492936001600160a01b03928316939192169085565b34801561086757600080fd5b506101625461038c906001600160401b031681565b34801561088857600080fd5b5061028b6108973660046155dd565b63f23a6e6160e01b95945050505050565b3480156108b457600080fd5b5061038c61271081565b60006001600160e01b03198216630271189760e51b14806108ef57506001600160e01b03198216630a85bd0160e11b145b806108fe57506108fe826126c7565b92915050565b6000610917816109126126ec565b6126fb565b61271082111561095e5760405162461bcd60e51b815260206004820152600d60248201526c313839901e1e9018981818181760991b60448201526064015b60405180910390fd5b61016180546001600160e01b031916600160a01b6001600160401b038516026001600160a01b031916176001600160a01b03851690811790915560408051918252602082018490527fe2497bd806ec41a6e0dd992c29a72efc0ef8fec9092d1978fd4a1e00b2f1830491015b60405180910390a1505050565b6000816060015111610a205760405162461bcd60e51b815260206004820152601260248201527132b732103a34b6b29036bab9ba101f10181760711b6044820152606401610955565b6000610a2a61275f565b90506000610a366126ec565b90506000610a47846000015161277e565b90506000610a598286608001516128c6565b905060008111610aab5760405162461bcd60e51b815260206004820152601960248201527f6c697374696e6720696e76616c6964207175616e746974792e000000000000006044820152606401610955565b610ad67ff94103142c1baabe9ac2b5d1487bf783de9e69cfeea9a72f5c9c94afd7877b8c6000611882565b80610b085750610b087ff94103142c1baabe9ac2b5d1487bf783de9e69cfeea9a72f5c9c94afd7877b8c6104a36126ec565b610b545760405162461bcd60e51b815260206004820152601a60248201527f646f6573206e6f742068617665204c49535445525f524f4c452e0000000000006044820152606401610955565b610b7f7f86d5cf0a6bdc8d859ba3bdc97043337c82a0e609035f378e419298b6a3e00ae66000611882565b80610bb35750610bb37f86d5cf0a6bdc8d859ba3bdc97043337c82a0e609035f378e419298b6a3e00ae68660000151611882565b610bf35760405162461bcd60e51b81526020600482015260116024820152703ab730b8383937bb32b21030b9b9b2ba1760791b6044820152606401610955565b610c08838660000151876020015184866128fd565b600042866040015110610c1f578560400151610c21565b425b90506000604051806101800160405280878152602001866001600160a01b0316815260200188600001516001600160a01b0316815260200188602001518152602001838152602001886060015184610c79919061565b565b81526020018481526020018860a001516001600160a01b031681526020018860c0015181526020018860e001518152602001856001811115610cbd57610cbd615505565b81526020018861010001516001811115610cd957610cd9615505565b9052600087815261016360209081526040918290208351815590830151600180830180546001600160a01b03199081166001600160a01b0394851617909155938501516002840180548616918416919091179055606085015160038401556080850151600484015560a0850151600584015560c0850151600684015560e085015160078401805490951692169190911790925561010083015160088201556101208301516009820155610140830151600a82018054949550859492939192909160ff19909116908381811115610db157610db1615505565b0217905550610160820151600a8201805461ff001916610100836001811115610ddc57610ddc615505565b021790555060019150610dec9050565b8161016001516001811115610e0357610e03615505565b1415610e3f578061010001518161012001511015610e335760405162461bcd60e51b815260040161095590615673565b610e3f85308584612bff565b846001600160a01b031687600001516001600160a01b0316877f0c5bc74ccdf848b38eb526a154b85085e1d61addf1d100cba2074e039c0b634084604051610e8791906156b6565b60405180910390a450505050505050565b600082815260fb6020526040902060010154610eb6816109126126ec565b610ec08383612d55565b505050565b610ecd6126ec565b6001600160a01b0316816001600160a01b031614610f455760405162461bcd60e51b815260206004820152602f60248201527f416363657373436f6e74726f6c3a2063616e206f6e6c792072656e6f756e636560448201526e103937b632b9903337b91039b2b63360891b6064820152608401610955565b610f4f8282612d78565b5050565b60026001541415610f765760405162461bcd60e51b81526004016109559061577f565b60026001819055600083815261016360205260409020015482906001600160a01b0316610fb55760405162461bcd60e51b8152600401610955906157b6565b600083815261016360209081526040808320815161018081018352815481526001808301546001600160a01b039081169583019590955260028301548516938201939093526003820154606082015260048201546080820152600582015460a0820152600682015460c0820152600782015490931660e084015260088101546101008401526009810154610120840152600a810154909161014084019160ff169081111561106557611065615505565b600181111561107657611076615505565b8152602001600a820160019054906101000a900460ff16600181111561109e5761109e615505565b60018111156110af576110af615505565b9052509050600181610160015160018111156110cd576110cd615505565b1461110c5760405162461bcd60e51b815260206004820152600f60248201526e3737ba1030b71030bab1ba34b7b71760891b6044820152606401610955565b600084815261016560209081526040808320815160a0810183528154815260018201546001600160a01b039081169482019490945260028201549281019290925260038101549092166060820152600490910154608080830191909152830151909190421080611187575060208201516001600160a01b0316155b9050801561119d5761119883612d9b565b611252565b428360a00151106112025760405162461bcd60e51b815260206004820152602960248201527f63616e6e6f7420636c6f73652061756374696f6e206265666f7265206974206860448201526830b99032b73232b21760b91b6064820152608401610955565b82602001516001600160a01b0316856001600160a01b0316141561122a5761122a8383612f07565b81602001516001600160a01b0316856001600160a01b03161415611252576112528383613122565b50506001805550505050565b806112676126ec565b600082815261016360205260409020600101546001600160a01b039081169116146112a45760405162461bcd60e51b8152600401610955906157db565b600082815261016360209081526040808320815161018081018352815481526001808301546001600160a01b039081169583019590955260028301548516938201939093526003820154606082015260048201546080820152600582015460a0820152600682015460c0820152600782015490931660e084015260088101546101008401526009810154610120840152600a810154909161014084019160ff169081111561135457611354615505565b600181111561136557611365615505565b8152602001600a820160019054906101000a900460ff16600181111561138d5761138d615505565b600181111561139e5761139e615505565b9052509050600081610160015160018111156113bc576113bc615505565b146113fe5760405162461bcd60e51b81526020600482015260126024820152716e6f7420646972656374206c697374696e6760701b6044820152606401610955565b6000838152610163602090815260408083208381556001810180546001600160a01b0319908116909155600282018054821690556003820185905560048201859055600582018590556006820185905560078201805490911690556008810184905560098101849055600a01805461ffff191690559083015190516001600160a01b039091169185917f58b0852506006c4be6c7ae72afcd195d9e64d7f5d8947905e914b778e47b7cf39190a3505050565b600260015414156114d35760405162461bcd60e51b81526004016109559061577f565b60026001819055600086815261016360205260409020015485906001600160a01b03166115125760405162461bcd60e51b8152600401610955906157b6565b600086815261016360209081526040808320815161018081018352815481526001808301546001600160a01b039081169583019590955260028301548516938201939093526003820154606082015260048201546080820152600582015460a0820152600682015460c0820152600782015490931660e084015260088101546101008401526009810154610120840152600a810154909161014084019160ff16908111156115c2576115c2615505565b60018111156115d3576115d3615505565b8152602001600a820160019054906101000a900460ff1660018111156115fb576115fb615505565b600181111561160c5761160c615505565b9052509050600061161b6126ec565b90508160e001516001600160a01b0316856001600160a01b031614801561165157508582610120015161164e9190615812565b84145b6116995760405162461bcd60e51b8152602060048201526019602482015278696e76616c69642063757272656e6379206f7220707269636560381b6044820152606401610955565b6116bb8282898560e001518a8761012001516116b59190615812565b8b613290565b505060018055505050505050565b600054610100900460ff166116e45760005460ff16156116e8565b303b155b61174b5760405162461bcd60e51b815260206004820152602e60248201527f496e697469616c697a61626c653a20636f6e747261637420697320616c72656160448201526d191e481a5b9a5d1a585b1a5e995960921b6064820152608401610955565b600054610100900460ff1615801561176d576000805461ffff19166101011790555b61177561343b565b61177e8461346c565b61016280546001600160801b0319166901f4000000000000038417905584516117af90610160906020880190614bfb565b5061016180546001600160e01b031916600160a01b6001600160401b038516026001600160a01b031916176001600160a01b0385161790556117f26000876134a7565b61181d7ff94103142c1baabe9ac2b5d1487bf783de9e69cfeea9a72f5c9c94afd7877b8c60006134a7565b6118487f86d5cf0a6bdc8d859ba3bdc97043337c82a0e609035f378e419298b6a3e00ae660006134a7565b801561185a576000805461ff00191690555b505050505050565b600082815261012d6020526040812061187b90836134b1565b9392505050565b600091825260fb602090815260408084206001600160a01b0393909316845291905290205460ff1690565b60006118bb816109126126ec565b6118c86101608484614c7f565b50505050565b6060816001600160401b038111156118e8576118e8614e51565b60405190808252806020026020018201604052801561191b57816020015b60608152602001906001900390816119065790505b50905060005b828110156119bb5761198b3085858481811061193f5761193f615831565b90506020028101906119519190615847565b8080601f0160208091040260200160405190810160405280939291908181526020018383808284376000920191909152506134bd92505050565b82828151811061199d5761199d615831565b602002602001018190525080806119b39061588d565b915050611921565b5092915050565b600260015414156119e55760405162461bcd60e51b81526004016109559061577f565b60026001819055600085815261016360205260409020015484906001600160a01b0316611a245760405162461bcd60e51b8152600401610955906157b6565b600085815261016360209081526040808320815161018081018352815481526001808301546001600160a01b039081169583019590955260028301548516938201939093526003820154606082015260048201546080820152600582015460a0820152600682015460c0820152600782015490931660e084015260088101546101008401526009810154610120840152600a810154909161014084019160ff1690811115611ad457611ad4615505565b6001811115611ae557611ae5615505565b8152602001600a820160019054906101000a900460ff166001811115611b0d57611b0d615505565b6001811115611b1e57611b1e615505565b815250509050428160a00151118015611b3a5750428160800151105b611b7a5760405162461bcd60e51b815260206004820152601160248201527034b730b1ba34bb32903634b9ba34b7339760791b6044820152606401610955565b60006040518060a00160405280888152602001611b956126ec565b6001600160a01b0390811682526020820189905287166040820152606001859052905060018261016001516001811115611bd157611bd1615505565b1415611c135760e08201516001600160a01b0316606082015261014082015160c0830151611bff91906128c6565b6040820152611c0e82826135b1565b611cab565b60008261016001516001811115611c2c57611c2c615505565b1415611cab576001600160a01b03851673eeeeeeeeeeeeeeeeeeeeeeeeeeeeeeeeeeeeeeee14611c5c5784611c7e565b7f00000000000000000000000000000000000000000000000000000000000000005b6001600160a01b03166060820152610140820151611c9c90876128c6565b6040820152611cab828261397a565b5050600180555050505050565b60026001541415611cdb5760405162461bcd60e51b81526004016109559061577f565b600260015583611ce96126ec565b600082815261016360205260409020600101546001600160a01b03908116911614611d265760405162461bcd60e51b8152600401610955906157db565b6000858152610163602052604090206002015485906001600160a01b0316611d605760405162461bcd60e51b8152600401610955906157b6565b600061016460008881526020019081526020016000206000876001600160a01b03166001600160a01b031681526020019081526020016000206040518060a0016040529081600082015481526020016001820160009054906101000a90046001600160a01b03166001600160a01b03166001600160a01b03168152602001600282015481526020016003820160009054906101000a90046001600160a01b03166001600160a01b03166001600160a01b0316815260200160048201548152505090506000610163600089815260200190815260200160002060405180610180016040529081600082015481526020016001820160009054906101000a90046001600160a01b03166001600160a01b03166001600160a01b031681526020016002820160009054906101000a90046001600160a01b03166001600160a01b03166001600160a01b03168152602001600382015481526020016004820154815260200160058201548152602001600682015481526020016007820160009054906101000a90046001600160a01b03166001600160a01b03166001600160a01b031681526020016008820154815260200160098201548152602001600a820160009054906101000a900460ff166001811115611f3b57611f3b615505565b6001811115611f4c57611f4c615505565b8152602001600a820160019054906101000a900460ff166001811115611f7457611f74615505565b6001811115611f8557611f85615505565b81525050905081606001516001600160a01b0316866001600160a01b0316148015611fb35750816080015185145b611ffb5760405162461bcd60e51b8152602060048201526019602482015278696e76616c69642063757272656e6379206f7220707269636560381b6044820152606401610955565b6000888152610164602090815260408083206001600160a01b038b1684529091528082208281556001810180546001600160a01b03199081169091556002820184905560038201805490911690556004019190915560608301519083015160808401516116bb9284928b9283929161207291615812565b8760400151613290565b866120856126ec565b600082815261016360205260409020600101546001600160a01b039081169116146120c25760405162461bcd60e51b8152600401610955906157db565b600088815261016360209081526040808320815161018081018352815481526001808301546001600160a01b039081169583019590955260028301548516938201939093526003820154606082015260048201546080820152600582015460a0820152600682015460c0820152600782015490931660e084015260088101546101008401526009810154610120840152600a810154909161014084019160ff169081111561217257612172615505565b600181111561218357612183615505565b8152602001600a820160019054906101000a900460ff1660018111156121ab576121ab615505565b60018111156121bc576121bc615505565b81525050905060006121d38261014001518a6128c6565b90506000600183610160015160018111156121f0576121f0615505565b149050816122405760405162461bcd60e51b815260206004820152601b60248201527f63616e6e6f742075706461746520746f2030207175616e7469747900000000006044820152606401610955565b80156122b957826080015142106122995760405162461bcd60e51b815260206004820152601860248201527f61756374696f6e20616c726561647920737461727465642e00000000000000006044820152606401610955565b888810156122b95760405162461bcd60e51b815260040161095590615673565b600086156122c757866122cd565b83608001515b90506040518061018001604052808d81526020016122e96126ec565b6001600160a01b0316815260200185604001516001600160a01b0316815260200185606001518152602001828152602001876000146123315761232c888461565b565b612337565b8560a001515b8152602001848152602001896001600160a01b031681526020018b81526020018a8152602001856101400151600181111561237457612374615505565b8152602001856101600151600181111561239057612390615505565b905260008d815261016360209081526040918290208351815590830151600180830180546001600160a01b03199081166001600160a01b0394851617909155938501516002840180548616918416919091179055606085015160038401556080850151600484015560a0850151600584015560c0850151600684015560e085015160078401805490951692169190911790925561010083015160088201556101208301516009820155610140830151600a8201805492939192909160ff1990911690838181111561246357612463615505565b0217905550610160820151600a8201805461ff00191661010083600181111561248e5761248e615505565b0217905550505060c084015183146124ee5781156124ba576124ba3085602001518660c0015187612bff565b6124d8846020015185604001518660600151868861014001516128fd565b81156124ee576124ee8460200151308587612bff565b83602001516001600160a01b03168c7fbbea26162edf2bc6a0255bf144ec4dd044302a301ef7d32daa835a2ddacfdef060405160405180910390a3505050505050505050505050565b600081815261012d602052604081206108fe90613b10565b600082815260fb602052604090206001015461256d816109126126ec565b610ec08383612d78565b6101608054612585906158a8565b80601f01602080910402602001604051908101604052809291908181526020018280546125b1906158a8565b80156125fe5780601f106125d3576101008083540402835291602001916125fe565b820191906000526020600020905b8154815290600101906020018083116125e157829003601f168201915b505050505081565b6000612614816109126126ec565b61271082106126545760405162461bcd60e51b815260206004820152600c60248201526b34b73b30b634b2102128299760a11b6044820152606401610955565b61016280546001600160401b03848116600160401b026001600160801b0319909216908616171790556040517f441ed6470e96704c3f8c9e70c209107078aab3f17311385e886081b91aa75088906109ca9085908590918252602082015260400190565b6001600160a01b03163b151590565b60006001600160e01b03198216635a05180f60e01b14806108fe57506108fe82613b1a565b60006126f6613b4f565b905090565b6127058282611882565b610f4f5761271d816001600160a01b03166014613b79565b612728836020613b79565b6040516020016127399291906158e3565b60408051601f198184030181529082905262461bcd60e51b8252610955916004016155ca565b61015f8054906001906000612774838561565b565b9250508190555090565b6040516301ffc9a760e01b8152636cdb3d1360e11b60048201526000906001600160a01b038316906301ffc9a790602401602060405180830381865afa1580156127cc573d6000803e3d6000fd5b505050506040513d601f19601f820116820180604052508101906127f09190615958565b156127fd57506000919050565b6040516301ffc9a760e01b81526380ac58cd60e01b60048201526001600160a01b038316906301ffc9a790602401602060405180830381865afa158015612848573d6000803e3d6000fd5b505050506040513d601f19601f8201168201806040525081019061286c9190615958565b1561287957506001919050565b60405162461bcd60e51b815260206004820181905260248201527f746f6b656e206d7573742062652045524331313535206f72204552433732312e6044820152606401610955565b919050565b6000816128d5575060006108fe565b60018360018111156128e9576128e9615505565b146128f4578161187b565b50600192915050565b3060008083600181111561291357612913615505565b1415612a0d57604051627eeac760e11b81526001600160a01b0388811660048301526024820187905285919088169062fdd58e90604401602060405180830381865afa158015612967573d6000803e3d6000fd5b505050506040513d601f19601f8201168201806040525081019061298b919061597a565b10158015612a06575060405163e985e9c560e01b81526001600160a01b038881166004830152838116602483015287169063e985e9c590604401602060405180830381865afa1580156129e2573d6000803e3d6000fd5b505050506040513d601f19601f82011682018060405250810190612a069190615958565b9050612b99565b6001836001811115612a2157612a21615505565b1415612b99576040516331a9108f60e11b8152600481018690526001600160a01b038089169190881690636352211e90602401602060405180830381865afa158015612a71573d6000803e3d6000fd5b505050506040513d601f19601f82011682018060405250810190612a959190615993565b6001600160a01b0316148015612b96575060405163020604bf60e21b8152600481018690526001600160a01b03808416919088169063081812fc90602401602060405180830381865afa158015612af0573d6000803e3d6000fd5b505050506040513d601f19601f82011682018060405250810190612b149190615993565b6001600160a01b03161480612b96575060405163e985e9c560e01b81526001600160a01b038881166004830152838116602483015287169063e985e9c590604401602060405180830381865afa158015612b72573d6000803e3d6000fd5b505050506040513d601f19601f82011682018060405250810190612b969190615958565b90505b80612bf65760405162461bcd60e51b815260206004820152602760248201527f696e73756666696369656e7420746f6b656e2062616c616e6365206f72206170604482015266383937bb30b61760c91b6064820152608401610955565b50505050505050565b60008161014001516001811115612c1857612c18615505565b1415612cad5760408082015160608301519151637921219560e11b81526001600160a01b038781166004830152868116602483015260448201939093526064810185905260a06084820152600060a482015291169063f242432a9060c401600060405180830381600087803b158015612c9057600080fd5b505af1158015612ca4573d6000803e3d6000fd5b505050506118c8565b60018161014001516001811115612cc657612cc6615505565b14156118c85760408082015160608301519151635c46a7ef60e11b81526001600160a01b03878116600483015286811660248301526044820193909352608060648201526000608482015291169063b88d4fde9060a401600060405180830381600087803b158015612d3757600080fd5b505af1158015612d4b573d6000803e3d6000fd5b5050505050505050565b612d5f8282613d14565b600082815261012d60205260409020610ec09082613d9b565b612d828282613db0565b600082815261012d60205260409020610ec09082613e35565b612da36126ec565b8151600090815261016360205260409020600101546001600160a01b03908116911614612e1d5760405162461bcd60e51b815260206004820152602260248201527f63616c6c6572206973206e6f7420746865206c697374696e672063726561746f604482015261391760f11b6064820152608401610955565b805160009081526101636020908152604082208281556001810180546001600160a01b031990811690915560028201805482169055600382018490556004820184905560058201849055600682018490556007820180549091169055600881018390556009810192909255600a909101805461ffff1916905581015160c0820151612eaa91309184612bff565b6001612eb46126ec565b8251602080850151604080516001600160a01b0392831681526000938101939093529316927f572cdc5ca5e918473319d0f4737494e4709ac879a7d0bcd11ce1bef24b24e81d910160405180910390a450565b60008260c001518260800151612f1d9190615812565b600060c085018181524260a087019081528651835261016360209081526040938490208851815590880151600180830180546001600160a01b039384166001600160a01b031991821617909155958a015160028401805491841691881691909117905560608a0151600384015560808a01516004840155925160058301559251600682015560e08801516007820180549190941694169390931790915561010086015160088301556101208601516009830155610140860151600a8301805494955087949192909160ff1916908381811115612ffb57612ffb615505565b0217905550610160820151600a8201805461ff00191661010083600181111561302657613026615505565b02179055505060006080840181815285518252610165602090815260409283902086518155818701516001820180546001600160a01b03199081166001600160a01b03938416179091559488015160028301556060880151600383018054909616911617909355905160049092019190915584015160e08501516130af92503091908487613e4a565b60006130b96126ec565b6001600160a01b031684600001517f572cdc5ca5e918473319d0f4737494e4709ac879a7d0bcd11ce1bef24b24e81d866020015186602001516040516131159291906001600160a01b0392831681529116602082015260400190565b60405180910390a4505050565b604081810180514260a0860190815260008084528651815261016560209081528582208751815581880151600180830180546001600160a01b03199081166001600160a01b039485161790915597516002808501919091556060808c0151600380870180548d16928716929092179091556080808e01516004978801558e5189526101638852978c90208e518155968e015187850180548d169187169190911790559a8d015191860180548b16928516929092179091558b01519884019890985592890151908201559151600583015560c0870151600683015560e087015160078301805490951691161790925561010085015160088301556101208501516009830155610140850151600a83018054929487949360ff191690838181111561324d5761324d615505565b0217905550610160820151600a8201805461ff00191661010083600181111561327857613278615505565b02179055509050506130af3083602001518386612bff565b61329d86868386866140c6565b808660c0018181516132af91906159b0565b9052508551600090815261016360209081526040918290208851815590880151600180830180546001600160a01b03199081166001600160a01b0394851617909155938a0151600284018054861691841691909117905560608a0151600384015560808a0151600484015560a08a0151600584015560c08a0151600684015560e08a015160078401805490951692169190911790925561010088015160088201556101208801516009820155610140880151600a820180548a9460ff1990911690838181111561338157613381615505565b0217905550610160820151600a8201805461ff0019166101008360018111156133ac576133ac615505565b02179055509050506133c585876020015185858a613e4a565b6133d58660200151858389612bff565b602080870151604080890151895182516001600160a01b038a81168252958101879052928301879052928416931691907f306e6cde5eb293794d557a3a6c844de939e6206b05e6910451c512852bf654a5906060015b60405180910390a4505050505050565b600054610100900460ff166134625760405162461bcd60e51b8152600401610955906159c7565b61346a61429c565b565b600054610100900460ff166134935760405162461bcd60e51b8152600401610955906159c7565b61349b6142c9565b6134a4816142f0565b50565b610f4f8282612d55565b600061187b838361437f565b60606001600160a01b0383163b6135255760405162461bcd60e51b815260206004820152602660248201527f416464726573733a2064656c65676174652063616c6c20746f206e6f6e2d636f6044820152651b9d1c9858dd60d21b6064820152608401610955565b600080846001600160a01b0316846040516135409190615a12565b600060405180830381855af49150503d806000811461357b576040519150601f19603f3d011682016040523d82523d6000602084013e613580565b606091505b50915091506135a88282604051806060016040528060278152602001615aac602791396143a9565b95945050505050565b8151600090815261016560209081526040808320815160a0810183528154815260018201546001600160a01b039081169482019490945260028201549281018390526003820154909316606084015260040154608083018190529192916136189190615812565b90506000836040015184608001516136309190615812565b6101208601519091507f0000000000000000000000000000000000000000000000000000000000000000901580159061367d57508560c001518661012001516136799190615812565b8210155b156136915761368c8686613122565b6138d6565b6136b08660c001518761010001516136a99190615812565b84846143e2565b6136ef5760405162461bcd60e51b815260206004820152601060248201526f3737ba103bb4b73734b733903134b21760811b6044820152606401610955565b85516000908152610165602090815260409182902087518155908701516001820180546001600160a01b03199081166001600160a01b0393841617909155928801516002830155606088015160038301805490941691161790915560808601516004909101556101625460a08701516001600160401b03909116906137759042906159b0565b116138a0576101625460a0870180516001600160401b039092169161379b90839061565b565b9052508551600090815261016360209081526040918290208851815590880151600180830180546001600160a01b03199081166001600160a01b0394851617909155938a0151600284018054861691841691909117905560608a0151600384015560808a0151600484015560a08a0151600584015560c08a0151600684015560e08a015160078401805490951692169190911790925561010088015160088201556101208801516009820155610140880151600a820180548a9460ff1990911690838181111561386d5761386d615505565b0217905550610160820151600a8201805461ff00191661010083600181111561389857613898615505565b021790555050505b60208401516001600160a01b0316158015906138bc5750600083115b156138d6576138d68660e00151308660200151868561443e565b6138eb8660e00151866020015130858561443e565b856101600151600181111561390257613902615505565b85602001516001600160a01b031687600001517f8a412352601a288b3de40254a9de2ab14a497aa3638a7e558480680a56e2705d886040015189604001518a6080015161394f9190615812565b6060808c01516040805194855260208501939093526001600160a01b0316918301919091520161342b565b8160c00151816040015111158015613996575060008260c00151115b6139e25760405162461bcd60e51b815260206004820152601f60248201527f696e73756666696369656e7420746f6b656e7320696e206c697374696e672e006044820152606401610955565b613a088160200151826060015183604001518460800151613a039190615812565b6145ae565b815160009081526101646020908152604080832082850180516001600160a01b0390811686529190935292819020845181559151600180840180549286166001600160a01b0319938416179055918501516002840155606085015160038401805491909516911617909255608083015160049091015561016083015190811115613a9457613a94615505565b81602001516001600160a01b031683600001517f8a412352601a288b3de40254a9de2ab14a497aa3638a7e558480680a56e2705d846040015185604001518660800151613ae19190615812565b6060878101516040805194855260208501939093526001600160a01b0316838301529051918290030190a45050565b60006108fe825490565b60006001600160e01b03198216637965db0b60e01b14806108fe57506301ffc9a760e01b6001600160e01b03198316146108fe565b3360009081526065602052604081205460ff1615613b74575060131936013560601c90565b503390565b60606000613b88836002615812565b613b9390600261565b565b6001600160401b03811115613baa57613baa614e51565b6040519080825280601f01601f191660200182016040528015613bd4576020820181803683370190505b509050600360fc1b81600081518110613bef57613bef615831565b60200101906001600160f81b031916908160001a905350600f60fb1b81600181518110613c1e57613c1e615831565b60200101906001600160f81b031916908160001a9053506000613c42846002615812565b613c4d90600161565b565b90505b6001811115613cc5576f181899199a1a9b1b9c1cb0b131b232b360811b85600f1660108110613c8157613c81615831565b1a60f81b828281518110613c9757613c97615831565b60200101906001600160f81b031916908160001a90535060049490941c93613cbe81615a2e565b9050613c50565b50831561187b5760405162461bcd60e51b815260206004820181905260248201527f537472696e67733a20686578206c656e67746820696e73756666696369656e746044820152606401610955565b613d1e8282611882565b610f4f57600082815260fb602090815260408083206001600160a01b03851684529091529020805460ff19166001179055613d576126ec565b6001600160a01b0316816001600160a01b0316837f2f8788117e7eff1d82e926ec794901d17c78024a50270940304540a733656f0d60405160405180910390a45050565b600061187b836001600160a01b0384166146f1565b613dba8282611882565b15610f4f57600082815260fb602090815260408083206001600160a01b03851684529091529020805460ff19169055613df16126ec565b6001600160a01b0316816001600160a01b0316837ff6391f5c32d9c69d2a47ea670b442974b53935d1edc7fd64eb21e047a839171b60405160405180910390a45050565b600061187b836001600160a01b038416614740565b6101615460009061271090613e6f90600160a01b90046001600160401b031685615812565b613e799190615a45565b60405163085b49ad60e41b81523060048201526001602482015290915060009081906001600160a01b037f000000000000000000000000000000000000000000000000000000000000000016906385b49ad0906044016040805180830381865afa158015613eeb573d6000803e3d6000fd5b505050506040513d601f19601f82011682018060405250810190613f0f9190615a67565b90925090506000612710613f238388615812565b613f2d9190615a45565b905060008086604001516001600160a01b0316632a55205a88606001518a6040518363ffffffff1660e01b8152600401613f71929190918252602082015260400190565b6040805180830381865afa925050508015613fa9575060408051601f3d908101601f19168201909252613fa691810190615a67565b60015b613fb257614035565b6001600160a01b03821615801590613fca5750600081115b15614032578985613fdb8a8461565b565b613fe5919061565b565b111561402b5760405162461bcd60e51b815260206004820152601560248201527466656573206578636565642074686520707269636560581b6044820152606401610955565b8192508093505b50505b610161547f000000000000000000000000000000000000000000000000000000000000000090614073908b908e906001600160a01b03168a8561443e565b6140808a8d84868561443e565b61408d8a8d88878561443e565b6140b88a8d8d8761409e888d61565b565b6140a8919061565b565b6140b2908e6159b0565b8561443e565b505050505050505050505050565b600085610160015160018111156140df576140df615505565b1461412c5760405162461bcd60e51b815260206004820152601860248201527f63616e6e6f74206275792066726f6d206c697374696e672e00000000000000006044820152606401610955565b60008560c001511180156141405750600083115b801561415057508460c001518311155b61419c5760405162461bcd60e51b815260206004820152601960248201527f696e76616c696420616d6f756e74206f6620746f6b656e732e000000000000006044820152606401610955565b8460a00151421080156141b25750846080015142115b6141fe5760405162461bcd60e51b815260206004820152601760248201527f6e6f742077697468696e2073616c652077696e646f772e0000000000000000006044820152606401610955565b6001600160a01b03821673eeeeeeeeeeeeeeeeeeeeeeeeeeeeeeeeeeeeeeee141561426c578034146142675760405162461bcd60e51b81526020600482015260126024820152716d73672e76616c756520213d20707269636560701b6044820152606401610955565b614277565b6142778483836145ae565b614295856020015186604001518760600151868961014001516128fd565b5050505050565b600054610100900460ff166142c35760405162461bcd60e51b8152600401610955906159c7565b60018055565b600054610100900460ff1661346a5760405162461bcd60e51b8152600401610955906159c7565b600054610100900460ff166143175760405162461bcd60e51b8152600401610955906159c7565b60005b8151811015610f4f5760016065600084848151811061433b5761433b615831565b6020908102919091018101516001600160a01b03168252810191909152604001600020805460ff1916911515919091179055806143778161588d565b91505061431a565b600082600001828154811061439657614396615831565b9060005260206000200154905092915050565b606083156143b857508161187b565b8251156143c85782518084602001fd5b8160405162461bcd60e51b815260040161095591906155ca565b6000826143f357508281101561187b565b8282118015614436575061016254600160401b90046001600160401b03168361271061441f82866159b0565b6144299190615812565b6144339190615a45565b10155b949350505050565b8161444857614295565b6001600160a01b03851673eeeeeeeeeeeeeeeeeeeeeeeeeeeeeeeeeeeeeeee14156145a2576001600160a01b0384163014156144e857604051632e1a7d4d60e01b8152600481018390526001600160a01b03821690632e1a7d4d90602401600060405180830381600087803b1580156144c057600080fd5b505af11580156144d4573d6000803e3d6000fd5b505050506144e3838383614833565b614295565b6001600160a01b0383163014156145975734821461453e5760405162461bcd60e51b81526020600482015260136024820152721b5cd9cb9d985b1d5948084f48185b5bdd5b9d606a1b6044820152606401610955565b806001600160a01b031663d0e30db0836040518263ffffffff1660e01b81526004016000604051808303818588803b15801561457957600080fd5b505af115801561458d573d6000803e3d6000fd5b5050505050614295565b6144e3838383614833565b61429585858585614994565b6040516370a0823160e01b81526001600160a01b0384811660048301528291908416906370a0823190602401602060405180830381865afa1580156145f7573d6000803e3d6000fd5b505050506040513d601f19601f8201168201806040525081019061461b919061597a565b1015801561469a5750604051636eb1769f60e11b81526001600160a01b03848116600483015230602483015282919084169063dd62ed3e90604401602060405180830381865afa158015614673573d6000803e3d6000fd5b505050506040513d601f19601f82011682018060405250810190614697919061597a565b10155b610ec05760405162461bcd60e51b815260206004820152602260248201527f696e73756666696369656e742062616c616e6365206f7220616c6c6f77616e63604482015261329760f11b6064820152608401610955565b6000818152600183016020526040812054614738575081546001818101845560008481526020808220909301849055845484825282860190935260409020919091556108fe565b5060006108fe565b600081815260018301602052604081205480156148295760006147646001836159b0565b8554909150600090614778906001906159b0565b90508181146147dd57600086600001828154811061479857614798615831565b90600052602060002001549050808760000184815481106147bb576147bb615831565b6000918252602080832090910192909255918252600188019052604090208390555b85548690806147ee576147ee615a95565b6001900381819060005260206000200160009055905585600101600086815260200190815260200160002060009055600193505050506108fe565b60009150506108fe565b6000836001600160a01b03168360405160006040518083038185875af1925050503d8060008114614880576040519150601f19603f3d011682016040523d82523d6000602084013e614885565b606091505b50509050806118c857816001600160a01b031663d0e30db0846040518263ffffffff1660e01b81526004016000604051808303818588803b1580156148c957600080fd5b505af11580156148dd573d6000803e3d6000fd5b505060405163a9059cbb60e01b81526001600160a01b038881166004830152602482018890528616935063a9059cbb925060440190506020604051808303816000875af1158015614932573d6000803e3d6000fd5b505050506040513d601f19601f820116820180604052508101906149569190615958565b6118c85760405162461bcd60e51b815260206004820152600f60248201526e1d1c985b9cd9995c8819985a5b1959608a1b6044820152606401610955565b816001600160a01b0316836001600160a01b031614156149b3576118c8565b6040516370a0823160e01b81526001600160a01b038381166004830152600091908616906370a0823190602401602060405180830381865afa1580156149fd573d6000803e3d6000fd5b505050506040513d601f19601f82011682018060405250810190614a21919061597a565b905060006001600160a01b0385163014614ab5576040516323b872dd60e01b81526001600160a01b0386811660048301528581166024830152604482018590528716906323b872dd906064016020604051808303816000875af1158015614a8c573d6000803e3d6000fd5b505050506040513d601f19601f82011682018060405250810190614ab09190615958565b614b28565b60405163a9059cbb60e01b81526001600160a01b0385811660048301526024820185905287169063a9059cbb906044016020604051808303816000875af1158015614b04573d6000803e3d6000fd5b505050506040513d601f19601f82011682018060405250810190614b289190615958565b6040516370a0823160e01b81526001600160a01b0386811660048301529192506000918816906370a0823190602401602060405180830381865afa158015614b74573d6000803e3d6000fd5b505050506040513d601f19601f82011682018060405250810190614b98919061597a565b9050818015614baf5750614bac848461565b565b81145b612bf65760405162461bcd60e51b815260206004820152601960248201527f63757272656e6379207472616e73666572206661696c65642e000000000000006044820152606401610955565b828054614c07906158a8565b90600052602060002090601f016020900481019282614c295760008555614c6f565b82601f10614c4257805160ff1916838001178555614c6f565b82800160010185558215614c6f579182015b82811115614c6f578251825591602001919060010190614c54565b50614c7b929150614cf3565b5090565b828054614c8b906158a8565b90600052602060002090601f016020900481019282614cad5760008555614c6f565b82601f10614cc65782800160ff19823516178555614c6f565b82800160010185558215614c6f579182015b82811115614c6f578235825591602001919060010190614cd8565b5b80821115614c7b5760008155600101614cf4565b600060208284031215614d1a57600080fd5b81356001600160e01b03198116811461187b57600080fd5b6001600160a01b03811681146134a457600080fd5b80356128c181614d32565b60008083601f840112614d6457600080fd5b5081356001600160401b03811115614d7b57600080fd5b602083019150836020828501011115614d9357600080fd5b9250929050565b600080600080600060808688031215614db257600080fd5b8535614dbd81614d32565b94506020860135614dcd81614d32565b93506040860135925060608601356001600160401b03811115614def57600080fd5b614dfb88828901614d52565b969995985093965092949392505050565b60008060408385031215614e1f57600080fd5b8235614e2a81614d32565b946020939093013593505050565b600060208284031215614e4a57600080fd5b5035919050565b634e487b7160e01b600052604160045260246000fd5b60405161012081016001600160401b0381118282101715614e8a57614e8a614e51565b60405290565b604051601f8201601f191681016001600160401b0381118282101715614eb857614eb8614e51565b604052919050565b8035600281106128c157600080fd5b60006101208284031215614ee257600080fd5b614eea614e67565b614ef383614d47565b815260208301356020820152604083013560408201526060830135606082015260808301356080820152614f2960a08401614d47565b60a082015260c083013560c082015260e083013560e0820152610100614f50818501614ec0565b908201529392505050565b60008060408385031215614f6e57600080fd5b823591506020830135614f8081614d32565b809150509250929050565b600060208284031215614f9d57600080fd5b813561187b81614d32565b600080600080600060a08688031215614fc057600080fd5b853594506020860135614fd281614d32565b9350604086013592506060860135614fe981614d32565b949793965091946080013592915050565b60006001600160401b0383111561501357615013614e51565b615026601f8401601f1916602001614e90565b905082815283838301111561503a57600080fd5b828260208301376000602084830101529392505050565b60006001600160401b0382111561506a5761506a614e51565b5060051b60200190565b600080600080600060a0868803121561508c57600080fd5b853561509781614d32565b94506020868101356001600160401b03808211156150b457600080fd5b818901915089601f8301126150c857600080fd5b6150d68a8335858501614ffa565b965060408901359150808211156150ec57600080fd5b508701601f810189136150fe57600080fd5b803561511161510c82615051565b614e90565b81815260059190911b8201830190838101908b83111561513057600080fd5b928401925b8284101561515757833561514881614d32565b82529284019290840190615135565b8097505050505050614fe960608701614d47565b6000806040838503121561517e57600080fd5b50508035926020909101359150565b600080602083850312156151a057600080fd5b82356001600160401b038111156151b657600080fd5b6151c285828601614d52565b90969095509350505050565b600080602083850312156151e157600080fd5b82356001600160401b03808211156151f857600080fd5b818501915085601f83011261520c57600080fd5b81358181111561521b57600080fd5b8660208260051b850101111561523057600080fd5b60209290920196919550909350505050565b60005b8381101561525d578181015183820152602001615245565b838111156118c85750506000910152565b60008151808452615286816020860160208601615242565b601f01601f19169290920160200192915050565b6000602080830181845280855180835260408601915060408160051b870101925083870160005b828110156152ef57603f198886030184526152dd85835161526e565b945092850192908501906001016152c1565b5092979650505050505050565b6000806000806080858703121561531257600080fd5b8435935060208501359250604085013561532b81614d32565b9396929550929360600135925050565b6000806000806080858703121561535157600080fd5b84359350602085013561536381614d32565b9250604085013561532b81614d32565b600082601f83011261538457600080fd5b8135602061539461510c83615051565b82815260059290921b840181019181810190868411156153b357600080fd5b8286015b848110156153ce57803583529183019183016153b7565b509695505050505050565b600082601f8301126153ea57600080fd5b61187b83833560208501614ffa565b600080600080600060a0868803121561541157600080fd5b853561541c81614d32565b9450602086013561542c81614d32565b935060408601356001600160401b038082111561544857600080fd5b61545489838a01615373565b9450606088013591508082111561546a57600080fd5b61547689838a01615373565b9350608088013591508082111561548c57600080fd5b50615499888289016153d9565b9150509295509295909350565b600080600080600080600060e0888a0312156154c157600080fd5b8735965060208801359550604088013594506060880135935060808801356154e881614d32565b9699959850939692959460a0840135945060c09093013592915050565b634e487b7160e01b600052602160045260246000fd5b600281106134a457634e487b7160e01b600052602160045260246000fd5b6155428161551b565b9052565b8c81526001600160a01b038c811660208301528b81166040830152606082018b9052608082018a905260a0820189905260c08201889052861660e08201526101008101859052610120810184905261018081016155a28461551b565b836101408301526155b28361551b565b826101608301529d9c50505050505050505050505050565b60208152600061187b602083018461526e565b600080600080600060a086880312156155f557600080fd5b853561560081614d32565b9450602086013561561081614d32565b9350604086013592506060860135915060808601356001600160401b0381111561563957600080fd5b615499888289016153d9565b634e487b7160e01b600052601160045260246000fd5b6000821982111561566e5761566e615645565b500190565b60208082526023908201527f726573657276652070726963652065786365656473206275796f75742070726960408201526231b29760e91b606082015260800190565b815181526020808301516101808301916156da908401826001600160a01b03169052565b5060408301516156f560408401826001600160a01b03169052565b50606083015160608301526080830151608083015260a083015160a083015260c083015160c083015260e083015161573860e08401826001600160a01b03169052565b50610100838101519083015261012080840151908301526101408084015161576282850182615539565b50506101608084015161577782850182615539565b505092915050565b6020808252601f908201527f5265656e7472616e637947756172643a207265656e7472616e742063616c6c00604082015260600190565b6020808252600b908201526a6c697374696e6720444e4560a81b604082015260600190565b60208082526017908201527f63616c6c657220213d206c697374696e67206f776e6572000000000000000000604082015260600190565b600081600019048311821515161561582c5761582c615645565b500290565b634e487b7160e01b600052603260045260246000fd5b6000808335601e1984360301811261585e57600080fd5b8301803591506001600160401b0382111561587857600080fd5b602001915036819003821315614d9357600080fd5b60006000198214156158a1576158a1615645565b5060010190565b600181811c908216806158bc57607f821691505b602082108114156158dd57634e487b7160e01b600052602260045260246000fd5b50919050565b7f416363657373436f6e74726f6c3a206163636f756e742000000000000000000081526000835161591b816017850160208801615242565b7001034b99036b4b9b9b4b733903937b6329607d1b601791840191820152835161594c816028840160208801615242565b01602801949350505050565b60006020828403121561596a57600080fd5b8151801515811461187b57600080fd5b60006020828403121561598c57600080fd5b5051919050565b6000602082840312156159a557600080fd5b815161187b81614d32565b6000828210156159c2576159c2615645565b500390565b6020808252602b908201527f496e697469616c697a61626c653a20636f6e7472616374206973206e6f74206960408201526a6e697469616c697a696e6760a81b606082015260800190565b60008251615a24818460208701615242565b9190910192915050565b600081615a3d57615a3d615645565b506000190190565b600082615a6257634e487b7160e01b600052601260045260246000fd5b500490565b60008060408385031215615a7a57600080fd5b8251615a8581614d32565b6020939093015192949293505050565b634e487b7160e01b600052603160045260246000fdfe416464726573733a206c6f772d6c6576656c2064656c65676174652063616c6c206661696c6564a26469706673582212201f4ea9a71c72fef6d2e3ee2fd280b5543fd9344a91236975d8a837263e36e76064736f6c634300080b0033",
			"opcodes": "PUSH1 0xC0 PUSH1 0x40 MSTORE CALLVALUE DUP1 ISZERO PUSH3 0x11 JUMPI PUSH1 0x0 DUP1 REVERT JUMPDEST POP PUSH1 0x40 MLOAD PUSH3 0x5CDA CODESIZE SUB DUP1 PUSH3 0x5CDA DUP4 CODECOPY DUP2 ADD PUSH1 0x40 DUP2 SWAP1 MSTORE PUSH3 0x34 SWAP2 PUSH3 0x15F JUMP JUMPDEST PUSH1 0x0 SLOAD PUSH2 0x100 SWAP1 DIV PUSH1 0xFF AND PUSH3 0x51 JUMPI PUSH1 0x0 SLOAD PUSH1 0xFF AND ISZERO PUSH3 0x5B JUMP JUMPDEST PUSH3 0x5B PUSH3 0x115 JUMP JUMPDEST PUSH3 0xC3 JUMPI PUSH1 0x40 MLOAD PUSH3 0x461BCD PUSH1 0xE5 SHL DUP2 MSTORE PUSH1 0x20 PUSH1 0x4 DUP3 ADD MSTORE PUSH1 0x2E PUSH1 0x24 DUP3 ADD MSTORE PUSH32 0x496E697469616C697A61626C653A20636F6E747261637420697320616C726561 PUSH1 0x44 DUP3 ADD MSTORE PUSH14 0x191E481A5B9A5D1A585B1A5E9959 PUSH1 0x92 SHL PUSH1 0x64 DUP3 ADD MSTORE PUSH1 0x84 ADD PUSH1 0x40 MLOAD DUP1 SWAP2 SUB SWAP1 REVERT JUMPDEST PUSH1 0x0 SLOAD PUSH2 0x100 SWAP1 DIV PUSH1 0xFF AND ISZERO DUP1 ISZERO PUSH3 0xE6 JUMPI PUSH1 0x0 DUP1 SLOAD PUSH2 0xFFFF NOT AND PUSH2 0x101 OR SWAP1 SSTORE JUMPDEST PUSH1 0x1 PUSH1 0x1 PUSH1 0xA0 SHL SUB DUP1 DUP4 AND PUSH1 0xA0 MSTORE DUP4 AND PUSH1 0x80 MSTORE DUP1 ISZERO PUSH3 0x10C JUMPI PUSH1 0x0 DUP1 SLOAD PUSH2 0xFF00 NOT AND SWAP1 SSTORE JUMPDEST POP POP POP PUSH3 0x197 JUMP JUMPDEST PUSH1 0x0 PUSH3 0x12D ADDRESS PUSH3 0x133 PUSH1 0x20 SHL PUSH3 0x26B8 OR PUSH1 0x20 SHR JUMP JUMPDEST ISZERO SWAP1 POP SWAP1 JUMP JUMPDEST PUSH1 0x1 PUSH1 0x1 PUSH1 0xA0 SHL SUB AND EXTCODESIZE ISZERO ISZERO SWAP1 JUMP JUMPDEST DUP1 MLOAD PUSH1 0x1 PUSH1 0x1 PUSH1 0xA0 SHL SUB DUP2 AND DUP2 EQ PUSH3 0x15A JUMPI PUSH1 0x0 DUP1 REVERT JUMPDEST SWAP2 SWAP1 POP JUMP JUMPDEST PUSH1 0x0 DUP1 PUSH1 0x40 DUP4 DUP6 SUB SLT ISZERO PUSH3 0x173 JUMPI PUSH1 0x0 DUP1 REVERT JUMPDEST PUSH3 0x17E DUP4 PUSH3 0x142 JUMP JUMPDEST SWAP2 POP PUSH3 0x18E PUSH1 0x20 DUP5 ADD PUSH3 0x142 JUMP JUMPDEST SWAP1 POP SWAP3 POP SWAP3 SWAP1 POP JUMP JUMPDEST PUSH1 0x80 MLOAD PUSH1 0xA0 MLOAD PUSH2 0x5B08 PUSH3 0x1D2 PUSH1 0x0 CODECOPY PUSH1 0x0 DUP2 DUP2 PUSH2 0x60F ADD MSTORE PUSH2 0x3EA5 ADD MSTORE PUSH1 0x0 DUP2 DUP2 PUSH2 0x1C5E ADD MSTORE DUP2 DUP2 PUSH2 0x363B ADD MSTORE PUSH2 0x403B ADD MSTORE PUSH2 0x5B08 PUSH1 0x0 RETURN INVALID PUSH1 0x80 PUSH1 0x40 MSTORE PUSH1 0x4 CALLDATASIZE LT PUSH2 0x21E JUMPI PUSH1 0x0 CALLDATALOAD PUSH1 0xE0 SHR DUP1 PUSH4 0xAC9650D8 GT PUSH2 0x123 JUMPI DUP1 PUSH4 0xD45573F6 GT PUSH2 0xAB JUMPI DUP1 PUSH4 0xEA0E0241 GT PUSH2 0x6F JUMPI DUP1 PUSH4 0xEA0E0241 EQ PUSH2 0x7DA JUMPI DUP1 PUSH4 0xEBDFBCE5 EQ PUSH2 0x7FA JUMPI DUP1 PUSH4 0xEC91F2A4 EQ PUSH2 0x85B JUMPI DUP1 PUSH4 0xF23A6E61 EQ PUSH2 0x87C JUMPI DUP1 PUSH4 0xFD967F47 EQ PUSH2 0x8A8 JUMPI PUSH1 0x0 DUP1 REVERT JUMPDEST DUP1 PUSH4 0xD45573F6 EQ PUSH2 0x631 JUMPI DUP1 PUSH4 0xD4AC9B8C EQ PUSH2 0x669 JUMPI DUP1 PUSH4 0xD547741F EQ PUSH2 0x6F1 JUMPI DUP1 PUSH4 0xDE74E57B EQ PUSH2 0x711 JUMPI DUP1 PUSH4 0xE8A3D485 EQ PUSH2 0x7B8 JUMPI PUSH1 0x0 DUP1 REVERT JUMPDEST DUP1 PUSH4 0xC4B5B15F GT PUSH2 0xF2 JUMPI DUP1 PUSH4 0xC4B5B15F EQ PUSH2 0x585 JUMPI DUP1 PUSH4 0xC78B616C EQ PUSH2 0x5A5 JUMPI DUP1 PUSH4 0xCA15C873 EQ PUSH2 0x5BC JUMPI DUP1 PUSH4 0xCB2EF6F7 EQ PUSH2 0x5DC JUMPI DUP1 PUSH4 0xCF8267B1 EQ PUSH2 0x5FD JUMPI PUSH1 0x0 DUP1 REVERT JUMPDEST DUP1 PUSH4 0xAC9650D8 EQ PUSH2 0x4F9 JUMPI DUP1 PUSH4 0xACB1BA67 EQ PUSH2 0x526 JUMPI DUP1 PUSH4 0xB13C0E63 EQ PUSH2 0x539 JUMPI DUP1 PUSH4 0xBC197C81 EQ PUSH2 0x559 JUMPI PUSH1 0x0 DUP1 REVERT JUMPDEST DUP1 PUSH4 0x6BAB66AE GT PUSH2 0x1A6 JUMPI DUP1 PUSH4 0x9010D07C GT PUSH2 0x175 JUMPI DUP1 PUSH4 0x9010D07C EQ PUSH2 0x450 JUMPI DUP1 PUSH4 0x91D14854 EQ PUSH2 0x488 JUMPI DUP1 PUSH4 0x938E3D7B EQ PUSH2 0x4A8 JUMPI DUP1 PUSH4 0xA0A8E460 EQ PUSH2 0x4C8 JUMPI DUP1 PUSH4 0xA217FDDF EQ PUSH2 0x4E4 JUMPI PUSH1 0x0 DUP1 REVERT JUMPDEST DUP1 PUSH4 0x6BAB66AE EQ PUSH2 0x3DD JUMPI DUP1 PUSH4 0x7506C84A EQ PUSH2 0x3FD JUMPI DUP1 PUSH4 0x7687AB02 EQ PUSH2 0x41D JUMPI DUP1 PUSH4 0x8C8A84E2 EQ PUSH2 0x430 JUMPI PUSH1 0x0 DUP1 REVERT JUMPDEST DUP1 PUSH4 0x296F4E16 GT PUSH2 0x1ED JUMPI DUP1 PUSH4 0x296F4E16 EQ PUSH2 0x304 JUMPI DUP1 PUSH4 0x2F2FF15D EQ PUSH2 0x324 JUMPI DUP1 PUSH4 0x36568ABE EQ PUSH2 0x344 JUMPI DUP1 PUSH4 0x4E03F28D EQ PUSH2 0x364 JUMPI DUP1 PUSH4 0x572B6C05 EQ PUSH2 0x3A4 JUMPI PUSH1 0x0 DUP1 REVERT JUMPDEST DUP1 PUSH4 0x1FFC9A7 EQ PUSH2 0x22A JUMPI DUP1 PUSH4 0x150B7A02 EQ PUSH2 0x25F JUMPI DUP1 PUSH4 0x1E7AC488 EQ PUSH2 0x2A4 JUMPI DUP1 PUSH4 0x248A9CA3 EQ PUSH2 0x2C6 JUMPI PUSH1 0x0 DUP1 REVERT JUMPDEST CALLDATASIZE PUSH2 0x225 JUMPI STOP JUMPDEST PUSH1 0x0 DUP1 REVERT JUMPDEST CALLVALUE DUP1 ISZERO PUSH2 0x236 JUMPI PUSH1 0x0 DUP1 REVERT JUMPDEST POP PUSH2 0x24A PUSH2 0x245 CALLDATASIZE PUSH1 0x4 PUSH2 0x4D08 JUMP JUMPDEST PUSH2 0x8BE JUMP JUMPDEST PUSH1 0x40 MLOAD SWAP1 ISZERO ISZERO DUP2 MSTORE PUSH1 0x20 ADD JUMPDEST PUSH1 0x40 MLOAD DUP1 SWAP2 SUB SWAP1 RETURN JUMPDEST CALLVALUE DUP1 ISZERO PUSH2 0x26B JUMPI PUSH1 0x0 DUP1 REVERT JUMPDEST POP PUSH2 0x28B PUSH2 0x27A CALLDATASIZE PUSH1 0x4 PUSH2 0x4D9A JUMP JUMPDEST PUSH4 0xA85BD01 PUSH1 0xE1 SHL SWAP6 SWAP5 POP POP POP POP POP JUMP JUMPDEST PUSH1 0x40 MLOAD PUSH1 0x1 PUSH1 0x1 PUSH1 0xE0 SHL SUB NOT SWAP1 SWAP2 AND DUP2 MSTORE PUSH1 0x20 ADD PUSH2 0x256 JUMP JUMPDEST CALLVALUE DUP1 ISZERO PUSH2 0x2B0 JUMPI PUSH1 0x0 DUP1 REVERT JUMPDEST POP PUSH2 0x2C4 PUSH2 0x2BF CALLDATASIZE PUSH1 0x4 PUSH2 0x4E0C JUMP JUMPDEST PUSH2 0x904 JUMP JUMPDEST STOP JUMPDEST CALLVALUE DUP1 ISZERO PUSH2 0x2D2 JUMPI PUSH1 0x0 DUP1 REVERT JUMPDEST POP PUSH2 0x2F6 PUSH2 0x2E1 CALLDATASIZE PUSH1 0x4 PUSH2 0x4E38 JUMP JUMPDEST PUSH1 0x0 SWAP1 DUP2 MSTORE PUSH1 0xFB PUSH1 0x20 MSTORE PUSH1 0x40 SWAP1 KECCAK256 PUSH1 0x1 ADD SLOAD SWAP1 JUMP JUMPDEST PUSH1 0x40 MLOAD SWAP1 DUP2 MSTORE PUSH1 0x20 ADD PUSH2 0x256 JUMP JUMPDEST CALLVALUE DUP1 ISZERO PUSH2 0x310 JUMPI PUSH1 0x0 DUP1 REVERT JUMPDEST POP PUSH2 0x2C4 PUSH2 0x31F CALLDATASIZE PUSH1 0x4 PUSH2 0x4ECF JUMP JUMPDEST PUSH2 0x9D7 JUMP JUMPDEST CALLVALUE DUP1 ISZERO PUSH2 0x330 JUMPI PUSH1 0x0 DUP1 REVERT JUMPDEST POP PUSH2 0x2C4 PUSH2 0x33F CALLDATASIZE PUSH1 0x4 PUSH2 0x4F5B JUMP JUMPDEST PUSH2 0xE98 JUMP JUMPDEST CALLVALUE DUP1 ISZERO PUSH2 0x350 JUMPI PUSH1 0x0 DUP1 REVERT JUMPDEST POP PUSH2 0x2C4 PUSH2 0x35F CALLDATASIZE PUSH1 0x4 PUSH2 0x4F5B JUMP JUMPDEST PUSH2 0xEC5 JUMP JUMPDEST CALLVALUE DUP1 ISZERO PUSH2 0x370 JUMPI PUSH1 0x0 DUP1 REVERT JUMPDEST POP PUSH2 0x162 SLOAD PUSH2 0x38C SWAP1 PUSH1 0x1 PUSH1 0x40 SHL SWAP1 DIV PUSH1 0x1 PUSH1 0x1 PUSH1 0x40 SHL SUB AND DUP2 JUMP JUMPDEST PUSH1 0x40 MLOAD PUSH1 0x1 PUSH1 0x1 PUSH1 0x40 SHL SUB SWAP1 SWAP2 AND DUP2 MSTORE PUSH1 0x20 ADD PUSH2 0x256 JUMP JUMPDEST CALLVALUE DUP1 ISZERO PUSH2 0x3B0 JUMPI PUSH1 0x0 DUP1 REVERT JUMPDEST POP PUSH2 0x24A PUSH2 0x3BF CALLDATASIZE PUSH1 0x4 PUSH2 0x4F8B JUMP JUMPDEST PUSH1 0x1 PUSH1 0x1 PUSH1 0xA0 SHL SUB AND PUSH1 0x0 SWAP1 DUP2 MSTORE PUSH1 0x65 PUSH1 0x20 MSTORE PUSH1 0x40 SWAP1 KECCAK256 SLOAD PUSH1 0xFF AND SWAP1 JUMP JUMPDEST CALLVALUE DUP1 ISZERO PUSH2 0x3E9 JUMPI PUSH1 0x0 DUP1 REVERT JUMPDEST POP PUSH2 0x2C4 PUSH2 0x3F8 CALLDATASIZE PUSH1 0x4 PUSH2 0x4F5B JUMP JUMPDEST PUSH2 0xF53 JUMP JUMPDEST CALLVALUE DUP1 ISZERO PUSH2 0x409 JUMPI PUSH1 0x0 DUP1 REVERT JUMPDEST POP PUSH2 0x2C4 PUSH2 0x418 CALLDATASIZE PUSH1 0x4 PUSH2 0x4E38 JUMP JUMPDEST PUSH2 0x125E JUMP JUMPDEST PUSH2 0x2C4 PUSH2 0x42B CALLDATASIZE PUSH1 0x4 PUSH2 0x4FA8 JUMP JUMPDEST PUSH2 0x14B0 JUMP JUMPDEST CALLVALUE DUP1 ISZERO PUSH2 0x43C JUMPI PUSH1 0x0 DUP1 REVERT JUMPDEST POP PUSH2 0x2C4 PUSH2 0x44B CALLDATASIZE PUSH1 0x4 PUSH2 0x5074 JUMP JUMPDEST PUSH2 0x16C9 JUMP JUMPDEST CALLVALUE DUP1 ISZERO PUSH2 0x45C JUMPI PUSH1 0x0 DUP1 REVERT JUMPDEST POP PUSH2 0x470 PUSH2 0x46B CALLDATASIZE PUSH1 0x4 PUSH2 0x516B JUMP JUMPDEST PUSH2 0x1862 JUMP JUMPDEST PUSH1 0x40 MLOAD PUSH1 0x1 PUSH1 0x1 PUSH1 0xA0 SHL SUB SWAP1 SWAP2 AND DUP2 MSTORE PUSH1 0x20 ADD PUSH2 0x256 JUMP JUMPDEST CALLVALUE DUP1 ISZERO PUSH2 0x494 JUMPI PUSH1 0x0 DUP1 REVERT JUMPDEST POP PUSH2 0x24A PUSH2 0x4A3 CALLDATASIZE PUSH1 0x4 PUSH2 0x4F5B JUMP JUMPDEST PUSH2 0x1882 JUMP JUMPDEST CALLVALUE DUP1 ISZERO PUSH2 0x4B4 JUMPI PUSH1 0x0 DUP1 REVERT JUMPDEST POP PUSH2 0x2C4 PUSH2 0x4C3 CALLDATASIZE PUSH1 0x4 PUSH2 0x518D JUMP JUMPDEST PUSH2 0x18AD JUMP JUMPDEST CALLVALUE DUP1 ISZERO PUSH2 0x4D4 JUMPI PUSH1 0x0 DUP1 REVERT JUMPDEST POP PUSH1 0x40 MLOAD PUSH1 0x1 DUP2 MSTORE PUSH1 0x20 ADD PUSH2 0x256 JUMP JUMPDEST CALLVALUE DUP1 ISZERO PUSH2 0x4F0 JUMPI PUSH1 0x0 DUP1 REVERT JUMPDEST POP PUSH2 0x2F6 PUSH1 0x0 DUP2 JUMP JUMPDEST CALLVALUE DUP1 ISZERO PUSH2 0x505 JUMPI PUSH1 0x0 DUP1 REVERT JUMPDEST POP PUSH2 0x519 PUSH2 0x514 CALLDATASIZE PUSH1 0x4 PUSH2 0x51CE JUMP JUMPDEST PUSH2 0x18CE JUMP JUMPDEST PUSH1 0x40 MLOAD PUSH2 0x256 SWAP2 SWAP1 PUSH2 0x529A JUMP JUMPDEST PUSH2 0x2C4 PUSH2 0x534 CALLDATASIZE PUSH1 0x4 PUSH2 0x52FC JUMP JUMPDEST PUSH2 0x19C2 JUMP JUMPDEST CALLVALUE DUP1 ISZERO PUSH2 0x545 JUMPI PUSH1 0x0 DUP1 REVERT JUMPDEST POP PUSH2 0x2C4 PUSH2 0x554 CALLDATASIZE PUSH1 0x4 PUSH2 0x533B JUMP JUMPDEST PUSH2 0x1CB8 JUMP JUMPDEST CALLVALUE DUP1 ISZERO PUSH2 0x565 JUMPI PUSH1 0x0 DUP1 REVERT JUMPDEST POP PUSH2 0x28B PUSH2 0x574 CALLDATASIZE PUSH1 0x4 PUSH2 0x53F9 JUMP JUMPDEST PUSH4 0xBC197C81 PUSH1 0xE0 SHL SWAP6 SWAP5 POP POP POP POP POP JUMP JUMPDEST CALLVALUE DUP1 ISZERO PUSH2 0x591 JUMPI PUSH1 0x0 DUP1 REVERT JUMPDEST POP PUSH2 0x2C4 PUSH2 0x5A0 CALLDATASIZE PUSH1 0x4 PUSH2 0x54A6 JUMP JUMPDEST PUSH2 0x207C JUMP JUMPDEST CALLVALUE DUP1 ISZERO PUSH2 0x5B1 JUMPI PUSH1 0x0 DUP1 REVERT JUMPDEST POP PUSH2 0x2F6 PUSH2 0x15F SLOAD DUP2 JUMP JUMPDEST CALLVALUE DUP1 ISZERO PUSH2 0x5C8 JUMPI PUSH1 0x0 DUP1 REVERT JUMPDEST POP PUSH2 0x2F6 PUSH2 0x5D7 CALLDATASIZE PUSH1 0x4 PUSH2 0x4E38 JUMP JUMPDEST PUSH2 0x2537 JUMP JUMPDEST CALLVALUE DUP1 ISZERO PUSH2 0x5E8 JUMPI PUSH1 0x0 DUP1 REVERT JUMPDEST POP PUSH11 0x4D61726B6574706C616365 PUSH1 0xA8 SHL PUSH2 0x2F6 JUMP JUMPDEST CALLVALUE DUP1 ISZERO PUSH2 0x609 JUMPI PUSH1 0x0 DUP1 REVERT JUMPDEST POP PUSH2 0x470 PUSH32 0x0 DUP2 JUMP JUMPDEST CALLVALUE DUP1 ISZERO PUSH2 0x63D JUMPI PUSH1 0x0 DUP1 REVERT JUMPDEST POP PUSH2 0x161 SLOAD PUSH1 0x40 DUP1 MLOAD PUSH1 0x1 PUSH1 0x1 PUSH1 0xA0 SHL SUB DUP4 AND DUP2 MSTORE PUSH1 0x1 PUSH1 0xA0 SHL SWAP1 SWAP3 DIV PUSH2 0xFFFF AND PUSH1 0x20 DUP4 ADD MSTORE ADD PUSH2 0x256 JUMP JUMPDEST CALLVALUE DUP1 ISZERO PUSH2 0x675 JUMPI PUSH1 0x0 DUP1 REVERT JUMPDEST POP PUSH2 0x6BF PUSH2 0x684 CALLDATASIZE PUSH1 0x4 PUSH2 0x4E38 JUMP JUMPDEST PUSH2 0x165 PUSH1 0x20 MSTORE PUSH1 0x0 SWAP1 DUP2 MSTORE PUSH1 0x40 SWAP1 KECCAK256 DUP1 SLOAD PUSH1 0x1 DUP3 ADD SLOAD PUSH1 0x2 DUP4 ADD SLOAD PUSH1 0x3 DUP5 ADD SLOAD PUSH1 0x4 SWAP1 SWAP5 ADD SLOAD SWAP3 SWAP4 PUSH1 0x1 PUSH1 0x1 PUSH1 0xA0 SHL SUB SWAP3 DUP4 AND SWAP4 SWAP2 SWAP3 AND SWAP1 DUP6 JUMP JUMPDEST PUSH1 0x40 DUP1 MLOAD SWAP6 DUP7 MSTORE PUSH1 0x1 PUSH1 0x1 PUSH1 0xA0 SHL SUB SWAP5 DUP6 AND PUSH1 0x20 DUP8 ADD MSTORE DUP6 ADD SWAP3 SWAP1 SWAP3 MSTORE SWAP1 SWAP2 AND PUSH1 0x60 DUP4 ADD MSTORE PUSH1 0x80 DUP3 ADD MSTORE PUSH1 0xA0 ADD PUSH2 0x256 JUMP JUMPDEST CALLVALUE DUP1 ISZERO PUSH2 0x6FD JUMPI PUSH1 0x0 DUP1 REVERT JUMPDEST POP PUSH2 0x2C4 PUSH2 0x70C CALLDATASIZE PUSH1 0x4 PUSH2 0x4F5B JUMP JUMPDEST PUSH2 0x254F JUMP JUMPDEST CALLVALUE DUP1 ISZERO PUSH2 0x71D JUMPI PUSH1 0x0 DUP1 REVERT JUMPDEST POP PUSH2 0x7A0 PUSH2 0x72C CALLDATASIZE PUSH1 0x4 PUSH2 0x4E38 JUMP JUMPDEST PUSH2 0x163 PUSH1 0x20 MSTORE PUSH1 0x0 SWAP1 DUP2 MSTORE PUSH1 0x40 SWAP1 KECCAK256 DUP1 SLOAD PUSH1 0x1 DUP3 ADD SLOAD PUSH1 0x2 DUP4 ADD SLOAD PUSH1 0x3 DUP5 ADD SLOAD PUSH1 0x4 DUP6 ADD SLOAD PUSH1 0x5 DUP7 ADD SLOAD PUSH1 0x6 DUP8 ADD SLOAD PUSH1 0x7 DUP9 ADD SLOAD PUSH1 0x8 DUP10 ADD SLOAD PUSH1 0x9 DUP11 ADD SLOAD PUSH1 0xA SWAP1 SWAP11 ADD SLOAD SWAP9 SWAP10 PUSH1 0x1 PUSH1 0x1 PUSH1 0xA0 SHL SUB SWAP9 DUP10 AND SWAP10 SWAP8 DUP10 AND SWAP9 SWAP7 SWAP8 SWAP6 SWAP7 SWAP5 SWAP6 SWAP4 SWAP5 SWAP1 SWAP3 AND SWAP3 SWAP1 SWAP2 SWAP1 PUSH1 0xFF DUP1 DUP3 AND SWAP2 PUSH2 0x100 SWAP1 DIV AND DUP13 JUMP JUMPDEST PUSH1 0x40 MLOAD PUSH2 0x256 SWAP13 SWAP12 SWAP11 SWAP10 SWAP9 SWAP8 SWAP7 SWAP6 SWAP5 SWAP4 SWAP3 SWAP2 SWAP1 PUSH2 0x5546 JUMP JUMPDEST CALLVALUE DUP1 ISZERO PUSH2 0x7C4 JUMPI PUSH1 0x0 DUP1 REVERT JUMPDEST POP PUSH2 0x7CD PUSH2 0x2577 JUMP JUMPDEST PUSH1 0x40 MLOAD PUSH2 0x256 SWAP2 SWAP1 PUSH2 0x55CA JUMP JUMPDEST CALLVALUE DUP1 ISZERO PUSH2 0x7E6 JUMPI PUSH1 0x0 DUP1 REVERT JUMPDEST POP PUSH2 0x2C4 PUSH2 0x7F5 CALLDATASIZE PUSH1 0x4 PUSH2 0x516B JUMP JUMPDEST PUSH2 0x2606 JUMP JUMPDEST CALLVALUE DUP1 ISZERO PUSH2 0x806 JUMPI PUSH1 0x0 DUP1 REVERT JUMPDEST POP PUSH2 0x6BF PUSH2 0x815 CALLDATASIZE PUSH1 0x4 PUSH2 0x4F5B JUMP JUMPDEST PUSH2 0x164 PUSH1 0x20 SWAP1 DUP2 MSTORE PUSH1 0x0 SWAP3 DUP4 MSTORE PUSH1 0x40 DUP1 DUP5 KECCAK256 SWAP1 SWAP2 MSTORE SWAP1 DUP3 MSTORE SWAP1 KECCAK256 DUP1 SLOAD PUSH1 0x1 DUP3 ADD SLOAD PUSH1 0x2 DUP4 ADD SLOAD PUSH1 0x3 DUP5 ADD SLOAD PUSH1 0x4 SWAP1 SWAP5 ADD SLOAD SWAP3 SWAP4 PUSH1 0x1 PUSH1 0x1 PUSH1 0xA0 SHL SUB SWAP3 DUP4 AND SWAP4 SWAP2 SWAP3 AND SWAP1 DUP6 JUMP JUMPDEST CALLVALUE DUP1 ISZERO PUSH2 0x867 JUMPI PUSH1 0x0 DUP1 REVERT JUMPDEST POP PUSH2 0x162 SLOAD PUSH2 0x38C SWAP1 PUSH1 0x1 PUSH1 0x1 PUSH1 0x40 SHL SUB AND DUP2 JUMP JUMPDEST CALLVALUE DUP1 ISZERO PUSH2 0x888 JUMPI PUSH1 0x0 DUP1 REVERT JUMPDEST POP PUSH2 0x28B PUSH2 0x897 CALLDATASIZE PUSH1 0x4 PUSH2 0x55DD JUMP JUMPDEST PUSH4 0xF23A6E61 PUSH1 0xE0 SHL SWAP6 SWAP5 POP POP POP POP POP JUMP JUMPDEST CALLVALUE DUP1 ISZERO PUSH2 0x8B4 JUMPI PUSH1 0x0 DUP1 REVERT JUMPDEST POP PUSH2 0x38C PUSH2 0x2710 DUP2 JUMP JUMPDEST PUSH1 0x0 PUSH1 0x1 PUSH1 0x1 PUSH1 0xE0 SHL SUB NOT DUP3 AND PUSH4 0x2711897 PUSH1 0xE5 SHL EQ DUP1 PUSH2 0x8EF JUMPI POP PUSH1 0x1 PUSH1 0x1 PUSH1 0xE0 SHL SUB NOT DUP3 AND PUSH4 0xA85BD01 PUSH1 0xE1 SHL EQ JUMPDEST DUP1 PUSH2 0x8FE JUMPI POP PUSH2 0x8FE DUP3 PUSH2 0x26C7 JUMP JUMPDEST SWAP3 SWAP2 POP POP JUMP JUMPDEST PUSH1 0x0 PUSH2 0x917 DUP2 PUSH2 0x912 PUSH2 0x26EC JUMP JUMPDEST PUSH2 0x26FB JUMP JUMPDEST PUSH2 0x2710 DUP3 GT ISZERO PUSH2 0x95E JUMPI PUSH1 0x40 MLOAD PUSH3 0x461BCD PUSH1 0xE5 SHL DUP2 MSTORE PUSH1 0x20 PUSH1 0x4 DUP3 ADD MSTORE PUSH1 0xD PUSH1 0x24 DUP3 ADD MSTORE PUSH13 0x313839901E1E90189818181817 PUSH1 0x99 SHL PUSH1 0x44 DUP3 ADD MSTORE PUSH1 0x64 ADD JUMPDEST PUSH1 0x40 MLOAD DUP1 SWAP2 SUB SWAP1 REVERT JUMPDEST PUSH2 0x161 DUP1 SLOAD PUSH1 0x1 PUSH1 0x1 PUSH1 0xE0 SHL SUB NOT AND PUSH1 0x1 PUSH1 0xA0 SHL PUSH1 0x1 PUSH1 0x1 PUSH1 0x40 SHL SUB DUP6 AND MUL PUSH1 0x1 PUSH1 0x1 PUSH1 0xA0 SHL SUB NOT AND OR PUSH1 0x1 PUSH1 0x1 PUSH1 0xA0 SHL SUB DUP6 AND SWAP1 DUP2 OR SWAP1 SWAP2 SSTORE PUSH1 0x40 DUP1 MLOAD SWAP2 DUP3 MSTORE PUSH1 0x20 DUP3 ADD DUP5 SWAP1 MSTORE PUSH32 0xE2497BD806EC41A6E0DD992C29A72EFC0EF8FEC9092D1978FD4A1E00B2F18304 SWAP2 ADD JUMPDEST PUSH1 0x40 MLOAD DUP1 SWAP2 SUB SWAP1 LOG1 POP POP POP JUMP JUMPDEST PUSH1 0x0 DUP2 PUSH1 0x60 ADD MLOAD GT PUSH2 0xA20 JUMPI PUSH1 0x40 MLOAD PUSH3 0x461BCD PUSH1 0xE5 SHL DUP2 MSTORE PUSH1 0x20 PUSH1 0x4 DUP3 ADD MSTORE PUSH1 0x12 PUSH1 0x24 DUP3 ADD MSTORE PUSH18 0x32B732103A34B6B29036BAB9BA101F101817 PUSH1 0x71 SHL PUSH1 0x44 DUP3 ADD MSTORE PUSH1 0x64 ADD PUSH2 0x955 JUMP JUMPDEST PUSH1 0x0 PUSH2 0xA2A PUSH2 0x275F JUMP JUMPDEST SWAP1 POP PUSH1 0x0 PUSH2 0xA36 PUSH2 0x26EC JUMP JUMPDEST SWAP1 POP PUSH1 0x0 PUSH2 0xA47 DUP5 PUSH1 0x0 ADD MLOAD PUSH2 0x277E JUMP JUMPDEST SWAP1 POP PUSH1 0x0 PUSH2 0xA59 DUP3 DUP7 PUSH1 0x80 ADD MLOAD PUSH2 0x28C6 JUMP JUMPDEST SWAP1 POP PUSH1 0x0 DUP2 GT PUSH2 0xAAB JUMPI PUSH1 0x40 MLOAD PUSH3 0x461BCD PUSH1 0xE5 SHL DUP2 MSTORE PUSH1 0x20 PUSH1 0x4 DUP3 ADD MSTORE PUSH1 0x19 PUSH1 0x24 DUP3 ADD MSTORE PUSH32 0x6C697374696E6720696E76616C6964207175616E746974792E00000000000000 PUSH1 0x44 DUP3 ADD MSTORE PUSH1 0x64 ADD PUSH2 0x955 JUMP JUMPDEST PUSH2 0xAD6 PUSH32 0xF94103142C1BAABE9AC2B5D1487BF783DE9E69CFEEA9A72F5C9C94AFD7877B8C PUSH1 0x0 PUSH2 0x1882 JUMP JUMPDEST DUP1 PUSH2 0xB08 JUMPI POP PUSH2 0xB08 PUSH32 0xF94103142C1BAABE9AC2B5D1487BF783DE9E69CFEEA9A72F5C9C94AFD7877B8C PUSH2 0x4A3 PUSH2 0x26EC JUMP JUMPDEST PUSH2 0xB54 JUMPI PUSH1 0x40 MLOAD PUSH3 0x461BCD PUSH1 0xE5 SHL DUP2 MSTORE PUSH1 0x20 PUSH1 0x4 DUP3 ADD MSTORE PUSH1 0x1A PUSH1 0x24 DUP3 ADD MSTORE PUSH32 0x646F6573206E6F742068617665204C49535445525F524F4C452E000000000000 PUSH1 0x44 DUP3 ADD MSTORE PUSH1 0x64 ADD PUSH2 0x955 JUMP JUMPDEST PUSH2 0xB7F PUSH32 0x86D5CF0A6BDC8D859BA3BDC97043337C82A0E609035F378E419298B6A3E00AE6 PUSH1 0x0 PUSH2 0x1882 JUMP JUMPDEST DUP1 PUSH2 0xBB3 JUMPI POP PUSH2 0xBB3 PUSH32 0x86D5CF0A6BDC8D859BA3BDC97043337C82A0E609035F378E419298B6A3E00AE6 DUP7 PUSH1 0x0 ADD MLOAD PUSH2 0x1882 JUMP JUMPDEST PUSH2 0xBF3 JUMPI PUSH1 0x40 MLOAD PUSH3 0x461BCD PUSH1 0xE5 SHL DUP2 MSTORE PUSH1 0x20 PUSH1 0x4 DUP3 ADD MSTORE PUSH1 0x11 PUSH1 0x24 DUP3 ADD MSTORE PUSH17 0x3AB730B8383937BB32B21030B9B9B2BA17 PUSH1 0x79 SHL PUSH1 0x44 DUP3 ADD MSTORE PUSH1 0x64 ADD PUSH2 0x955 JUMP JUMPDEST PUSH2 0xC08 DUP4 DUP7 PUSH1 0x0 ADD MLOAD DUP8 PUSH1 0x20 ADD MLOAD DUP5 DUP7 PUSH2 0x28FD JUMP JUMPDEST PUSH1 0x0 TIMESTAMP DUP7 PUSH1 0x40 ADD MLOAD LT PUSH2 0xC1F JUMPI DUP6 PUSH1 0x40 ADD MLOAD PUSH2 0xC21 JUMP JUMPDEST TIMESTAMP JUMPDEST SWAP1 POP PUSH1 0x0 PUSH1 0x40 MLOAD DUP1 PUSH2 0x180 ADD PUSH1 0x40 MSTORE DUP1 DUP8 DUP2 MSTORE PUSH1 0x20 ADD DUP7 PUSH1 0x1 PUSH1 0x1 PUSH1 0xA0 SHL SUB AND DUP2 MSTORE PUSH1 0x20 ADD DUP9 PUSH1 0x0 ADD MLOAD PUSH1 0x1 PUSH1 0x1 PUSH1 0xA0 SHL SUB AND DUP2 MSTORE PUSH1 0x20 ADD DUP9 PUSH1 0x20 ADD MLOAD DUP2 MSTORE PUSH1 0x20 ADD DUP4 DUP2 MSTORE PUSH1 0x20 ADD DUP9 PUSH1 0x60 ADD MLOAD DUP5 PUSH2 0xC79 SWAP2 SWAP1 PUSH2 0x565B JUMP JUMPDEST DUP2 MSTORE PUSH1 0x20 ADD DUP5 DUP2 MSTORE PUSH1 0x20 ADD DUP9 PUSH1 0xA0 ADD MLOAD PUSH1 0x1 PUSH1 0x1 PUSH1 0xA0 SHL SUB AND DUP2 MSTORE PUSH1 0x20 ADD DUP9 PUSH1 0xC0 ADD MLOAD DUP2 MSTORE PUSH1 0x20 ADD DUP9 PUSH1 0xE0 ADD MLOAD DUP2 MSTORE PUSH1 0x20 ADD DUP6 PUSH1 0x1 DUP2 GT ISZERO PUSH2 0xCBD JUMPI PUSH2 0xCBD PUSH2 0x5505 JUMP JUMPDEST DUP2 MSTORE PUSH1 0x20 ADD DUP9 PUSH2 0x100 ADD MLOAD PUSH1 0x1 DUP2 GT ISZERO PUSH2 0xCD9 JUMPI PUSH2 0xCD9 PUSH2 0x5505 JUMP JUMPDEST SWAP1 MSTORE PUSH1 0x0 DUP8 DUP2 MSTORE PUSH2 0x163 PUSH1 0x20 SWAP1 DUP2 MSTORE PUSH1 0x40 SWAP2 DUP3 SWAP1 KECCAK256 DUP4 MLOAD DUP2 SSTORE SWAP1 DUP4 ADD MLOAD PUSH1 0x1 DUP1 DUP4 ADD DUP1 SLOAD PUSH1 0x1 PUSH1 0x1 PUSH1 0xA0 SHL SUB NOT SWAP1 DUP2 AND PUSH1 0x1 PUSH1 0x1 PUSH1 0xA0 SHL SUB SWAP5 DUP6 AND OR SWAP1 SWAP2 SSTORE SWAP4 DUP6 ADD MLOAD PUSH1 0x2 DUP5 ADD DUP1 SLOAD DUP7 AND SWAP2 DUP5 AND SWAP2 SWAP1 SWAP2 OR SWAP1 SSTORE PUSH1 0x60 DUP6 ADD MLOAD PUSH1 0x3 DUP5 ADD SSTORE PUSH1 0x80 DUP6 ADD MLOAD PUSH1 0x4 DUP5 ADD SSTORE PUSH1 0xA0 DUP6 ADD MLOAD PUSH1 0x5 DUP5 ADD SSTORE PUSH1 0xC0 DUP6 ADD MLOAD PUSH1 0x6 DUP5 ADD SSTORE PUSH1 0xE0 DUP6 ADD MLOAD PUSH1 0x7 DUP5 ADD DUP1 SLOAD SWAP1 SWAP6 AND SWAP3 AND SWAP2 SWAP1 SWAP2 OR SWAP1 SWAP3 SSTORE PUSH2 0x100 DUP4 ADD MLOAD PUSH1 0x8 DUP3 ADD SSTORE PUSH2 0x120 DUP4 ADD MLOAD PUSH1 0x9 DUP3 ADD SSTORE PUSH2 0x140 DUP4 ADD MLOAD PUSH1 0xA DUP3 ADD DUP1 SLOAD SWAP5 SWAP6 POP DUP6 SWAP5 SWAP3 SWAP4 SWAP2 SWAP3 SWAP1 SWAP2 PUSH1 0xFF NOT SWAP1 SWAP2 AND SWAP1 DUP4 DUP2 DUP2 GT ISZERO PUSH2 0xDB1 JUMPI PUSH2 0xDB1 PUSH2 0x5505 JUMP JUMPDEST MUL OR SWAP1 SSTORE POP PUSH2 0x160 DUP3 ADD MLOAD PUSH1 0xA DUP3 ADD DUP1 SLOAD PUSH2 0xFF00 NOT AND PUSH2 0x100 DUP4 PUSH1 0x1 DUP2 GT ISZERO PUSH2 0xDDC JUMPI PUSH2 0xDDC PUSH2 0x5505 JUMP JUMPDEST MUL OR SWAP1 SSTORE POP PUSH1 0x1 SWAP2 POP PUSH2 0xDEC SWAP1 POP JUMP JUMPDEST DUP2 PUSH2 0x160 ADD MLOAD PUSH1 0x1 DUP2 GT ISZERO PUSH2 0xE03 JUMPI PUSH2 0xE03 PUSH2 0x5505 JUMP JUMPDEST EQ ISZERO PUSH2 0xE3F JUMPI DUP1 PUSH2 0x100 ADD MLOAD DUP2 PUSH2 0x120 ADD MLOAD LT ISZERO PUSH2 0xE33 JUMPI PUSH1 0x40 MLOAD PUSH3 0x461BCD PUSH1 0xE5 SHL DUP2 MSTORE PUSH1 0x4 ADD PUSH2 0x955 SWAP1 PUSH2 0x5673 JUMP JUMPDEST PUSH2 0xE3F DUP6 ADDRESS DUP6 DUP5 PUSH2 0x2BFF JUMP JUMPDEST DUP5 PUSH1 0x1 PUSH1 0x1 PUSH1 0xA0 SHL SUB AND DUP8 PUSH1 0x0 ADD MLOAD PUSH1 0x1 PUSH1 0x1 PUSH1 0xA0 SHL SUB AND DUP8 PUSH32 0xC5BC74CCDF848B38EB526A154B85085E1D61ADDF1D100CBA2074E039C0B6340 DUP5 PUSH1 0x40 MLOAD PUSH2 0xE87 SWAP2 SWAP1 PUSH2 0x56B6 JUMP JUMPDEST PUSH1 0x40 MLOAD DUP1 SWAP2 SUB SWAP1 LOG4 POP POP POP POP POP POP POP JUMP JUMPDEST PUSH1 0x0 DUP3 DUP2 MSTORE PUSH1 0xFB PUSH1 0x20 MSTORE PUSH1 0x40 SWAP1 KECCAK256 PUSH1 0x1 ADD SLOAD PUSH2 0xEB6 DUP2 PUSH2 0x912 PUSH2 0x26EC JUMP JUMPDEST PUSH2 0xEC0 DUP4 DUP4 PUSH2 0x2D55 JUMP JUMPDEST POP POP POP JUMP JUMPDEST PUSH2 0xECD PUSH2 0x26EC JUMP JUMPDEST PUSH1 0x1 PUSH1 0x1 PUSH1 0xA0 SHL SUB AND DUP2 PUSH1 0x1 PUSH1 0x1 PUSH1 0xA0 SHL SUB AND EQ PUSH2 0xF45 JUMPI PUSH1 0x40 MLOAD PUSH3 0x461BCD PUSH1 0xE5 SHL DUP2 MSTORE PUSH1 0x20 PUSH1 0x4 DUP3 ADD MSTORE PUSH1 0x2F PUSH1 0x24 DUP3 ADD MSTORE PUSH32 0x416363657373436F6E74726F6C3A2063616E206F6E6C792072656E6F756E6365 PUSH1 0x44 DUP3 ADD MSTORE PUSH15 0x103937B632B9903337B91039B2B633 PUSH1 0x89 SHL PUSH1 0x64 DUP3 ADD MSTORE PUSH1 0x84 ADD PUSH2 0x955 JUMP JUMPDEST PUSH2 0xF4F DUP3 DUP3 PUSH2 0x2D78 JUMP JUMPDEST POP POP JUMP JUMPDEST PUSH1 0x2 PUSH1 0x1 SLOAD EQ ISZERO PUSH2 0xF76 JUMPI PUSH1 0x40 MLOAD PUSH3 0x461BCD PUSH1 0xE5 SHL DUP2 MSTORE PUSH1 0x4 ADD PUSH2 0x955 SWAP1 PUSH2 0x577F JUMP JUMPDEST PUSH1 0x2 PUSH1 0x1 DUP2 SWAP1 SSTORE PUSH1 0x0 DUP4 DUP2 MSTORE PUSH2 0x163 PUSH1 0x20 MSTORE PUSH1 0x40 SWAP1 KECCAK256 ADD SLOAD DUP3 SWAP1 PUSH1 0x1 PUSH1 0x1 PUSH1 0xA0 SHL SUB AND PUSH2 0xFB5 JUMPI PUSH1 0x40 MLOAD PUSH3 0x461BCD PUSH1 0xE5 SHL DUP2 MSTORE PUSH1 0x4 ADD PUSH2 0x955 SWAP1 PUSH2 0x57B6 JUMP JUMPDEST PUSH1 0x0 DUP4 DUP2 MSTORE PUSH2 0x163 PUSH1 0x20 SWAP1 DUP2 MSTORE PUSH1 0x40 DUP1 DUP4 KECCAK256 DUP2 MLOAD PUSH2 0x180 DUP2 ADD DUP4 MSTORE DUP2 SLOAD DUP2 MSTORE PUSH1 0x1 DUP1 DUP4 ADD SLOAD PUSH1 0x1 PUSH1 0x1 PUSH1 0xA0 SHL SUB SWAP1 DUP2 AND SWAP6 DUP4 ADD SWAP6 SWAP1 SWAP6 MSTORE PUSH1 0x2 DUP4 ADD SLOAD DUP6 AND SWAP4 DUP3 ADD SWAP4 SWAP1 SWAP4 MSTORE PUSH1 0x3 DUP3 ADD SLOAD PUSH1 0x60 DUP3 ADD MSTORE PUSH1 0x4 DUP3 ADD SLOAD PUSH1 0x80 DUP3 ADD MSTORE PUSH1 0x5 DUP3 ADD SLOAD PUSH1 0xA0 DUP3 ADD MSTORE PUSH1 0x6 DUP3 ADD SLOAD PUSH1 0xC0 DUP3 ADD MSTORE PUSH1 0x7 DUP3 ADD SLOAD SWAP1 SWAP4 AND PUSH1 0xE0 DUP5 ADD MSTORE PUSH1 0x8 DUP2 ADD SLOAD PUSH2 0x100 DUP5 ADD MSTORE PUSH1 0x9 DUP2 ADD SLOAD PUSH2 0x120 DUP5 ADD MSTORE PUSH1 0xA DUP2 ADD SLOAD SWAP1 SWAP2 PUSH2 0x140 DUP5 ADD SWAP2 PUSH1 0xFF AND SWAP1 DUP2 GT ISZERO PUSH2 0x1065 JUMPI PUSH2 0x1065 PUSH2 0x5505 JUMP JUMPDEST PUSH1 0x1 DUP2 GT ISZERO PUSH2 0x1076 JUMPI PUSH2 0x1076 PUSH2 0x5505 JUMP JUMPDEST DUP2 MSTORE PUSH1 0x20 ADD PUSH1 0xA DUP3 ADD PUSH1 0x1 SWAP1 SLOAD SWAP1 PUSH2 0x100 EXP SWAP1 DIV PUSH1 0xFF AND PUSH1 0x1 DUP2 GT ISZERO PUSH2 0x109E JUMPI PUSH2 0x109E PUSH2 0x5505 JUMP JUMPDEST PUSH1 0x1 DUP2 GT ISZERO PUSH2 0x10AF JUMPI PUSH2 0x10AF PUSH2 0x5505 JUMP JUMPDEST SWAP1 MSTORE POP SWAP1 POP PUSH1 0x1 DUP2 PUSH2 0x160 ADD MLOAD PUSH1 0x1 DUP2 GT ISZERO PUSH2 0x10CD JUMPI PUSH2 0x10CD PUSH2 0x5505 JUMP JUMPDEST EQ PUSH2 0x110C JUMPI PUSH1 0x40 MLOAD PUSH3 0x461BCD PUSH1 0xE5 SHL DUP2 MSTORE PUSH1 0x20 PUSH1 0x4 DUP3 ADD MSTORE PUSH1 0xF PUSH1 0x24 DUP3 ADD MSTORE PUSH15 0x3737BA1030B71030BAB1BA34B7B717 PUSH1 0x89 SHL PUSH1 0x44 DUP3 ADD MSTORE PUSH1 0x64 ADD PUSH2 0x955 JUMP JUMPDEST PUSH1 0x0 DUP5 DUP2 MSTORE PUSH2 0x165 PUSH1 0x20 SWAP1 DUP2 MSTORE PUSH1 0x40 DUP1 DUP4 KECCAK256 DUP2 MLOAD PUSH1 0xA0 DUP2 ADD DUP4 MSTORE DUP2 SLOAD DUP2 MSTORE PUSH1 0x1 DUP3 ADD SLOAD PUSH1 0x1 PUSH1 0x1 PUSH1 0xA0 SHL SUB SWAP1 DUP2 AND SWAP5 DUP3 ADD SWAP5 SWAP1 SWAP5 MSTORE PUSH1 0x2 DUP3 ADD SLOAD SWAP3 DUP2 ADD SWAP3 SWAP1 SWAP3 MSTORE PUSH1 0x3 DUP2 ADD SLOAD SWAP1 SWAP3 AND PUSH1 0x60 DUP3 ADD MSTORE PUSH1 0x4 SWAP1 SWAP2 ADD SLOAD PUSH1 0x80 DUP1 DUP4 ADD SWAP2 SWAP1 SWAP2 MSTORE DUP4 ADD MLOAD SWAP1 SWAP2 SWAP1 TIMESTAMP LT DUP1 PUSH2 0x1187 JUMPI POP PUSH1 0x20 DUP3 ADD MLOAD PUSH1 0x1 PUSH1 0x1 PUSH1 0xA0 SHL SUB AND ISZERO JUMPDEST SWAP1 POP DUP1 ISZERO PUSH2 0x119D JUMPI PUSH2 0x1198 DUP4 PUSH2 0x2D9B JUMP JUMPDEST PUSH2 0x1252 JUMP JUMPDEST TIMESTAMP DUP4 PUSH1 0xA0 ADD MLOAD LT PUSH2 0x1202 JUMPI PUSH1 0x40 MLOAD PUSH3 0x461BCD PUSH1 0xE5 SHL DUP2 MSTORE PUSH1 0x20 PUSH1 0x4 DUP3 ADD MSTORE PUSH1 0x29 PUSH1 0x24 DUP3 ADD MSTORE PUSH32 0x63616E6E6F7420636C6F73652061756374696F6E206265666F72652069742068 PUSH1 0x44 DUP3 ADD MSTORE PUSH9 0x30B99032B73232B217 PUSH1 0xB9 SHL PUSH1 0x64 DUP3 ADD MSTORE PUSH1 0x84 ADD PUSH2 0x955 JUMP JUMPDEST DUP3 PUSH1 0x20 ADD MLOAD PUSH1 0x1 PUSH1 0x1 PUSH1 0xA0 SHL SUB AND DUP6 PUSH1 0x1 PUSH1 0x1 PUSH1 0xA0 SHL SUB AND EQ ISZERO PUSH2 0x122A JUMPI PUSH2 0x122A DUP4 DUP4 PUSH2 0x2F07 JUMP JUMPDEST DUP2 PUSH1 0x20 ADD MLOAD PUSH1 0x1 PUSH1 0x1 PUSH1 0xA0 SHL SUB AND DUP6 PUSH1 0x1 PUSH1 0x1 PUSH1 0xA0 SHL SUB AND EQ ISZERO PUSH2 0x1252 JUMPI PUSH2 0x1252 DUP4 DUP4 PUSH2 0x3122 JUMP JUMPDEST POP POP PUSH1 0x1 DUP1 SSTORE POP POP POP POP JUMP JUMPDEST DUP1 PUSH2 0x1267 PUSH2 0x26EC JUMP JUMPDEST PUSH1 0x0 DUP3 DUP2 MSTORE PUSH2 0x163 PUSH1 0x20 MSTORE PUSH1 0x40 SWAP1 KECCAK256 PUSH1 0x1 ADD SLOAD PUSH1 0x1 PUSH1 0x1 PUSH1 0xA0 SHL SUB SWAP1 DUP2 AND SWAP2 AND EQ PUSH2 0x12A4 JUMPI PUSH1 0x40 MLOAD PUSH3 0x461BCD PUSH1 0xE5 SHL DUP2 MSTORE PUSH1 0x4 ADD PUSH2 0x955 SWAP1 PUSH2 0x57DB JUMP JUMPDEST PUSH1 0x0 DUP3 DUP2 MSTORE PUSH2 0x163 PUSH1 0x20 SWAP1 DUP2 MSTORE PUSH1 0x40 DUP1 DUP4 KECCAK256 DUP2 MLOAD PUSH2 0x180 DUP2 ADD DUP4 MSTORE DUP2 SLOAD DUP2 MSTORE PUSH1 0x1 DUP1 DUP4 ADD SLOAD PUSH1 0x1 PUSH1 0x1 PUSH1 0xA0 SHL SUB SWAP1 DUP2 AND SWAP6 DUP4 ADD SWAP6 SWAP1 SWAP6 MSTORE PUSH1 0x2 DUP4 ADD SLOAD DUP6 AND SWAP4 DUP3 ADD SWAP4 SWAP1 SWAP4 MSTORE PUSH1 0x3 DUP3 ADD SLOAD PUSH1 0x60 DUP3 ADD MSTORE PUSH1 0x4 DUP3 ADD SLOAD PUSH1 0x80 DUP3 ADD MSTORE PUSH1 0x5 DUP3 ADD SLOAD PUSH1 0xA0 DUP3 ADD MSTORE PUSH1 0x6 DUP3 ADD SLOAD PUSH1 0xC0 DUP3 ADD MSTORE PUSH1 0x7 DUP3 ADD SLOAD SWAP1 SWAP4 AND PUSH1 0xE0 DUP5 ADD MSTORE PUSH1 0x8 DUP2 ADD SLOAD PUSH2 0x100 DUP5 ADD MSTORE PUSH1 0x9 DUP2 ADD SLOAD PUSH2 0x120 DUP5 ADD MSTORE PUSH1 0xA DUP2 ADD SLOAD SWAP1 SWAP2 PUSH2 0x140 DUP5 ADD SWAP2 PUSH1 0xFF AND SWAP1 DUP2 GT ISZERO PUSH2 0x1354 JUMPI PUSH2 0x1354 PUSH2 0x5505 JUMP JUMPDEST PUSH1 0x1 DUP2 GT ISZERO PUSH2 0x1365 JUMPI PUSH2 0x1365 PUSH2 0x5505 JUMP JUMPDEST DUP2 MSTORE PUSH1 0x20 ADD PUSH1 0xA DUP3 ADD PUSH1 0x1 SWAP1 SLOAD SWAP1 PUSH2 0x100 EXP SWAP1 DIV PUSH1 0xFF AND PUSH1 0x1 DUP2 GT ISZERO PUSH2 0x138D JUMPI PUSH2 0x138D PUSH2 0x5505 JUMP JUMPDEST PUSH1 0x1 DUP2 GT ISZERO PUSH2 0x139E JUMPI PUSH2 0x139E PUSH2 0x5505 JUMP JUMPDEST SWAP1 MSTORE POP SWAP1 POP PUSH1 0x0 DUP2 PUSH2 0x160 ADD MLOAD PUSH1 0x1 DUP2 GT ISZERO PUSH2 0x13BC JUMPI PUSH2 0x13BC PUSH2 0x5505 JUMP JUMPDEST EQ PUSH2 0x13FE JUMPI PUSH1 0x40 MLOAD PUSH3 0x461BCD PUSH1 0xE5 SHL DUP2 MSTORE PUSH1 0x20 PUSH1 0x4 DUP3 ADD MSTORE PUSH1 0x12 PUSH1 0x24 DUP3 ADD MSTORE PUSH18 0x6E6F7420646972656374206C697374696E67 PUSH1 0x70 SHL PUSH1 0x44 DUP3 ADD MSTORE PUSH1 0x64 ADD PUSH2 0x955 JUMP JUMPDEST PUSH1 0x0 DUP4 DUP2 MSTORE PUSH2 0x163 PUSH1 0x20 SWAP1 DUP2 MSTORE PUSH1 0x40 DUP1 DUP4 KECCAK256 DUP4 DUP2 SSTORE PUSH1 0x1 DUP2 ADD DUP1 SLOAD PUSH1 0x1 PUSH1 0x1 PUSH1 0xA0 SHL SUB NOT SWAP1 DUP2 AND SWAP1 SWAP2 SSTORE PUSH1 0x2 DUP3 ADD DUP1 SLOAD DUP3 AND SWAP1 SSTORE PUSH1 0x3 DUP3 ADD DUP6 SWAP1 SSTORE PUSH1 0x4 DUP3 ADD DUP6 SWAP1 SSTORE PUSH1 0x5 DUP3 ADD DUP6 SWAP1 SSTORE PUSH1 0x6 DUP3 ADD DUP6 SWAP1 SSTORE PUSH1 0x7 DUP3 ADD DUP1 SLOAD SWAP1 SWAP2 AND SWAP1 SSTORE PUSH1 0x8 DUP2 ADD DUP5 SWAP1 SSTORE PUSH1 0x9 DUP2 ADD DUP5 SWAP1 SSTORE PUSH1 0xA ADD DUP1 SLOAD PUSH2 0xFFFF NOT AND SWAP1 SSTORE SWAP1 DUP4 ADD MLOAD SWAP1 MLOAD PUSH1 0x1 PUSH1 0x1 PUSH1 0xA0 SHL SUB SWAP1 SWAP2 AND SWAP2 DUP6 SWAP2 PUSH32 0x58B0852506006C4BE6C7AE72AFCD195D9E64D7F5D8947905E914B778E47B7CF3 SWAP2 SWAP1 LOG3 POP POP POP JUMP JUMPDEST PUSH1 0x2 PUSH1 0x1 SLOAD EQ ISZERO PUSH2 0x14D3 JUMPI PUSH1 0x40 MLOAD PUSH3 0x461BCD PUSH1 0xE5 SHL DUP2 MSTORE PUSH1 0x4 ADD PUSH2 0x955 SWAP1 PUSH2 0x577F JUMP JUMPDEST PUSH1 0x2 PUSH1 0x1 DUP2 SWAP1 SSTORE PUSH1 0x0 DUP7 DUP2 MSTORE PUSH2 0x163 PUSH1 0x20 MSTORE PUSH1 0x40 SWAP1 KECCAK256 ADD SLOAD DUP6 SWAP1 PUSH1 0x1 PUSH1 0x1 PUSH1 0xA0 SHL SUB AND PUSH2 0x1512 JUMPI PUSH1 0x40 MLOAD PUSH3 0x461BCD PUSH1 0xE5 SHL DUP2 MSTORE PUSH1 0x4 ADD PUSH2 0x955 SWAP1 PUSH2 0x57B6 JUMP JUMPDEST PUSH1 0x0 DUP7 DUP2 MSTORE PUSH2 0x163 PUSH1 0x20 SWAP1 DUP2 MSTORE PUSH1 0x40 DUP1 DUP4 KECCAK256 DUP2 MLOAD PUSH2 0x180 DUP2 ADD DUP4 MSTORE DUP2 SLOAD DUP2 MSTORE PUSH1 0x1 DUP1 DUP4 ADD SLOAD PUSH1 0x1 PUSH1 0x1 PUSH1 0xA0 SHL SUB SWAP1 DUP2 AND SWAP6 DUP4 ADD SWAP6 SWAP1 SWAP6 MSTORE PUSH1 0x2 DUP4 ADD SLOAD DUP6 AND SWAP4 DUP3 ADD SWAP4 SWAP1 SWAP4 MSTORE PUSH1 0x3 DUP3 ADD SLOAD PUSH1 0x60 DUP3 ADD MSTORE PUSH1 0x4 DUP3 ADD SLOAD PUSH1 0x80 DUP3 ADD MSTORE PUSH1 0x5 DUP3 ADD SLOAD PUSH1 0xA0 DUP3 ADD MSTORE PUSH1 0x6 DUP3 ADD SLOAD PUSH1 0xC0 DUP3 ADD MSTORE PUSH1 0x7 DUP3 ADD SLOAD SWAP1 SWAP4 AND PUSH1 0xE0 DUP5 ADD MSTORE PUSH1 0x8 DUP2 ADD SLOAD PUSH2 0x100 DUP5 ADD MSTORE PUSH1 0x9 DUP2 ADD SLOAD PUSH2 0x120 DUP5 ADD MSTORE PUSH1 0xA DUP2 ADD SLOAD SWAP1 SWAP2 PUSH2 0x140 DUP5 ADD SWAP2 PUSH1 0xFF AND SWAP1 DUP2 GT ISZERO PUSH2 0x15C2 JUMPI PUSH2 0x15C2 PUSH2 0x5505 JUMP JUMPDEST PUSH1 0x1 DUP2 GT ISZERO PUSH2 0x15D3 JUMPI PUSH2 0x15D3 PUSH2 0x5505 JUMP JUMPDEST DUP2 MSTORE PUSH1 0x20 ADD PUSH1 0xA DUP3 ADD PUSH1 0x1 SWAP1 SLOAD SWAP1 PUSH2 0x100 EXP SWAP1 DIV PUSH1 0xFF AND PUSH1 0x1 DUP2 GT ISZERO PUSH2 0x15FB JUMPI PUSH2 0x15FB PUSH2 0x5505 JUMP JUMPDEST PUSH1 0x1 DUP2 GT ISZERO PUSH2 0x160C JUMPI PUSH2 0x160C PUSH2 0x5505 JUMP JUMPDEST SWAP1 MSTORE POP SWAP1 POP PUSH1 0x0 PUSH2 0x161B PUSH2 0x26EC JUMP JUMPDEST SWAP1 POP DUP2 PUSH1 0xE0 ADD MLOAD PUSH1 0x1 PUSH1 0x1 PUSH1 0xA0 SHL SUB AND DUP6 PUSH1 0x1 PUSH1 0x1 PUSH1 0xA0 SHL SUB AND EQ DUP1 ISZERO PUSH2 0x1651 JUMPI POP DUP6 DUP3 PUSH2 0x120 ADD MLOAD PUSH2 0x164E SWAP2 SWAP1 PUSH2 0x5812 JUMP JUMPDEST DUP5 EQ JUMPDEST PUSH2 0x1699 JUMPI PUSH1 0x40 MLOAD PUSH3 0x461BCD PUSH1 0xE5 SHL DUP2 MSTORE PUSH1 0x20 PUSH1 0x4 DUP3 ADD MSTORE PUSH1 0x19 PUSH1 0x24 DUP3 ADD MSTORE PUSH25 0x696E76616C69642063757272656E6379206F72207072696365 PUSH1 0x38 SHL PUSH1 0x44 DUP3 ADD MSTORE PUSH1 0x64 ADD PUSH2 0x955 JUMP JUMPDEST PUSH2 0x16BB DUP3 DUP3 DUP10 DUP6 PUSH1 0xE0 ADD MLOAD DUP11 DUP8 PUSH2 0x120 ADD MLOAD PUSH2 0x16B5 SWAP2 SWAP1 PUSH2 0x5812 JUMP JUMPDEST DUP12 PUSH2 0x3290 JUMP JUMPDEST POP POP PUSH1 0x1 DUP1 SSTORE POP POP POP POP POP POP JUMP JUMPDEST PUSH1 0x0 SLOAD PUSH2 0x100 SWAP1 DIV PUSH1 0xFF AND PUSH2 0x16E4 JUMPI PUSH1 0x0 SLOAD PUSH1 0xFF AND ISZERO PUSH2 0x16E8 JUMP JUMPDEST ADDRESS EXTCODESIZE ISZERO JUMPDEST PUSH2 0x174B JUMPI PUSH1 0x40 MLOAD PUSH3 0x461BCD PUSH1 0xE5 SHL DUP2 MSTORE PUSH1 0x20 PUSH1 0x4 DUP3 ADD MSTORE PUSH1 0x2E PUSH1 0x24 DUP3 ADD MSTORE PUSH32 0x496E697469616C697A61626C653A20636F6E747261637420697320616C726561 PUSH1 0x44 DUP3 ADD MSTORE PUSH14 0x191E481A5B9A5D1A585B1A5E9959 PUSH1 0x92 SHL PUSH1 0x64 DUP3 ADD MSTORE PUSH1 0x84 ADD PUSH2 0x955 JUMP JUMPDEST PUSH1 0x0 SLOAD PUSH2 0x100 SWAP1 DIV PUSH1 0xFF AND ISZERO DUP1 ISZERO PUSH2 0x176D JUMPI PUSH1 0x0 DUP1 SLOAD PUSH2 0xFFFF NOT AND PUSH2 0x101 OR SWAP1 SSTORE JUMPDEST PUSH2 0x1775 PUSH2 0x343B JUMP JUMPDEST PUSH2 0x177E DUP5 PUSH2 0x346C JUMP JUMPDEST PUSH2 0x162 DUP1 SLOAD PUSH1 0x1 PUSH1 0x1 PUSH1 0x80 SHL SUB NOT AND PUSH10 0x1F40000000000000384 OR SWAP1 SSTORE DUP5 MLOAD PUSH2 0x17AF SWAP1 PUSH2 0x160 SWAP1 PUSH1 0x20 DUP9 ADD SWAP1 PUSH2 0x4BFB JUMP JUMPDEST POP PUSH2 0x161 DUP1 SLOAD PUSH1 0x1 PUSH1 0x1 PUSH1 0xE0 SHL SUB NOT AND PUSH1 0x1 PUSH1 0xA0 SHL PUSH1 0x1 PUSH1 0x1 PUSH1 0x40 SHL SUB DUP6 AND MUL PUSH1 0x1 PUSH1 0x1 PUSH1 0xA0 SHL SUB NOT AND OR PUSH1 0x1 PUSH1 0x1 PUSH1 0xA0 SHL SUB DUP6 AND OR SWAP1 SSTORE PUSH2 0x17F2 PUSH1 0x0 DUP8 PUSH2 0x34A7 JUMP JUMPDEST PUSH2 0x181D PUSH32 0xF94103142C1BAABE9AC2B5D1487BF783DE9E69CFEEA9A72F5C9C94AFD7877B8C PUSH1 0x0 PUSH2 0x34A7 JUMP JUMPDEST PUSH2 0x1848 PUSH32 0x86D5CF0A6BDC8D859BA3BDC97043337C82A0E609035F378E419298B6A3E00AE6 PUSH1 0x0 PUSH2 0x34A7 JUMP JUMPDEST DUP1 ISZERO PUSH2 0x185A JUMPI PUSH1 0x0 DUP1 SLOAD PUSH2 0xFF00 NOT AND SWAP1 SSTORE JUMPDEST POP POP POP POP POP POP JUMP JUMPDEST PUSH1 0x0 DUP3 DUP2 MSTORE PUSH2 0x12D PUSH1 0x20 MSTORE PUSH1 0x40 DUP2 KECCAK256 PUSH2 0x187B SWAP1 DUP4 PUSH2 0x34B1 JUMP JUMPDEST SWAP4 SWAP3 POP POP POP JUMP JUMPDEST PUSH1 0x0 SWAP2 DUP3 MSTORE PUSH1 0xFB PUSH1 0x20 SWAP1 DUP2 MSTORE PUSH1 0x40 DUP1 DUP5 KECCAK256 PUSH1 0x1 PUSH1 0x1 PUSH1 0xA0 SHL SUB SWAP4 SWAP1 SWAP4 AND DUP5 MSTORE SWAP2 SWAP1 MSTORE SWAP1 KECCAK256 SLOAD PUSH1 0xFF AND SWAP1 JUMP JUMPDEST PUSH1 0x0 PUSH2 0x18BB DUP2 PUSH2 0x912 PUSH2 0x26EC JUMP JUMPDEST PUSH2 0x18C8 PUSH2 0x160 DUP5 DUP5 PUSH2 0x4C7F JUMP JUMPDEST POP POP POP POP JUMP JUMPDEST PUSH1 0x60 DUP2 PUSH1 0x1 PUSH1 0x1 PUSH1 0x40 SHL SUB DUP2 GT ISZERO PUSH2 0x18E8 JUMPI PUSH2 0x18E8 PUSH2 0x4E51 JUMP JUMPDEST PUSH1 0x40 MLOAD SWAP1 DUP1 DUP3 MSTORE DUP1 PUSH1 0x20 MUL PUSH1 0x20 ADD DUP3 ADD PUSH1 0x40 MSTORE DUP1 ISZERO PUSH2 0x191B JUMPI DUP2 PUSH1 0x20 ADD JUMPDEST PUSH1 0x60 DUP2 MSTORE PUSH1 0x20 ADD SWAP1 PUSH1 0x1 SWAP1 SUB SWAP1 DUP2 PUSH2 0x1906 JUMPI SWAP1 POP JUMPDEST POP SWAP1 POP PUSH1 0x0 JUMPDEST DUP3 DUP2 LT ISZERO PUSH2 0x19BB JUMPI PUSH2 0x198B ADDRESS DUP6 DUP6 DUP5 DUP2 DUP2 LT PUSH2 0x193F JUMPI PUSH2 0x193F PUSH2 0x5831 JUMP JUMPDEST SWAP1 POP PUSH1 0x20 MUL DUP2 ADD SWAP1 PUSH2 0x1951 SWAP2 SWAP1 PUSH2 0x5847 JUMP JUMPDEST DUP1 DUP1 PUSH1 0x1F ADD PUSH1 0x20 DUP1 SWAP2 DIV MUL PUSH1 0x20 ADD PUSH1 0x40 MLOAD SWAP1 DUP2 ADD PUSH1 0x40 MSTORE DUP1 SWAP4 SWAP3 SWAP2 SWAP1 DUP2 DUP2 MSTORE PUSH1 0x20 ADD DUP4 DUP4 DUP1 DUP3 DUP5 CALLDATACOPY PUSH1 0x0 SWAP3 ADD SWAP2 SWAP1 SWAP2 MSTORE POP PUSH2 0x34BD SWAP3 POP POP POP JUMP JUMPDEST DUP3 DUP3 DUP2 MLOAD DUP2 LT PUSH2 0x199D JUMPI PUSH2 0x199D PUSH2 0x5831 JUMP JUMPDEST PUSH1 0x20 MUL PUSH1 0x20 ADD ADD DUP2 SWAP1 MSTORE POP DUP1 DUP1 PUSH2 0x19B3 SWAP1 PUSH2 0x588D JUMP JUMPDEST SWAP2 POP POP PUSH2 0x1921 JUMP JUMPDEST POP SWAP3 SWAP2 POP POP JUMP JUMPDEST PUSH1 0x2 PUSH1 0x1 SLOAD EQ ISZERO PUSH2 0x19E5 JUMPI PUSH1 0x40 MLOAD PUSH3 0x461BCD PUSH1 0xE5 SHL DUP2 MSTORE PUSH1 0x4 ADD PUSH2 0x955 SWAP1 PUSH2 0x577F JUMP JUMPDEST PUSH1 0x2 PUSH1 0x1 DUP2 SWAP1 SSTORE PUSH1 0x0 DUP6 DUP2 MSTORE PUSH2 0x163 PUSH1 0x20 MSTORE PUSH1 0x40 SWAP1 KECCAK256 ADD SLOAD DUP5 SWAP1 PUSH1 0x1 PUSH1 0x1 PUSH1 0xA0 SHL SUB AND PUSH2 0x1A24 JUMPI PUSH1 0x40 MLOAD PUSH3 0x461BCD PUSH1 0xE5 SHL DUP2 MSTORE PUSH1 0x4 ADD PUSH2 0x955 SWAP1 PUSH2 0x57B6 JUMP JUMPDEST PUSH1 0x0 DUP6 DUP2 MSTORE PUSH2 0x163 PUSH1 0x20 SWAP1 DUP2 MSTORE PUSH1 0x40 DUP1 DUP4 KECCAK256 DUP2 MLOAD PUSH2 0x180 DUP2 ADD DUP4 MSTORE DUP2 SLOAD DUP2 MSTORE PUSH1 0x1 DUP1 DUP4 ADD SLOAD PUSH1 0x1 PUSH1 0x1 PUSH1 0xA0 SHL SUB SWAP1 DUP2 AND SWAP6 DUP4 ADD SWAP6 SWAP1 SWAP6 MSTORE PUSH1 0x2 DUP4 ADD SLOAD DUP6 AND SWAP4 DUP3 ADD SWAP4 SWAP1 SWAP4 MSTORE PUSH1 0x3 DUP3 ADD SLOAD PUSH1 0x60 DUP3 ADD MSTORE PUSH1 0x4 DUP3 ADD SLOAD PUSH1 0x80 DUP3 ADD MSTORE PUSH1 0x5 DUP3 ADD SLOAD PUSH1 0xA0 DUP3 ADD MSTORE PUSH1 0x6 DUP3 ADD SLOAD PUSH1 0xC0 DUP3 ADD MSTORE PUSH1 0x7 DUP3 ADD SLOAD SWAP1 SWAP4 AND PUSH1 0xE0 DUP5 ADD MSTORE PUSH1 0x8 DUP2 ADD SLOAD PUSH2 0x100 DUP5 ADD MSTORE PUSH1 0x9 DUP2 ADD SLOAD PUSH2 0x120 DUP5 ADD MSTORE PUSH1 0xA DUP2 ADD SLOAD SWAP1 SWAP2 PUSH2 0x140 DUP5 ADD SWAP2 PUSH1 0xFF AND SWAP1 DUP2 GT ISZERO PUSH2 0x1AD4 JUMPI PUSH2 0x1AD4 PUSH2 0x5505 JUMP JUMPDEST PUSH1 0x1 DUP2 GT ISZERO PUSH2 0x1AE5 JUMPI PUSH2 0x1AE5 PUSH2 0x5505 JUMP JUMPDEST DUP2 MSTORE PUSH1 0x20 ADD PUSH1 0xA DUP3 ADD PUSH1 0x1 SWAP1 SLOAD SWAP1 PUSH2 0x100 EXP SWAP1 DIV PUSH1 0xFF AND PUSH1 0x1 DUP2 GT ISZERO PUSH2 0x1B0D JUMPI PUSH2 0x1B0D PUSH2 0x5505 JUMP JUMPDEST PUSH1 0x1 DUP2 GT ISZERO PUSH2 0x1B1E JUMPI PUSH2 0x1B1E PUSH2 0x5505 JUMP JUMPDEST DUP2 MSTORE POP POP SWAP1 POP TIMESTAMP DUP2 PUSH1 0xA0 ADD MLOAD GT DUP1 ISZERO PUSH2 0x1B3A JUMPI POP TIMESTAMP DUP2 PUSH1 0x80 ADD MLOAD LT JUMPDEST PUSH2 0x1B7A JUMPI PUSH1 0x40 MLOAD PUSH3 0x461BCD PUSH1 0xE5 SHL DUP2 MSTORE PUSH1 0x20 PUSH1 0x4 DUP3 ADD MSTORE PUSH1 0x11 PUSH1 0x24 DUP3 ADD MSTORE PUSH17 0x34B730B1BA34BB32903634B9BA34B73397 PUSH1 0x79 SHL PUSH1 0x44 DUP3 ADD MSTORE PUSH1 0x64 ADD PUSH2 0x955 JUMP JUMPDEST PUSH1 0x0 PUSH1 0x40 MLOAD DUP1 PUSH1 0xA0 ADD PUSH1 0x40 MSTORE DUP1 DUP9 DUP2 MSTORE PUSH1 0x20 ADD PUSH2 0x1B95 PUSH2 0x26EC JUMP JUMPDEST PUSH1 0x1 PUSH1 0x1 PUSH1 0xA0 SHL SUB SWAP1 DUP2 AND DUP3 MSTORE PUSH1 0x20 DUP3 ADD DUP10 SWAP1 MSTORE DUP8 AND PUSH1 0x40 DUP3 ADD MSTORE PUSH1 0x60 ADD DUP6 SWAP1 MSTORE SWAP1 POP PUSH1 0x1 DUP3 PUSH2 0x160 ADD MLOAD PUSH1 0x1 DUP2 GT ISZERO PUSH2 0x1BD1 JUMPI PUSH2 0x1BD1 PUSH2 0x5505 JUMP JUMPDEST EQ ISZERO PUSH2 0x1C13 JUMPI PUSH1 0xE0 DUP3 ADD MLOAD PUSH1 0x1 PUSH1 0x1 PUSH1 0xA0 SHL SUB AND PUSH1 0x60 DUP3 ADD MSTORE PUSH2 0x140 DUP3 ADD MLOAD PUSH1 0xC0 DUP4 ADD MLOAD PUSH2 0x1BFF SWAP2 SWAP1 PUSH2 0x28C6 JUMP JUMPDEST PUSH1 0x40 DUP3 ADD MSTORE PUSH2 0x1C0E DUP3 DUP3 PUSH2 0x35B1 JUMP JUMPDEST PUSH2 0x1CAB JUMP JUMPDEST PUSH1 0x0 DUP3 PUSH2 0x160 ADD MLOAD PUSH1 0x1 DUP2 GT ISZERO PUSH2 0x1C2C JUMPI PUSH2 0x1C2C PUSH2 0x5505 JUMP JUMPDEST EQ ISZERO PUSH2 0x1CAB JUMPI PUSH1 0x1 PUSH1 0x1 PUSH1 0xA0 SHL SUB DUP6 AND PUSH20 0xEEEEEEEEEEEEEEEEEEEEEEEEEEEEEEEEEEEEEEEE EQ PUSH2 0x1C5C JUMPI DUP5 PUSH2 0x1C7E JUMP JUMPDEST PUSH32 0x0 JUMPDEST PUSH1 0x1 PUSH1 0x1 PUSH1 0xA0 SHL SUB AND PUSH1 0x60 DUP3 ADD MSTORE PUSH2 0x140 DUP3 ADD MLOAD PUSH2 0x1C9C SWAP1 DUP8 PUSH2 0x28C6 JUMP JUMPDEST PUSH1 0x40 DUP3 ADD MSTORE PUSH2 0x1CAB DUP3 DUP3 PUSH2 0x397A JUMP JUMPDEST POP POP PUSH1 0x1 DUP1 SSTORE POP POP POP POP POP JUMP JUMPDEST PUSH1 0x2 PUSH1 0x1 SLOAD EQ ISZERO PUSH2 0x1CDB JUMPI PUSH1 0x40 MLOAD PUSH3 0x461BCD PUSH1 0xE5 SHL DUP2 MSTORE PUSH1 0x4 ADD PUSH2 0x955 SWAP1 PUSH2 0x577F JUMP JUMPDEST PUSH1 0x2 PUSH1 0x1 SSTORE DUP4 PUSH2 0x1CE9 PUSH2 0x26EC JUMP JUMPDEST PUSH1 0x0 DUP3 DUP2 MSTORE PUSH2 0x163 PUSH1 0x20 MSTORE PUSH1 0x40 SWAP1 KECCAK256 PUSH1 0x1 ADD SLOAD PUSH1 0x1 PUSH1 0x1 PUSH1 0xA0 SHL SUB SWAP1 DUP2 AND SWAP2 AND EQ PUSH2 0x1D26 JUMPI PUSH1 0x40 MLOAD PUSH3 0x461BCD PUSH1 0xE5 SHL DUP2 MSTORE PUSH1 0x4 ADD PUSH2 0x955 SWAP1 PUSH2 0x57DB JUMP JUMPDEST PUSH1 0x0 DUP6 DUP2 MSTORE PUSH2 0x163 PUSH1 0x20 MSTORE PUSH1 0x40 SWAP1 KECCAK256 PUSH1 0x2 ADD SLOAD DUP6 SWAP1 PUSH1 0x1 PUSH1 0x1 PUSH1 0xA0 SHL SUB AND PUSH2 0x1D60 JUMPI PUSH1 0x40 MLOAD PUSH3 0x461BCD PUSH1 0xE5 SHL DUP2 MSTORE PUSH1 0x4 ADD PUSH2 0x955 SWAP1 PUSH2 0x57B6 JUMP JUMPDEST PUSH1 0x0 PUSH2 0x164 PUSH1 0x0 DUP9 DUP2 MSTORE PUSH1 0x20 ADD SWAP1 DUP2 MSTORE PUSH1 0x20 ADD PUSH1 0x0 KECCAK256 PUSH1 0x0 DUP8 PUSH1 0x1 PUSH1 0x1 PUSH1 0xA0 SHL SUB AND PUSH1 0x1 PUSH1 0x1 PUSH1 0xA0 SHL SUB AND DUP2 MSTORE PUSH1 0x20 ADD SWAP1 DUP2 MSTORE PUSH1 0x20 ADD PUSH1 0x0 KECCAK256 PUSH1 0x40 MLOAD DUP1 PUSH1 0xA0 ADD PUSH1 0x40 MSTORE SWAP1 DUP2 PUSH1 0x0 DUP3 ADD SLOAD DUP2 MSTORE PUSH1 0x20 ADD PUSH1 0x1 DUP3 ADD PUSH1 0x0 SWAP1 SLOAD SWAP1 PUSH2 0x100 EXP SWAP1 DIV PUSH1 0x1 PUSH1 0x1 PUSH1 0xA0 SHL SUB AND PUSH1 0x1 PUSH1 0x1 PUSH1 0xA0 SHL SUB AND PUSH1 0x1 PUSH1 0x1 PUSH1 0xA0 SHL SUB AND DUP2 MSTORE PUSH1 0x20 ADD PUSH1 0x2 DUP3 ADD SLOAD DUP2 MSTORE PUSH1 0x20 ADD PUSH1 0x3 DUP3 ADD PUSH1 0x0 SWAP1 SLOAD SWAP1 PUSH2 0x100 EXP SWAP1 DIV PUSH1 0x1 PUSH1 0x1 PUSH1 0xA0 SHL SUB AND PUSH1 0x1 PUSH1 0x1 PUSH1 0xA0 SHL SUB AND PUSH1 0x1 PUSH1 0x1 PUSH1 0xA0 SHL SUB AND DUP2 MSTORE PUSH1 0x20 ADD PUSH1 0x4 DUP3 ADD SLOAD DUP2 MSTORE POP POP SWAP1 POP PUSH1 0x0 PUSH2 0x163 PUSH1 0x0 DUP10 DUP2 MSTORE PUSH1 0x20 ADD SWAP1 DUP2 MSTORE PUSH1 0x20 ADD PUSH1 0x0 KECCAK256 PUSH1 0x40 MLOAD DUP1 PUSH2 0x180 ADD PUSH1 0x40 MSTORE SWAP1 DUP2 PUSH1 0x0 DUP3 ADD SLOAD DUP2 MSTORE PUSH1 0x20 ADD PUSH1 0x1 DUP3 ADD PUSH1 0x0 SWAP1 SLOAD SWAP1 PUSH2 0x100 EXP SWAP1 DIV PUSH1 0x1 PUSH1 0x1 PUSH1 0xA0 SHL SUB AND PUSH1 0x1 PUSH1 0x1 PUSH1 0xA0 SHL SUB AND PUSH1 0x1 PUSH1 0x1 PUSH1 0xA0 SHL SUB AND DUP2 MSTORE PUSH1 0x20 ADD PUSH1 0x2 DUP3 ADD PUSH1 0x0 SWAP1 SLOAD SWAP1 PUSH2 0x100 EXP SWAP1 DIV PUSH1 0x1 PUSH1 0x1 PUSH1 0xA0 SHL SUB AND PUSH1 0x1 PUSH1 0x1 PUSH1 0xA0 SHL SUB AND PUSH1 0x1 PUSH1 0x1 PUSH1 0xA0 SHL SUB AND DUP2 MSTORE PUSH1 0x20 ADD PUSH1 0x3 DUP3 ADD SLOAD DUP2 MSTORE PUSH1 0x20 ADD PUSH1 0x4 DUP3 ADD SLOAD DUP2 MSTORE PUSH1 0x20 ADD PUSH1 0x5 DUP3 ADD SLOAD DUP2 MSTORE PUSH1 0x20 ADD PUSH1 0x6 DUP3 ADD SLOAD DUP2 MSTORE PUSH1 0x20 ADD PUSH1 0x7 DUP3 ADD PUSH1 0x0 SWAP1 SLOAD SWAP1 PUSH2 0x100 EXP SWAP1 DIV PUSH1 0x1 PUSH1 0x1 PUSH1 0xA0 SHL SUB AND PUSH1 0x1 PUSH1 0x1 PUSH1 0xA0 SHL SUB AND PUSH1 0x1 PUSH1 0x1 PUSH1 0xA0 SHL SUB AND DUP2 MSTORE PUSH1 0x20 ADD PUSH1 0x8 DUP3 ADD SLOAD DUP2 MSTORE PUSH1 0x20 ADD PUSH1 0x9 DUP3 ADD SLOAD DUP2 MSTORE PUSH1 0x20 ADD PUSH1 0xA DUP3 ADD PUSH1 0x0 SWAP1 SLOAD SWAP1 PUSH2 0x100 EXP SWAP1 DIV PUSH1 0xFF AND PUSH1 0x1 DUP2 GT ISZERO PUSH2 0x1F3B JUMPI PUSH2 0x1F3B PUSH2 0x5505 JUMP JUMPDEST PUSH1 0x1 DUP2 GT ISZERO PUSH2 0x1F4C JUMPI PUSH2 0x1F4C PUSH2 0x5505 JUMP JUMPDEST DUP2 MSTORE PUSH1 0x20 ADD PUSH1 0xA DUP3 ADD PUSH1 0x1 SWAP1 SLOAD SWAP1 PUSH2 0x100 EXP SWAP1 DIV PUSH1 0xFF AND PUSH1 0x1 DUP2 GT ISZERO PUSH2 0x1F74 JUMPI PUSH2 0x1F74 PUSH2 0x5505 JUMP JUMPDEST PUSH1 0x1 DUP2 GT ISZERO PUSH2 0x1F85 JUMPI PUSH2 0x1F85 PUSH2 0x5505 JUMP JUMPDEST DUP2 MSTORE POP POP SWAP1 POP DUP2 PUSH1 0x60 ADD MLOAD PUSH1 0x1 PUSH1 0x1 PUSH1 0xA0 SHL SUB AND DUP7 PUSH1 0x1 PUSH1 0x1 PUSH1 0xA0 SHL SUB AND EQ DUP1 ISZERO PUSH2 0x1FB3 JUMPI POP DUP2 PUSH1 0x80 ADD MLOAD DUP6 EQ JUMPDEST PUSH2 0x1FFB JUMPI PUSH1 0x40 MLOAD PUSH3 0x461BCD PUSH1 0xE5 SHL DUP2 MSTORE PUSH1 0x20 PUSH1 0x4 DUP3 ADD MSTORE PUSH1 0x19 PUSH1 0x24 DUP3 ADD MSTORE PUSH25 0x696E76616C69642063757272656E6379206F72207072696365 PUSH1 0x38 SHL PUSH1 0x44 DUP3 ADD MSTORE PUSH1 0x64 ADD PUSH2 0x955 JUMP JUMPDEST PUSH1 0x0 DUP9 DUP2 MSTORE PUSH2 0x164 PUSH1 0x20 SWAP1 DUP2 MSTORE PUSH1 0x40 DUP1 DUP4 KECCAK256 PUSH1 0x1 PUSH1 0x1 PUSH1 0xA0 SHL SUB DUP12 AND DUP5 MSTORE SWAP1 SWAP2 MSTORE DUP1 DUP3 KECCAK256 DUP3 DUP2 SSTORE PUSH1 0x1 DUP2 ADD DUP1 SLOAD PUSH1 0x1 PUSH1 0x1 PUSH1 0xA0 SHL SUB NOT SWAP1 DUP2 AND SWAP1 SWAP2 SSTORE PUSH1 0x2 DUP3 ADD DUP5 SWAP1 SSTORE PUSH1 0x3 DUP3 ADD DUP1 SLOAD SWAP1 SWAP2 AND SWAP1 SSTORE PUSH1 0x4 ADD SWAP2 SWAP1 SWAP2 SSTORE PUSH1 0x60 DUP4 ADD MLOAD SWAP1 DUP4 ADD MLOAD PUSH1 0x80 DUP5 ADD MLOAD PUSH2 0x16BB SWAP3 DUP5 SWAP3 DUP12 SWAP3 DUP4 SWAP3 SWAP2 PUSH2 0x2072 SWAP2 PUSH2 0x5812 JUMP JUMPDEST DUP8 PUSH1 0x40 ADD MLOAD PUSH2 0x3290 JUMP JUMPDEST DUP7 PUSH2 0x2085 PUSH2 0x26EC JUMP JUMPDEST PUSH1 0x0 DUP3 DUP2 MSTORE PUSH2 0x163 PUSH1 0x20 MSTORE PUSH1 0x40 SWAP1 KECCAK256 PUSH1 0x1 ADD SLOAD PUSH1 0x1 PUSH1 0x1 PUSH1 0xA0 SHL SUB SWAP1 DUP2 AND SWAP2 AND EQ PUSH2 0x20C2 JUMPI PUSH1 0x40 MLOAD PUSH3 0x461BCD PUSH1 0xE5 SHL DUP2 MSTORE PUSH1 0x4 ADD PUSH2 0x955 SWAP1 PUSH2 0x57DB JUMP JUMPDEST PUSH1 0x0 DUP9 DUP2 MSTORE PUSH2 0x163 PUSH1 0x20 SWAP1 DUP2 MSTORE PUSH1 0x40 DUP1 DUP4 KECCAK256 DUP2 MLOAD PUSH2 0x180 DUP2 ADD DUP4 MSTORE DUP2 SLOAD DUP2 MSTORE PUSH1 0x1 DUP1 DUP4 ADD SLOAD PUSH1 0x1 PUSH1 0x1 PUSH1 0xA0 SHL SUB SWAP1 DUP2 AND SWAP6 DUP4 ADD SWAP6 SWAP1 SWAP6 MSTORE PUSH1 0x2 DUP4 ADD SLOAD DUP6 AND SWAP4 DUP3 ADD SWAP4 SWAP1 SWAP4 MSTORE PUSH1 0x3 DUP3 ADD SLOAD PUSH1 0x60 DUP3 ADD MSTORE PUSH1 0x4 DUP3 ADD SLOAD PUSH1 0x80 DUP3 ADD MSTORE PUSH1 0x5 DUP3 ADD SLOAD PUSH1 0xA0 DUP3 ADD MSTORE PUSH1 0x6 DUP3 ADD SLOAD PUSH1 0xC0 DUP3 ADD MSTORE PUSH1 0x7 DUP3 ADD SLOAD SWAP1 SWAP4 AND PUSH1 0xE0 DUP5 ADD MSTORE PUSH1 0x8 DUP2 ADD SLOAD PUSH2 0x100 DUP5 ADD MSTORE PUSH1 0x9 DUP2 ADD SLOAD PUSH2 0x120 DUP5 ADD MSTORE PUSH1 0xA DUP2 ADD SLOAD SWAP1 SWAP2 PUSH2 0x140 DUP5 ADD SWAP2 PUSH1 0xFF AND SWAP1 DUP2 GT ISZERO PUSH2 0x2172 JUMPI PUSH2 0x2172 PUSH2 0x5505 JUMP JUMPDEST PUSH1 0x1 DUP2 GT ISZERO PUSH2 0x2183 JUMPI PUSH2 0x2183 PUSH2 0x5505 JUMP JUMPDEST DUP2 MSTORE PUSH1 0x20 ADD PUSH1 0xA DUP3 ADD PUSH1 0x1 SWAP1 SLOAD SWAP1 PUSH2 0x100 EXP SWAP1 DIV PUSH1 0xFF AND PUSH1 0x1 DUP2 GT ISZERO PUSH2 0x21AB JUMPI PUSH2 0x21AB PUSH2 0x5505 JUMP JUMPDEST PUSH1 0x1 DUP2 GT ISZERO PUSH2 0x21BC JUMPI PUSH2 0x21BC PUSH2 0x5505 JUMP JUMPDEST DUP2 MSTORE POP POP SWAP1 POP PUSH1 0x0 PUSH2 0x21D3 DUP3 PUSH2 0x140 ADD MLOAD DUP11 PUSH2 0x28C6 JUMP JUMPDEST SWAP1 POP PUSH1 0x0 PUSH1 0x1 DUP4 PUSH2 0x160 ADD MLOAD PUSH1 0x1 DUP2 GT ISZERO PUSH2 0x21F0 JUMPI PUSH2 0x21F0 PUSH2 0x5505 JUMP JUMPDEST EQ SWAP1 POP DUP2 PUSH2 0x2240 JUMPI PUSH1 0x40 MLOAD PUSH3 0x461BCD PUSH1 0xE5 SHL DUP2 MSTORE PUSH1 0x20 PUSH1 0x4 DUP3 ADD MSTORE PUSH1 0x1B PUSH1 0x24 DUP3 ADD MSTORE PUSH32 0x63616E6E6F742075706461746520746F2030207175616E746974790000000000 PUSH1 0x44 DUP3 ADD MSTORE PUSH1 0x64 ADD PUSH2 0x955 JUMP JUMPDEST DUP1 ISZERO PUSH2 0x22B9 JUMPI DUP3 PUSH1 0x80 ADD MLOAD TIMESTAMP LT PUSH2 0x2299 JUMPI PUSH1 0x40 MLOAD PUSH3 0x461BCD PUSH1 0xE5 SHL DUP2 MSTORE PUSH1 0x20 PUSH1 0x4 DUP3 ADD MSTORE PUSH1 0x18 PUSH1 0x24 DUP3 ADD MSTORE PUSH32 0x61756374696F6E20616C726561647920737461727465642E0000000000000000 PUSH1 0x44 DUP3 ADD MSTORE PUSH1 0x64 ADD PUSH2 0x955 JUMP JUMPDEST DUP9 DUP9 LT ISZERO PUSH2 0x22B9 JUMPI PUSH1 0x40 MLOAD PUSH3 0x461BCD PUSH1 0xE5 SHL DUP2 MSTORE PUSH1 0x4 ADD PUSH2 0x955 SWAP1 PUSH2 0x5673 JUMP JUMPDEST PUSH1 0x0 DUP7 ISZERO PUSH2 0x22C7 JUMPI DUP7 PUSH2 0x22CD JUMP JUMPDEST DUP4 PUSH1 0x80 ADD MLOAD JUMPDEST SWAP1 POP PUSH1 0x40 MLOAD DUP1 PUSH2 0x180 ADD PUSH1 0x40 MSTORE DUP1 DUP14 DUP2 MSTORE PUSH1 0x20 ADD PUSH2 0x22E9 PUSH2 0x26EC JUMP JUMPDEST PUSH1 0x1 PUSH1 0x1 PUSH1 0xA0 SHL SUB AND DUP2 MSTORE PUSH1 0x20 ADD DUP6 PUSH1 0x40 ADD MLOAD PUSH1 0x1 PUSH1 0x1 PUSH1 0xA0 SHL SUB AND DUP2 MSTORE PUSH1 0x20 ADD DUP6 PUSH1 0x60 ADD MLOAD DUP2 MSTORE PUSH1 0x20 ADD DUP3 DUP2 MSTORE PUSH1 0x20 ADD DUP8 PUSH1 0x0 EQ PUSH2 0x2331 JUMPI PUSH2 0x232C DUP9 DUP5 PUSH2 0x565B JUMP JUMPDEST PUSH2 0x2337 JUMP JUMPDEST DUP6 PUSH1 0xA0 ADD MLOAD JUMPDEST DUP2 MSTORE PUSH1 0x20 ADD DUP5 DUP2 MSTORE PUSH1 0x20 ADD DUP10 PUSH1 0x1 PUSH1 0x1 PUSH1 0xA0 SHL SUB AND DUP2 MSTORE PUSH1 0x20 ADD DUP12 DUP2 MSTORE PUSH1 0x20 ADD DUP11 DUP2 MSTORE PUSH1 0x20 ADD DUP6 PUSH2 0x140 ADD MLOAD PUSH1 0x1 DUP2 GT ISZERO PUSH2 0x2374 JUMPI PUSH2 0x2374 PUSH2 0x5505 JUMP JUMPDEST DUP2 MSTORE PUSH1 0x20 ADD DUP6 PUSH2 0x160 ADD MLOAD PUSH1 0x1 DUP2 GT ISZERO PUSH2 0x2390 JUMPI PUSH2 0x2390 PUSH2 0x5505 JUMP JUMPDEST SWAP1 MSTORE PUSH1 0x0 DUP14 DUP2 MSTORE PUSH2 0x163 PUSH1 0x20 SWAP1 DUP2 MSTORE PUSH1 0x40 SWAP2 DUP3 SWAP1 KECCAK256 DUP4 MLOAD DUP2 SSTORE SWAP1 DUP4 ADD MLOAD PUSH1 0x1 DUP1 DUP4 ADD DUP1 SLOAD PUSH1 0x1 PUSH1 0x1 PUSH1 0xA0 SHL SUB NOT SWAP1 DUP2 AND PUSH1 0x1 PUSH1 0x1 PUSH1 0xA0 SHL SUB SWAP5 DUP6 AND OR SWAP1 SWAP2 SSTORE SWAP4 DUP6 ADD MLOAD PUSH1 0x2 DUP5 ADD DUP1 SLOAD DUP7 AND SWAP2 DUP5 AND SWAP2 SWAP1 SWAP2 OR SWAP1 SSTORE PUSH1 0x60 DUP6 ADD MLOAD PUSH1 0x3 DUP5 ADD SSTORE PUSH1 0x80 DUP6 ADD MLOAD PUSH1 0x4 DUP5 ADD SSTORE PUSH1 0xA0 DUP6 ADD MLOAD PUSH1 0x5 DUP5 ADD SSTORE PUSH1 0xC0 DUP6 ADD MLOAD PUSH1 0x6 DUP5 ADD SSTORE PUSH1 0xE0 DUP6 ADD MLOAD PUSH1 0x7 DUP5 ADD DUP1 SLOAD SWAP1 SWAP6 AND SWAP3 AND SWAP2 SWAP1 SWAP2 OR SWAP1 SWAP3 SSTORE PUSH2 0x100 DUP4 ADD MLOAD PUSH1 0x8 DUP3 ADD SSTORE PUSH2 0x120 DUP4 ADD MLOAD PUSH1 0x9 DUP3 ADD SSTORE PUSH2 0x140 DUP4 ADD MLOAD PUSH1 0xA DUP3 ADD DUP1 SLOAD SWAP3 SWAP4 SWAP2 SWAP3 SWAP1 SWAP2 PUSH1 0xFF NOT SWAP1 SWAP2 AND SWAP1 DUP4 DUP2 DUP2 GT ISZERO PUSH2 0x2463 JUMPI PUSH2 0x2463 PUSH2 0x5505 JUMP JUMPDEST MUL OR SWAP1 SSTORE POP PUSH2 0x160 DUP3 ADD MLOAD PUSH1 0xA DUP3 ADD DUP1 SLOAD PUSH2 0xFF00 NOT AND PUSH2 0x100 DUP4 PUSH1 0x1 DUP2 GT ISZERO PUSH2 0x248E JUMPI PUSH2 0x248E PUSH2 0x5505 JUMP JUMPDEST MUL OR SWAP1 SSTORE POP POP POP PUSH1 0xC0 DUP5 ADD MLOAD DUP4 EQ PUSH2 0x24EE JUMPI DUP2 ISZERO PUSH2 0x24BA JUMPI PUSH2 0x24BA ADDRESS DUP6 PUSH1 0x20 ADD MLOAD DUP7 PUSH1 0xC0 ADD MLOAD DUP8 PUSH2 0x2BFF JUMP JUMPDEST PUSH2 0x24D8 DUP5 PUSH1 0x20 ADD MLOAD DUP6 PUSH1 0x40 ADD MLOAD DUP7 PUSH1 0x60 ADD MLOAD DUP7 DUP9 PUSH2 0x140 ADD MLOAD PUSH2 0x28FD JUMP JUMPDEST DUP2 ISZERO PUSH2 0x24EE JUMPI PUSH2 0x24EE DUP5 PUSH1 0x20 ADD MLOAD ADDRESS DUP6 DUP8 PUSH2 0x2BFF JUMP JUMPDEST DUP4 PUSH1 0x20 ADD MLOAD PUSH1 0x1 PUSH1 0x1 PUSH1 0xA0 SHL SUB AND DUP13 PUSH32 0xBBEA26162EDF2BC6A0255BF144EC4DD044302A301EF7D32DAA835A2DDACFDEF0 PUSH1 0x40 MLOAD PUSH1 0x40 MLOAD DUP1 SWAP2 SUB SWAP1 LOG3 POP POP POP POP POP POP POP POP POP POP POP POP JUMP JUMPDEST PUSH1 0x0 DUP2 DUP2 MSTORE PUSH2 0x12D PUSH1 0x20 MSTORE PUSH1 0x40 DUP2 KECCAK256 PUSH2 0x8FE SWAP1 PUSH2 0x3B10 JUMP JUMPDEST PUSH1 0x0 DUP3 DUP2 MSTORE PUSH1 0xFB PUSH1 0x20 MSTORE PUSH1 0x40 SWAP1 KECCAK256 PUSH1 0x1 ADD SLOAD PUSH2 0x256D DUP2 PUSH2 0x912 PUSH2 0x26EC JUMP JUMPDEST PUSH2 0xEC0 DUP4 DUP4 PUSH2 0x2D78 JUMP JUMPDEST PUSH2 0x160 DUP1 SLOAD PUSH2 0x2585 SWAP1 PUSH2 0x58A8 JUMP JUMPDEST DUP1 PUSH1 0x1F ADD PUSH1 0x20 DUP1 SWAP2 DIV MUL PUSH1 0x20 ADD PUSH1 0x40 MLOAD SWAP1 DUP2 ADD PUSH1 0x40 MSTORE DUP1 SWAP3 SWAP2 SWAP1 DUP2 DUP2 MSTORE PUSH1 0x20 ADD DUP3 DUP1 SLOAD PUSH2 0x25B1 SWAP1 PUSH2 0x58A8 JUMP JUMPDEST DUP1 ISZERO PUSH2 0x25FE JUMPI DUP1 PUSH1 0x1F LT PUSH2 0x25D3 JUMPI PUSH2 0x100 DUP1 DUP4 SLOAD DIV MUL DUP4 MSTORE SWAP2 PUSH1 0x20 ADD SWAP2 PUSH2 0x25FE JUMP JUMPDEST DUP3 ADD SWAP2 SWAP1 PUSH1 0x0 MSTORE PUSH1 0x20 PUSH1 0x0 KECCAK256 SWAP1 JUMPDEST DUP2 SLOAD DUP2 MSTORE SWAP1 PUSH1 0x1 ADD SWAP1 PUSH1 0x20 ADD DUP1 DUP4 GT PUSH2 0x25E1 JUMPI DUP3 SWAP1 SUB PUSH1 0x1F AND DUP3 ADD SWAP2 JUMPDEST POP POP POP POP POP DUP2 JUMP JUMPDEST PUSH1 0x0 PUSH2 0x2614 DUP2 PUSH2 0x912 PUSH2 0x26EC JUMP JUMPDEST PUSH2 0x2710 DUP3 LT PUSH2 0x2654 JUMPI PUSH1 0x40 MLOAD PUSH3 0x461BCD PUSH1 0xE5 SHL DUP2 MSTORE PUSH1 0x20 PUSH1 0x4 DUP3 ADD MSTORE PUSH1 0xC PUSH1 0x24 DUP3 ADD MSTORE PUSH12 0x34B73B30B634B21021282997 PUSH1 0xA1 SHL PUSH1 0x44 DUP3 ADD MSTORE PUSH1 0x64 ADD PUSH2 0x955 JUMP JUMPDEST PUSH2 0x162 DUP1 SLOAD PUSH1 0x1 PUSH1 0x1 PUSH1 0x40 SHL SUB DUP5 DUP2 AND PUSH1 0x1 PUSH1 0x40 SHL MUL PUSH1 0x1 PUSH1 0x1 PUSH1 0x80 SHL SUB NOT SWAP1 SWAP3 AND SWAP1 DUP7 AND OR OR SWAP1 SSTORE PUSH1 0x40 MLOAD PUSH32 0x441ED6470E96704C3F8C9E70C209107078AAB3F17311385E886081B91AA75088 SWAP1 PUSH2 0x9CA SWAP1 DUP6 SWAP1 DUP6 SWAP1 SWAP2 DUP3 MSTORE PUSH1 0x20 DUP3 ADD MSTORE PUSH1 0x40 ADD SWAP1 JUMP JUMPDEST PUSH1 0x1 PUSH1 0x1 PUSH1 0xA0 SHL SUB AND EXTCODESIZE ISZERO ISZERO SWAP1 JUMP JUMPDEST PUSH1 0x0 PUSH1 0x1 PUSH1 0x1 PUSH1 0xE0 SHL SUB NOT DUP3 AND PUSH4 0x5A05180F PUSH1 0xE0 SHL EQ DUP1 PUSH2 0x8FE JUMPI POP PUSH2 0x8FE DUP3 PUSH2 0x3B1A JUMP JUMPDEST PUSH1 0x0 PUSH2 0x26F6 PUSH2 0x3B4F JUMP JUMPDEST SWAP1 POP SWAP1 JUMP JUMPDEST PUSH2 0x2705 DUP3 DUP3 PUSH2 0x1882 JUMP JUMPDEST PUSH2 0xF4F JUMPI PUSH2 0x271D DUP2 PUSH1 0x1 PUSH1 0x1 PUSH1 0xA0 SHL SUB AND PUSH1 0x14 PUSH2 0x3B79 JUMP JUMPDEST PUSH2 0x2728 DUP4 PUSH1 0x20 PUSH2 0x3B79 JUMP JUMPDEST PUSH1 0x40 MLOAD PUSH1 0x20 ADD PUSH2 0x2739 SWAP3 SWAP2 SWAP1 PUSH2 0x58E3 JUMP JUMPDEST PUSH1 0x40 DUP1 MLOAD PUSH1 0x1F NOT DUP2 DUP5 SUB ADD DUP2 MSTORE SWAP1 DUP3 SWAP1 MSTORE PUSH3 0x461BCD PUSH1 0xE5 SHL DUP3 MSTORE PUSH2 0x955 SWAP2 PUSH1 0x4 ADD PUSH2 0x55CA JUMP JUMPDEST PUSH2 0x15F DUP1 SLOAD SWAP1 PUSH1 0x1 SWAP1 PUSH1 0x0 PUSH2 0x2774 DUP4 DUP6 PUSH2 0x565B JUMP JUMPDEST SWAP3 POP POP DUP2 SWAP1 SSTORE POP SWAP1 JUMP JUMPDEST PUSH1 0x40 MLOAD PUSH4 0x1FFC9A7 PUSH1 0xE0 SHL DUP2 MSTORE PUSH4 0x6CDB3D13 PUSH1 0xE1 SHL PUSH1 0x4 DUP3 ADD MSTORE PUSH1 0x0 SWAP1 PUSH1 0x1 PUSH1 0x1 PUSH1 0xA0 SHL SUB DUP4 AND SWAP1 PUSH4 0x1FFC9A7 SWAP1 PUSH1 0x24 ADD PUSH1 0x20 PUSH1 0x40 MLOAD DUP1 DUP4 SUB DUP2 DUP7 GAS STATICCALL ISZERO DUP1 ISZERO PUSH2 0x27CC JUMPI RETURNDATASIZE PUSH1 0x0 DUP1 RETURNDATACOPY RETURNDATASIZE PUSH1 0x0 REVERT JUMPDEST POP POP POP POP PUSH1 0x40 MLOAD RETURNDATASIZE PUSH1 0x1F NOT PUSH1 0x1F DUP3 ADD AND DUP3 ADD DUP1 PUSH1 0x40 MSTORE POP DUP2 ADD SWAP1 PUSH2 0x27F0 SWAP2 SWAP1 PUSH2 0x5958 JUMP JUMPDEST ISZERO PUSH2 0x27FD JUMPI POP PUSH1 0x0 SWAP2 SWAP1 POP JUMP JUMPDEST PUSH1 0x40 MLOAD PUSH4 0x1FFC9A7 PUSH1 0xE0 SHL DUP2 MSTORE PUSH4 0x80AC58CD PUSH1 0xE0 SHL PUSH1 0x4 DUP3 ADD MSTORE PUSH1 0x1 PUSH1 0x1 PUSH1 0xA0 SHL SUB DUP4 AND SWAP1 PUSH4 0x1FFC9A7 SWAP1 PUSH1 0x24 ADD PUSH1 0x20 PUSH1 0x40 MLOAD DUP1 DUP4 SUB DUP2 DUP7 GAS STATICCALL ISZERO DUP1 ISZERO PUSH2 0x2848 JUMPI RETURNDATASIZE PUSH1 0x0 DUP1 RETURNDATACOPY RETURNDATASIZE PUSH1 0x0 REVERT JUMPDEST POP POP POP POP PUSH1 0x40 MLOAD RETURNDATASIZE PUSH1 0x1F NOT PUSH1 0x1F DUP3 ADD AND DUP3 ADD DUP1 PUSH1 0x40 MSTORE POP DUP2 ADD SWAP1 PUSH2 0x286C SWAP2 SWAP1 PUSH2 0x5958 JUMP JUMPDEST ISZERO PUSH2 0x2879 JUMPI POP PUSH1 0x1 SWAP2 SWAP1 POP JUMP JUMPDEST PUSH1 0x40 MLOAD PUSH3 0x461BCD PUSH1 0xE5 SHL DUP2 MSTORE PUSH1 0x20 PUSH1 0x4 DUP3 ADD DUP2 SWAP1 MSTORE PUSH1 0x24 DUP3 ADD MSTORE PUSH32 0x746F6B656E206D7573742062652045524331313535206F72204552433732312E PUSH1 0x44 DUP3 ADD MSTORE PUSH1 0x64 ADD PUSH2 0x955 JUMP JUMPDEST SWAP2 SWAP1 POP JUMP JUMPDEST PUSH1 0x0 DUP2 PUSH2 0x28D5 JUMPI POP PUSH1 0x0 PUSH2 0x8FE JUMP JUMPDEST PUSH1 0x1 DUP4 PUSH1 0x1 DUP2 GT ISZERO PUSH2 0x28E9 JUMPI PUSH2 0x28E9 PUSH2 0x5505 JUMP JUMPDEST EQ PUSH2 0x28F4 JUMPI DUP2 PUSH2 0x187B JUMP JUMPDEST POP PUSH1 0x1 SWAP3 SWAP2 POP POP JUMP JUMPDEST ADDRESS PUSH1 0x0 DUP1 DUP4 PUSH1 0x1 DUP2 GT ISZERO PUSH2 0x2913 JUMPI PUSH2 0x2913 PUSH2 0x5505 JUMP JUMPDEST EQ ISZERO PUSH2 0x2A0D JUMPI PUSH1 0x40 MLOAD PUSH3 0x7EEAC7 PUSH1 0xE1 SHL DUP2 MSTORE PUSH1 0x1 PUSH1 0x1 PUSH1 0xA0 SHL SUB DUP9 DUP2 AND PUSH1 0x4 DUP4 ADD MSTORE PUSH1 0x24 DUP3 ADD DUP8 SWAP1 MSTORE DUP6 SWAP2 SWAP1 DUP9 AND SWAP1 PUSH3 0xFDD58E SWAP1 PUSH1 0x44 ADD PUSH1 0x20 PUSH1 0x40 MLOAD DUP1 DUP4 SUB DUP2 DUP7 GAS STATICCALL ISZERO DUP1 ISZERO PUSH2 0x2967 JUMPI RETURNDATASIZE PUSH1 0x0 DUP1 RETURNDATACOPY RETURNDATASIZE PUSH1 0x0 REVERT JUMPDEST POP POP POP POP PUSH1 0x40 MLOAD RETURNDATASIZE PUSH1 0x1F NOT PUSH1 0x1F DUP3 ADD AND DUP3 ADD DUP1 PUSH1 0x40 MSTORE POP DUP2 ADD SWAP1 PUSH2 0x298B SWAP2 SWAP1 PUSH2 0x597A JUMP JUMPDEST LT ISZERO DUP1 ISZERO PUSH2 0x2A06 JUMPI POP PUSH1 0x40 MLOAD PUSH4 0xE985E9C5 PUSH1 0xE0 SHL DUP2 MSTORE PUSH1 0x1 PUSH1 0x1 PUSH1 0xA0 SHL SUB DUP9 DUP2 AND PUSH1 0x4 DUP4 ADD MSTORE DUP4 DUP2 AND PUSH1 0x24 DUP4 ADD MSTORE DUP8 AND SWAP1 PUSH4 0xE985E9C5 SWAP1 PUSH1 0x44 ADD PUSH1 0x20 PUSH1 0x40 MLOAD DUP1 DUP4 SUB DUP2 DUP7 GAS STATICCALL ISZERO DUP1 ISZERO PUSH2 0x29E2 JUMPI RETURNDATASIZE PUSH1 0x0 DUP1 RETURNDATACOPY RETURNDATASIZE PUSH1 0x0 REVERT JUMPDEST POP POP POP POP PUSH1 0x40 MLOAD RETURNDATASIZE PUSH1 0x1F NOT PUSH1 0x1F DUP3 ADD AND DUP3 ADD DUP1 PUSH1 0x40 MSTORE POP DUP2 ADD SWAP1 PUSH2 0x2A06 SWAP2 SWAP1 PUSH2 0x5958 JUMP JUMPDEST SWAP1 POP PUSH2 0x2B99 JUMP JUMPDEST PUSH1 0x1 DUP4 PUSH1 0x1 DUP2 GT ISZERO PUSH2 0x2A21 JUMPI PUSH2 0x2A21 PUSH2 0x5505 JUMP JUMPDEST EQ ISZERO PUSH2 0x2B99 JUMPI PUSH1 0x40 MLOAD PUSH4 0x31A9108F PUSH1 0xE1 SHL DUP2 MSTORE PUSH1 0x4 DUP2 ADD DUP7 SWAP1 MSTORE PUSH1 0x1 PUSH1 0x1 PUSH1 0xA0 SHL SUB DUP1 DUP10 AND SWAP2 SWAP1 DUP9 AND SWAP1 PUSH4 0x6352211E SWAP1 PUSH1 0x24 ADD PUSH1 0x20 PUSH1 0x40 MLOAD DUP1 DUP4 SUB DUP2 DUP7 GAS STATICCALL ISZERO DUP1 ISZERO PUSH2 0x2A71 JUMPI RETURNDATASIZE PUSH1 0x0 DUP1 RETURNDATACOPY RETURNDATASIZE PUSH1 0x0 REVERT JUMPDEST POP POP POP POP PUSH1 0x40 MLOAD RETURNDATASIZE PUSH1 0x1F NOT PUSH1 0x1F DUP3 ADD AND DUP3 ADD DUP1 PUSH1 0x40 MSTORE POP DUP2 ADD SWAP1 PUSH2 0x2A95 SWAP2 SWAP1 PUSH2 0x5993 JUMP JUMPDEST PUSH1 0x1 PUSH1 0x1 PUSH1 0xA0 SHL SUB AND EQ DUP1 ISZERO PUSH2 0x2B96 JUMPI POP PUSH1 0x40 MLOAD PUSH4 0x20604BF PUSH1 0xE2 SHL DUP2 MSTORE PUSH1 0x4 DUP2 ADD DUP7 SWAP1 MSTORE PUSH1 0x1 PUSH1 0x1 PUSH1 0xA0 SHL SUB DUP1 DUP5 AND SWAP2 SWAP1 DUP9 AND SWAP1 PUSH4 0x81812FC SWAP1 PUSH1 0x24 ADD PUSH1 0x20 PUSH1 0x40 MLOAD DUP1 DUP4 SUB DUP2 DUP7 GAS STATICCALL ISZERO DUP1 ISZERO PUSH2 0x2AF0 JUMPI RETURNDATASIZE PUSH1 0x0 DUP1 RETURNDATACOPY RETURNDATASIZE PUSH1 0x0 REVERT JUMPDEST POP POP POP POP PUSH1 0x40 MLOAD RETURNDATASIZE PUSH1 0x1F NOT PUSH1 0x1F DUP3 ADD AND DUP3 ADD DUP1 PUSH1 0x40 MSTORE POP DUP2 ADD SWAP1 PUSH2 0x2B14 SWAP2 SWAP1 PUSH2 0x5993 JUMP JUMPDEST PUSH1 0x1 PUSH1 0x1 PUSH1 0xA0 SHL SUB AND EQ DUP1 PUSH2 0x2B96 JUMPI POP PUSH1 0x40 MLOAD PUSH4 0xE985E9C5 PUSH1 0xE0 SHL DUP2 MSTORE PUSH1 0x1 PUSH1 0x1 PUSH1 0xA0 SHL SUB DUP9 DUP2 AND PUSH1 0x4 DUP4 ADD MSTORE DUP4 DUP2 AND PUSH1 0x24 DUP4 ADD MSTORE DUP8 AND SWAP1 PUSH4 0xE985E9C5 SWAP1 PUSH1 0x44 ADD PUSH1 0x20 PUSH1 0x40 MLOAD DUP1 DUP4 SUB DUP2 DUP7 GAS STATICCALL ISZERO DUP1 ISZERO PUSH2 0x2B72 JUMPI RETURNDATASIZE PUSH1 0x0 DUP1 RETURNDATACOPY RETURNDATASIZE PUSH1 0x0 REVERT JUMPDEST POP POP POP POP PUSH1 0x40 MLOAD RETURNDATASIZE PUSH1 0x1F NOT PUSH1 0x1F DUP3 ADD AND DUP3 ADD DUP1 PUSH1 0x40 MSTORE POP DUP2 ADD SWAP1 PUSH2 0x2B96 SWAP2 SWAP1 PUSH2 0x5958 JUMP JUMPDEST SWAP1 POP JUMPDEST DUP1 PUSH2 0x2BF6 JUMPI PUSH1 0x40 MLOAD PUSH3 0x461BCD PUSH1 0xE5 SHL DUP2 MSTORE PUSH1 0x20 PUSH1 0x4 DUP3 ADD MSTORE PUSH1 0x27 PUSH1 0x24 DUP3 ADD MSTORE PUSH32 0x696E73756666696369656E7420746F6B656E2062616C616E6365206F72206170 PUSH1 0x44 DUP3 ADD MSTORE PUSH7 0x383937BB30B617 PUSH1 0xC9 SHL PUSH1 0x64 DUP3 ADD MSTORE PUSH1 0x84 ADD PUSH2 0x955 JUMP JUMPDEST POP POP POP POP POP POP POP JUMP JUMPDEST PUSH1 0x0 DUP2 PUSH2 0x140 ADD MLOAD PUSH1 0x1 DUP2 GT ISZERO PUSH2 0x2C18 JUMPI PUSH2 0x2C18 PUSH2 0x5505 JUMP JUMPDEST EQ ISZERO PUSH2 0x2CAD JUMPI PUSH1 0x40 DUP1 DUP3 ADD MLOAD PUSH1 0x60 DUP4 ADD MLOAD SWAP2 MLOAD PUSH4 0x79212195 PUSH1 0xE1 SHL DUP2 MSTORE PUSH1 0x1 PUSH1 0x1 PUSH1 0xA0 SHL SUB DUP8 DUP2 AND PUSH1 0x4 DUP4 ADD MSTORE DUP7 DUP2 AND PUSH1 0x24 DUP4 ADD MSTORE PUSH1 0x44 DUP3 ADD SWAP4 SWAP1 SWAP4 MSTORE PUSH1 0x64 DUP2 ADD DUP6 SWAP1 MSTORE PUSH1 0xA0 PUSH1 0x84 DUP3 ADD MSTORE PUSH1 0x0 PUSH1 0xA4 DUP3 ADD MSTORE SWAP2 AND SWAP1 PUSH4 0xF242432A SWAP1 PUSH1 0xC4 ADD PUSH1 0x0 PUSH1 0x40 MLOAD DUP1 DUP4 SUB DUP2 PUSH1 0x0 DUP8 DUP1 EXTCODESIZE ISZERO DUP1 ISZERO PUSH2 0x2C90 JUMPI PUSH1 0x0 DUP1 REVERT JUMPDEST POP GAS CALL ISZERO DUP1 ISZERO PUSH2 0x2CA4 JUMPI RETURNDATASIZE PUSH1 0x0 DUP1 RETURNDATACOPY RETURNDATASIZE PUSH1 0x0 REVERT JUMPDEST POP POP POP POP PUSH2 0x18C8 JUMP JUMPDEST PUSH1 0x1 DUP2 PUSH2 0x140 ADD MLOAD PUSH1 0x1 DUP2 GT ISZERO PUSH2 0x2CC6 JUMPI PUSH2 0x2CC6 PUSH2 0x5505 JUMP JUMPDEST EQ ISZERO PUSH2 0x18C8 JUMPI PUSH1 0x40 DUP1 DUP3 ADD MLOAD PUSH1 0x60 DUP4 ADD MLOAD SWAP2 MLOAD PUSH4 0x5C46A7EF PUSH1 0xE1 SHL DUP2 MSTORE PUSH1 0x1 PUSH1 0x1 PUSH1 0xA0 SHL SUB DUP8 DUP2 AND PUSH1 0x4 DUP4 ADD MSTORE DUP7 DUP2 AND PUSH1 0x24 DUP4 ADD MSTORE PUSH1 0x44 DUP3 ADD SWAP4 SWAP1 SWAP4 MSTORE PUSH1 0x80 PUSH1 0x64 DUP3 ADD MSTORE PUSH1 0x0 PUSH1 0x84 DUP3 ADD MSTORE SWAP2 AND SWAP1 PUSH4 0xB88D4FDE SWAP1 PUSH1 0xA4 ADD PUSH1 0x0 PUSH1 0x40 MLOAD DUP1 DUP4 SUB DUP2 PUSH1 0x0 DUP8 DUP1 EXTCODESIZE ISZERO DUP1 ISZERO PUSH2 0x2D37 JUMPI PUSH1 0x0 DUP1 REVERT JUMPDEST POP GAS CALL ISZERO DUP1 ISZERO PUSH2 0x2D4B JUMPI RETURNDATASIZE PUSH1 0x0 DUP1 RETURNDATACOPY RETURNDATASIZE PUSH1 0x0 REVERT JUMPDEST POP POP POP POP POP POP POP POP JUMP JUMPDEST PUSH2 0x2D5F DUP3 DUP3 PUSH2 0x3D14 JUMP JUMPDEST PUSH1 0x0 DUP3 DUP2 MSTORE PUSH2 0x12D PUSH1 0x20 MSTORE PUSH1 0x40 SWAP1 KECCAK256 PUSH2 0xEC0 SWAP1 DUP3 PUSH2 0x3D9B JUMP JUMPDEST PUSH2 0x2D82 DUP3 DUP3 PUSH2 0x3DB0 JUMP JUMPDEST PUSH1 0x0 DUP3 DUP2 MSTORE PUSH2 0x12D PUSH1 0x20 MSTORE PUSH1 0x40 SWAP1 KECCAK256 PUSH2 0xEC0 SWAP1 DUP3 PUSH2 0x3E35 JUMP JUMPDEST PUSH2 0x2DA3 PUSH2 0x26EC JUMP JUMPDEST DUP2 MLOAD PUSH1 0x0 SWAP1 DUP2 MSTORE PUSH2 0x163 PUSH1 0x20 MSTORE PUSH1 0x40 SWAP1 KECCAK256 PUSH1 0x1 ADD SLOAD PUSH1 0x1 PUSH1 0x1 PUSH1 0xA0 SHL SUB SWAP1 DUP2 AND SWAP2 AND EQ PUSH2 0x2E1D JUMPI PUSH1 0x40 MLOAD PUSH3 0x461BCD PUSH1 0xE5 SHL DUP2 MSTORE PUSH1 0x20 PUSH1 0x4 DUP3 ADD MSTORE PUSH1 0x22 PUSH1 0x24 DUP3 ADD MSTORE PUSH32 0x63616C6C6572206973206E6F7420746865206C697374696E672063726561746F PUSH1 0x44 DUP3 ADD MSTORE PUSH2 0x3917 PUSH1 0xF1 SHL PUSH1 0x64 DUP3 ADD MSTORE PUSH1 0x84 ADD PUSH2 0x955 JUMP JUMPDEST DUP1 MLOAD PUSH1 0x0 SWAP1 DUP2 MSTORE PUSH2 0x163 PUSH1 0x20 SWAP1 DUP2 MSTORE PUSH1 0x40 DUP3 KECCAK256 DUP3 DUP2 SSTORE PUSH1 0x1 DUP2 ADD DUP1 SLOAD PUSH1 0x1 PUSH1 0x1 PUSH1 0xA0 SHL SUB NOT SWAP1 DUP2 AND SWAP1 SWAP2 SSTORE PUSH1 0x2 DUP3 ADD DUP1 SLOAD DUP3 AND SWAP1 SSTORE PUSH1 0x3 DUP3 ADD DUP5 SWAP1 SSTORE PUSH1 0x4 DUP3 ADD DUP5 SWAP1 SSTORE PUSH1 0x5 DUP3 ADD DUP5 SWAP1 SSTORE PUSH1 0x6 DUP3 ADD DUP5 SWAP1 SSTORE PUSH1 0x7 DUP3 ADD DUP1 SLOAD SWAP1 SWAP2 AND SWAP1 SSTORE PUSH1 0x8 DUP2 ADD DUP4 SWAP1 SSTORE PUSH1 0x9 DUP2 ADD SWAP3 SWAP1 SWAP3 SSTORE PUSH1 0xA SWAP1 SWAP2 ADD DUP1 SLOAD PUSH2 0xFFFF NOT AND SWAP1 SSTORE DUP2 ADD MLOAD PUSH1 0xC0 DUP3 ADD MLOAD PUSH2 0x2EAA SWAP2 ADDRESS SWAP2 DUP5 PUSH2 0x2BFF JUMP JUMPDEST PUSH1 0x1 PUSH2 0x2EB4 PUSH2 0x26EC JUMP JUMPDEST DUP3 MLOAD PUSH1 0x20 DUP1 DUP6 ADD MLOAD PUSH1 0x40 DUP1 MLOAD PUSH1 0x1 PUSH1 0x1 PUSH1 0xA0 SHL SUB SWAP3 DUP4 AND DUP2 MSTORE PUSH1 0x0 SWAP4 DUP2 ADD SWAP4 SWAP1 SWAP4 MSTORE SWAP4 AND SWAP3 PUSH32 0x572CDC5CA5E918473319D0F4737494E4709AC879A7D0BCD11CE1BEF24B24E81D SWAP2 ADD PUSH1 0x40 MLOAD DUP1 SWAP2 SUB SWAP1 LOG4 POP JUMP JUMPDEST PUSH1 0x0 DUP3 PUSH1 0xC0 ADD MLOAD DUP3 PUSH1 0x80 ADD MLOAD PUSH2 0x2F1D SWAP2 SWAP1 PUSH2 0x5812 JUMP JUMPDEST PUSH1 0x0 PUSH1 0xC0 DUP6 ADD DUP2 DUP2 MSTORE TIMESTAMP PUSH1 0xA0 DUP8 ADD SWAP1 DUP2 MSTORE DUP7 MLOAD DUP4 MSTORE PUSH2 0x163 PUSH1 0x20 SWAP1 DUP2 MSTORE PUSH1 0x40 SWAP4 DUP5 SWAP1 KECCAK256 DUP9 MLOAD DUP2 SSTORE SWAP1 DUP9 ADD MLOAD PUSH1 0x1 DUP1 DUP4 ADD DUP1 SLOAD PUSH1 0x1 PUSH1 0x1 PUSH1 0xA0 SHL SUB SWAP4 DUP5 AND PUSH1 0x1 PUSH1 0x1 PUSH1 0xA0 SHL SUB NOT SWAP2 DUP3 AND OR SWAP1 SWAP2 SSTORE SWAP6 DUP11 ADD MLOAD PUSH1 0x2 DUP5 ADD DUP1 SLOAD SWAP2 DUP5 AND SWAP2 DUP9 AND SWAP2 SWAP1 SWAP2 OR SWAP1 SSTORE PUSH1 0x60 DUP11 ADD MLOAD PUSH1 0x3 DUP5 ADD SSTORE PUSH1 0x80 DUP11 ADD MLOAD PUSH1 0x4 DUP5 ADD SSTORE SWAP3 MLOAD PUSH1 0x5 DUP4 ADD SSTORE SWAP3 MLOAD PUSH1 0x6 DUP3 ADD SSTORE PUSH1 0xE0 DUP9 ADD MLOAD PUSH1 0x7 DUP3 ADD DUP1 SLOAD SWAP2 SWAP1 SWAP5 AND SWAP5 AND SWAP4 SWAP1 SWAP4 OR SWAP1 SWAP2 SSTORE PUSH2 0x100 DUP7 ADD MLOAD PUSH1 0x8 DUP4 ADD SSTORE PUSH2 0x120 DUP7 ADD MLOAD PUSH1 0x9 DUP4 ADD SSTORE PUSH2 0x140 DUP7 ADD MLOAD PUSH1 0xA DUP4 ADD DUP1 SLOAD SWAP5 SWAP6 POP DUP8 SWAP5 SWAP2 SWAP3 SWAP1 SWAP2 PUSH1 0xFF NOT AND SWAP1 DUP4 DUP2 DUP2 GT ISZERO PUSH2 0x2FFB JUMPI PUSH2 0x2FFB PUSH2 0x5505 JUMP JUMPDEST MUL OR SWAP1 SSTORE POP PUSH2 0x160 DUP3 ADD MLOAD PUSH1 0xA DUP3 ADD DUP1 SLOAD PUSH2 0xFF00 NOT AND PUSH2 0x100 DUP4 PUSH1 0x1 DUP2 GT ISZERO PUSH2 0x3026 JUMPI PUSH2 0x3026 PUSH2 0x5505 JUMP JUMPDEST MUL OR SWAP1 SSTORE POP POP PUSH1 0x0 PUSH1 0x80 DUP5 ADD DUP2 DUP2 MSTORE DUP6 MLOAD DUP3 MSTORE PUSH2 0x165 PUSH1 0x20 SWAP1 DUP2 MSTORE PUSH1 0x40 SWAP3 DUP4 SWAP1 KECCAK256 DUP7 MLOAD DUP2 SSTORE DUP2 DUP8 ADD MLOAD PUSH1 0x1 DUP3 ADD DUP1 SLOAD PUSH1 0x1 PUSH1 0x1 PUSH1 0xA0 SHL SUB NOT SWAP1 DUP2 AND PUSH1 0x1 PUSH1 0x1 PUSH1 0xA0 SHL SUB SWAP4 DUP5 AND OR SWAP1 SWAP2 SSTORE SWAP5 DUP9 ADD MLOAD PUSH1 0x2 DUP4 ADD SSTORE PUSH1 0x60 DUP9 ADD MLOAD PUSH1 0x3 DUP4 ADD DUP1 SLOAD SWAP1 SWAP7 AND SWAP2 AND OR SWAP1 SWAP4 SSTORE SWAP1 MLOAD PUSH1 0x4 SWAP1 SWAP3 ADD SWAP2 SWAP1 SWAP2 SSTORE DUP5 ADD MLOAD PUSH1 0xE0 DUP6 ADD MLOAD PUSH2 0x30AF SWAP3 POP ADDRESS SWAP2 SWAP1 DUP5 DUP8 PUSH2 0x3E4A JUMP JUMPDEST PUSH1 0x0 PUSH2 0x30B9 PUSH2 0x26EC JUMP JUMPDEST PUSH1 0x1 PUSH1 0x1 PUSH1 0xA0 SHL SUB AND DUP5 PUSH1 0x0 ADD MLOAD PUSH32 0x572CDC5CA5E918473319D0F4737494E4709AC879A7D0BCD11CE1BEF24B24E81D DUP7 PUSH1 0x20 ADD MLOAD DUP7 PUSH1 0x20 ADD MLOAD PUSH1 0x40 MLOAD PUSH2 0x3115 SWAP3 SWAP2 SWAP1 PUSH1 0x1 PUSH1 0x1 PUSH1 0xA0 SHL SUB SWAP3 DUP4 AND DUP2 MSTORE SWAP2 AND PUSH1 0x20 DUP3 ADD MSTORE PUSH1 0x40 ADD SWAP1 JUMP JUMPDEST PUSH1 0x40 MLOAD DUP1 SWAP2 SUB SWAP1 LOG4 POP POP POP JUMP JUMPDEST PUSH1 0x40 DUP2 DUP2 ADD DUP1 MLOAD TIMESTAMP PUSH1 0xA0 DUP7 ADD SWAP1 DUP2 MSTORE PUSH1 0x0 DUP1 DUP5 MSTORE DUP7 MLOAD DUP2 MSTORE PUSH2 0x165 PUSH1 0x20 SWAP1 DUP2 MSTORE DUP6 DUP3 KECCAK256 DUP8 MLOAD DUP2 SSTORE DUP2 DUP9 ADD MLOAD PUSH1 0x1 DUP1 DUP4 ADD DUP1 SLOAD PUSH1 0x1 PUSH1 0x1 PUSH1 0xA0 SHL SUB NOT SWAP1 DUP2 AND PUSH1 0x1 PUSH1 0x1 PUSH1 0xA0 SHL SUB SWAP5 DUP6 AND OR SWAP1 SWAP2 SSTORE SWAP8 MLOAD PUSH1 0x2 DUP1 DUP6 ADD SWAP2 SWAP1 SWAP2 SSTORE PUSH1 0x60 DUP1 DUP13 ADD MLOAD PUSH1 0x3 DUP1 DUP8 ADD DUP1 SLOAD DUP14 AND SWAP3 DUP8 AND SWAP3 SWAP1 SWAP3 OR SWAP1 SWAP2 SSTORE PUSH1 0x80 DUP1 DUP15 ADD MLOAD PUSH1 0x4 SWAP8 DUP9 ADD SSTORE DUP15 MLOAD DUP10 MSTORE PUSH2 0x163 DUP9 MSTORE SWAP8 DUP13 SWAP1 KECCAK256 DUP15 MLOAD DUP2 SSTORE SWAP7 DUP15 ADD MLOAD DUP8 DUP6 ADD DUP1 SLOAD DUP14 AND SWAP2 DUP8 AND SWAP2 SWAP1 SWAP2 OR SWAP1 SSTORE SWAP11 DUP14 ADD MLOAD SWAP2 DUP7 ADD DUP1 SLOAD DUP12 AND SWAP3 DUP6 AND SWAP3 SWAP1 SWAP3 OR SWAP1 SWAP2 SSTORE DUP12 ADD MLOAD SWAP9 DUP5 ADD SWAP9 SWAP1 SWAP9 SSTORE SWAP3 DUP10 ADD MLOAD SWAP1 DUP3 ADD SSTORE SWAP2 MLOAD PUSH1 0x5 DUP4 ADD SSTORE PUSH1 0xC0 DUP8 ADD MLOAD PUSH1 0x6 DUP4 ADD SSTORE PUSH1 0xE0 DUP8 ADD MLOAD PUSH1 0x7 DUP4 ADD DUP1 SLOAD SWAP1 SWAP6 AND SWAP2 AND OR SWAP1 SWAP3 SSTORE PUSH2 0x100 DUP6 ADD MLOAD PUSH1 0x8 DUP4 ADD SSTORE PUSH2 0x120 DUP6 ADD MLOAD PUSH1 0x9 DUP4 ADD SSTORE PUSH2 0x140 DUP6 ADD MLOAD PUSH1 0xA DUP4 ADD DUP1 SLOAD SWAP3 SWAP5 DUP8 SWAP5 SWAP4 PUSH1 0xFF NOT AND SWAP1 DUP4 DUP2 DUP2 GT ISZERO PUSH2 0x324D JUMPI PUSH2 0x324D PUSH2 0x5505 JUMP JUMPDEST MUL OR SWAP1 SSTORE POP PUSH2 0x160 DUP3 ADD MLOAD PUSH1 0xA DUP3 ADD DUP1 SLOAD PUSH2 0xFF00 NOT AND PUSH2 0x100 DUP4 PUSH1 0x1 DUP2 GT ISZERO PUSH2 0x3278 JUMPI PUSH2 0x3278 PUSH2 0x5505 JUMP JUMPDEST MUL OR SWAP1 SSTORE POP SWAP1 POP POP PUSH2 0x30AF ADDRESS DUP4 PUSH1 0x20 ADD MLOAD DUP4 DUP7 PUSH2 0x2BFF JUMP JUMPDEST PUSH2 0x329D DUP7 DUP7 DUP4 DUP7 DUP7 PUSH2 0x40C6 JUMP JUMPDEST DUP1 DUP7 PUSH1 0xC0 ADD DUP2 DUP2 MLOAD PUSH2 0x32AF SWAP2 SWAP1 PUSH2 0x59B0 JUMP JUMPDEST SWAP1 MSTORE POP DUP6 MLOAD PUSH1 0x0 SWAP1 DUP2 MSTORE PUSH2 0x163 PUSH1 0x20 SWAP1 DUP2 MSTORE PUSH1 0x40 SWAP2 DUP3 SWAP1 KECCAK256 DUP9 MLOAD DUP2 SSTORE SWAP1 DUP9 ADD MLOAD PUSH1 0x1 DUP1 DUP4 ADD DUP1 SLOAD PUSH1 0x1 PUSH1 0x1 PUSH1 0xA0 SHL SUB NOT SWAP1 DUP2 AND PUSH1 0x1 PUSH1 0x1 PUSH1 0xA0 SHL SUB SWAP5 DUP6 AND OR SWAP1 SWAP2 SSTORE SWAP4 DUP11 ADD MLOAD PUSH1 0x2 DUP5 ADD DUP1 SLOAD DUP7 AND SWAP2 DUP5 AND SWAP2 SWAP1 SWAP2 OR SWAP1 SSTORE PUSH1 0x60 DUP11 ADD MLOAD PUSH1 0x3 DUP5 ADD SSTORE PUSH1 0x80 DUP11 ADD MLOAD PUSH1 0x4 DUP5 ADD SSTORE PUSH1 0xA0 DUP11 ADD MLOAD PUSH1 0x5 DUP5 ADD SSTORE PUSH1 0xC0 DUP11 ADD MLOAD PUSH1 0x6 DUP5 ADD SSTORE PUSH1 0xE0 DUP11 ADD MLOAD PUSH1 0x7 DUP5 ADD DUP1 SLOAD SWAP1 SWAP6 AND SWAP3 AND SWAP2 SWAP1 SWAP2 OR SWAP1 SWAP3 SSTORE PUSH2 0x100 DUP9 ADD MLOAD PUSH1 0x8 DUP3 ADD SSTORE PUSH2 0x120 DUP9 ADD MLOAD PUSH1 0x9 DUP3 ADD SSTORE PUSH2 0x140 DUP9 ADD MLOAD PUSH1 0xA DUP3 ADD DUP1 SLOAD DUP11 SWAP5 PUSH1 0xFF NOT SWAP1 SWAP2 AND SWAP1 DUP4 DUP2 DUP2 GT ISZERO PUSH2 0x3381 JUMPI PUSH2 0x3381 PUSH2 0x5505 JUMP JUMPDEST MUL OR SWAP1 SSTORE POP PUSH2 0x160 DUP3 ADD MLOAD PUSH1 0xA DUP3 ADD DUP1 SLOAD PUSH2 0xFF00 NOT AND PUSH2 0x100 DUP4 PUSH1 0x1 DUP2 GT ISZERO PUSH2 0x33AC JUMPI PUSH2 0x33AC PUSH2 0x5505 JUMP JUMPDEST MUL OR SWAP1 SSTORE POP SWAP1 POP POP PUSH2 0x33C5 DUP6 DUP8 PUSH1 0x20 ADD MLOAD DUP6 DUP6 DUP11 PUSH2 0x3E4A JUMP JUMPDEST PUSH2 0x33D5 DUP7 PUSH1 0x20 ADD MLOAD DUP6 DUP4 DUP10 PUSH2 0x2BFF JUMP JUMPDEST PUSH1 0x20 DUP1 DUP8 ADD MLOAD PUSH1 0x40 DUP1 DUP10 ADD MLOAD DUP10 MLOAD DUP3 MLOAD PUSH1 0x1 PUSH1 0x1 PUSH1 0xA0 SHL SUB DUP11 DUP2 AND DUP3 MSTORE SWAP6 DUP2 ADD DUP8 SWAP1 MSTORE SWAP3 DUP4 ADD DUP8 SWAP1 MSTORE SWAP3 DUP5 AND SWAP4 AND SWAP2 SWAP1 PUSH32 0x306E6CDE5EB293794D557A3A6C844DE939E6206B05E6910451C512852BF654A5 SWAP1 PUSH1 0x60 ADD JUMPDEST PUSH1 0x40 MLOAD DUP1 SWAP2 SUB SWAP1 LOG4 POP POP POP POP POP POP JUMP JUMPDEST PUSH1 0x0 SLOAD PUSH2 0x100 SWAP1 DIV PUSH1 0xFF AND PUSH2 0x3462 JUMPI PUSH1 0x40 MLOAD PUSH3 0x461BCD PUSH1 0xE5 SHL DUP2 MSTORE PUSH1 0x4 ADD PUSH2 0x955 SWAP1 PUSH2 0x59C7 JUMP JUMPDEST PUSH2 0x346A PUSH2 0x429C JUMP JUMPDEST JUMP JUMPDEST PUSH1 0x0 SLOAD PUSH2 0x100 SWAP1 DIV PUSH1 0xFF AND PUSH2 0x3493 JUMPI PUSH1 0x40 MLOAD PUSH3 0x461BCD PUSH1 0xE5 SHL DUP2 MSTORE PUSH1 0x4 ADD PUSH2 0x955 SWAP1 PUSH2 0x59C7 JUMP JUMPDEST PUSH2 0x349B PUSH2 0x42C9 JUMP JUMPDEST PUSH2 0x34A4 DUP2 PUSH2 0x42F0 JUMP JUMPDEST POP JUMP JUMPDEST PUSH2 0xF4F DUP3 DUP3 PUSH2 0x2D55 JUMP JUMPDEST PUSH1 0x0 PUSH2 0x187B DUP4 DUP4 PUSH2 0x437F JUMP JUMPDEST PUSH1 0x60 PUSH1 0x1 PUSH1 0x1 PUSH1 0xA0 SHL SUB DUP4 AND EXTCODESIZE PUSH2 0x3525 JUMPI PUSH1 0x40 MLOAD PUSH3 0x461BCD PUSH1 0xE5 SHL DUP2 MSTORE PUSH1 0x20 PUSH1 0x4 DUP3 ADD MSTORE PUSH1 0x26 PUSH1 0x24 DUP3 ADD MSTORE PUSH32 0x416464726573733A2064656C65676174652063616C6C20746F206E6F6E2D636F PUSH1 0x44 DUP3 ADD MSTORE PUSH6 0x1B9D1C9858DD PUSH1 0xD2 SHL PUSH1 0x64 DUP3 ADD MSTORE PUSH1 0x84 ADD PUSH2 0x955 JUMP JUMPDEST PUSH1 0x0 DUP1 DUP5 PUSH1 0x1 PUSH1 0x1 PUSH1 0xA0 SHL SUB AND DUP5 PUSH1 0x40 MLOAD PUSH2 0x3540 SWAP2 SWAP1 PUSH2 0x5A12 JUMP JUMPDEST PUSH1 0x0 PUSH1 0x40 MLOAD DUP1 DUP4 SUB DUP2 DUP6 GAS DELEGATECALL SWAP2 POP POP RETURNDATASIZE DUP1 PUSH1 0x0 DUP2 EQ PUSH2 0x357B JUMPI PUSH1 0x40 MLOAD SWAP2 POP PUSH1 0x1F NOT PUSH1 0x3F RETURNDATASIZE ADD AND DUP3 ADD PUSH1 0x40 MSTORE RETURNDATASIZE DUP3 MSTORE RETURNDATASIZE PUSH1 0x0 PUSH1 0x20 DUP5 ADD RETURNDATACOPY PUSH2 0x3580 JUMP JUMPDEST PUSH1 0x60 SWAP2 POP JUMPDEST POP SWAP2 POP SWAP2 POP PUSH2 0x35A8 DUP3 DUP3 PUSH1 0x40 MLOAD DUP1 PUSH1 0x60 ADD PUSH1 0x40 MSTORE DUP1 PUSH1 0x27 DUP2 MSTORE PUSH1 0x20 ADD PUSH2 0x5AAC PUSH1 0x27 SWAP2 CODECOPY PUSH2 0x43A9 JUMP JUMPDEST SWAP6 SWAP5 POP POP POP POP POP JUMP JUMPDEST DUP2 MLOAD PUSH1 0x0 SWAP1 DUP2 MSTORE PUSH2 0x165 PUSH1 0x20 SWAP1 DUP2 MSTORE PUSH1 0x40 DUP1 DUP4 KECCAK256 DUP2 MLOAD PUSH1 0xA0 DUP2 ADD DUP4 MSTORE DUP2 SLOAD DUP2 MSTORE PUSH1 0x1 DUP3 ADD SLOAD PUSH1 0x1 PUSH1 0x1 PUSH1 0xA0 SHL SUB SWAP1 DUP2 AND SWAP5 DUP3 ADD SWAP5 SWAP1 SWAP5 MSTORE PUSH1 0x2 DUP3 ADD SLOAD SWAP3 DUP2 ADD DUP4 SWAP1 MSTORE PUSH1 0x3 DUP3 ADD SLOAD SWAP1 SWAP4 AND PUSH1 0x60 DUP5 ADD MSTORE PUSH1 0x4 ADD SLOAD PUSH1 0x80 DUP4 ADD DUP2 SWAP1 MSTORE SWAP2 SWAP3 SWAP2 PUSH2 0x3618 SWAP2 SWAP1 PUSH2 0x5812 JUMP JUMPDEST SWAP1 POP PUSH1 0x0 DUP4 PUSH1 0x40 ADD MLOAD DUP5 PUSH1 0x80 ADD MLOAD PUSH2 0x3630 SWAP2 SWAP1 PUSH2 0x5812 JUMP JUMPDEST PUSH2 0x120 DUP7 ADD MLOAD SWAP1 SWAP2 POP PUSH32 0x0 SWAP1 ISZERO DUP1 ISZERO SWAP1 PUSH2 0x367D JUMPI POP DUP6 PUSH1 0xC0 ADD MLOAD DUP7 PUSH2 0x120 ADD MLOAD PUSH2 0x3679 SWAP2 SWAP1 PUSH2 0x5812 JUMP JUMPDEST DUP3 LT ISZERO JUMPDEST ISZERO PUSH2 0x3691 JUMPI PUSH2 0x368C DUP7 DUP7 PUSH2 0x3122 JUMP JUMPDEST PUSH2 0x38D6 JUMP JUMPDEST PUSH2 0x36B0 DUP7 PUSH1 0xC0 ADD MLOAD DUP8 PUSH2 0x100 ADD MLOAD PUSH2 0x36A9 SWAP2 SWAP1 PUSH2 0x5812 JUMP JUMPDEST DUP5 DUP5 PUSH2 0x43E2 JUMP JUMPDEST PUSH2 0x36EF JUMPI PUSH1 0x40 MLOAD PUSH3 0x461BCD PUSH1 0xE5 SHL DUP2 MSTORE PUSH1 0x20 PUSH1 0x4 DUP3 ADD MSTORE PUSH1 0x10 PUSH1 0x24 DUP3 ADD MSTORE PUSH16 0x3737BA103BB4B73734B733903134B217 PUSH1 0x81 SHL PUSH1 0x44 DUP3 ADD MSTORE PUSH1 0x64 ADD PUSH2 0x955 JUMP JUMPDEST DUP6 MLOAD PUSH1 0x0 SWAP1 DUP2 MSTORE PUSH2 0x165 PUSH1 0x20 SWAP1 DUP2 MSTORE PUSH1 0x40 SWAP2 DUP3 SWAP1 KECCAK256 DUP8 MLOAD DUP2 SSTORE SWAP1 DUP8 ADD MLOAD PUSH1 0x1 DUP3 ADD DUP1 SLOAD PUSH1 0x1 PUSH1 0x1 PUSH1 0xA0 SHL SUB NOT SWAP1 DUP2 AND PUSH1 0x1 PUSH1 0x1 PUSH1 0xA0 SHL SUB SWAP4 DUP5 AND OR SWAP1 SWAP2 SSTORE SWAP3 DUP9 ADD MLOAD PUSH1 0x2 DUP4 ADD SSTORE PUSH1 0x60 DUP9 ADD MLOAD PUSH1 0x3 DUP4 ADD DUP1 SLOAD SWAP1 SWAP5 AND SWAP2 AND OR SWAP1 SWAP2 SSTORE PUSH1 0x80 DUP7 ADD MLOAD PUSH1 0x4 SWAP1 SWAP2 ADD SSTORE PUSH2 0x162 SLOAD PUSH1 0xA0 DUP8 ADD MLOAD PUSH1 0x1 PUSH1 0x1 PUSH1 0x40 SHL SUB SWAP1 SWAP2 AND SWAP1 PUSH2 0x3775 SWAP1 TIMESTAMP SWAP1 PUSH2 0x59B0 JUMP JUMPDEST GT PUSH2 0x38A0 JUMPI PUSH2 0x162 SLOAD PUSH1 0xA0 DUP8 ADD DUP1 MLOAD PUSH1 0x1 PUSH1 0x1 PUSH1 0x40 SHL SUB SWAP1 SWAP3 AND SWAP2 PUSH2 0x379B SWAP1 DUP4 SWAP1 PUSH2 0x565B JUMP JUMPDEST SWAP1 MSTORE POP DUP6 MLOAD PUSH1 0x0 SWAP1 DUP2 MSTORE PUSH2 0x163 PUSH1 0x20 SWAP1 DUP2 MSTORE PUSH1 0x40 SWAP2 DUP3 SWAP1 KECCAK256 DUP9 MLOAD DUP2 SSTORE SWAP1 DUP9 ADD MLOAD PUSH1 0x1 DUP1 DUP4 ADD DUP1 SLOAD PUSH1 0x1 PUSH1 0x1 PUSH1 0xA0 SHL SUB NOT SWAP1 DUP2 AND PUSH1 0x1 PUSH1 0x1 PUSH1 0xA0 SHL SUB SWAP5 DUP6 AND OR SWAP1 SWAP2 SSTORE SWAP4 DUP11 ADD MLOAD PUSH1 0x2 DUP5 ADD DUP1 SLOAD DUP7 AND SWAP2 DUP5 AND SWAP2 SWAP1 SWAP2 OR SWAP1 SSTORE PUSH1 0x60 DUP11 ADD MLOAD PUSH1 0x3 DUP5 ADD SSTORE PUSH1 0x80 DUP11 ADD MLOAD PUSH1 0x4 DUP5 ADD SSTORE PUSH1 0xA0 DUP11 ADD MLOAD PUSH1 0x5 DUP5 ADD SSTORE PUSH1 0xC0 DUP11 ADD MLOAD PUSH1 0x6 DUP5 ADD SSTORE PUSH1 0xE0 DUP11 ADD MLOAD PUSH1 0x7 DUP5 ADD DUP1 SLOAD SWAP1 SWAP6 AND SWAP3 AND SWAP2 SWAP1 SWAP2 OR SWAP1 SWAP3 SSTORE PUSH2 0x100 DUP9 ADD MLOAD PUSH1 0x8 DUP3 ADD SSTORE PUSH2 0x120 DUP9 ADD MLOAD PUSH1 0x9 DUP3 ADD SSTORE PUSH2 0x140 DUP9 ADD MLOAD PUSH1 0xA DUP3 ADD DUP1 SLOAD DUP11 SWAP5 PUSH1 0xFF NOT SWAP1 SWAP2 AND SWAP1 DUP4 DUP2 DUP2 GT ISZERO PUSH2 0x386D JUMPI PUSH2 0x386D PUSH2 0x5505 JUMP JUMPDEST MUL OR SWAP1 SSTORE POP PUSH2 0x160 DUP3 ADD MLOAD PUSH1 0xA DUP3 ADD DUP1 SLOAD PUSH2 0xFF00 NOT AND PUSH2 0x100 DUP4 PUSH1 0x1 DUP2 GT ISZERO PUSH2 0x3898 JUMPI PUSH2 0x3898 PUSH2 0x5505 JUMP JUMPDEST MUL OR SWAP1 SSTORE POP POP POP JUMPDEST PUSH1 0x20 DUP5 ADD MLOAD PUSH1 0x1 PUSH1 0x1 PUSH1 0xA0 SHL SUB AND ISZERO DUP1 ISZERO SWAP1 PUSH2 0x38BC JUMPI POP PUSH1 0x0 DUP4 GT JUMPDEST ISZERO PUSH2 0x38D6 JUMPI PUSH2 0x38D6 DUP7 PUSH1 0xE0 ADD MLOAD ADDRESS DUP7 PUSH1 0x20 ADD MLOAD DUP7 DUP6 PUSH2 0x443E JUMP JUMPDEST PUSH2 0x38EB DUP7 PUSH1 0xE0 ADD MLOAD DUP7 PUSH1 0x20 ADD MLOAD ADDRESS DUP6 DUP6 PUSH2 0x443E JUMP JUMPDEST DUP6 PUSH2 0x160 ADD MLOAD PUSH1 0x1 DUP2 GT ISZERO PUSH2 0x3902 JUMPI PUSH2 0x3902 PUSH2 0x5505 JUMP JUMPDEST DUP6 PUSH1 0x20 ADD MLOAD PUSH1 0x1 PUSH1 0x1 PUSH1 0xA0 SHL SUB AND DUP8 PUSH1 0x0 ADD MLOAD PUSH32 0x8A412352601A288B3DE40254A9DE2AB14A497AA3638A7E558480680A56E2705D DUP9 PUSH1 0x40 ADD MLOAD DUP10 PUSH1 0x40 ADD MLOAD DUP11 PUSH1 0x80 ADD MLOAD PUSH2 0x394F SWAP2 SWAP1 PUSH2 0x5812 JUMP JUMPDEST PUSH1 0x60 DUP1 DUP13 ADD MLOAD PUSH1 0x40 DUP1 MLOAD SWAP5 DUP6 MSTORE PUSH1 0x20 DUP6 ADD SWAP4 SWAP1 SWAP4 MSTORE PUSH1 0x1 PUSH1 0x1 PUSH1 0xA0 SHL SUB AND SWAP2 DUP4 ADD SWAP2 SWAP1 SWAP2 MSTORE ADD PUSH2 0x342B JUMP JUMPDEST DUP2 PUSH1 0xC0 ADD MLOAD DUP2 PUSH1 0x40 ADD MLOAD GT ISZERO DUP1 ISZERO PUSH2 0x3996 JUMPI POP PUSH1 0x0 DUP3 PUSH1 0xC0 ADD MLOAD GT JUMPDEST PUSH2 0x39E2 JUMPI PUSH1 0x40 MLOAD PUSH3 0x461BCD PUSH1 0xE5 SHL DUP2 MSTORE PUSH1 0x20 PUSH1 0x4 DUP3 ADD MSTORE PUSH1 0x1F PUSH1 0x24 DUP3 ADD MSTORE PUSH32 0x696E73756666696369656E7420746F6B656E7320696E206C697374696E672E00 PUSH1 0x44 DUP3 ADD MSTORE PUSH1 0x64 ADD PUSH2 0x955 JUMP JUMPDEST PUSH2 0x3A08 DUP2 PUSH1 0x20 ADD MLOAD DUP3 PUSH1 0x60 ADD MLOAD DUP4 PUSH1 0x40 ADD MLOAD DUP5 PUSH1 0x80 ADD MLOAD PUSH2 0x3A03 SWAP2 SWAP1 PUSH2 0x5812 JUMP JUMPDEST PUSH2 0x45AE JUMP JUMPDEST DUP2 MLOAD PUSH1 0x0 SWAP1 DUP2 MSTORE PUSH2 0x164 PUSH1 0x20 SWAP1 DUP2 MSTORE PUSH1 0x40 DUP1 DUP4 KECCAK256 DUP3 DUP6 ADD DUP1 MLOAD PUSH1 0x1 PUSH1 0x1 PUSH1 0xA0 SHL SUB SWAP1 DUP2 AND DUP7 MSTORE SWAP2 SWAP1 SWAP4 MSTORE SWAP3 DUP2 SWAP1 KECCAK256 DUP5 MLOAD DUP2 SSTORE SWAP2 MLOAD PUSH1 0x1 DUP1 DUP5 ADD DUP1 SLOAD SWAP3 DUP7 AND PUSH1 0x1 PUSH1 0x1 PUSH1 0xA0 SHL SUB NOT SWAP4 DUP5 AND OR SWAP1 SSTORE SWAP2 DUP6 ADD MLOAD PUSH1 0x2 DUP5 ADD SSTORE PUSH1 0x60 DUP6 ADD MLOAD PUSH1 0x3 DUP5 ADD DUP1 SLOAD SWAP2 SWAP1 SWAP6 AND SWAP2 AND OR SWAP1 SWAP3 SSTORE PUSH1 0x80 DUP4 ADD MLOAD PUSH1 0x4 SWAP1 SWAP2 ADD SSTORE PUSH2 0x160 DUP4 ADD MLOAD SWAP1 DUP2 GT ISZERO PUSH2 0x3A94 JUMPI PUSH2 0x3A94 PUSH2 0x5505 JUMP JUMPDEST DUP2 PUSH1 0x20 ADD MLOAD PUSH1 0x1 PUSH1 0x1 PUSH1 0xA0 SHL SUB AND DUP4 PUSH1 0x0 ADD MLOAD PUSH32 0x8A412352601A288B3DE40254A9DE2AB14A497AA3638A7E558480680A56E2705D DUP5 PUSH1 0x40 ADD MLOAD DUP6 PUSH1 0x40 ADD MLOAD DUP7 PUSH1 0x80 ADD MLOAD PUSH2 0x3AE1 SWAP2 SWAP1 PUSH2 0x5812 JUMP JUMPDEST PUSH1 0x60 DUP8 DUP2 ADD MLOAD PUSH1 0x40 DUP1 MLOAD SWAP5 DUP6 MSTORE PUSH1 0x20 DUP6 ADD SWAP4 SWAP1 SWAP4 MSTORE PUSH1 0x1 PUSH1 0x1 PUSH1 0xA0 SHL SUB AND DUP4 DUP4 ADD MSTORE SWAP1 MLOAD SWAP2 DUP3 SWAP1 SUB ADD SWAP1 LOG4 POP POP JUMP JUMPDEST PUSH1 0x0 PUSH2 0x8FE DUP3 SLOAD SWAP1 JUMP JUMPDEST PUSH1 0x0 PUSH1 0x1 PUSH1 0x1 PUSH1 0xE0 SHL SUB NOT DUP3 AND PUSH4 0x7965DB0B PUSH1 0xE0 SHL EQ DUP1 PUSH2 0x8FE JUMPI POP PUSH4 0x1FFC9A7 PUSH1 0xE0 SHL PUSH1 0x1 PUSH1 0x1 PUSH1 0xE0 SHL SUB NOT DUP4 AND EQ PUSH2 0x8FE JUMP JUMPDEST CALLER PUSH1 0x0 SWAP1 DUP2 MSTORE PUSH1 0x65 PUSH1 0x20 MSTORE PUSH1 0x40 DUP2 KECCAK256 SLOAD PUSH1 0xFF AND ISZERO PUSH2 0x3B74 JUMPI POP PUSH1 0x13 NOT CALLDATASIZE ADD CALLDATALOAD PUSH1 0x60 SHR SWAP1 JUMP JUMPDEST POP CALLER SWAP1 JUMP JUMPDEST PUSH1 0x60 PUSH1 0x0 PUSH2 0x3B88 DUP4 PUSH1 0x2 PUSH2 0x5812 JUMP JUMPDEST PUSH2 0x3B93 SWAP1 PUSH1 0x2 PUSH2 0x565B JUMP JUMPDEST PUSH1 0x1 PUSH1 0x1 PUSH1 0x40 SHL SUB DUP2 GT ISZERO PUSH2 0x3BAA JUMPI PUSH2 0x3BAA PUSH2 0x4E51 JUMP JUMPDEST PUSH1 0x40 MLOAD SWAP1 DUP1 DUP3 MSTORE DUP1 PUSH1 0x1F ADD PUSH1 0x1F NOT AND PUSH1 0x20 ADD DUP3 ADD PUSH1 0x40 MSTORE DUP1 ISZERO PUSH2 0x3BD4 JUMPI PUSH1 0x20 DUP3 ADD DUP2 DUP1 CALLDATASIZE DUP4 CALLDATACOPY ADD SWAP1 POP JUMPDEST POP SWAP1 POP PUSH1 0x3 PUSH1 0xFC SHL DUP2 PUSH1 0x0 DUP2 MLOAD DUP2 LT PUSH2 0x3BEF JUMPI PUSH2 0x3BEF PUSH2 0x5831 JUMP JUMPDEST PUSH1 0x20 ADD ADD SWAP1 PUSH1 0x1 PUSH1 0x1 PUSH1 0xF8 SHL SUB NOT AND SWAP1 DUP2 PUSH1 0x0 BYTE SWAP1 MSTORE8 POP PUSH1 0xF PUSH1 0xFB SHL DUP2 PUSH1 0x1 DUP2 MLOAD DUP2 LT PUSH2 0x3C1E JUMPI PUSH2 0x3C1E PUSH2 0x5831 JUMP JUMPDEST PUSH1 0x20 ADD ADD SWAP1 PUSH1 0x1 PUSH1 0x1 PUSH1 0xF8 SHL SUB NOT AND SWAP1 DUP2 PUSH1 0x0 BYTE SWAP1 MSTORE8 POP PUSH1 0x0 PUSH2 0x3C42 DUP5 PUSH1 0x2 PUSH2 0x5812 JUMP JUMPDEST PUSH2 0x3C4D SWAP1 PUSH1 0x1 PUSH2 0x565B JUMP JUMPDEST SWAP1 POP JUMPDEST PUSH1 0x1 DUP2 GT ISZERO PUSH2 0x3CC5 JUMPI PUSH16 0x181899199A1A9B1B9C1CB0B131B232B3 PUSH1 0x81 SHL DUP6 PUSH1 0xF AND PUSH1 0x10 DUP2 LT PUSH2 0x3C81 JUMPI PUSH2 0x3C81 PUSH2 0x5831 JUMP JUMPDEST BYTE PUSH1 0xF8 SHL DUP3 DUP3 DUP2 MLOAD DUP2 LT PUSH2 0x3C97 JUMPI PUSH2 0x3C97 PUSH2 0x5831 JUMP JUMPDEST PUSH1 0x20 ADD ADD SWAP1 PUSH1 0x1 PUSH1 0x1 PUSH1 0xF8 SHL SUB NOT AND SWAP1 DUP2 PUSH1 0x0 BYTE SWAP1 MSTORE8 POP PUSH1 0x4 SWAP5 SWAP1 SWAP5 SHR SWAP4 PUSH2 0x3CBE DUP2 PUSH2 0x5A2E JUMP JUMPDEST SWAP1 POP PUSH2 0x3C50 JUMP JUMPDEST POP DUP4 ISZERO PUSH2 0x187B JUMPI PUSH1 0x40 MLOAD PUSH3 0x461BCD PUSH1 0xE5 SHL DUP2 MSTORE PUSH1 0x20 PUSH1 0x4 DUP3 ADD DUP2 SWAP1 MSTORE PUSH1 0x24 DUP3 ADD MSTORE PUSH32 0x537472696E67733A20686578206C656E67746820696E73756666696369656E74 PUSH1 0x44 DUP3 ADD MSTORE PUSH1 0x64 ADD PUSH2 0x955 JUMP JUMPDEST PUSH2 0x3D1E DUP3 DUP3 PUSH2 0x1882 JUMP JUMPDEST PUSH2 0xF4F JUMPI PUSH1 0x0 DUP3 DUP2 MSTORE PUSH1 0xFB PUSH1 0x20 SWAP1 DUP2 MSTORE PUSH1 0x40 DUP1 DUP4 KECCAK256 PUSH1 0x1 PUSH1 0x1 PUSH1 0xA0 SHL SUB DUP6 AND DUP5 MSTORE SWAP1 SWAP2 MSTORE SWAP1 KECCAK256 DUP1 SLOAD PUSH1 0xFF NOT AND PUSH1 0x1 OR SWAP1 SSTORE PUSH2 0x3D57 PUSH2 0x26EC JUMP JUMPDEST PUSH1 0x1 PUSH1 0x1 PUSH1 0xA0 SHL SUB AND DUP2 PUSH1 0x1 PUSH1 0x1 PUSH1 0xA0 SHL SUB AND DUP4 PUSH32 0x2F8788117E7EFF1D82E926EC794901D17C78024A50270940304540A733656F0D PUSH1 0x40 MLOAD PUSH1 0x40 MLOAD DUP1 SWAP2 SUB SWAP1 LOG4 POP POP JUMP JUMPDEST PUSH1 0x0 PUSH2 0x187B DUP4 PUSH1 0x1 PUSH1 0x1 PUSH1 0xA0 SHL SUB DUP5 AND PUSH2 0x46F1 JUMP JUMPDEST PUSH2 0x3DBA DUP3 DUP3 PUSH2 0x1882 JUMP JUMPDEST ISZERO PUSH2 0xF4F JUMPI PUSH1 0x0 DUP3 DUP2 MSTORE PUSH1 0xFB PUSH1 0x20 SWAP1 DUP2 MSTORE PUSH1 0x40 DUP1 DUP4 KECCAK256 PUSH1 0x1 PUSH1 0x1 PUSH1 0xA0 SHL SUB DUP6 AND DUP5 MSTORE SWAP1 SWAP2 MSTORE SWAP1 KECCAK256 DUP1 SLOAD PUSH1 0xFF NOT AND SWAP1 SSTORE PUSH2 0x3DF1 PUSH2 0x26EC JUMP JUMPDEST PUSH1 0x1 PUSH1 0x1 PUSH1 0xA0 SHL SUB AND DUP2 PUSH1 0x1 PUSH1 0x1 PUSH1 0xA0 SHL SUB AND DUP4 PUSH32 0xF6391F5C32D9C69D2A47EA670B442974B53935D1EDC7FD64EB21E047A839171B PUSH1 0x40 MLOAD PUSH1 0x40 MLOAD DUP1 SWAP2 SUB SWAP1 LOG4 POP POP JUMP JUMPDEST PUSH1 0x0 PUSH2 0x187B DUP4 PUSH1 0x1 PUSH1 0x1 PUSH1 0xA0 SHL SUB DUP5 AND PUSH2 0x4740 JUMP JUMPDEST PUSH2 0x161 SLOAD PUSH1 0x0 SWAP1 PUSH2 0x2710 SWAP1 PUSH2 0x3E6F SWAP1 PUSH1 0x1 PUSH1 0xA0 SHL SWAP1 DIV PUSH1 0x1 PUSH1 0x1 PUSH1 0x40 SHL SUB AND DUP6 PUSH2 0x5812 JUMP JUMPDEST PUSH2 0x3E79 SWAP2 SWAP1 PUSH2 0x5A45 JUMP JUMPDEST PUSH1 0x40 MLOAD PUSH4 0x85B49AD PUSH1 0xE4 SHL DUP2 MSTORE ADDRESS PUSH1 0x4 DUP3 ADD MSTORE PUSH1 0x1 PUSH1 0x24 DUP3 ADD MSTORE SWAP1 SWAP2 POP PUSH1 0x0 SWAP1 DUP2 SWAP1 PUSH1 0x1 PUSH1 0x1 PUSH1 0xA0 SHL SUB PUSH32 0x0 AND SWAP1 PUSH4 0x85B49AD0 SWAP1 PUSH1 0x44 ADD PUSH1 0x40 DUP1 MLOAD DUP1 DUP4 SUB DUP2 DUP7 GAS STATICCALL ISZERO DUP1 ISZERO PUSH2 0x3EEB JUMPI RETURNDATASIZE PUSH1 0x0 DUP1 RETURNDATACOPY RETURNDATASIZE PUSH1 0x0 REVERT JUMPDEST POP POP POP POP PUSH1 0x40 MLOAD RETURNDATASIZE PUSH1 0x1F NOT PUSH1 0x1F DUP3 ADD AND DUP3 ADD DUP1 PUSH1 0x40 MSTORE POP DUP2 ADD SWAP1 PUSH2 0x3F0F SWAP2 SWAP1 PUSH2 0x5A67 JUMP JUMPDEST SWAP1 SWAP3 POP SWAP1 POP PUSH1 0x0 PUSH2 0x2710 PUSH2 0x3F23 DUP4 DUP9 PUSH2 0x5812 JUMP JUMPDEST PUSH2 0x3F2D SWAP2 SWAP1 PUSH2 0x5A45 JUMP JUMPDEST SWAP1 POP PUSH1 0x0 DUP1 DUP7 PUSH1 0x40 ADD MLOAD PUSH1 0x1 PUSH1 0x1 PUSH1 0xA0 SHL SUB AND PUSH4 0x2A55205A DUP9 PUSH1 0x60 ADD MLOAD DUP11 PUSH1 0x40 MLOAD DUP4 PUSH4 0xFFFFFFFF AND PUSH1 0xE0 SHL DUP2 MSTORE PUSH1 0x4 ADD PUSH2 0x3F71 SWAP3 SWAP2 SWAP1 SWAP2 DUP3 MSTORE PUSH1 0x20 DUP3 ADD MSTORE PUSH1 0x40 ADD SWAP1 JUMP JUMPDEST PUSH1 0x40 DUP1 MLOAD DUP1 DUP4 SUB DUP2 DUP7 GAS STATICCALL SWAP3 POP POP POP DUP1 ISZERO PUSH2 0x3FA9 JUMPI POP PUSH1 0x40 DUP1 MLOAD PUSH1 0x1F RETURNDATASIZE SWAP1 DUP2 ADD PUSH1 0x1F NOT AND DUP3 ADD SWAP1 SWAP3 MSTORE PUSH2 0x3FA6 SWAP2 DUP2 ADD SWAP1 PUSH2 0x5A67 JUMP JUMPDEST PUSH1 0x1 JUMPDEST PUSH2 0x3FB2 JUMPI PUSH2 0x4035 JUMP JUMPDEST PUSH1 0x1 PUSH1 0x1 PUSH1 0xA0 SHL SUB DUP3 AND ISZERO DUP1 ISZERO SWAP1 PUSH2 0x3FCA JUMPI POP PUSH1 0x0 DUP2 GT JUMPDEST ISZERO PUSH2 0x4032 JUMPI DUP10 DUP6 PUSH2 0x3FDB DUP11 DUP5 PUSH2 0x565B JUMP JUMPDEST PUSH2 0x3FE5 SWAP2 SWAP1 PUSH2 0x565B JUMP JUMPDEST GT ISZERO PUSH2 0x402B JUMPI PUSH1 0x40 MLOAD PUSH3 0x461BCD PUSH1 0xE5 SHL DUP2 MSTORE PUSH1 0x20 PUSH1 0x4 DUP3 ADD MSTORE PUSH1 0x15 PUSH1 0x24 DUP3 ADD MSTORE PUSH21 0x666565732065786365656420746865207072696365 PUSH1 0x58 SHL PUSH1 0x44 DUP3 ADD MSTORE PUSH1 0x64 ADD PUSH2 0x955 JUMP JUMPDEST DUP2 SWAP3 POP DUP1 SWAP4 POP JUMPDEST POP POP JUMPDEST PUSH2 0x161 SLOAD PUSH32 0x0 SWAP1 PUSH2 0x4073 SWAP1 DUP12 SWAP1 DUP15 SWAP1 PUSH1 0x1 PUSH1 0x1 PUSH1 0xA0 SHL SUB AND DUP11 DUP6 PUSH2 0x443E JUMP JUMPDEST PUSH2 0x4080 DUP11 DUP14 DUP5 DUP7 DUP6 PUSH2 0x443E JUMP JUMPDEST PUSH2 0x408D DUP11 DUP14 DUP9 DUP8 DUP6 PUSH2 0x443E JUMP JUMPDEST PUSH2 0x40B8 DUP11 DUP14 DUP14 DUP8 PUSH2 0x409E DUP9 DUP14 PUSH2 0x565B JUMP JUMPDEST PUSH2 0x40A8 SWAP2 SWAP1 PUSH2 0x565B JUMP JUMPDEST PUSH2 0x40B2 SWAP1 DUP15 PUSH2 0x59B0 JUMP JUMPDEST DUP6 PUSH2 0x443E JUMP JUMPDEST POP POP POP POP POP POP POP POP POP POP POP POP JUMP JUMPDEST PUSH1 0x0 DUP6 PUSH2 0x160 ADD MLOAD PUSH1 0x1 DUP2 GT ISZERO PUSH2 0x40DF JUMPI PUSH2 0x40DF PUSH2 0x5505 JUMP JUMPDEST EQ PUSH2 0x412C JUMPI PUSH1 0x40 MLOAD PUSH3 0x461BCD PUSH1 0xE5 SHL DUP2 MSTORE PUSH1 0x20 PUSH1 0x4 DUP3 ADD MSTORE PUSH1 0x18 PUSH1 0x24 DUP3 ADD MSTORE PUSH32 0x63616E6E6F74206275792066726F6D206C697374696E672E0000000000000000 PUSH1 0x44 DUP3 ADD MSTORE PUSH1 0x64 ADD PUSH2 0x955 JUMP JUMPDEST PUSH1 0x0 DUP6 PUSH1 0xC0 ADD MLOAD GT DUP1 ISZERO PUSH2 0x4140 JUMPI POP PUSH1 0x0 DUP4 GT JUMPDEST DUP1 ISZERO PUSH2 0x4150 JUMPI POP DUP5 PUSH1 0xC0 ADD MLOAD DUP4 GT ISZERO JUMPDEST PUSH2 0x419C JUMPI PUSH1 0x40 MLOAD PUSH3 0x461BCD PUSH1 0xE5 SHL DUP2 MSTORE PUSH1 0x20 PUSH1 0x4 DUP3 ADD MSTORE PUSH1 0x19 PUSH1 0x24 DUP3 ADD MSTORE PUSH32 0x696E76616C696420616D6F756E74206F6620746F6B656E732E00000000000000 PUSH1 0x44 DUP3 ADD MSTORE PUSH1 0x64 ADD PUSH2 0x955 JUMP JUMPDEST DUP5 PUSH1 0xA0 ADD MLOAD TIMESTAMP LT DUP1 ISZERO PUSH2 0x41B2 JUMPI POP DUP5 PUSH1 0x80 ADD MLOAD TIMESTAMP GT JUMPDEST PUSH2 0x41FE JUMPI PUSH1 0x40 MLOAD PUSH3 0x461BCD PUSH1 0xE5 SHL DUP2 MSTORE PUSH1 0x20 PUSH1 0x4 DUP3 ADD MSTORE PUSH1 0x17 PUSH1 0x24 DUP3 ADD MSTORE PUSH32 0x6E6F742077697468696E2073616C652077696E646F772E000000000000000000 PUSH1 0x44 DUP3 ADD MSTORE PUSH1 0x64 ADD PUSH2 0x955 JUMP JUMPDEST PUSH1 0x1 PUSH1 0x1 PUSH1 0xA0 SHL SUB DUP3 AND PUSH20 0xEEEEEEEEEEEEEEEEEEEEEEEEEEEEEEEEEEEEEEEE EQ ISZERO PUSH2 0x426C JUMPI DUP1 CALLVALUE EQ PUSH2 0x4267 JUMPI PUSH1 0x40 MLOAD PUSH3 0x461BCD PUSH1 0xE5 SHL DUP2 MSTORE PUSH1 0x20 PUSH1 0x4 DUP3 ADD MSTORE PUSH1 0x12 PUSH1 0x24 DUP3 ADD MSTORE PUSH18 0x6D73672E76616C756520213D207072696365 PUSH1 0x70 SHL PUSH1 0x44 DUP3 ADD MSTORE PUSH1 0x64 ADD PUSH2 0x955 JUMP JUMPDEST PUSH2 0x4277 JUMP JUMPDEST PUSH2 0x4277 DUP5 DUP4 DUP4 PUSH2 0x45AE JUMP JUMPDEST PUSH2 0x4295 DUP6 PUSH1 0x20 ADD MLOAD DUP7 PUSH1 0x40 ADD MLOAD DUP8 PUSH1 0x60 ADD MLOAD DUP7 DUP10 PUSH2 0x140 ADD MLOAD PUSH2 0x28FD JUMP JUMPDEST POP POP POP POP POP JUMP JUMPDEST PUSH1 0x0 SLOAD PUSH2 0x100 SWAP1 DIV PUSH1 0xFF AND PUSH2 0x42C3 JUMPI PUSH1 0x40 MLOAD PUSH3 0x461BCD PUSH1 0xE5 SHL DUP2 MSTORE PUSH1 0x4 ADD PUSH2 0x955 SWAP1 PUSH2 0x59C7 JUMP JUMPDEST PUSH1 0x1 DUP1 SSTORE JUMP JUMPDEST PUSH1 0x0 SLOAD PUSH2 0x100 SWAP1 DIV PUSH1 0xFF AND PUSH2 0x346A JUMPI PUSH1 0x40 MLOAD PUSH3 0x461BCD PUSH1 0xE5 SHL DUP2 MSTORE PUSH1 0x4 ADD PUSH2 0x955 SWAP1 PUSH2 0x59C7 JUMP JUMPDEST PUSH1 0x0 SLOAD PUSH2 0x100 SWAP1 DIV PUSH1 0xFF AND PUSH2 0x4317 JUMPI PUSH1 0x40 MLOAD PUSH3 0x461BCD PUSH1 0xE5 SHL DUP2 MSTORE PUSH1 0x4 ADD PUSH2 0x955 SWAP1 PUSH2 0x59C7 JUMP JUMPDEST PUSH1 0x0 JUMPDEST DUP2 MLOAD DUP2 LT ISZERO PUSH2 0xF4F JUMPI PUSH1 0x1 PUSH1 0x65 PUSH1 0x0 DUP5 DUP5 DUP2 MLOAD DUP2 LT PUSH2 0x433B JUMPI PUSH2 0x433B PUSH2 0x5831 JUMP JUMPDEST PUSH1 0x20 SWAP1 DUP2 MUL SWAP2 SWAP1 SWAP2 ADD DUP2 ADD MLOAD PUSH1 0x1 PUSH1 0x1 PUSH1 0xA0 SHL SUB AND DUP3 MSTORE DUP2 ADD SWAP2 SWAP1 SWAP2 MSTORE PUSH1 0x40 ADD PUSH1 0x0 KECCAK256 DUP1 SLOAD PUSH1 0xFF NOT AND SWAP2 ISZERO ISZERO SWAP2 SWAP1 SWAP2 OR SWAP1 SSTORE DUP1 PUSH2 0x4377 DUP2 PUSH2 0x588D JUMP JUMPDEST SWAP2 POP POP PUSH2 0x431A JUMP JUMPDEST PUSH1 0x0 DUP3 PUSH1 0x0 ADD DUP3 DUP2 SLOAD DUP2 LT PUSH2 0x4396 JUMPI PUSH2 0x4396 PUSH2 0x5831 JUMP JUMPDEST SWAP1 PUSH1 0x0 MSTORE PUSH1 0x20 PUSH1 0x0 KECCAK256 ADD SLOAD SWAP1 POP SWAP3 SWAP2 POP POP JUMP JUMPDEST PUSH1 0x60 DUP4 ISZERO PUSH2 0x43B8 JUMPI POP DUP2 PUSH2 0x187B JUMP JUMPDEST DUP3 MLOAD ISZERO PUSH2 0x43C8 JUMPI DUP3 MLOAD DUP1 DUP5 PUSH1 0x20 ADD REVERT JUMPDEST DUP2 PUSH1 0x40 MLOAD PUSH3 0x461BCD PUSH1 0xE5 SHL DUP2 MSTORE PUSH1 0x4 ADD PUSH2 0x955 SWAP2 SWAP1 PUSH2 0x55CA JUMP JUMPDEST PUSH1 0x0 DUP3 PUSH2 0x43F3 JUMPI POP DUP3 DUP2 LT ISZERO PUSH2 0x187B JUMP JUMPDEST DUP3 DUP3 GT DUP1 ISZERO PUSH2 0x4436 JUMPI POP PUSH2 0x162 SLOAD PUSH1 0x1 PUSH1 0x40 SHL SWAP1 DIV PUSH1 0x1 PUSH1 0x1 PUSH1 0x40 SHL SUB AND DUP4 PUSH2 0x2710 PUSH2 0x441F DUP3 DUP7 PUSH2 0x59B0 JUMP JUMPDEST PUSH2 0x4429 SWAP2 SWAP1 PUSH2 0x5812 JUMP JUMPDEST PUSH2 0x4433 SWAP2 SWAP1 PUSH2 0x5A45 JUMP JUMPDEST LT ISZERO JUMPDEST SWAP5 SWAP4 POP POP POP POP JUMP JUMPDEST DUP2 PUSH2 0x4448 JUMPI PUSH2 0x4295 JUMP JUMPDEST PUSH1 0x1 PUSH1 0x1 PUSH1 0xA0 SHL SUB DUP6 AND PUSH20 0xEEEEEEEEEEEEEEEEEEEEEEEEEEEEEEEEEEEEEEEE EQ ISZERO PUSH2 0x45A2 JUMPI PUSH1 0x1 PUSH1 0x1 PUSH1 0xA0 SHL SUB DUP5 AND ADDRESS EQ ISZERO PUSH2 0x44E8 JUMPI PUSH1 0x40 MLOAD PUSH4 0x2E1A7D4D PUSH1 0xE0 SHL DUP2 MSTORE PUSH1 0x4 DUP2 ADD DUP4 SWAP1 MSTORE PUSH1 0x1 PUSH1 0x1 PUSH1 0xA0 SHL SUB DUP3 AND SWAP1 PUSH4 0x2E1A7D4D SWAP1 PUSH1 0x24 ADD PUSH1 0x0 PUSH1 0x40 MLOAD DUP1 DUP4 SUB DUP2 PUSH1 0x0 DUP8 DUP1 EXTCODESIZE ISZERO DUP1 ISZERO PUSH2 0x44C0 JUMPI PUSH1 0x0 DUP1 REVERT JUMPDEST POP GAS CALL ISZERO DUP1 ISZERO PUSH2 0x44D4 JUMPI RETURNDATASIZE PUSH1 0x0 DUP1 RETURNDATACOPY RETURNDATASIZE PUSH1 0x0 REVERT JUMPDEST POP POP POP POP PUSH2 0x44E3 DUP4 DUP4 DUP4 PUSH2 0x4833 JUMP JUMPDEST PUSH2 0x4295 JUMP JUMPDEST PUSH1 0x1 PUSH1 0x1 PUSH1 0xA0 SHL SUB DUP4 AND ADDRESS EQ ISZERO PUSH2 0x4597 JUMPI CALLVALUE DUP3 EQ PUSH2 0x453E JUMPI PUSH1 0x40 MLOAD PUSH3 0x461BCD PUSH1 0xE5 SHL DUP2 MSTORE PUSH1 0x20 PUSH1 0x4 DUP3 ADD MSTORE PUSH1 0x13 PUSH1 0x24 DUP3 ADD MSTORE PUSH19 0x1B5CD9CB9D985B1D5948084F48185B5BDD5B9D PUSH1 0x6A SHL PUSH1 0x44 DUP3 ADD MSTORE PUSH1 0x64 ADD PUSH2 0x955 JUMP JUMPDEST DUP1 PUSH1 0x1 PUSH1 0x1 PUSH1 0xA0 SHL SUB AND PUSH4 0xD0E30DB0 DUP4 PUSH1 0x40 MLOAD DUP3 PUSH4 0xFFFFFFFF AND PUSH1 0xE0 SHL DUP2 MSTORE PUSH1 0x4 ADD PUSH1 0x0 PUSH1 0x40 MLOAD DUP1 DUP4 SUB DUP2 DUP6 DUP9 DUP1 EXTCODESIZE ISZERO DUP1 ISZERO PUSH2 0x4579 JUMPI PUSH1 0x0 DUP1 REVERT JUMPDEST POP GAS CALL ISZERO DUP1 ISZERO PUSH2 0x458D JUMPI RETURNDATASIZE PUSH1 0x0 DUP1 RETURNDATACOPY RETURNDATASIZE PUSH1 0x0 REVERT JUMPDEST POP POP POP POP POP PUSH2 0x4295 JUMP JUMPDEST PUSH2 0x44E3 DUP4 DUP4 DUP4 PUSH2 0x4833 JUMP JUMPDEST PUSH2 0x4295 DUP6 DUP6 DUP6 DUP6 PUSH2 0x4994 JUMP JUMPDEST PUSH1 0x40 MLOAD PUSH4 0x70A08231 PUSH1 0xE0 SHL DUP2 MSTORE PUSH1 0x1 PUSH1 0x1 PUSH1 0xA0 SHL SUB DUP5 DUP2 AND PUSH1 0x4 DUP4 ADD MSTORE DUP3 SWAP2 SWAP1 DUP5 AND SWAP1 PUSH4 0x70A08231 SWAP1 PUSH1 0x24 ADD PUSH1 0x20 PUSH1 0x40 MLOAD DUP1 DUP4 SUB DUP2 DUP7 GAS STATICCALL ISZERO DUP1 ISZERO PUSH2 0x45F7 JUMPI RETURNDATASIZE PUSH1 0x0 DUP1 RETURNDATACOPY RETURNDATASIZE PUSH1 0x0 REVERT JUMPDEST POP POP POP POP PUSH1 0x40 MLOAD RETURNDATASIZE PUSH1 0x1F NOT PUSH1 0x1F DUP3 ADD AND DUP3 ADD DUP1 PUSH1 0x40 MSTORE POP DUP2 ADD SWAP1 PUSH2 0x461B SWAP2 SWAP1 PUSH2 0x597A JUMP JUMPDEST LT ISZERO DUP1 ISZERO PUSH2 0x469A JUMPI POP PUSH1 0x40 MLOAD PUSH4 0x6EB1769F PUSH1 0xE1 SHL DUP2 MSTORE PUSH1 0x1 PUSH1 0x1 PUSH1 0xA0 SHL SUB DUP5 DUP2 AND PUSH1 0x4 DUP4 ADD MSTORE ADDRESS PUSH1 0x24 DUP4 ADD MSTORE DUP3 SWAP2 SWAP1 DUP5 AND SWAP1 PUSH4 0xDD62ED3E SWAP1 PUSH1 0x44 ADD PUSH1 0x20 PUSH1 0x40 MLOAD DUP1 DUP4 SUB DUP2 DUP7 GAS STATICCALL ISZERO DUP1 ISZERO PUSH2 0x4673 JUMPI RETURNDATASIZE PUSH1 0x0 DUP1 RETURNDATACOPY RETURNDATASIZE PUSH1 0x0 REVERT JUMPDEST POP POP POP POP PUSH1 0x40 MLOAD RETURNDATASIZE PUSH1 0x1F NOT PUSH1 0x1F DUP3 ADD AND DUP3 ADD DUP1 PUSH1 0x40 MSTORE POP DUP2 ADD SWAP1 PUSH2 0x4697 SWAP2 SWAP1 PUSH2 0x597A JUMP JUMPDEST LT ISZERO JUMPDEST PUSH2 0xEC0 JUMPI PUSH1 0x40 MLOAD PUSH3 0x461BCD PUSH1 0xE5 SHL DUP2 MSTORE PUSH1 0x20 PUSH1 0x4 DUP3 ADD MSTORE PUSH1 0x22 PUSH1 0x24 DUP3 ADD MSTORE PUSH32 0x696E73756666696369656E742062616C616E6365206F7220616C6C6F77616E63 PUSH1 0x44 DUP3 ADD MSTORE PUSH2 0x3297 PUSH1 0xF1 SHL PUSH1 0x64 DUP3 ADD MSTORE PUSH1 0x84 ADD PUSH2 0x955 JUMP JUMPDEST PUSH1 0x0 DUP2 DUP2 MSTORE PUSH1 0x1 DUP4 ADD PUSH1 0x20 MSTORE PUSH1 0x40 DUP2 KECCAK256 SLOAD PUSH2 0x4738 JUMPI POP DUP2 SLOAD PUSH1 0x1 DUP2 DUP2 ADD DUP5 SSTORE PUSH1 0x0 DUP5 DUP2 MSTORE PUSH1 0x20 DUP1 DUP3 KECCAK256 SWAP1 SWAP4 ADD DUP5 SWAP1 SSTORE DUP5 SLOAD DUP5 DUP3 MSTORE DUP3 DUP7 ADD SWAP1 SWAP4 MSTORE PUSH1 0x40 SWAP1 KECCAK256 SWAP2 SWAP1 SWAP2 SSTORE PUSH2 0x8FE JUMP JUMPDEST POP PUSH1 0x0 PUSH2 0x8FE JUMP JUMPDEST PUSH1 0x0 DUP2 DUP2 MSTORE PUSH1 0x1 DUP4 ADD PUSH1 0x20 MSTORE PUSH1 0x40 DUP2 KECCAK256 SLOAD DUP1 ISZERO PUSH2 0x4829 JUMPI PUSH1 0x0 PUSH2 0x4764 PUSH1 0x1 DUP4 PUSH2 0x59B0 JUMP JUMPDEST DUP6 SLOAD SWAP1 SWAP2 POP PUSH1 0x0 SWAP1 PUSH2 0x4778 SWAP1 PUSH1 0x1 SWAP1 PUSH2 0x59B0 JUMP JUMPDEST SWAP1 POP DUP2 DUP2 EQ PUSH2 0x47DD JUMPI PUSH1 0x0 DUP7 PUSH1 0x0 ADD DUP3 DUP2 SLOAD DUP2 LT PUSH2 0x4798 JUMPI PUSH2 0x4798 PUSH2 0x5831 JUMP JUMPDEST SWAP1 PUSH1 0x0 MSTORE PUSH1 0x20 PUSH1 0x0 KECCAK256 ADD SLOAD SWAP1 POP DUP1 DUP8 PUSH1 0x0 ADD DUP5 DUP2 SLOAD DUP2 LT PUSH2 0x47BB JUMPI PUSH2 0x47BB PUSH2 0x5831 JUMP JUMPDEST PUSH1 0x0 SWAP2 DUP3 MSTORE PUSH1 0x20 DUP1 DUP4 KECCAK256 SWAP1 SWAP2 ADD SWAP3 SWAP1 SWAP3 SSTORE SWAP2 DUP3 MSTORE PUSH1 0x1 DUP9 ADD SWAP1 MSTORE PUSH1 0x40 SWAP1 KECCAK256 DUP4 SWAP1 SSTORE JUMPDEST DUP6 SLOAD DUP7 SWAP1 DUP1 PUSH2 0x47EE JUMPI PUSH2 0x47EE PUSH2 0x5A95 JUMP JUMPDEST PUSH1 0x1 SWAP1 SUB DUP2 DUP2 SWAP1 PUSH1 0x0 MSTORE PUSH1 0x20 PUSH1 0x0 KECCAK256 ADD PUSH1 0x0 SWAP1 SSTORE SWAP1 SSTORE DUP6 PUSH1 0x1 ADD PUSH1 0x0 DUP7 DUP2 MSTORE PUSH1 0x20 ADD SWAP1 DUP2 MSTORE PUSH1 0x20 ADD PUSH1 0x0 KECCAK256 PUSH1 0x0 SWAP1 SSTORE PUSH1 0x1 SWAP4 POP POP POP POP PUSH2 0x8FE JUMP JUMPDEST PUSH1 0x0 SWAP2 POP POP PUSH2 0x8FE JUMP JUMPDEST PUSH1 0x0 DUP4 PUSH1 0x1 PUSH1 0x1 PUSH1 0xA0 SHL SUB AND DUP4 PUSH1 0x40 MLOAD PUSH1 0x0 PUSH1 0x40 MLOAD DUP1 DUP4 SUB DUP2 DUP6 DUP8 GAS CALL SWAP3 POP POP POP RETURNDATASIZE DUP1 PUSH1 0x0 DUP2 EQ PUSH2 0x4880 JUMPI PUSH1 0x40 MLOAD SWAP2 POP PUSH1 0x1F NOT PUSH1 0x3F RETURNDATASIZE ADD AND DUP3 ADD PUSH1 0x40 MSTORE RETURNDATASIZE DUP3 MSTORE RETURNDATASIZE PUSH1 0x0 PUSH1 0x20 DUP5 ADD RETURNDATACOPY PUSH2 0x4885 JUMP JUMPDEST PUSH1 0x60 SWAP2 POP JUMPDEST POP POP SWAP1 POP DUP1 PUSH2 0x18C8 JUMPI DUP2 PUSH1 0x1 PUSH1 0x1 PUSH1 0xA0 SHL SUB AND PUSH4 0xD0E30DB0 DUP5 PUSH1 0x40 MLOAD DUP3 PUSH4 0xFFFFFFFF AND PUSH1 0xE0 SHL DUP2 MSTORE PUSH1 0x4 ADD PUSH1 0x0 PUSH1 0x40 MLOAD DUP1 DUP4 SUB DUP2 DUP6 DUP9 DUP1 EXTCODESIZE ISZERO DUP1 ISZERO PUSH2 0x48C9 JUMPI PUSH1 0x0 DUP1 REVERT JUMPDEST POP GAS CALL ISZERO DUP1 ISZERO PUSH2 0x48DD JUMPI RETURNDATASIZE PUSH1 0x0 DUP1 RETURNDATACOPY RETURNDATASIZE PUSH1 0x0 REVERT JUMPDEST POP POP PUSH1 0x40 MLOAD PUSH4 0xA9059CBB PUSH1 0xE0 SHL DUP2 MSTORE PUSH1 0x1 PUSH1 0x1 PUSH1 0xA0 SHL SUB DUP9 DUP2 AND PUSH1 0x4 DUP4 ADD MSTORE PUSH1 0x24 DUP3 ADD DUP9 SWAP1 MSTORE DUP7 AND SWAP4 POP PUSH4 0xA9059CBB SWAP3 POP PUSH1 0x44 ADD SWAP1 POP PUSH1 0x20 PUSH1 0x40 MLOAD DUP1 DUP4 SUB DUP2 PUSH1 0x0 DUP8 GAS CALL ISZERO DUP1 ISZERO PUSH2 0x4932 JUMPI RETURNDATASIZE PUSH1 0x0 DUP1 RETURNDATACOPY RETURNDATASIZE PUSH1 0x0 REVERT JUMPDEST POP POP POP POP PUSH1 0x40 MLOAD RETURNDATASIZE PUSH1 0x1F NOT PUSH1 0x1F DUP3 ADD AND DUP3 ADD DUP1 PUSH1 0x40 MSTORE POP DUP2 ADD SWAP1 PUSH2 0x4956 SWAP2 SWAP1 PUSH2 0x5958 JUMP JUMPDEST PUSH2 0x18C8 JUMPI PUSH1 0x40 MLOAD PUSH3 0x461BCD PUSH1 0xE5 SHL DUP2 MSTORE PUSH1 0x20 PUSH1 0x4 DUP3 ADD MSTORE PUSH1 0xF PUSH1 0x24 DUP3 ADD MSTORE PUSH15 0x1D1C985B9CD9995C8819985A5B1959 PUSH1 0x8A SHL PUSH1 0x44 DUP3 ADD MSTORE PUSH1 0x64 ADD PUSH2 0x955 JUMP JUMPDEST DUP2 PUSH1 0x1 PUSH1 0x1 PUSH1 0xA0 SHL SUB AND DUP4 PUSH1 0x1 PUSH1 0x1 PUSH1 0xA0 SHL SUB AND EQ ISZERO PUSH2 0x49B3 JUMPI PUSH2 0x18C8 JUMP JUMPDEST PUSH1 0x40 MLOAD PUSH4 0x70A08231 PUSH1 0xE0 SHL DUP2 MSTORE PUSH1 0x1 PUSH1 0x1 PUSH1 0xA0 SHL SUB DUP4 DUP2 AND PUSH1 0x4 DUP4 ADD MSTORE PUSH1 0x0 SWAP2 SWAP1 DUP7 AND SWAP1 PUSH4 0x70A08231 SWAP1 PUSH1 0x24 ADD PUSH1 0x20 PUSH1 0x40 MLOAD DUP1 DUP4 SUB DUP2 DUP7 GAS STATICCALL ISZERO DUP1 ISZERO PUSH2 0x49FD JUMPI RETURNDATASIZE PUSH1 0x0 DUP1 RETURNDATACOPY RETURNDATASIZE PUSH1 0x0 REVERT JUMPDEST POP POP POP POP PUSH1 0x40 MLOAD RETURNDATASIZE PUSH1 0x1F NOT PUSH1 0x1F DUP3 ADD AND DUP3 ADD DUP1 PUSH1 0x40 MSTORE POP DUP2 ADD SWAP1 PUSH2 0x4A21 SWAP2 SWAP1 PUSH2 0x597A JUMP JUMPDEST SWAP1 POP PUSH1 0x0 PUSH1 0x1 PUSH1 0x1 PUSH1 0xA0 SHL SUB DUP6 AND ADDRESS EQ PUSH2 0x4AB5 JUMPI PUSH1 0x40 MLOAD PUSH4 0x23B872DD PUSH1 0xE0 SHL DUP2 MSTORE PUSH1 0x1 PUSH1 0x1 PUSH1 0xA0 SHL SUB DUP7 DUP2 AND PUSH1 0x4 DUP4 ADD MSTORE DUP6 DUP2 AND PUSH1 0x24 DUP4 ADD MSTORE PUSH1 0x44 DUP3 ADD DUP6 SWAP1 MSTORE DUP8 AND SWAP1 PUSH4 0x23B872DD SWAP1 PUSH1 0x64 ADD PUSH1 0x20 PUSH1 0x40 MLOAD DUP1 DUP4 SUB DUP2 PUSH1 0x0 DUP8 GAS CALL ISZERO DUP1 ISZERO PUSH2 0x4A8C JUMPI RETURNDATASIZE PUSH1 0x0 DUP1 RETURNDATACOPY RETURNDATASIZE PUSH1 0x0 REVERT JUMPDEST POP POP POP POP PUSH1 0x40 MLOAD RETURNDATASIZE PUSH1 0x1F NOT PUSH1 0x1F DUP3 ADD AND DUP3 ADD DUP1 PUSH1 0x40 MSTORE POP DUP2 ADD SWAP1 PUSH2 0x4AB0 SWAP2 SWAP1 PUSH2 0x5958 JUMP JUMPDEST PUSH2 0x4B28 JUMP JUMPDEST PUSH1 0x40 MLOAD PUSH4 0xA9059CBB PUSH1 0xE0 SHL DUP2 MSTORE PUSH1 0x1 PUSH1 0x1 PUSH1 0xA0 SHL SUB DUP6 DUP2 AND PUSH1 0x4 DUP4 ADD MSTORE PUSH1 0x24 DUP3 ADD DUP6 SWAP1 MSTORE DUP8 AND SWAP1 PUSH4 0xA9059CBB SWAP1 PUSH1 0x44 ADD PUSH1 0x20 PUSH1 0x40 MLOAD DUP1 DUP4 SUB DUP2 PUSH1 0x0 DUP8 GAS CALL ISZERO DUP1 ISZERO PUSH2 0x4B04 JUMPI RETURNDATASIZE PUSH1 0x0 DUP1 RETURNDATACOPY RETURNDATASIZE PUSH1 0x0 REVERT JUMPDEST POP POP POP POP PUSH1 0x40 MLOAD RETURNDATASIZE PUSH1 0x1F NOT PUSH1 0x1F DUP3 ADD AND DUP3 ADD DUP1 PUSH1 0x40 MSTORE POP DUP2 ADD SWAP1 PUSH2 0x4B28 SWAP2 SWAP1 PUSH2 0x5958 JUMP JUMPDEST PUSH1 0x40 MLOAD PUSH4 0x70A08231 PUSH1 0xE0 SHL DUP2 MSTORE PUSH1 0x1 PUSH1 0x1 PUSH1 0xA0 SHL SUB DUP7 DUP2 AND PUSH1 0x4 DUP4 ADD MSTORE SWAP2 SWAP3 POP PUSH1 0x0 SWAP2 DUP9 AND SWAP1 PUSH4 0x70A08231 SWAP1 PUSH1 0x24 ADD PUSH1 0x20 PUSH1 0x40 MLOAD DUP1 DUP4 SUB DUP2 DUP7 GAS STATICCALL ISZERO DUP1 ISZERO PUSH2 0x4B74 JUMPI RETURNDATASIZE PUSH1 0x0 DUP1 RETURNDATACOPY RETURNDATASIZE PUSH1 0x0 REVERT JUMPDEST POP POP POP POP PUSH1 0x40 MLOAD RETURNDATASIZE PUSH1 0x1F NOT PUSH1 0x1F DUP3 ADD AND DUP3 ADD DUP1 PUSH1 0x40 MSTORE POP DUP2 ADD SWAP1 PUSH2 0x4B98 SWAP2 SWAP1 PUSH2 0x597A JUMP JUMPDEST SWAP1 POP DUP2 DUP1 ISZERO PUSH2 0x4BAF JUMPI POP PUSH2 0x4BAC DUP5 DUP5 PUSH2 0x565B JUMP JUMPDEST DUP2 EQ JUMPDEST PUSH2 0x2BF6 JUMPI PUSH1 0x40 MLOAD PUSH3 0x461BCD PUSH1 0xE5 SHL DUP2 MSTORE PUSH1 0x20 PUSH1 0x4 DUP3 ADD MSTORE PUSH1 0x19 PUSH1 0x24 DUP3 ADD MSTORE PUSH32 0x63757272656E6379207472616E73666572206661696C65642E00000000000000 PUSH1 0x44 DUP3 ADD MSTORE PUSH1 0x64 ADD PUSH2 0x955 JUMP JUMPDEST DUP3 DUP1 SLOAD PUSH2 0x4C07 SWAP1 PUSH2 0x58A8 JUMP JUMPDEST SWAP1 PUSH1 0x0 MSTORE PUSH1 0x20 PUSH1 0x0 KECCAK256 SWAP1 PUSH1 0x1F ADD PUSH1 0x20 SWAP1 DIV DUP2 ADD SWAP3 DUP3 PUSH2 0x4C29 JUMPI PUSH1 0x0 DUP6 SSTORE PUSH2 0x4C6F JUMP JUMPDEST DUP3 PUSH1 0x1F LT PUSH2 0x4C42 JUMPI DUP1 MLOAD PUSH1 0xFF NOT AND DUP4 DUP1 ADD OR DUP6 SSTORE PUSH2 0x4C6F JUMP JUMPDEST DUP3 DUP1 ADD PUSH1 0x1 ADD DUP6 SSTORE DUP3 ISZERO PUSH2 0x4C6F JUMPI SWAP2 DUP3 ADD JUMPDEST DUP3 DUP2 GT ISZERO PUSH2 0x4C6F JUMPI DUP3 MLOAD DUP3 SSTORE SWAP2 PUSH1 0x20 ADD SWAP2 SWAP1 PUSH1 0x1 ADD SWAP1 PUSH2 0x4C54 JUMP JUMPDEST POP PUSH2 0x4C7B SWAP3 SWAP2 POP PUSH2 0x4CF3 JUMP JUMPDEST POP SWAP1 JUMP JUMPDEST DUP3 DUP1 SLOAD PUSH2 0x4C8B SWAP1 PUSH2 0x58A8 JUMP JUMPDEST SWAP1 PUSH1 0x0 MSTORE PUSH1 0x20 PUSH1 0x0 KECCAK256 SWAP1 PUSH1 0x1F ADD PUSH1 0x20 SWAP1 DIV DUP2 ADD SWAP3 DUP3 PUSH2 0x4CAD JUMPI PUSH1 0x0 DUP6 SSTORE PUSH2 0x4C6F JUMP JUMPDEST DUP3 PUSH1 0x1F LT PUSH2 0x4CC6 JUMPI DUP3 DUP1 ADD PUSH1 0xFF NOT DUP3 CALLDATALOAD AND OR DUP6 SSTORE PUSH2 0x4C6F JUMP JUMPDEST DUP3 DUP1 ADD PUSH1 0x1 ADD DUP6 SSTORE DUP3 ISZERO PUSH2 0x4C6F JUMPI SWAP2 DUP3 ADD JUMPDEST DUP3 DUP2 GT ISZERO PUSH2 0x4C6F JUMPI DUP3 CALLDATALOAD DUP3 SSTORE SWAP2 PUSH1 0x20 ADD SWAP2 SWAP1 PUSH1 0x1 ADD SWAP1 PUSH2 0x4CD8 JUMP JUMPDEST JUMPDEST DUP1 DUP3 GT ISZERO PUSH2 0x4C7B JUMPI PUSH1 0x0 DUP2 SSTORE PUSH1 0x1 ADD PUSH2 0x4CF4 JUMP JUMPDEST PUSH1 0x0 PUSH1 0x20 DUP3 DUP5 SUB SLT ISZERO PUSH2 0x4D1A JUMPI PUSH1 0x0 DUP1 REVERT JUMPDEST DUP2 CALLDATALOAD PUSH1 0x1 PUSH1 0x1 PUSH1 0xE0 SHL SUB NOT DUP2 AND DUP2 EQ PUSH2 0x187B JUMPI PUSH1 0x0 DUP1 REVERT JUMPDEST PUSH1 0x1 PUSH1 0x1 PUSH1 0xA0 SHL SUB DUP2 AND DUP2 EQ PUSH2 0x34A4 JUMPI PUSH1 0x0 DUP1 REVERT JUMPDEST DUP1 CALLDATALOAD PUSH2 0x28C1 DUP2 PUSH2 0x4D32 JUMP JUMPDEST PUSH1 0x0 DUP1 DUP4 PUSH1 0x1F DUP5 ADD SLT PUSH2 0x4D64 JUMPI PUSH1 0x0 DUP1 REVERT JUMPDEST POP DUP2 CALLDATALOAD PUSH1 0x1 PUSH1 0x1 PUSH1 0x40 SHL SUB DUP2 GT ISZERO PUSH2 0x4D7B JUMPI PUSH1 0x0 DUP1 REVERT JUMPDEST PUSH1 0x20 DUP4 ADD SWAP2 POP DUP4 PUSH1 0x20 DUP3 DUP6 ADD ADD GT ISZERO PUSH2 0x4D93 JUMPI PUSH1 0x0 DUP1 REVERT JUMPDEST SWAP3 POP SWAP3 SWAP1 POP JUMP JUMPDEST PUSH1 0x0 DUP1 PUSH1 0x0 DUP1 PUSH1 0x0 PUSH1 0x80 DUP7 DUP9 SUB SLT ISZERO PUSH2 0x4DB2 JUMPI PUSH1 0x0 DUP1 REVERT JUMPDEST DUP6 CALLDATALOAD PUSH2 0x4DBD DUP2 PUSH2 0x4D32 JUMP JUMPDEST SWAP5 POP PUSH1 0x20 DUP7 ADD CALLDATALOAD PUSH2 0x4DCD DUP2 PUSH2 0x4D32 JUMP JUMPDEST SWAP4 POP PUSH1 0x40 DUP7 ADD CALLDATALOAD SWAP3 POP PUSH1 0x60 DUP7 ADD CALLDATALOAD PUSH1 0x1 PUSH1 0x1 PUSH1 0x40 SHL SUB DUP2 GT ISZERO PUSH2 0x4DEF JUMPI PUSH1 0x0 DUP1 REVERT JUMPDEST PUSH2 0x4DFB DUP9 DUP3 DUP10 ADD PUSH2 0x4D52 JUMP JUMPDEST SWAP7 SWAP10 SWAP6 SWAP9 POP SWAP4 SWAP7 POP SWAP3 SWAP5 SWAP4 SWAP3 POP POP POP JUMP JUMPDEST PUSH1 0x0 DUP1 PUSH1 0x40 DUP4 DUP6 SUB SLT ISZERO PUSH2 0x4E1F JUMPI PUSH1 0x0 DUP1 REVERT JUMPDEST DUP3 CALLDATALOAD PUSH2 0x4E2A DUP2 PUSH2 0x4D32 JUMP JUMPDEST SWAP5 PUSH1 0x20 SWAP4 SWAP1 SWAP4 ADD CALLDATALOAD SWAP4 POP POP POP JUMP JUMPDEST PUSH1 0x0 PUSH1 0x20 DUP3 DUP5 SUB SLT ISZERO PUSH2 0x4E4A JUMPI PUSH1 0x0 DUP1 REVERT JUMPDEST POP CALLDATALOAD SWAP2 SWAP1 POP JUMP JUMPDEST PUSH4 0x4E487B71 PUSH1 0xE0 SHL PUSH1 0x0 MSTORE PUSH1 0x41 PUSH1 0x4 MSTORE PUSH1 0x24 PUSH1 0x0 REVERT JUMPDEST PUSH1 0x40 MLOAD PUSH2 0x120 DUP2 ADD PUSH1 0x1 PUSH1 0x1 PUSH1 0x40 SHL SUB DUP2 GT DUP3 DUP3 LT OR ISZERO PUSH2 0x4E8A JUMPI PUSH2 0x4E8A PUSH2 0x4E51 JUMP JUMPDEST PUSH1 0x40 MSTORE SWAP1 JUMP JUMPDEST PUSH1 0x40 MLOAD PUSH1 0x1F DUP3 ADD PUSH1 0x1F NOT AND DUP2 ADD PUSH1 0x1 PUSH1 0x1 PUSH1 0x40 SHL SUB DUP2 GT DUP3 DUP3 LT OR ISZERO PUSH2 0x4EB8 JUMPI PUSH2 0x4EB8 PUSH2 0x4E51 JUMP JUMPDEST PUSH1 0x40 MSTORE SWAP2 SWAP1 POP JUMP JUMPDEST DUP1 CALLDATALOAD PUSH1 0x2 DUP2 LT PUSH2 0x28C1 JUMPI PUSH1 0x0 DUP1 REVERT JUMPDEST PUSH1 0x0 PUSH2 0x120 DUP3 DUP5 SUB SLT ISZERO PUSH2 0x4EE2 JUMPI PUSH1 0x0 DUP1 REVERT JUMPDEST PUSH2 0x4EEA PUSH2 0x4E67 JUMP JUMPDEST PUSH2 0x4EF3 DUP4 PUSH2 0x4D47 JUMP JUMPDEST DUP2 MSTORE PUSH1 0x20 DUP4 ADD CALLDATALOAD PUSH1 0x20 DUP3 ADD MSTORE PUSH1 0x40 DUP4 ADD CALLDATALOAD PUSH1 0x40 DUP3 ADD MSTORE PUSH1 0x60 DUP4 ADD CALLDATALOAD PUSH1 0x60 DUP3 ADD MSTORE PUSH1 0x80 DUP4 ADD CALLDATALOAD PUSH1 0x80 DUP3 ADD MSTORE PUSH2 0x4F29 PUSH1 0xA0 DUP5 ADD PUSH2 0x4D47 JUMP JUMPDEST PUSH1 0xA0 DUP3 ADD MSTORE PUSH1 0xC0 DUP4 ADD CALLDATALOAD PUSH1 0xC0 DUP3 ADD MSTORE PUSH1 0xE0 DUP4 ADD CALLDATALOAD PUSH1 0xE0 DUP3 ADD MSTORE PUSH2 0x100 PUSH2 0x4F50 DUP2 DUP6 ADD PUSH2 0x4EC0 JUMP JUMPDEST SWAP1 DUP3 ADD MSTORE SWAP4 SWAP3 POP POP POP JUMP JUMPDEST PUSH1 0x0 DUP1 PUSH1 0x40 DUP4 DUP6 SUB SLT ISZERO PUSH2 0x4F6E JUMPI PUSH1 0x0 DUP1 REVERT JUMPDEST DUP3 CALLDATALOAD SWAP2 POP PUSH1 0x20 DUP4 ADD CALLDATALOAD PUSH2 0x4F80 DUP2 PUSH2 0x4D32 JUMP JUMPDEST DUP1 SWAP2 POP POP SWAP3 POP SWAP3 SWAP1 POP JUMP JUMPDEST PUSH1 0x0 PUSH1 0x20 DUP3 DUP5 SUB SLT ISZERO PUSH2 0x4F9D JUMPI PUSH1 0x0 DUP1 REVERT JUMPDEST DUP2 CALLDATALOAD PUSH2 0x187B DUP2 PUSH2 0x4D32 JUMP JUMPDEST PUSH1 0x0 DUP1 PUSH1 0x0 DUP1 PUSH1 0x0 PUSH1 0xA0 DUP7 DUP9 SUB SLT ISZERO PUSH2 0x4FC0 JUMPI PUSH1 0x0 DUP1 REVERT JUMPDEST DUP6 CALLDATALOAD SWAP5 POP PUSH1 0x20 DUP7 ADD CALLDATALOAD PUSH2 0x4FD2 DUP2 PUSH2 0x4D32 JUMP JUMPDEST SWAP4 POP PUSH1 0x40 DUP7 ADD CALLDATALOAD SWAP3 POP PUSH1 0x60 DUP7 ADD CALLDATALOAD PUSH2 0x4FE9 DUP2 PUSH2 0x4D32 JUMP JUMPDEST SWAP5 SWAP8 SWAP4 SWAP7 POP SWAP2 SWAP5 PUSH1 0x80 ADD CALLDATALOAD SWAP3 SWAP2 POP POP JUMP JUMPDEST PUSH1 0x0 PUSH1 0x1 PUSH1 0x1 PUSH1 0x40 SHL SUB DUP4 GT ISZERO PUSH2 0x5013 JUMPI PUSH2 0x5013 PUSH2 0x4E51 JUMP JUMPDEST PUSH2 0x5026 PUSH1 0x1F DUP5 ADD PUSH1 0x1F NOT AND PUSH1 0x20 ADD PUSH2 0x4E90 JUMP JUMPDEST SWAP1 POP DUP3 DUP2 MSTORE DUP4 DUP4 DUP4 ADD GT ISZERO PUSH2 0x503A JUMPI PUSH1 0x0 DUP1 REVERT JUMPDEST DUP3 DUP3 PUSH1 0x20 DUP4 ADD CALLDATACOPY PUSH1 0x0 PUSH1 0x20 DUP5 DUP4 ADD ADD MSTORE SWAP4 SWAP3 POP POP POP JUMP JUMPDEST PUSH1 0x0 PUSH1 0x1 PUSH1 0x1 PUSH1 0x40 SHL SUB DUP3 GT ISZERO PUSH2 0x506A JUMPI PUSH2 0x506A PUSH2 0x4E51 JUMP JUMPDEST POP PUSH1 0x5 SHL PUSH1 0x20 ADD SWAP1 JUMP JUMPDEST PUSH1 0x0 DUP1 PUSH1 0x0 DUP1 PUSH1 0x0 PUSH1 0xA0 DUP7 DUP9 SUB SLT ISZERO PUSH2 0x508C JUMPI PUSH1 0x0 DUP1 REVERT JUMPDEST DUP6 CALLDATALOAD PUSH2 0x5097 DUP2 PUSH2 0x4D32 JUMP JUMPDEST SWAP5 POP PUSH1 0x20 DUP7 DUP2 ADD CALLDATALOAD PUSH1 0x1 PUSH1 0x1 PUSH1 0x40 SHL SUB DUP1 DUP3 GT ISZERO PUSH2 0x50B4 JUMPI PUSH1 0x0 DUP1 REVERT JUMPDEST DUP2 DUP10 ADD SWAP2 POP DUP10 PUSH1 0x1F DUP4 ADD SLT PUSH2 0x50C8 JUMPI PUSH1 0x0 DUP1 REVERT JUMPDEST PUSH2 0x50D6 DUP11 DUP4 CALLDATALOAD DUP6 DUP6 ADD PUSH2 0x4FFA JUMP JUMPDEST SWAP7 POP PUSH1 0x40 DUP10 ADD CALLDATALOAD SWAP2 POP DUP1 DUP3 GT ISZERO PUSH2 0x50EC JUMPI PUSH1 0x0 DUP1 REVERT JUMPDEST POP DUP8 ADD PUSH1 0x1F DUP2 ADD DUP10 SGT PUSH2 0x50FE JUMPI PUSH1 0x0 DUP1 REVERT JUMPDEST DUP1 CALLDATALOAD PUSH2 0x5111 PUSH2 0x510C DUP3 PUSH2 0x5051 JUMP JUMPDEST PUSH2 0x4E90 JUMP JUMPDEST DUP2 DUP2 MSTORE PUSH1 0x5 SWAP2 SWAP1 SWAP2 SHL DUP3 ADD DUP4 ADD SWAP1 DUP4 DUP2 ADD SWAP1 DUP12 DUP4 GT ISZERO PUSH2 0x5130 JUMPI PUSH1 0x0 DUP1 REVERT JUMPDEST SWAP3 DUP5 ADD SWAP3 JUMPDEST DUP3 DUP5 LT ISZERO PUSH2 0x5157 JUMPI DUP4 CALLDATALOAD PUSH2 0x5148 DUP2 PUSH2 0x4D32 JUMP JUMPDEST DUP3 MSTORE SWAP3 DUP5 ADD SWAP3 SWAP1 DUP5 ADD SWAP1 PUSH2 0x5135 JUMP JUMPDEST DUP1 SWAP8 POP POP POP POP POP POP PUSH2 0x4FE9 PUSH1 0x60 DUP8 ADD PUSH2 0x4D47 JUMP JUMPDEST PUSH1 0x0 DUP1 PUSH1 0x40 DUP4 DUP6 SUB SLT ISZERO PUSH2 0x517E JUMPI PUSH1 0x0 DUP1 REVERT JUMPDEST POP POP DUP1 CALLDATALOAD SWAP3 PUSH1 0x20 SWAP1 SWAP2 ADD CALLDATALOAD SWAP2 POP JUMP JUMPDEST PUSH1 0x0 DUP1 PUSH1 0x20 DUP4 DUP6 SUB SLT ISZERO PUSH2 0x51A0 JUMPI PUSH1 0x0 DUP1 REVERT JUMPDEST DUP3 CALLDATALOAD PUSH1 0x1 PUSH1 0x1 PUSH1 0x40 SHL SUB DUP2 GT ISZERO PUSH2 0x51B6 JUMPI PUSH1 0x0 DUP1 REVERT JUMPDEST PUSH2 0x51C2 DUP6 DUP3 DUP7 ADD PUSH2 0x4D52 JUMP JUMPDEST SWAP1 SWAP7 SWAP1 SWAP6 POP SWAP4 POP POP POP POP JUMP JUMPDEST PUSH1 0x0 DUP1 PUSH1 0x20 DUP4 DUP6 SUB SLT ISZERO PUSH2 0x51E1 JUMPI PUSH1 0x0 DUP1 REVERT JUMPDEST DUP3 CALLDATALOAD PUSH1 0x1 PUSH1 0x1 PUSH1 0x40 SHL SUB DUP1 DUP3 GT ISZERO PUSH2 0x51F8 JUMPI PUSH1 0x0 DUP1 REVERT JUMPDEST DUP2 DUP6 ADD SWAP2 POP DUP6 PUSH1 0x1F DUP4 ADD SLT PUSH2 0x520C JUMPI PUSH1 0x0 DUP1 REVERT JUMPDEST DUP2 CALLDATALOAD DUP2 DUP2 GT ISZERO PUSH2 0x521B JUMPI PUSH1 0x0 DUP1 REVERT JUMPDEST DUP7 PUSH1 0x20 DUP3 PUSH1 0x5 SHL DUP6 ADD ADD GT ISZERO PUSH2 0x5230 JUMPI PUSH1 0x0 DUP1 REVERT JUMPDEST PUSH1 0x20 SWAP3 SWAP1 SWAP3 ADD SWAP7 SWAP2 SWAP6 POP SWAP1 SWAP4 POP POP POP POP JUMP JUMPDEST PUSH1 0x0 JUMPDEST DUP4 DUP2 LT ISZERO PUSH2 0x525D JUMPI DUP2 DUP2 ADD MLOAD DUP4 DUP3 ADD MSTORE PUSH1 0x20 ADD PUSH2 0x5245 JUMP JUMPDEST DUP4 DUP2 GT ISZERO PUSH2 0x18C8 JUMPI POP POP PUSH1 0x0 SWAP2 ADD MSTORE JUMP JUMPDEST PUSH1 0x0 DUP2 MLOAD DUP1 DUP5 MSTORE PUSH2 0x5286 DUP2 PUSH1 0x20 DUP7 ADD PUSH1 0x20 DUP7 ADD PUSH2 0x5242 JUMP JUMPDEST PUSH1 0x1F ADD PUSH1 0x1F NOT AND SWAP3 SWAP1 SWAP3 ADD PUSH1 0x20 ADD SWAP3 SWAP2 POP POP JUMP JUMPDEST PUSH1 0x0 PUSH1 0x20 DUP1 DUP4 ADD DUP2 DUP5 MSTORE DUP1 DUP6 MLOAD DUP1 DUP4 MSTORE PUSH1 0x40 DUP7 ADD SWAP2 POP PUSH1 0x40 DUP2 PUSH1 0x5 SHL DUP8 ADD ADD SWAP3 POP DUP4 DUP8 ADD PUSH1 0x0 JUMPDEST DUP3 DUP2 LT ISZERO PUSH2 0x52EF JUMPI PUSH1 0x3F NOT DUP9 DUP7 SUB ADD DUP5 MSTORE PUSH2 0x52DD DUP6 DUP4 MLOAD PUSH2 0x526E JUMP JUMPDEST SWAP5 POP SWAP3 DUP6 ADD SWAP3 SWAP1 DUP6 ADD SWAP1 PUSH1 0x1 ADD PUSH2 0x52C1 JUMP JUMPDEST POP SWAP3 SWAP8 SWAP7 POP POP POP POP POP POP POP JUMP JUMPDEST PUSH1 0x0 DUP1 PUSH1 0x0 DUP1 PUSH1 0x80 DUP6 DUP8 SUB SLT ISZERO PUSH2 0x5312 JUMPI PUSH1 0x0 DUP1 REVERT JUMPDEST DUP5 CALLDATALOAD SWAP4 POP PUSH1 0x20 DUP6 ADD CALLDATALOAD SWAP3 POP PUSH1 0x40 DUP6 ADD CALLDATALOAD PUSH2 0x532B DUP2 PUSH2 0x4D32 JUMP JUMPDEST SWAP4 SWAP7 SWAP3 SWAP6 POP SWAP3 SWAP4 PUSH1 0x60 ADD CALLDATALOAD SWAP3 POP POP JUMP JUMPDEST PUSH1 0x0 DUP1 PUSH1 0x0 DUP1 PUSH1 0x80 DUP6 DUP8 SUB SLT ISZERO PUSH2 0x5351 JUMPI PUSH1 0x0 DUP1 REVERT JUMPDEST DUP5 CALLDATALOAD SWAP4 POP PUSH1 0x20 DUP6 ADD CALLDATALOAD PUSH2 0x5363 DUP2 PUSH2 0x4D32 JUMP JUMPDEST SWAP3 POP PUSH1 0x40 DUP6 ADD CALLDATALOAD PUSH2 0x532B DUP2 PUSH2 0x4D32 JUMP JUMPDEST PUSH1 0x0 DUP3 PUSH1 0x1F DUP4 ADD SLT PUSH2 0x5384 JUMPI PUSH1 0x0 DUP1 REVERT JUMPDEST DUP2 CALLDATALOAD PUSH1 0x20 PUSH2 0x5394 PUSH2 0x510C DUP4 PUSH2 0x5051 JUMP JUMPDEST DUP3 DUP2 MSTORE PUSH1 0x5 SWAP3 SWAP1 SWAP3 SHL DUP5 ADD DUP2 ADD SWAP2 DUP2 DUP2 ADD SWAP1 DUP7 DUP5 GT ISZERO PUSH2 0x53B3 JUMPI PUSH1 0x0 DUP1 REVERT JUMPDEST DUP3 DUP7 ADD JUMPDEST DUP5 DUP2 LT ISZERO PUSH2 0x53CE JUMPI DUP1 CALLDATALOAD DUP4 MSTORE SWAP2 DUP4 ADD SWAP2 DUP4 ADD PUSH2 0x53B7 JUMP JUMPDEST POP SWAP7 SWAP6 POP POP POP POP POP POP JUMP JUMPDEST PUSH1 0x0 DUP3 PUSH1 0x1F DUP4 ADD SLT PUSH2 0x53EA JUMPI PUSH1 0x0 DUP1 REVERT JUMPDEST PUSH2 0x187B DUP4 DUP4 CALLDATALOAD PUSH1 0x20 DUP6 ADD PUSH2 0x4FFA JUMP JUMPDEST PUSH1 0x0 DUP1 PUSH1 0x0 DUP1 PUSH1 0x0 PUSH1 0xA0 DUP7 DUP9 SUB SLT ISZERO PUSH2 0x5411 JUMPI PUSH1 0x0 DUP1 REVERT JUMPDEST DUP6 CALLDATALOAD PUSH2 0x541C DUP2 PUSH2 0x4D32 JUMP JUMPDEST SWAP5 POP PUSH1 0x20 DUP7 ADD CALLDATALOAD PUSH2 0x542C DUP2 PUSH2 0x4D32 JUMP JUMPDEST SWAP4 POP PUSH1 0x40 DUP7 ADD CALLDATALOAD PUSH1 0x1 PUSH1 0x1 PUSH1 0x40 SHL SUB DUP1 DUP3 GT ISZERO PUSH2 0x5448 JUMPI PUSH1 0x0 DUP1 REVERT JUMPDEST PUSH2 0x5454 DUP10 DUP4 DUP11 ADD PUSH2 0x5373 JUMP JUMPDEST SWAP5 POP PUSH1 0x60 DUP9 ADD CALLDATALOAD SWAP2 POP DUP1 DUP3 GT ISZERO PUSH2 0x546A JUMPI PUSH1 0x0 DUP1 REVERT JUMPDEST PUSH2 0x5476 DUP10 DUP4 DUP11 ADD PUSH2 0x5373 JUMP JUMPDEST SWAP4 POP PUSH1 0x80 DUP9 ADD CALLDATALOAD SWAP2 POP DUP1 DUP3 GT ISZERO PUSH2 0x548C JUMPI PUSH1 0x0 DUP1 REVERT JUMPDEST POP PUSH2 0x5499 DUP9 DUP3 DUP10 ADD PUSH2 0x53D9 JUMP JUMPDEST SWAP2 POP POP SWAP3 SWAP6 POP SWAP3 SWAP6 SWAP1 SWAP4 POP JUMP JUMPDEST PUSH1 0x0 DUP1 PUSH1 0x0 DUP1 PUSH1 0x0 DUP1 PUSH1 0x0 PUSH1 0xE0 DUP9 DUP11 SUB SLT ISZERO PUSH2 0x54C1 JUMPI PUSH1 0x0 DUP1 REVERT JUMPDEST DUP8 CALLDATALOAD SWAP7 POP PUSH1 0x20 DUP9 ADD CALLDATALOAD SWAP6 POP PUSH1 0x40 DUP9 ADD CALLDATALOAD SWAP5 POP PUSH1 0x60 DUP9 ADD CALLDATALOAD SWAP4 POP PUSH1 0x80 DUP9 ADD CALLDATALOAD PUSH2 0x54E8 DUP2 PUSH2 0x4D32 JUMP JUMPDEST SWAP7 SWAP10 SWAP6 SWAP9 POP SWAP4 SWAP7 SWAP3 SWAP6 SWAP5 PUSH1 0xA0 DUP5 ADD CALLDATALOAD SWAP5 POP PUSH1 0xC0 SWAP1 SWAP4 ADD CALLDATALOAD SWAP3 SWAP2 POP POP JUMP JUMPDEST PUSH4 0x4E487B71 PUSH1 0xE0 SHL PUSH1 0x0 MSTORE PUSH1 0x21 PUSH1 0x4 MSTORE PUSH1 0x24 PUSH1 0x0 REVERT JUMPDEST PUSH1 0x2 DUP2 LT PUSH2 0x34A4 JUMPI PUSH4 0x4E487B71 PUSH1 0xE0 SHL PUSH1 0x0 MSTORE PUSH1 0x21 PUSH1 0x4 MSTORE PUSH1 0x24 PUSH1 0x0 REVERT JUMPDEST PUSH2 0x5542 DUP2 PUSH2 0x551B JUMP JUMPDEST SWAP1 MSTORE JUMP JUMPDEST DUP13 DUP2 MSTORE PUSH1 0x1 PUSH1 0x1 PUSH1 0xA0 SHL SUB DUP13 DUP2 AND PUSH1 0x20 DUP4 ADD MSTORE DUP12 DUP2 AND PUSH1 0x40 DUP4 ADD MSTORE PUSH1 0x60 DUP3 ADD DUP12 SWAP1 MSTORE PUSH1 0x80 DUP3 ADD DUP11 SWAP1 MSTORE PUSH1 0xA0 DUP3 ADD DUP10 SWAP1 MSTORE PUSH1 0xC0 DUP3 ADD DUP9 SWAP1 MSTORE DUP7 AND PUSH1 0xE0 DUP3 ADD MSTORE PUSH2 0x100 DUP2 ADD DUP6 SWAP1 MSTORE PUSH2 0x120 DUP2 ADD DUP5 SWAP1 MSTORE PUSH2 0x180 DUP2 ADD PUSH2 0x55A2 DUP5 PUSH2 0x551B JUMP JUMPDEST DUP4 PUSH2 0x140 DUP4 ADD MSTORE PUSH2 0x55B2 DUP4 PUSH2 0x551B JUMP JUMPDEST DUP3 PUSH2 0x160 DUP4 ADD MSTORE SWAP14 SWAP13 POP POP POP POP POP POP POP POP POP POP POP POP POP JUMP JUMPDEST PUSH1 0x20 DUP2 MSTORE PUSH1 0x0 PUSH2 0x187B PUSH1 0x20 DUP4 ADD DUP5 PUSH2 0x526E JUMP JUMPDEST PUSH1 0x0 DUP1 PUSH1 0x0 DUP1 PUSH1 0x0 PUSH1 0xA0 DUP7 DUP9 SUB SLT ISZERO PUSH2 0x55F5 JUMPI PUSH1 0x0 DUP1 REVERT JUMPDEST DUP6 CALLDATALOAD PUSH2 0x5600 DUP2 PUSH2 0x4D32 JUMP JUMPDEST SWAP5 POP PUSH1 0x20 DUP7 ADD CALLDATALOAD PUSH2 0x5610 DUP2 PUSH2 0x4D32 JUMP JUMPDEST SWAP4 POP PUSH1 0x40 DUP7 ADD CALLDATALOAD SWAP3 POP PUSH1 0x60 DUP7 ADD CALLDATALOAD SWAP2 POP PUSH1 0x80 DUP7 ADD CALLDATALOAD PUSH1 0x1 PUSH1 0x1 PUSH1 0x40 SHL SUB DUP2 GT ISZERO PUSH2 0x5639 JUMPI PUSH1 0x0 DUP1 REVERT JUMPDEST PUSH2 0x5499 DUP9 DUP3 DUP10 ADD PUSH2 0x53D9 JUMP JUMPDEST PUSH4 0x4E487B71 PUSH1 0xE0 SHL PUSH1 0x0 MSTORE PUSH1 0x11 PUSH1 0x4 MSTORE PUSH1 0x24 PUSH1 0x0 REVERT JUMPDEST PUSH1 0x0 DUP3 NOT DUP3 GT ISZERO PUSH2 0x566E JUMPI PUSH2 0x566E PUSH2 0x5645 JUMP JUMPDEST POP ADD SWAP1 JUMP JUMPDEST PUSH1 0x20 DUP1 DUP3 MSTORE PUSH1 0x23 SWAP1 DUP3 ADD MSTORE PUSH32 0x726573657276652070726963652065786365656473206275796F757420707269 PUSH1 0x40 DUP3 ADD MSTORE PUSH3 0x31B297 PUSH1 0xE9 SHL PUSH1 0x60 DUP3 ADD MSTORE PUSH1 0x80 ADD SWAP1 JUMP JUMPDEST DUP2 MLOAD DUP2 MSTORE PUSH1 0x20 DUP1 DUP4 ADD MLOAD PUSH2 0x180 DUP4 ADD SWAP2 PUSH2 0x56DA SWAP1 DUP5 ADD DUP3 PUSH1 0x1 PUSH1 0x1 PUSH1 0xA0 SHL SUB AND SWAP1 MSTORE JUMP JUMPDEST POP PUSH1 0x40 DUP4 ADD MLOAD PUSH2 0x56F5 PUSH1 0x40 DUP5 ADD DUP3 PUSH1 0x1 PUSH1 0x1 PUSH1 0xA0 SHL SUB AND SWAP1 MSTORE JUMP JUMPDEST POP PUSH1 0x60 DUP4 ADD MLOAD PUSH1 0x60 DUP4 ADD MSTORE PUSH1 0x80 DUP4 ADD MLOAD PUSH1 0x80 DUP4 ADD MSTORE PUSH1 0xA0 DUP4 ADD MLOAD PUSH1 0xA0 DUP4 ADD MSTORE PUSH1 0xC0 DUP4 ADD MLOAD PUSH1 0xC0 DUP4 ADD MSTORE PUSH1 0xE0 DUP4 ADD MLOAD PUSH2 0x5738 PUSH1 0xE0 DUP5 ADD DUP3 PUSH1 0x1 PUSH1 0x1 PUSH1 0xA0 SHL SUB AND SWAP1 MSTORE JUMP JUMPDEST POP PUSH2 0x100 DUP4 DUP2 ADD MLOAD SWAP1 DUP4 ADD MSTORE PUSH2 0x120 DUP1 DUP5 ADD MLOAD SWAP1 DUP4 ADD MSTORE PUSH2 0x140 DUP1 DUP5 ADD MLOAD PUSH2 0x5762 DUP3 DUP6 ADD DUP3 PUSH2 0x5539 JUMP JUMPDEST POP POP PUSH2 0x160 DUP1 DUP5 ADD MLOAD PUSH2 0x5777 DUP3 DUP6 ADD DUP3 PUSH2 0x5539 JUMP JUMPDEST POP POP SWAP3 SWAP2 POP POP JUMP JUMPDEST PUSH1 0x20 DUP1 DUP3 MSTORE PUSH1 0x1F SWAP1 DUP3 ADD MSTORE PUSH32 0x5265656E7472616E637947756172643A207265656E7472616E742063616C6C00 PUSH1 0x40 DUP3 ADD MSTORE PUSH1 0x60 ADD SWAP1 JUMP JUMPDEST PUSH1 0x20 DUP1 DUP3 MSTORE PUSH1 0xB SWAP1 DUP3 ADD MSTORE PUSH11 0x6C697374696E6720444E45 PUSH1 0xA8 SHL PUSH1 0x40 DUP3 ADD MSTORE PUSH1 0x60 ADD SWAP1 JUMP JUMPDEST PUSH1 0x20 DUP1 DUP3 MSTORE PUSH1 0x17 SWAP1 DUP3 ADD MSTORE PUSH32 0x63616C6C657220213D206C697374696E67206F776E6572000000000000000000 PUSH1 0x40 DUP3 ADD MSTORE PUSH1 0x60 ADD SWAP1 JUMP JUMPDEST PUSH1 0x0 DUP2 PUSH1 0x0 NOT DIV DUP4 GT DUP3 ISZERO ISZERO AND ISZERO PUSH2 0x582C JUMPI PUSH2 0x582C PUSH2 0x5645 JUMP JUMPDEST POP MUL SWAP1 JUMP JUMPDEST PUSH4 0x4E487B71 PUSH1 0xE0 SHL PUSH1 0x0 MSTORE PUSH1 0x32 PUSH1 0x4 MSTORE PUSH1 0x24 PUSH1 0x0 REVERT JUMPDEST PUSH1 0x0 DUP1 DUP4 CALLDATALOAD PUSH1 0x1E NOT DUP5 CALLDATASIZE SUB ADD DUP2 SLT PUSH2 0x585E JUMPI PUSH1 0x0 DUP1 REVERT JUMPDEST DUP4 ADD DUP1 CALLDATALOAD SWAP2 POP PUSH1 0x1 PUSH1 0x1 PUSH1 0x40 SHL SUB DUP3 GT ISZERO PUSH2 0x5878 JUMPI PUSH1 0x0 DUP1 REVERT JUMPDEST PUSH1 0x20 ADD SWAP2 POP CALLDATASIZE DUP2 SWAP1 SUB DUP3 SGT ISZERO PUSH2 0x4D93 JUMPI PUSH1 0x0 DUP1 REVERT JUMPDEST PUSH1 0x0 PUSH1 0x0 NOT DUP3 EQ ISZERO PUSH2 0x58A1 JUMPI PUSH2 0x58A1 PUSH2 0x5645 JUMP JUMPDEST POP PUSH1 0x1 ADD SWAP1 JUMP JUMPDEST PUSH1 0x1 DUP2 DUP2 SHR SWAP1 DUP3 AND DUP1 PUSH2 0x58BC JUMPI PUSH1 0x7F DUP3 AND SWAP2 POP JUMPDEST PUSH1 0x20 DUP3 LT DUP2 EQ ISZERO PUSH2 0x58DD JUMPI PUSH4 0x4E487B71 PUSH1 0xE0 SHL PUSH1 0x0 MSTORE PUSH1 0x22 PUSH1 0x4 MSTORE PUSH1 0x24 PUSH1 0x0 REVERT JUMPDEST POP SWAP2 SWAP1 POP JUMP JUMPDEST PUSH32 0x416363657373436F6E74726F6C3A206163636F756E7420000000000000000000 DUP2 MSTORE PUSH1 0x0 DUP4 MLOAD PUSH2 0x591B DUP2 PUSH1 0x17 DUP6 ADD PUSH1 0x20 DUP9 ADD PUSH2 0x5242 JUMP JUMPDEST PUSH17 0x1034B99036B4B9B9B4B733903937B6329 PUSH1 0x7D SHL PUSH1 0x17 SWAP2 DUP5 ADD SWAP2 DUP3 ADD MSTORE DUP4 MLOAD PUSH2 0x594C DUP2 PUSH1 0x28 DUP5 ADD PUSH1 0x20 DUP9 ADD PUSH2 0x5242 JUMP JUMPDEST ADD PUSH1 0x28 ADD SWAP5 SWAP4 POP POP POP POP JUMP JUMPDEST PUSH1 0x0 PUSH1 0x20 DUP3 DUP5 SUB SLT ISZERO PUSH2 0x596A JUMPI PUSH1 0x0 DUP1 REVERT JUMPDEST DUP2 MLOAD DUP1 ISZERO ISZERO DUP2 EQ PUSH2 0x187B JUMPI PUSH1 0x0 DUP1 REVERT JUMPDEST PUSH1 0x0 PUSH1 0x20 DUP3 DUP5 SUB SLT ISZERO PUSH2 0x598C JUMPI PUSH1 0x0 DUP1 REVERT JUMPDEST POP MLOAD SWAP2 SWAP1 POP JUMP JUMPDEST PUSH1 0x0 PUSH1 0x20 DUP3 DUP5 SUB SLT ISZERO PUSH2 0x59A5 JUMPI PUSH1 0x0 DUP1 REVERT JUMPDEST DUP2 MLOAD PUSH2 0x187B DUP2 PUSH2 0x4D32 JUMP JUMPDEST PUSH1 0x0 DUP3 DUP3 LT ISZERO PUSH2 0x59C2 JUMPI PUSH2 0x59C2 PUSH2 0x5645 JUMP JUMPDEST POP SUB SWAP1 JUMP JUMPDEST PUSH1 0x20 DUP1 DUP3 MSTORE PUSH1 0x2B SWAP1 DUP3 ADD MSTORE PUSH32 0x496E697469616C697A61626C653A20636F6E7472616374206973206E6F742069 PUSH1 0x40 DUP3 ADD MSTORE PUSH11 0x6E697469616C697A696E67 PUSH1 0xA8 SHL PUSH1 0x60 DUP3 ADD MSTORE PUSH1 0x80 ADD SWAP1 JUMP JUMPDEST PUSH1 0x0 DUP3 MLOAD PUSH2 0x5A24 DUP2 DUP5 PUSH1 0x20 DUP8 ADD PUSH2 0x5242 JUMP JUMPDEST SWAP2 SWAP1 SWAP2 ADD SWAP3 SWAP2 POP POP JUMP JUMPDEST PUSH1 0x0 DUP2 PUSH2 0x5A3D JUMPI PUSH2 0x5A3D PUSH2 0x5645 JUMP JUMPDEST POP PUSH1 0x0 NOT ADD SWAP1 JUMP JUMPDEST PUSH1 0x0 DUP3 PUSH2 0x5A62 JUMPI PUSH4 0x4E487B71 PUSH1 0xE0 SHL PUSH1 0x0 MSTORE PUSH1 0x12 PUSH1 0x4 MSTORE PUSH1 0x24 PUSH1 0x0 REVERT JUMPDEST POP DIV SWAP1 JUMP JUMPDEST PUSH1 0x0 DUP1 PUSH1 0x40 DUP4 DUP6 SUB SLT ISZERO PUSH2 0x5A7A JUMPI PUSH1 0x0 DUP1 REVERT JUMPDEST DUP3 MLOAD PUSH2 0x5A85 DUP2 PUSH2 0x4D32 JUMP JUMPDEST PUSH1 0x20 SWAP4 SWAP1 SWAP4 ADD MLOAD SWAP3 SWAP5 SWAP3 SWAP4 POP POP POP JUMP JUMPDEST PUSH4 0x4E487B71 PUSH1 0xE0 SHL PUSH1 0x0 MSTORE PUSH1 0x31 PUSH1 0x4 MSTORE PUSH1 0x24 PUSH1 0x0 REVERT INVALID COINBASE PUSH5 0x6472657373 GASPRICE KECCAK256 PUSH13 0x6F772D6C6576656C2064656C65 PUSH8 0x6174652063616C6C KECCAK256 PUSH7 0x61696C6564A264 PUSH10 0x706673582212201F4EA9 0xA7 SHR PUSH19 0xFEF6D2E3EE2FD280B5543FD9344A91236975D8 0xA8 CALLDATACOPY 0x26 RETURNDATACOPY CALLDATASIZE 0xE7 PUSH1 0x64 PUSH20 0x6F6C634300080B00330000000000000000000000 "
		},
		"gasEstimates": {
			"creation": {
				"codeDepositCost": "4660800",
				"executionCost": "infinite",
				"totalCost": "infinite"
			},
			"external": {
				"DEFAULT_ADMIN_ROLE()": "328",
				"MAX_BPS()": "348",
				"acceptOffer(uint256,address,address,uint256)": "infinite",
				"bidBufferBps()": "2466",
				"buy(uint256,address,uint256,address,uint256)": "infinite",
				"cancelDirectListing(uint256)": "164353",
				"closeAuction(uint256,address)": "infinite",
				"contractType()": "309",
				"contractURI()": "infinite",
				"contractVersion()": "288",
				"createListing((address,uint256,uint256,uint256,uint256,address,uint256,uint256,uint8))": "infinite",
				"getPlatformFeeInfo()": "2384",
				"getRoleAdmin(bytes32)": "2557",
				"getRoleMember(bytes32,uint256)": "infinite",
				"getRoleMemberCount(bytes32)": "infinite",
				"grantRole(bytes32,address)": "infinite",
				"hasRole(bytes32,address)": "2720",
				"initialize(address,string,address[],address,uint256)": "infinite",
				"isTrustedForwarder(address)": "2666",
				"listings(uint256)": "infinite",
				"multicall(bytes[])": "infinite",
				"offer(uint256,uint256,address,uint256)": "infinite",
				"offers(uint256,address)": "11271",
				"onERC1155BatchReceived(address,address,uint256[],uint256[],bytes)": "infinite",
				"onERC1155Received(address,address,uint256,uint256,bytes)": "infinite",
				"onERC721Received(address,address,uint256,bytes)": "infinite",
				"renounceRole(bytes32,address)": "infinite",
				"revokeRole(bytes32,address)": "infinite",
				"setAuctionBuffers(uint256,uint256)": "infinite",
				"setContractURI(string)": "infinite",
				"setPlatformFeeInfo(address,uint256)": "infinite",
				"supportsInterface(bytes4)": "infinite",
				"thirdwebFee()": "infinite",
				"timeBuffer()": "2425",
				"totalListings()": "2362",
				"updateListing(uint256,uint256,uint256,uint256,address,uint256,uint256)": "infinite",
				"winningBid(uint256)": "11094"
			},
			"internal": {
				"_cancelAuction(struct IMarketplace.Listing memory)": "infinite",
				"_closeAuctionForAuctionCreator(struct IMarketplace.Listing memory,struct IMarketplace.Offer memory)": "infinite",
				"_closeAuctionForBidder(struct IMarketplace.Listing memory,struct IMarketplace.Offer memory)": "infinite",
				"_msgData()": "infinite",
				"_msgSender()": "2268",
				"executeSale(struct IMarketplace.Listing memory,address,address,address,uint256,uint256)": "infinite",
				"getNextListingId()": "24315",
				"getSafeQuantity(enum IMarketplace.TokenType,uint256)": "104",
				"getTokenType(address)": "infinite",
				"handleBid(struct IMarketplace.Listing memory,struct IMarketplace.Offer memory)": "infinite",
				"handleOffer(struct IMarketplace.Listing memory,struct IMarketplace.Offer memory)": "infinite",
				"isNewWinningBid(uint256,uint256,uint256)": "2443",
				"payout(address,address,address,uint256,struct IMarketplace.Listing memory)": "infinite",
				"transferListingTokens(address,address,uint256,struct IMarketplace.Listing memory)": "infinite",
				"validateDirectListingSale(struct IMarketplace.Listing memory,address,uint256,address,uint256)": "infinite",
				"validateERC20BalAndAllowance(address,address,uint256)": "infinite",
				"validateOwnershipAndApproval(address,address,uint256,uint256,enum IMarketplace.TokenType)": "infinite"
			}
		},
		"methodIdentifiers": {
			"DEFAULT_ADMIN_ROLE()": "a217fddf",
			"MAX_BPS()": "fd967f47",
			"acceptOffer(uint256,address,address,uint256)": "b13c0e63",
			"bidBufferBps()": "4e03f28d",
			"buy(uint256,address,uint256,address,uint256)": "7687ab02",
			"cancelDirectListing(uint256)": "7506c84a",
			"closeAuction(uint256,address)": "6bab66ae",
			"contractType()": "cb2ef6f7",
			"contractURI()": "e8a3d485",
			"contractVersion()": "a0a8e460",
			"createListing((address,uint256,uint256,uint256,uint256,address,uint256,uint256,uint8))": "296f4e16",
			"getPlatformFeeInfo()": "d45573f6",
			"getRoleAdmin(bytes32)": "248a9ca3",
			"getRoleMember(bytes32,uint256)": "9010d07c",
			"getRoleMemberCount(bytes32)": "ca15c873",
			"grantRole(bytes32,address)": "2f2ff15d",
			"hasRole(bytes32,address)": "91d14854",
			"initialize(address,string,address[],address,uint256)": "8c8a84e2",
			"isTrustedForwarder(address)": "572b6c05",
			"listings(uint256)": "de74e57b",
			"multicall(bytes[])": "ac9650d8",
			"offer(uint256,uint256,address,uint256)": "acb1ba67",
			"offers(uint256,address)": "ebdfbce5",
			"onERC1155BatchReceived(address,address,uint256[],uint256[],bytes)": "bc197c81",
			"onERC1155Received(address,address,uint256,uint256,bytes)": "f23a6e61",
			"onERC721Received(address,address,uint256,bytes)": "150b7a02",
			"renounceRole(bytes32,address)": "36568abe",
			"revokeRole(bytes32,address)": "d547741f",
			"setAuctionBuffers(uint256,uint256)": "ea0e0241",
			"setContractURI(string)": "938e3d7b",
			"setPlatformFeeInfo(address,uint256)": "1e7ac488",
			"supportsInterface(bytes4)": "01ffc9a7",
			"thirdwebFee()": "cf8267b1",
			"timeBuffer()": "ec91f2a4",
			"totalListings()": "c78b616c",
			"updateListing(uint256,uint256,uint256,uint256,address,uint256,uint256)": "c4b5b15f",
			"winningBid(uint256)": "d4ac9b8c"
		}
	},
	"abi": [
		{
			"inputs": [
				{
					"internalType": "address",
					"name": "_nativeTokenWrapper",
					"type": "address"
				},
				{
					"internalType": "address",
					"name": "_thirdwebFee",
					"type": "address"
				}
			],
			"stateMutability": "nonpayable",
			"type": "constructor"
		},
		{
			"anonymous": false,
			"inputs": [
				{
					"indexed": false,
					"internalType": "uint256",
					"name": "timeBuffer",
					"type": "uint256"
				},
				{
					"indexed": false,
					"internalType": "uint256",
					"name": "bidBufferBps",
					"type": "uint256"
				}
			],
			"name": "AuctionBuffersUpdated",
			"type": "event"
		},
		{
			"anonymous": false,
			"inputs": [
				{
					"indexed": true,
					"internalType": "uint256",
					"name": "listingId",
					"type": "uint256"
				},
				{
					"indexed": true,
					"internalType": "address",
					"name": "closer",
					"type": "address"
				},
				{
					"indexed": true,
					"internalType": "bool",
					"name": "cancelled",
					"type": "bool"
				},
				{
					"indexed": false,
					"internalType": "address",
					"name": "auctionCreator",
					"type": "address"
				},
				{
					"indexed": false,
					"internalType": "address",
					"name": "winningBidder",
					"type": "address"
				}
			],
			"name": "AuctionClosed",
			"type": "event"
		},
		{
			"anonymous": false,
			"inputs": [
				{
					"indexed": true,
					"internalType": "uint256",
					"name": "listingId",
					"type": "uint256"
				},
				{
					"indexed": true,
					"internalType": "address",
					"name": "assetContract",
					"type": "address"
				},
				{
					"indexed": true,
					"internalType": "address",
					"name": "lister",
					"type": "address"
				},
				{
					"components": [
						{
							"internalType": "uint256",
							"name": "listingId",
							"type": "uint256"
						},
						{
							"internalType": "address",
							"name": "tokenOwner",
							"type": "address"
						},
						{
							"internalType": "address",
							"name": "assetContract",
							"type": "address"
						},
						{
							"internalType": "uint256",
							"name": "tokenId",
							"type": "uint256"
						},
						{
							"internalType": "uint256",
							"name": "startTime",
							"type": "uint256"
						},
						{
							"internalType": "uint256",
							"name": "endTime",
							"type": "uint256"
						},
						{
							"internalType": "uint256",
							"name": "quantity",
							"type": "uint256"
						},
						{
							"internalType": "address",
							"name": "currency",
							"type": "address"
						},
						{
							"internalType": "uint256",
							"name": "reservePricePerToken",
							"type": "uint256"
						},
						{
							"internalType": "uint256",
							"name": "buyoutPricePerToken",
							"type": "uint256"
						},
						{
							"internalType": "enum IMarketplace.TokenType",
							"name": "tokenType",
							"type": "uint8"
						},
						{
							"internalType": "enum IMarketplace.ListingType",
							"name": "listingType",
							"type": "uint8"
						}
					],
					"indexed": false,
					"internalType": "struct IMarketplace.Listing",
					"name": "listing",
					"type": "tuple"
				}
			],
			"name": "ListingAdded",
			"type": "event"
		},
		{
			"anonymous": false,
			"inputs": [
				{
					"indexed": true,
					"internalType": "uint256",
					"name": "listingId",
					"type": "uint256"
				},
				{
					"indexed": true,
					"internalType": "address",
					"name": "listingCreator",
					"type": "address"
				}
			],
			"name": "ListingRemoved",
			"type": "event"
		},
		{
			"anonymous": false,
			"inputs": [
				{
					"indexed": true,
					"internalType": "uint256",
					"name": "listingId",
					"type": "uint256"
				},
				{
					"indexed": true,
					"internalType": "address",
					"name": "listingCreator",
					"type": "address"
				}
			],
			"name": "ListingUpdated",
			"type": "event"
		},
		{
			"anonymous": false,
			"inputs": [
				{
					"indexed": true,
					"internalType": "uint256",
					"name": "listingId",
					"type": "uint256"
				},
				{
					"indexed": true,
					"internalType": "address",
					"name": "offeror",
					"type": "address"
				},
				{
					"indexed": true,
					"internalType": "enum IMarketplace.ListingType",
					"name": "listingType",
					"type": "uint8"
				},
				{
					"indexed": false,
					"internalType": "uint256",
					"name": "quantityWanted",
					"type": "uint256"
				},
				{
					"indexed": false,
					"internalType": "uint256",
					"name": "totalOfferAmount",
					"type": "uint256"
				},
				{
					"indexed": false,
					"internalType": "address",
					"name": "currency",
					"type": "address"
				}
			],
			"name": "NewOffer",
			"type": "event"
		},
		{
			"anonymous": false,
			"inputs": [
				{
					"indexed": true,
					"internalType": "uint256",
					"name": "listingId",
					"type": "uint256"
				},
				{
					"indexed": true,
					"internalType": "address",
					"name": "assetContract",
					"type": "address"
				},
				{
					"indexed": true,
					"internalType": "address",
					"name": "lister",
					"type": "address"
				},
				{
					"indexed": false,
					"internalType": "address",
					"name": "buyer",
					"type": "address"
				},
				{
					"indexed": false,
					"internalType": "uint256",
					"name": "quantityBought",
					"type": "uint256"
				},
				{
					"indexed": false,
					"internalType": "uint256",
					"name": "totalPricePaid",
					"type": "uint256"
				}
			],
			"name": "NewSale",
			"type": "event"
		},
		{
			"anonymous": false,
			"inputs": [
				{
					"indexed": false,
					"internalType": "address",
					"name": "platformFeeRecipient",
					"type": "address"
				},
				{
					"indexed": false,
					"internalType": "uint256",
					"name": "platformFeeBps",
					"type": "uint256"
				}
			],
			"name": "PlatformFeeInfoUpdated",
			"type": "event"
		},
		{
			"anonymous": false,
			"inputs": [
				{
					"indexed": true,
					"internalType": "bytes32",
					"name": "role",
					"type": "bytes32"
				},
				{
					"indexed": true,
					"internalType": "bytes32",
					"name": "previousAdminRole",
					"type": "bytes32"
				},
				{
					"indexed": true,
					"internalType": "bytes32",
					"name": "newAdminRole",
					"type": "bytes32"
				}
			],
			"name": "RoleAdminChanged",
			"type": "event"
		},
		{
			"anonymous": false,
			"inputs": [
				{
					"indexed": true,
					"internalType": "bytes32",
					"name": "role",
					"type": "bytes32"
				},
				{
					"indexed": true,
					"internalType": "address",
					"name": "account",
					"type": "address"
				},
				{
					"indexed": true,
					"internalType": "address",
					"name": "sender",
					"type": "address"
				}
			],
			"name": "RoleGranted",
			"type": "event"
		},
		{
			"anonymous": false,
			"inputs": [
				{
					"indexed": true,
					"internalType": "bytes32",
					"name": "role",
					"type": "bytes32"
				},
				{
					"indexed": true,
					"internalType": "address",
					"name": "account",
					"type": "address"
				},
				{
					"indexed": true,
					"internalType": "address",
					"name": "sender",
					"type": "address"
				}
			],
			"name": "RoleRevoked",
			"type": "event"
		},
		{
			"inputs": [],
			"name": "DEFAULT_ADMIN_ROLE",
			"outputs": [
				{
					"internalType": "bytes32",
					"name": "",
					"type": "bytes32"
				}
			],
			"stateMutability": "view",
			"type": "function"
		},
		{
			"inputs": [],
			"name": "MAX_BPS",
			"outputs": [
				{
					"internalType": "uint64",
					"name": "",
					"type": "uint64"
				}
			],
			"stateMutability": "view",
			"type": "function"
		},
		{
			"inputs": [
				{
					"internalType": "uint256",
					"name": "_listingId",
					"type": "uint256"
				},
				{
					"internalType": "address",
					"name": "_offeror",
					"type": "address"
				},
				{
					"internalType": "address",
					"name": "_currency",
					"type": "address"
				},
				{
					"internalType": "uint256",
					"name": "_pricePerToken",
					"type": "uint256"
				}
			],
			"name": "acceptOffer",
			"outputs": [],
			"stateMutability": "nonpayable",
			"type": "function"
		},
		{
			"inputs": [],
			"name": "bidBufferBps",
			"outputs": [
				{
					"internalType": "uint64",
					"name": "",
					"type": "uint64"
				}
			],
			"stateMutability": "view",
			"type": "function"
		},
		{
			"inputs": [
				{
					"internalType": "uint256",
					"name": "_listingId",
					"type": "uint256"
				},
				{
					"internalType": "address",
					"name": "_buyFor",
					"type": "address"
				},
				{
					"internalType": "uint256",
					"name": "_quantityToBuy",
					"type": "uint256"
				},
				{
					"internalType": "address",
					"name": "_currency",
					"type": "address"
				},
				{
					"internalType": "uint256",
					"name": "_totalPrice",
					"type": "uint256"
				}
			],
			"name": "buy",
			"outputs": [],
			"stateMutability": "payable",
			"type": "function"
		},
		{
			"inputs": [
				{
					"internalType": "uint256",
					"name": "_listingId",
					"type": "uint256"
				}
			],
			"name": "cancelDirectListing",
			"outputs": [],
			"stateMutability": "nonpayable",
			"type": "function"
		},
		{
			"inputs": [
				{
					"internalType": "uint256",
					"name": "_listingId",
					"type": "uint256"
				},
				{
					"internalType": "address",
					"name": "_closeFor",
					"type": "address"
				}
			],
			"name": "closeAuction",
			"outputs": [],
			"stateMutability": "nonpayable",
			"type": "function"
		},
		{
			"inputs": [],
			"name": "contractType",
			"outputs": [
				{
					"internalType": "bytes32",
					"name": "",
					"type": "bytes32"
				}
			],
			"stateMutability": "pure",
			"type": "function"
		},
		{
			"inputs": [],
			"name": "contractURI",
			"outputs": [
				{
					"internalType": "string",
					"name": "",
					"type": "string"
				}
			],
			"stateMutability": "view",
			"type": "function"
		},
		{
			"inputs": [],
			"name": "contractVersion",
			"outputs": [
				{
					"internalType": "uint8",
					"name": "",
					"type": "uint8"
				}
			],
			"stateMutability": "pure",
			"type": "function"
		},
		{
			"inputs": [
				{
					"components": [
						{
							"internalType": "address",
							"name": "assetContract",
							"type": "address"
						},
						{
							"internalType": "uint256",
							"name": "tokenId",
							"type": "uint256"
						},
						{
							"internalType": "uint256",
							"name": "startTime",
							"type": "uint256"
						},
						{
							"internalType": "uint256",
							"name": "secondsUntilEndTime",
							"type": "uint256"
						},
						{
							"internalType": "uint256",
							"name": "quantityToList",
							"type": "uint256"
						},
						{
							"internalType": "address",
							"name": "currencyToAccept",
							"type": "address"
						},
						{
							"internalType": "uint256",
							"name": "reservePricePerToken",
							"type": "uint256"
						},
						{
							"internalType": "uint256",
							"name": "buyoutPricePerToken",
							"type": "uint256"
						},
						{
							"internalType": "enum IMarketplace.ListingType",
							"name": "listingType",
							"type": "uint8"
						}
					],
					"internalType": "struct IMarketplace.ListingParameters",
					"name": "_params",
					"type": "tuple"
				}
			],
			"name": "createListing",
			"outputs": [],
			"stateMutability": "nonpayable",
			"type": "function"
		},
		{
			"inputs": [],
			"name": "getPlatformFeeInfo",
			"outputs": [
				{
					"internalType": "address",
					"name": "",
					"type": "address"
				},
				{
					"internalType": "uint16",
					"name": "",
					"type": "uint16"
				}
			],
			"stateMutability": "view",
			"type": "function"
		},
		{
			"inputs": [
				{
					"internalType": "bytes32",
					"name": "role",
					"type": "bytes32"
				}
			],
			"name": "getRoleAdmin",
			"outputs": [
				{
					"internalType": "bytes32",
					"name": "",
					"type": "bytes32"
				}
			],
			"stateMutability": "view",
			"type": "function"
		},
		{
			"inputs": [
				{
					"internalType": "bytes32",
					"name": "role",
					"type": "bytes32"
				},
				{
					"internalType": "uint256",
					"name": "index",
					"type": "uint256"
				}
			],
			"name": "getRoleMember",
			"outputs": [
				{
					"internalType": "address",
					"name": "",
					"type": "address"
				}
			],
			"stateMutability": "view",
			"type": "function"
		},
		{
			"inputs": [
				{
					"internalType": "bytes32",
					"name": "role",
					"type": "bytes32"
				}
			],
			"name": "getRoleMemberCount",
			"outputs": [
				{
					"internalType": "uint256",
					"name": "",
					"type": "uint256"
				}
			],
			"stateMutability": "view",
			"type": "function"
		},
		{
			"inputs": [
				{
					"internalType": "bytes32",
					"name": "role",
					"type": "bytes32"
				},
				{
					"internalType": "address",
					"name": "account",
					"type": "address"
				}
			],
			"name": "grantRole",
			"outputs": [],
			"stateMutability": "nonpayable",
			"type": "function"
		},
		{
			"inputs": [
				{
					"internalType": "bytes32",
					"name": "role",
					"type": "bytes32"
				},
				{
					"internalType": "address",
					"name": "account",
					"type": "address"
				}
			],
			"name": "hasRole",
			"outputs": [
				{
					"internalType": "bool",
					"name": "",
					"type": "bool"
				}
			],
			"stateMutability": "view",
			"type": "function"
		},
		{
			"inputs": [
				{
					"internalType": "address",
					"name": "_defaultAdmin",
					"type": "address"
				},
				{
					"internalType": "string",
					"name": "_contractURI",
					"type": "string"
				},
				{
					"internalType": "address[]",
					"name": "_trustedForwarders",
					"type": "address[]"
				},
				{
					"internalType": "address",
					"name": "_platformFeeRecipient",
					"type": "address"
				},
				{
					"internalType": "uint256",
					"name": "_platformFeeBps",
					"type": "uint256"
				}
			],
			"name": "initialize",
			"outputs": [],
			"stateMutability": "nonpayable",
			"type": "function"
		},
		{
			"inputs": [
				{
					"internalType": "address",
					"name": "forwarder",
					"type": "address"
				}
			],
			"name": "isTrustedForwarder",
			"outputs": [
				{
					"internalType": "bool",
					"name": "",
					"type": "bool"
				}
			],
			"stateMutability": "view",
			"type": "function"
		},
		{
			"inputs": [
				{
					"internalType": "uint256",
					"name": "",
					"type": "uint256"
				}
			],
			"name": "listings",
			"outputs": [
				{
					"internalType": "uint256",
					"name": "listingId",
					"type": "uint256"
				},
				{
					"internalType": "address",
					"name": "tokenOwner",
					"type": "address"
				},
				{
					"internalType": "address",
					"name": "assetContract",
					"type": "address"
				},
				{
					"internalType": "uint256",
					"name": "tokenId",
					"type": "uint256"
				},
				{
					"internalType": "uint256",
					"name": "startTime",
					"type": "uint256"
				},
				{
					"internalType": "uint256",
					"name": "endTime",
					"type": "uint256"
				},
				{
					"internalType": "uint256",
					"name": "quantity",
					"type": "uint256"
				},
				{
					"internalType": "address",
					"name": "currency",
					"type": "address"
				},
				{
					"internalType": "uint256",
					"name": "reservePricePerToken",
					"type": "uint256"
				},
				{
					"internalType": "uint256",
					"name": "buyoutPricePerToken",
					"type": "uint256"
				},
				{
					"internalType": "enum IMarketplace.TokenType",
					"name": "tokenType",
					"type": "uint8"
				},
				{
					"internalType": "enum IMarketplace.ListingType",
					"name": "listingType",
					"type": "uint8"
				}
			],
			"stateMutability": "view",
			"type": "function"
		},
		{
			"inputs": [
				{
					"internalType": "bytes[]",
					"name": "data",
					"type": "bytes[]"
				}
			],
			"name": "multicall",
			"outputs": [
				{
					"internalType": "bytes[]",
					"name": "results",
					"type": "bytes[]"
				}
			],
			"stateMutability": "nonpayable",
			"type": "function"
		},
		{
			"inputs": [
				{
					"internalType": "uint256",
					"name": "_listingId",
					"type": "uint256"
				},
				{
					"internalType": "uint256",
					"name": "_quantityWanted",
					"type": "uint256"
				},
				{
					"internalType": "address",
					"name": "_currency",
					"type": "address"
				},
				{
					"internalType": "uint256",
					"name": "_pricePerToken",
					"type": "uint256"
				}
			],
			"name": "offer",
			"outputs": [],
			"stateMutability": "payable",
			"type": "function"
		},
		{
			"inputs": [
				{
					"internalType": "uint256",
					"name": "",
					"type": "uint256"
				},
				{
					"internalType": "address",
					"name": "",
					"type": "address"
				}
			],
			"name": "offers",
			"outputs": [
				{
					"internalType": "uint256",
					"name": "listingId",
					"type": "uint256"
				},
				{
					"internalType": "address",
					"name": "offeror",
					"type": "address"
				},
				{
					"internalType": "uint256",
					"name": "quantityWanted",
					"type": "uint256"
				},
				{
					"internalType": "address",
					"name": "currency",
					"type": "address"
				},
				{
					"internalType": "uint256",
					"name": "pricePerToken",
					"type": "uint256"
				}
			],
			"stateMutability": "view",
			"type": "function"
		},
		{
			"inputs": [
				{
					"internalType": "address",
					"name": "",
					"type": "address"
				},
				{
					"internalType": "address",
					"name": "",
					"type": "address"
				},
				{
					"internalType": "uint256[]",
					"name": "",
					"type": "uint256[]"
				},
				{
					"internalType": "uint256[]",
					"name": "",
					"type": "uint256[]"
				},
				{
					"internalType": "bytes",
					"name": "",
					"type": "bytes"
				}
			],
			"name": "onERC1155BatchReceived",
			"outputs": [
				{
					"internalType": "bytes4",
					"name": "",
					"type": "bytes4"
				}
			],
			"stateMutability": "nonpayable",
			"type": "function"
		},
		{
			"inputs": [
				{
					"internalType": "address",
					"name": "",
					"type": "address"
				},
				{
					"internalType": "address",
					"name": "",
					"type": "address"
				},
				{
					"internalType": "uint256",
					"name": "",
					"type": "uint256"
				},
				{
					"internalType": "uint256",
					"name": "",
					"type": "uint256"
				},
				{
					"internalType": "bytes",
					"name": "",
					"type": "bytes"
				}
			],
			"name": "onERC1155Received",
			"outputs": [
				{
					"internalType": "bytes4",
					"name": "",
					"type": "bytes4"
				}
			],
			"stateMutability": "nonpayable",
			"type": "function"
		},
		{
			"inputs": [
				{
					"internalType": "address",
					"name": "",
					"type": "address"
				},
				{
					"internalType": "address",
					"name": "",
					"type": "address"
				},
				{
					"internalType": "uint256",
					"name": "",
					"type": "uint256"
				},
				{
					"internalType": "bytes",
					"name": "",
					"type": "bytes"
				}
			],
			"name": "onERC721Received",
			"outputs": [
				{
					"internalType": "bytes4",
					"name": "",
					"type": "bytes4"
				}
			],
			"stateMutability": "pure",
			"type": "function"
		},
		{
			"inputs": [
				{
					"internalType": "bytes32",
					"name": "role",
					"type": "bytes32"
				},
				{
					"internalType": "address",
					"name": "account",
					"type": "address"
				}
			],
			"name": "renounceRole",
			"outputs": [],
			"stateMutability": "nonpayable",
			"type": "function"
		},
		{
			"inputs": [
				{
					"internalType": "bytes32",
					"name": "role",
					"type": "bytes32"
				},
				{
					"internalType": "address",
					"name": "account",
					"type": "address"
				}
			],
			"name": "revokeRole",
			"outputs": [],
			"stateMutability": "nonpayable",
			"type": "function"
		},
		{
			"inputs": [
				{
					"internalType": "uint256",
					"name": "_timeBuffer",
					"type": "uint256"
				},
				{
					"internalType": "uint256",
					"name": "_bidBufferBps",
					"type": "uint256"
				}
			],
			"name": "setAuctionBuffers",
			"outputs": [],
			"stateMutability": "nonpayable",
			"type": "function"
		},
		{
			"inputs": [
				{
					"internalType": "string",
					"name": "_uri",
					"type": "string"
				}
			],
			"name": "setContractURI",
			"outputs": [],
			"stateMutability": "nonpayable",
			"type": "function"
		},
		{
			"inputs": [
				{
					"internalType": "address",
					"name": "_platformFeeRecipient",
					"type": "address"
				},
				{
					"internalType": "uint256",
					"name": "_platformFeeBps",
					"type": "uint256"
				}
			],
			"name": "setPlatformFeeInfo",
			"outputs": [],
			"stateMutability": "nonpayable",
			"type": "function"
		},
		{
			"inputs": [
				{
					"internalType": "bytes4",
					"name": "interfaceId",
					"type": "bytes4"
				}
			],
			"name": "supportsInterface",
			"outputs": [
				{
					"internalType": "bool",
					"name": "",
					"type": "bool"
				}
			],
			"stateMutability": "view",
			"type": "function"
		},
		{
			"inputs": [],
			"name": "thirdwebFee",
			"outputs": [
				{
					"internalType": "contract ITWFee",
					"name": "",
					"type": "address"
				}
			],
			"stateMutability": "view",
			"type": "function"
		},
		{
			"inputs": [],
			"name": "timeBuffer",
			"outputs": [
				{
					"internalType": "uint64",
					"name": "",
					"type": "uint64"
				}
			],
			"stateMutability": "view",
			"type": "function"
		},
		{
			"inputs": [],
			"name": "totalListings",
			"outputs": [
				{
					"internalType": "uint256",
					"name": "",
					"type": "uint256"
				}
			],
			"stateMutability": "view",
			"type": "function"
		},
		{
			"inputs": [
				{
					"internalType": "uint256",
					"name": "_listingId",
					"type": "uint256"
				},
				{
					"internalType": "uint256",
					"name": "_quantityToList",
					"type": "uint256"
				},
				{
					"internalType": "uint256",
					"name": "_reservePricePerToken",
					"type": "uint256"
				},
				{
					"internalType": "uint256",
					"name": "_buyoutPricePerToken",
					"type": "uint256"
				},
				{
					"internalType": "address",
					"name": "_currencyToAccept",
					"type": "address"
				},
				{
					"internalType": "uint256",
					"name": "_startTime",
					"type": "uint256"
				},
				{
					"internalType": "uint256",
					"name": "_secondsUntilEndTime",
					"type": "uint256"
				}
			],
			"name": "updateListing",
			"outputs": [],
			"stateMutability": "nonpayable",
			"type": "function"
		},
		{
			"inputs": [
				{
					"internalType": "uint256",
					"name": "",
					"type": "uint256"
				}
			],
			"name": "winningBid",
			"outputs": [
				{
					"internalType": "uint256",
					"name": "listingId",
					"type": "uint256"
				},
				{
					"internalType": "address",
					"name": "offeror",
					"type": "address"
				},
				{
					"internalType": "uint256",
					"name": "quantityWanted",
					"type": "uint256"
				},
				{
					"internalType": "address",
					"name": "currency",
					"type": "address"
				},
				{
					"internalType": "uint256",
					"name": "pricePerToken",
					"type": "uint256"
				}
			],
			"stateMutability": "view",
			"type": "function"
		},
		{
			"stateMutability": "payable",
			"type": "receive"
		}
	]
}