{
	"data": {
		"bytecode": {
			"linkReferences": {},
			"object": "60806040526006805460a060020a62ffffff02191690553480156200002357600080fd5b5060068054600160a060020a031916331790556200004964010000000062000077810204565b6200007173ceb468c7ebb140b11998a350a8bb0a7cf9c3c3ba64010000000062000117810204565b620002fd565b600654760100000000000000000000000000000000000000000000900460ff1615620000a257600080fd5b6006805460b060020a60ff021916760100000000000000000000000000000000000000000000179055620000eb336a108b2a2c2802909400000064010000000062000146810204565b506040517f5daa87a0e9463431830481fd4b6e3403442dfb9a12b9c07597e9f61d50b633c890600090a1565b600654600160a060020a031633146200012f57600080fd5b620001438164010000000062000277810204565b50565b600654600090600160a060020a031633146200016157600080fd5b60065474010000000000000000000000000000000000000000900460ff16156200018a57600080fd5b600154620001a7908364010000000062001490620002e982021704565b600155600160a060020a038316600090815260208190526040902054620001dd908364010000000062001490620002e982021704565b600160a060020a03841660008181526020818152604091829020939093558051858152905191927f0f6798a560793a54c3bcfe86a93cde1e73087d944c0ea20544137d412139688592918290030190a2604080518381529051600160a060020a038516916000917fddf252ad1be2c89b69c2b068fc378daa952ba7f163c4a11628f55a4df523b3ef9181900360200190a350600192915050565b600160a060020a03811615156200028d57600080fd5b600654604051600160a060020a038084169216907f8be0079c531659141344cd1fd0a4f28419497f9722a3daafe3b4186f6b6457e090600090a360068054600160a060020a031916600160a060020a0392909216919091179055565b81810182811015620002f757fe5b92915050565b611a51806200030d6000396000f3006080604052600436106101d65763ffffffff7c01000000000000000000000000000000000000000000000000000000006000350416623fd35a81146101db57806302d6f7301461020457806305d2035b1461024c57806306fdde0314610261578063095ea7b3146102eb5780630bb2cd6b1461030f578063158ef93e1461034057806317a950ac1461035557806318160ddd14610388578063188214001461039d57806323b872dd146103b25780632a905318146103dc578063313ce567146103f15780633be1e9521461041c5780633f4ba83a1461044f57806340c10f191461046457806342966c681461048857806356780085146104a05780635b7f415c146104b55780635be7fde8146104ca5780635c975abb146104df57806366188463146104f457806366a92cda1461051857806370a082311461052d578063715018a61461054e578063726a431a146105635780637d64bcb4146105945780638456cb59146105a95780638da5cb5b146105be57806395d89b41146105d3578063a9059cbb146105e8578063a9aad58c1461060c578063ca63b5b814610621578063cf3b196714610642578063d73dd62314610657578063d8aeedf51461067b578063dd62ed3e1461069c578063f2fde38b146106c3575b600080fd5b3480156101e757600080fd5b506101f06106e4565b604080519115158252519081900360200190f35b34801561021057600080fd5b50610228600160a060020a03600435166024356106e9565b6040805167ffffffffffffffff909316835260208301919091528051918290030190f35b34801561025857600080fd5b506101f0610776565b34801561026d57600080fd5b50610276610786565b6040805160208082528351818301528351919283929083019185019080838360005b838110156102b0578181015183820152602001610298565b50505050905090810190601f1680156102dd5780820380516001836020036101000a031916815260200191505b509250505060405180910390f35b3480156102f757600080fd5b506101f0600160a060020a03600435166024356107bd565b34801561031b57600080fd5b506101f0600160a060020a036004351660243567ffffffffffffffff60443516610823565b34801561034c57600080fd5b506101f06109c1565b34801561036157600080fd5b50610376600160a060020a03600435166109e4565b60408051918252519081900360200190f35b34801561039457600080fd5b506103766109f5565b3480156103a957600080fd5b506102766109fb565b3480156103be57600080fd5b506101f0600160a060020a0360043581169060243516604435610a32565b3480156103e857600080fd5b50610276610a5f565b3480156103fd57600080fd5b50610406610a96565b6040805160ff9092168252519081900360200190f35b34801561042857600080fd5b5061044d600160a060020a036004351660243567ffffffffffffffff60443516610a9b565b005b34801561045b57600080fd5b5061044d610c0f565b34801561047057600080fd5b506101f0600160a060020a0360043516602435610c88565b34801561049457600080fd5b5061044d600435610d80565b3480156104ac57600080fd5b50610376610d8d565b3480156104c157600080fd5b50610376610d99565b3480156104d657600080fd5b50610376610d9e565b3480156104eb57600080fd5b506101f0610e03565b34801561050057600080fd5b506101f0600160a060020a0360043516602435610e13565b34801561052457600080fd5b5061044d610f03565b34801561053957600080fd5b50610376600160a060020a03600435166110a6565b34801561055a57600080fd5b5061044d6110cf565b34801561056f57600080fd5b5061057861113d565b60408051600160a060020a039092168252519081900360200190f35b3480156105a057600080fd5b506101f0611155565b3480156105b557600080fd5b5061044d6111d9565b3480156105ca57600080fd5b50610578611257565b3480156105df57600080fd5b50610276611266565b3480156105f457600080fd5b506101f0600160a060020a036004351660243561129d565b34801561061857600080fd5b506101f06112c8565b34801561062d57600080fd5b50610376600160a060020a03600435166112cd565b34801561064e57600080fd5b50610406610d99565b34801561066357600080fd5b506101f0600160a060020a0360043516602435611353565b34801561068757600080fd5b50610376600160a060020a03600435166113ec565b3480156106a857600080fd5b50610376600160a060020a0360043581169060243516611407565b3480156106cf57600080fd5b5061044d600160a060020a0360043516611432565b600181565b600080805b836001018110156107425760036000610711878667ffffffffffffffff16611452565b815260208101919091526040016000205467ffffffffffffffff16925082151561073a5761076e565b6001016106ee565b6004600061075a878667ffffffffffffffff16611452565b815260208101919091526040016000205491505b509250929050565b60065460a060020a900460ff1681565b60408051808201909152600a81527f546865204c757875727900000000000000000000000000000000000000000000602082015290565b336000818152600260209081526040808320600160a060020a038716808552908352818420869055815186815291519394909390927f8c5be1e5ebec7d5bd14f71427d1e84f3dd0314c0f7b2291e5b200ac8c7c3b925928290030190a350600192915050565b6006546000908190600160a060020a0316331461083f57600080fd5b60065460a060020a900460ff161561085657600080fd5b600154610869908563ffffffff61149016565b6001556108808567ffffffffffffffff8516611452565b6000818152600460205260409020549091506108a2908563ffffffff61149016565b600082815260046020908152604080832093909355600160a060020a03881682526005905220546108d9908563ffffffff61149016565b600160a060020a0386166000908152600560205260409020556108fc858461149d565b604080518581529051600160a060020a038716917f0f6798a560793a54c3bcfe86a93cde1e73087d944c0ea20544137d4121396885919081900360200190a26040805167ffffffffffffffff85168152602081018690528151600160a060020a038816927f2ecd071e4d10ed2221b04636ed0724cce66a873aa98c1a31b4bb0e6846d3aab4928290030190a2604080518581529051600160a060020a038716913391600080516020611a068339815191529181900360200190a3506001949350505050565b600654760100000000000000000000000000000000000000000000900460ff1681565b60006109ef82611637565b92915050565b60015490565b60408051808201909152600a81527f546865204c757875727900000000000000000000000000000000000000000000602082015281565b60065460009060a860020a900460ff1615610a4c57600080fd5b610a57848484611652565b949350505050565b60408051808201909152600381527f544c580000000000000000000000000000000000000000000000000000000000602082015281565b601290565b6000600160a060020a0384161515610ab257600080fd5b33600090815260208190526040902054831115610ace57600080fd5b33600090815260208190526040902054610aee908463ffffffff6117b716565b33600090815260208190526040902055610b128467ffffffffffffffff8416611452565b600081815260046020526040902054909150610b34908463ffffffff61149016565b600082815260046020908152604080832093909355600160a060020a0387168252600590522054610b6b908463ffffffff61149016565b600160a060020a038516600090815260056020526040902055610b8e848361149d565b604080518481529051600160a060020a038616913391600080516020611a068339815191529181900360200190a36040805167ffffffffffffffff84168152602081018590528151600160a060020a038716927f2ecd071e4d10ed2221b04636ed0724cce66a873aa98c1a31b4bb0e6846d3aab4928290030190a250505050565b600654600160a060020a03163314610c2657600080fd5b60065460a860020a900460ff161515610c3e57600080fd5b6006805475ff000000000000000000000000000000000000000000191690556040517f7805862f689e2f13df9f062ff482ad3ad112aca9e0847911ed832e158c525b3390600090a1565b600654600090600160a060020a03163314610ca257600080fd5b60065460a060020a900460ff1615610cb957600080fd5b600154610ccc908363ffffffff61149016565b600155600160a060020a038316600090815260208190526040902054610cf8908363ffffffff61149016565b600160a060020a03841660008181526020818152604091829020939093558051858152905191927f0f6798a560793a54c3bcfe86a93cde1e73087d944c0ea20544137d412139688592918290030190a2604080518381529051600160a060020a03851691600091600080516020611a068339815191529181900360200190a350600192915050565b610d8a33826117c9565b50565b670de0b6b3a764000081565b601281565b6000806000610dae3360006106e9565b67ffffffffffffffff909116925090505b8115801590610dcd57508142115b15610dfe57610dda610f03565b91820191610de93360006106e9565b67ffffffffffffffff90911692509050610dbf565b505090565b60065460a860020a900460ff1681565b336000908152600260209081526040808320600160a060020a038616845290915281205480831115610e6857336000908152600260209081526040808320600160a060020a0388168452909152812055610e9d565b610e78818463ffffffff6117b716565b336000908152600260209081526040808320600160a060020a03891684529091529020555b336000818152600260209081526040808320600160a060020a0389168085529083529281902054815190815290519293927f8c5be1e5ebec7d5bd14f71427d1e84f3dd0314c0f7b2291e5b200ac8c7c3b925929181900390910190a35060019392505050565b6000806000806000610f16336000611452565b60008181526003602052604090205490955067ffffffffffffffff169350831515610f4057600080fd5b8367ffffffffffffffff164267ffffffffffffffff16111515610f6257600080fd5b610f76338567ffffffffffffffff16611452565b600081815260036020908152604080832054600483528184208054908590553385529284905292205492955067ffffffffffffffff90911693509150610fc2908263ffffffff61149016565b3360009081526020818152604080832093909355600590522054610fec908263ffffffff6117b716565b3360009081526005602052604090205567ffffffffffffffff8216151561102f576000858152600360205260409020805467ffffffffffffffff19169055611069565b600085815260036020526040808220805467ffffffffffffffff861667ffffffffffffffff19918216179091558583529120805490911690555b60408051828152905133917fb21fb52d5749b80f3182f8c6992236b5e5576681880914484d7f4c9b062e619e919081900360200190a25050505050565b600160a060020a0381166000908152600560205260408120546110c883611637565b0192915050565b600654600160a060020a031633146110e657600080fd5b600654604051600160a060020a03909116907ff8df31144d9c2f0f6b59d69b8b98abd5459d07f2742c4df920b25aae33c6482090600090a26006805473ffffffffffffffffffffffffffffffffffffffff19169055565b73ceb468c7ebb140b11998a350a8bb0a7cf9c3c3ba81565b600654600090600160a060020a0316331461116f57600080fd5b60065460a060020a900460ff161561118657600080fd5b6006805474ff0000000000000000000000000000000000000000191660a060020a1790556040517fae5184fba832cb2b1f702aca6117b8d265eaf03ad33eb133f19dde0f5920fa0890600090a150600190565b600654600160a060020a031633146111f057600080fd5b60065460a860020a900460ff161561120757600080fd5b6006805475ff000000000000000000000000000000000000000000191660a860020a1790556040517f6985a02210a168e66602d3235cb6db0e70f92b3ba4d376a33c0f3d9434bff62590600090a1565b600654600160a060020a031681565b60408051808201909152600381527f544c580000000000000000000000000000000000000000000000000000000000602082015290565b60065460009060a860020a900460ff16156112b757600080fd5b6112c183836118b8565b9392505050565b600081565b600080600360006112df856000611452565b815260208101919091526040016000205467ffffffffffffffff1690505b67ffffffffffffffff81161561134d576001909101906003600061132b8567ffffffffffffffff8516611452565b815260208101919091526040016000205467ffffffffffffffff1690506112fd565b50919050565b336000908152600260209081526040808320600160a060020a0386168452909152812054611387908363ffffffff61149016565b336000818152600260209081526040808320600160a060020a0389168085529083529281902085905580519485525191937f8c5be1e5ebec7d5bd14f71427d1e84f3dd0314c0f7b2291e5b200ac8c7c3b925929081900390910190a350600192915050565b600160a060020a031660009081526005602052604090205490565b600160a060020a03918216600090815260026020908152604080832093909416825291909152205490565b600654600160a060020a0316331461144957600080fd5b610d8a81611987565b67ffffffffffffffff166801000000000000000091909102177f57495348000000000000000000000000000000000000000000000000000000001790565b818101828110156109ef57fe5b6000808080804267ffffffffffffffff8716116114b957600080fd5b6114cd878767ffffffffffffffff16611452565b94506114da876000611452565b60008181526003602052604090205490945067ffffffffffffffff16925082151561152d576000848152600360205260409020805467ffffffffffffffff191667ffffffffffffffff881617905561162e565b611541878467ffffffffffffffff16611452565b91505b67ffffffffffffffff83161580159061157057508267ffffffffffffffff168667ffffffffffffffff16115b156115a9575060008181526003602052604090205490925067ffffffffffffffff908116918391166115a28784611452565b9150611544565b8267ffffffffffffffff168667ffffffffffffffff1614156115ca5761162e565b67ffffffffffffffff831615611604576000858152600360205260409020805467ffffffffffffffff191667ffffffffffffffff85161790555b6000848152600360205260409020805467ffffffffffffffff191667ffffffffffffffff88161790555b50505050505050565b600160a060020a031660009081526020819052604090205490565b6000600160a060020a038316151561166957600080fd5b600160a060020a03841660009081526020819052604090205482111561168e57600080fd5b600160a060020a03841660009081526002602090815260408083203384529091529020548211156116be57600080fd5b600160a060020a0384166000908152602081905260409020546116e7908363ffffffff6117b716565b600160a060020a03808616600090815260208190526040808220939093559085168152205461171c908363ffffffff61149016565b600160a060020a0380851660009081526020818152604080832094909455918716815260028252828120338252909152205461175e908363ffffffff6117b716565b600160a060020a0380861660008181526002602090815260408083203384528252918290209490945580518681529051928716939192600080516020611a06833981519152929181900390910190a35060019392505050565b6000828211156117c357fe5b50900390565b600160a060020a0382166000908152602081905260409020548111156117ee57600080fd5b600160a060020a038216600090815260208190526040902054611817908263ffffffff6117b716565b600160a060020a038316600090815260208190526040902055600154611843908263ffffffff6117b716565b600155604080518281529051600160a060020a038416917fcc16f5dbb4873280815c1ee09dbd06736cffcc184412cf7a71a0fdb75d397ca5919081900360200190a2604080518281529051600091600160a060020a03851691600080516020611a068339815191529181900360200190a35050565b6000600160a060020a03831615156118cf57600080fd5b336000908152602081905260409020548211156118eb57600080fd5b3360009081526020819052604090205461190b908363ffffffff6117b716565b3360009081526020819052604080822092909255600160a060020a0385168152205461193d908363ffffffff61149016565b600160a060020a03841660008181526020818152604091829020939093558051858152905191923392600080516020611a068339815191529281900390910190a350600192915050565b600160a060020a038116151561199c57600080fd5b600654604051600160a060020a038084169216907f8be0079c531659141344cd1fd0a4f28419497f9722a3daafe3b4186f6b6457e090600090a36006805473ffffffffffffffffffffffffffffffffffffffff1916600160a060020a03929092169190911790555600ddf252ad1be2c89b69c2b068fc378daa952ba7f163c4a11628f55a4df523b3efa165627a7a72305820d93624be8721795c91e1c15a4cb15685722a7edc5401c966cd02faf9b40f245a0029",
			"opcodes": "PUSH1 0x80 PUSH1 0x40 MSTORE PUSH1 0x6 DUP1 SLOAD PUSH1 0xA0 PUSH1 0x2 EXP PUSH3 0xFFFFFF MUL NOT AND SWAP1 SSTORE CALLVALUE DUP1 ISZERO PUSH3 0x23 JUMPI PUSH1 0x0 DUP1 REVERT JUMPDEST POP PUSH1 0x6 DUP1 SLOAD PUSH1 0x1 PUSH1 0xA0 PUSH1 0x2 EXP SUB NOT AND CALLER OR SWAP1 SSTORE PUSH3 0x49 PUSH5 0x100000000 PUSH3 0x77 DUP2 MUL DIV JUMP JUMPDEST PUSH3 0x71 PUSH20 0xCEB468C7EBB140B11998A350A8BB0A7CF9C3C3BA PUSH5 0x100000000 PUSH3 0x117 DUP2 MUL DIV JUMP JUMPDEST PUSH3 0x2FD JUMP JUMPDEST PUSH1 0x6 SLOAD PUSH23 0x100000000000000000000000000000000000000000000 SWAP1 DIV PUSH1 0xFF AND ISZERO PUSH3 0xA2 JUMPI PUSH1 0x0 DUP1 REVERT JUMPDEST PUSH1 0x6 DUP1 SLOAD PUSH1 0xB0 PUSH1 0x2 EXP PUSH1 0xFF MUL NOT AND PUSH23 0x100000000000000000000000000000000000000000000 OR SWAP1 SSTORE PUSH3 0xEB CALLER PUSH11 0x108B2A2C28029094000000 PUSH5 0x100000000 PUSH3 0x146 DUP2 MUL DIV JUMP JUMPDEST POP PUSH1 0x40 MLOAD PUSH32 0x5DAA87A0E9463431830481FD4B6E3403442DFB9A12B9C07597E9F61D50B633C8 SWAP1 PUSH1 0x0 SWAP1 LOG1 JUMP JUMPDEST PUSH1 0x6 SLOAD PUSH1 0x1 PUSH1 0xA0 PUSH1 0x2 EXP SUB AND CALLER EQ PUSH3 0x12F JUMPI PUSH1 0x0 DUP1 REVERT JUMPDEST PUSH3 0x143 DUP2 PUSH5 0x100000000 PUSH3 0x277 DUP2 MUL DIV JUMP JUMPDEST POP JUMP JUMPDEST PUSH1 0x6 SLOAD PUSH1 0x0 SWAP1 PUSH1 0x1 PUSH1 0xA0 PUSH1 0x2 EXP SUB AND CALLER EQ PUSH3 0x161 JUMPI PUSH1 0x0 DUP1 REVERT JUMPDEST PUSH1 0x6 SLOAD PUSH21 0x10000000000000000000000000000000000000000 SWAP1 DIV PUSH1 0xFF AND ISZERO PUSH3 0x18A JUMPI PUSH1 0x0 DUP1 REVERT JUMPDEST PUSH1 0x1 SLOAD PUSH3 0x1A7 SWAP1 DUP4 PUSH5 0x100000000 PUSH3 0x1490 PUSH3 0x2E9 DUP3 MUL OR DIV JUMP JUMPDEST PUSH1 0x1 SSTORE PUSH1 0x1 PUSH1 0xA0 PUSH1 0x2 EXP SUB DUP4 AND PUSH1 0x0 SWAP1 DUP2 MSTORE PUSH1 0x20 DUP2 SWAP1 MSTORE PUSH1 0x40 SWAP1 KECCAK256 SLOAD PUSH3 0x1DD SWAP1 DUP4 PUSH5 0x100000000 PUSH3 0x1490 PUSH3 0x2E9 DUP3 MUL OR DIV JUMP JUMPDEST PUSH1 0x1 PUSH1 0xA0 PUSH1 0x2 EXP SUB DUP5 AND PUSH1 0x0 DUP2 DUP2 MSTORE PUSH1 0x20 DUP2 DUP2 MSTORE PUSH1 0x40 SWAP2 DUP3 SWAP1 KECCAK256 SWAP4 SWAP1 SWAP4 SSTORE DUP1 MLOAD DUP6 DUP2 MSTORE SWAP1 MLOAD SWAP2 SWAP3 PUSH32 0xF6798A560793A54C3BCFE86A93CDE1E73087D944C0EA20544137D4121396885 SWAP3 SWAP2 DUP3 SWAP1 SUB ADD SWAP1 LOG2 PUSH1 0x40 DUP1 MLOAD DUP4 DUP2 MSTORE SWAP1 MLOAD PUSH1 0x1 PUSH1 0xA0 PUSH1 0x2 EXP SUB DUP6 AND SWAP2 PUSH1 0x0 SWAP2 PUSH32 0xDDF252AD1BE2C89B69C2B068FC378DAA952BA7F163C4A11628F55A4DF523B3EF SWAP2 DUP2 SWAP1 SUB PUSH1 0x20 ADD SWAP1 LOG3 POP PUSH1 0x1 SWAP3 SWAP2 POP POP JUMP JUMPDEST PUSH1 0x1 PUSH1 0xA0 PUSH1 0x2 EXP SUB DUP2 AND ISZERO ISZERO PUSH3 0x28D JUMPI PUSH1 0x0 DUP1 REVERT JUMPDEST PUSH1 0x6 SLOAD PUSH1 0x40 MLOAD PUSH1 0x1 PUSH1 0xA0 PUSH1 0x2 EXP SUB DUP1 DUP5 AND SWAP3 AND SWAP1 PUSH32 0x8BE0079C531659141344CD1FD0A4F28419497F9722A3DAAFE3B4186F6B6457E0 SWAP1 PUSH1 0x0 SWAP1 LOG3 PUSH1 0x6 DUP1 SLOAD PUSH1 0x1 PUSH1 0xA0 PUSH1 0x2 EXP SUB NOT AND PUSH1 0x1 PUSH1 0xA0 PUSH1 0x2 EXP SUB SWAP3 SWAP1 SWAP3 AND SWAP2 SWAP1 SWAP2 OR SWAP1 SSTORE JUMP JUMPDEST DUP2 DUP2 ADD DUP3 DUP2 LT ISZERO PUSH3 0x2F7 JUMPI INVALID JUMPDEST SWAP3 SWAP2 POP POP JUMP JUMPDEST PUSH2 0x1A51 DUP1 PUSH3 0x30D PUSH1 0x0 CODECOPY PUSH1 0x0 RETURN STOP PUSH1 0x80 PUSH1 0x40 MSTORE PUSH1 0x4 CALLDATASIZE LT PUSH2 0x1D6 JUMPI PUSH4 0xFFFFFFFF PUSH29 0x100000000000000000000000000000000000000000000000000000000 PUSH1 0x0 CALLDATALOAD DIV AND PUSH3 0x3FD35A DUP2 EQ PUSH2 0x1DB JUMPI DUP1 PUSH4 0x2D6F730 EQ PUSH2 0x204 JUMPI DUP1 PUSH4 0x5D2035B EQ PUSH2 0x24C JUMPI DUP1 PUSH4 0x6FDDE03 EQ PUSH2 0x261 JUMPI DUP1 PUSH4 0x95EA7B3 EQ PUSH2 0x2EB JUMPI DUP1 PUSH4 0xBB2CD6B EQ PUSH2 0x30F JUMPI DUP1 PUSH4 0x158EF93E EQ PUSH2 0x340 JUMPI DUP1 PUSH4 0x17A950AC EQ PUSH2 0x355 JUMPI DUP1 PUSH4 0x18160DDD EQ PUSH2 0x388 JUMPI DUP1 PUSH4 0x18821400 EQ PUSH2 0x39D JUMPI DUP1 PUSH4 0x23B872DD EQ PUSH2 0x3B2 JUMPI DUP1 PUSH4 0x2A905318 EQ PUSH2 0x3DC JUMPI DUP1 PUSH4 0x313CE567 EQ PUSH2 0x3F1 JUMPI DUP1 PUSH4 0x3BE1E952 EQ PUSH2 0x41C JUMPI DUP1 PUSH4 0x3F4BA83A EQ PUSH2 0x44F JUMPI DUP1 PUSH4 0x40C10F19 EQ PUSH2 0x464 JUMPI DUP1 PUSH4 0x42966C68 EQ PUSH2 0x488 JUMPI DUP1 PUSH4 0x56780085 EQ PUSH2 0x4A0 JUMPI DUP1 PUSH4 0x5B7F415C EQ PUSH2 0x4B5 JUMPI DUP1 PUSH4 0x5BE7FDE8 EQ PUSH2 0x4CA JUMPI DUP1 PUSH4 0x5C975ABB EQ PUSH2 0x4DF JUMPI DUP1 PUSH4 0x66188463 EQ PUSH2 0x4F4 JUMPI DUP1 PUSH4 0x66A92CDA EQ PUSH2 0x518 JUMPI DUP1 PUSH4 0x70A08231 EQ PUSH2 0x52D JUMPI DUP1 PUSH4 0x715018A6 EQ PUSH2 0x54E JUMPI DUP1 PUSH4 0x726A431A EQ PUSH2 0x563 JUMPI DUP1 PUSH4 0x7D64BCB4 EQ PUSH2 0x594 JUMPI DUP1 PUSH4 0x8456CB59 EQ PUSH2 0x5A9 JUMPI DUP1 PUSH4 0x8DA5CB5B EQ PUSH2 0x5BE JUMPI DUP1 PUSH4 0x95D89B41 EQ PUSH2 0x5D3 JUMPI DUP1 PUSH4 0xA9059CBB EQ PUSH2 0x5E8 JUMPI DUP1 PUSH4 0xA9AAD58C EQ PUSH2 0x60C JUMPI DUP1 PUSH4 0xCA63B5B8 EQ PUSH2 0x621 JUMPI DUP1 PUSH4 0xCF3B1967 EQ PUSH2 0x642 JUMPI DUP1 PUSH4 0xD73DD623 EQ PUSH2 0x657 JUMPI DUP1 PUSH4 0xD8AEEDF5 EQ PUSH2 0x67B JUMPI DUP1 PUSH4 0xDD62ED3E EQ PUSH2 0x69C JUMPI DUP1 PUSH4 0xF2FDE38B EQ PUSH2 0x6C3 JUMPI JUMPDEST PUSH1 0x0 DUP1 REVERT JUMPDEST CALLVALUE DUP1 ISZERO PUSH2 0x1E7 JUMPI PUSH1 0x0 DUP1 REVERT JUMPDEST POP PUSH2 0x1F0 PUSH2 0x6E4 JUMP JUMPDEST PUSH1 0x40 DUP1 MLOAD SWAP2 ISZERO ISZERO DUP3 MSTORE MLOAD SWAP1 DUP2 SWAP1 SUB PUSH1 0x20 ADD SWAP1 RETURN JUMPDEST CALLVALUE DUP1 ISZERO PUSH2 0x210 JUMPI PUSH1 0x0 DUP1 REVERT JUMPDEST POP PUSH2 0x228 PUSH1 0x1 PUSH1 0xA0 PUSH1 0x2 EXP SUB PUSH1 0x4 CALLDATALOAD AND PUSH1 0x24 CALLDATALOAD PUSH2 0x6E9 JUMP JUMPDEST PUSH1 0x40 DUP1 MLOAD PUSH8 0xFFFFFFFFFFFFFFFF SWAP1 SWAP4 AND DUP4 MSTORE PUSH1 0x20 DUP4 ADD SWAP2 SWAP1 SWAP2 MSTORE DUP1 MLOAD SWAP2 DUP3 SWAP1 SUB ADD SWAP1 RETURN JUMPDEST CALLVALUE DUP1 ISZERO PUSH2 0x258 JUMPI PUSH1 0x0 DUP1 REVERT JUMPDEST POP PUSH2 0x1F0 PUSH2 0x776 JUMP JUMPDEST CALLVALUE DUP1 ISZERO PUSH2 0x26D JUMPI PUSH1 0x0 DUP1 REVERT JUMPDEST POP PUSH2 0x276 PUSH2 0x786 JUMP JUMPDEST PUSH1 0x40 DUP1 MLOAD PUSH1 0x20 DUP1 DUP3 MSTORE DUP4 MLOAD DUP2 DUP4 ADD MSTORE DUP4 MLOAD SWAP2 SWAP3 DUP4 SWAP3 SWAP1 DUP4 ADD SWAP2 DUP6 ADD SWAP1 DUP1 DUP4 DUP4 PUSH1 0x0 JUMPDEST DUP4 DUP2 LT ISZERO PUSH2 0x2B0 JUMPI DUP2 DUP2 ADD MLOAD DUP4 DUP3 ADD MSTORE PUSH1 0x20 ADD PUSH2 0x298 JUMP JUMPDEST POP POP POP POP SWAP1 POP SWAP1 DUP2 ADD SWAP1 PUSH1 0x1F AND DUP1 ISZERO PUSH2 0x2DD JUMPI DUP1 DUP3 SUB DUP1 MLOAD PUSH1 0x1 DUP4 PUSH1 0x20 SUB PUSH2 0x100 EXP SUB NOT AND DUP2 MSTORE PUSH1 0x20 ADD SWAP2 POP JUMPDEST POP SWAP3 POP POP POP PUSH1 0x40 MLOAD DUP1 SWAP2 SUB SWAP1 RETURN JUMPDEST CALLVALUE DUP1 ISZERO PUSH2 0x2F7 JUMPI PUSH1 0x0 DUP1 REVERT JUMPDEST POP PUSH2 0x1F0 PUSH1 0x1 PUSH1 0xA0 PUSH1 0x2 EXP SUB PUSH1 0x4 CALLDATALOAD AND PUSH1 0x24 CALLDATALOAD PUSH2 0x7BD JUMP JUMPDEST CALLVALUE DUP1 ISZERO PUSH2 0x31B JUMPI PUSH1 0x0 DUP1 REVERT JUMPDEST POP PUSH2 0x1F0 PUSH1 0x1 PUSH1 0xA0 PUSH1 0x2 EXP SUB PUSH1 0x4 CALLDATALOAD AND PUSH1 0x24 CALLDATALOAD PUSH8 0xFFFFFFFFFFFFFFFF PUSH1 0x44 CALLDATALOAD AND PUSH2 0x823 JUMP JUMPDEST CALLVALUE DUP1 ISZERO PUSH2 0x34C JUMPI PUSH1 0x0 DUP1 REVERT JUMPDEST POP PUSH2 0x1F0 PUSH2 0x9C1 JUMP JUMPDEST CALLVALUE DUP1 ISZERO PUSH2 0x361 JUMPI PUSH1 0x0 DUP1 REVERT JUMPDEST POP PUSH2 0x376 PUSH1 0x1 PUSH1 0xA0 PUSH1 0x2 EXP SUB PUSH1 0x4 CALLDATALOAD AND PUSH2 0x9E4 JUMP JUMPDEST PUSH1 0x40 DUP1 MLOAD SWAP2 DUP3 MSTORE MLOAD SWAP1 DUP2 SWAP1 SUB PUSH1 0x20 ADD SWAP1 RETURN JUMPDEST CALLVALUE DUP1 ISZERO PUSH2 0x394 JUMPI PUSH1 0x0 DUP1 REVERT JUMPDEST POP PUSH2 0x376 PUSH2 0x9F5 JUMP JUMPDEST CALLVALUE DUP1 ISZERO PUSH2 0x3A9 JUMPI PUSH1 0x0 DUP1 REVERT JUMPDEST POP PUSH2 0x276 PUSH2 0x9FB JUMP JUMPDEST CALLVALUE DUP1 ISZERO PUSH2 0x3BE JUMPI PUSH1 0x0 DUP1 REVERT JUMPDEST POP PUSH2 0x1F0 PUSH1 0x1 PUSH1 0xA0 PUSH1 0x2 EXP SUB PUSH1 0x4 CALLDATALOAD DUP2 AND SWAP1 PUSH1 0x24 CALLDATALOAD AND PUSH1 0x44 CALLDATALOAD PUSH2 0xA32 JUMP JUMPDEST CALLVALUE DUP1 ISZERO PUSH2 0x3E8 JUMPI PUSH1 0x0 DUP1 REVERT JUMPDEST POP PUSH2 0x276 PUSH2 0xA5F JUMP JUMPDEST CALLVALUE DUP1 ISZERO PUSH2 0x3FD JUMPI PUSH1 0x0 DUP1 REVERT JUMPDEST POP PUSH2 0x406 PUSH2 0xA96 JUMP JUMPDEST PUSH1 0x40 DUP1 MLOAD PUSH1 0xFF SWAP1 SWAP3 AND DUP3 MSTORE MLOAD SWAP1 DUP2 SWAP1 SUB PUSH1 0x20 ADD SWAP1 RETURN JUMPDEST CALLVALUE DUP1 ISZERO PUSH2 0x428 JUMPI PUSH1 0x0 DUP1 REVERT JUMPDEST POP PUSH2 0x44D PUSH1 0x1 PUSH1 0xA0 PUSH1 0x2 EXP SUB PUSH1 0x4 CALLDATALOAD AND PUSH1 0x24 CALLDATALOAD PUSH8 0xFFFFFFFFFFFFFFFF PUSH1 0x44 CALLDATALOAD AND PUSH2 0xA9B JUMP JUMPDEST STOP JUMPDEST CALLVALUE DUP1 ISZERO PUSH2 0x45B JUMPI PUSH1 0x0 DUP1 REVERT JUMPDEST POP PUSH2 0x44D PUSH2 0xC0F JUMP JUMPDEST CALLVALUE DUP1 ISZERO PUSH2 0x470 JUMPI PUSH1 0x0 DUP1 REVERT JUMPDEST POP PUSH2 0x1F0 PUSH1 0x1 PUSH1 0xA0 PUSH1 0x2 EXP SUB PUSH1 0x4 CALLDATALOAD AND PUSH1 0x24 CALLDATALOAD PUSH2 0xC88 JUMP JUMPDEST CALLVALUE DUP1 ISZERO PUSH2 0x494 JUMPI PUSH1 0x0 DUP1 REVERT JUMPDEST POP PUSH2 0x44D PUSH1 0x4 CALLDATALOAD PUSH2 0xD80 JUMP JUMPDEST CALLVALUE DUP1 ISZERO PUSH2 0x4AC JUMPI PUSH1 0x0 DUP1 REVERT JUMPDEST POP PUSH2 0x376 PUSH2 0xD8D JUMP JUMPDEST CALLVALUE DUP1 ISZERO PUSH2 0x4C1 JUMPI PUSH1 0x0 DUP1 REVERT JUMPDEST POP PUSH2 0x376 PUSH2 0xD99 JUMP JUMPDEST CALLVALUE DUP1 ISZERO PUSH2 0x4D6 JUMPI PUSH1 0x0 DUP1 REVERT JUMPDEST POP PUSH2 0x376 PUSH2 0xD9E JUMP JUMPDEST CALLVALUE DUP1 ISZERO PUSH2 0x4EB JUMPI PUSH1 0x0 DUP1 REVERT JUMPDEST POP PUSH2 0x1F0 PUSH2 0xE03 JUMP JUMPDEST CALLVALUE DUP1 ISZERO PUSH2 0x500 JUMPI PUSH1 0x0 DUP1 REVERT JUMPDEST POP PUSH2 0x1F0 PUSH1 0x1 PUSH1 0xA0 PUSH1 0x2 EXP SUB PUSH1 0x4 CALLDATALOAD AND PUSH1 0x24 CALLDATALOAD PUSH2 0xE13 JUMP JUMPDEST CALLVALUE DUP1 ISZERO PUSH2 0x524 JUMPI PUSH1 0x0 DUP1 REVERT JUMPDEST POP PUSH2 0x44D PUSH2 0xF03 JUMP JUMPDEST CALLVALUE DUP1 ISZERO PUSH2 0x539 JUMPI PUSH1 0x0 DUP1 REVERT JUMPDEST POP PUSH2 0x376 PUSH1 0x1 PUSH1 0xA0 PUSH1 0x2 EXP SUB PUSH1 0x4 CALLDATALOAD AND PUSH2 0x10A6 JUMP JUMPDEST CALLVALUE DUP1 ISZERO PUSH2 0x55A JUMPI PUSH1 0x0 DUP1 REVERT JUMPDEST POP PUSH2 0x44D PUSH2 0x10CF JUMP JUMPDEST CALLVALUE DUP1 ISZERO PUSH2 0x56F JUMPI PUSH1 0x0 DUP1 REVERT JUMPDEST POP PUSH2 0x578 PUSH2 0x113D JUMP JUMPDEST PUSH1 0x40 DUP1 MLOAD PUSH1 0x1 PUSH1 0xA0 PUSH1 0x2 EXP SUB SWAP1 SWAP3 AND DUP3 MSTORE MLOAD SWAP1 DUP2 SWAP1 SUB PUSH1 0x20 ADD SWAP1 RETURN JUMPDEST CALLVALUE DUP1 ISZERO PUSH2 0x5A0 JUMPI PUSH1 0x0 DUP1 REVERT JUMPDEST POP PUSH2 0x1F0 PUSH2 0x1155 JUMP JUMPDEST CALLVALUE DUP1 ISZERO PUSH2 0x5B5 JUMPI PUSH1 0x0 DUP1 REVERT JUMPDEST POP PUSH2 0x44D PUSH2 0x11D9 JUMP JUMPDEST CALLVALUE DUP1 ISZERO PUSH2 0x5CA JUMPI PUSH1 0x0 DUP1 REVERT JUMPDEST POP PUSH2 0x578 PUSH2 0x1257 JUMP JUMPDEST CALLVALUE DUP1 ISZERO PUSH2 0x5DF JUMPI PUSH1 0x0 DUP1 REVERT JUMPDEST POP PUSH2 0x276 PUSH2 0x1266 JUMP JUMPDEST CALLVALUE DUP1 ISZERO PUSH2 0x5F4 JUMPI PUSH1 0x0 DUP1 REVERT JUMPDEST POP PUSH2 0x1F0 PUSH1 0x1 PUSH1 0xA0 PUSH1 0x2 EXP SUB PUSH1 0x4 CALLDATALOAD AND PUSH1 0x24 CALLDATALOAD PUSH2 0x129D JUMP JUMPDEST CALLVALUE DUP1 ISZERO PUSH2 0x618 JUMPI PUSH1 0x0 DUP1 REVERT JUMPDEST POP PUSH2 0x1F0 PUSH2 0x12C8 JUMP JUMPDEST CALLVALUE DUP1 ISZERO PUSH2 0x62D JUMPI PUSH1 0x0 DUP1 REVERT JUMPDEST POP PUSH2 0x376 PUSH1 0x1 PUSH1 0xA0 PUSH1 0x2 EXP SUB PUSH1 0x4 CALLDATALOAD AND PUSH2 0x12CD JUMP JUMPDEST CALLVALUE DUP1 ISZERO PUSH2 0x64E JUMPI PUSH1 0x0 DUP1 REVERT JUMPDEST POP PUSH2 0x406 PUSH2 0xD99 JUMP JUMPDEST CALLVALUE DUP1 ISZERO PUSH2 0x663 JUMPI PUSH1 0x0 DUP1 REVERT JUMPDEST POP PUSH2 0x1F0 PUSH1 0x1 PUSH1 0xA0 PUSH1 0x2 EXP SUB PUSH1 0x4 CALLDATALOAD AND PUSH1 0x24 CALLDATALOAD PUSH2 0x1353 JUMP JUMPDEST CALLVALUE DUP1 ISZERO PUSH2 0x687 JUMPI PUSH1 0x0 DUP1 REVERT JUMPDEST POP PUSH2 0x376 PUSH1 0x1 PUSH1 0xA0 PUSH1 0x2 EXP SUB PUSH1 0x4 CALLDATALOAD AND PUSH2 0x13EC JUMP JUMPDEST CALLVALUE DUP1 ISZERO PUSH2 0x6A8 JUMPI PUSH1 0x0 DUP1 REVERT JUMPDEST POP PUSH2 0x376 PUSH1 0x1 PUSH1 0xA0 PUSH1 0x2 EXP SUB PUSH1 0x4 CALLDATALOAD DUP2 AND SWAP1 PUSH1 0x24 CALLDATALOAD AND PUSH2 0x1407 JUMP JUMPDEST CALLVALUE DUP1 ISZERO PUSH2 0x6CF JUMPI PUSH1 0x0 DUP1 REVERT JUMPDEST POP PUSH2 0x44D PUSH1 0x1 PUSH1 0xA0 PUSH1 0x2 EXP SUB PUSH1 0x4 CALLDATALOAD AND PUSH2 0x1432 JUMP JUMPDEST PUSH1 0x1 DUP2 JUMP JUMPDEST PUSH1 0x0 DUP1 DUP1 JUMPDEST DUP4 PUSH1 0x1 ADD DUP2 LT ISZERO PUSH2 0x742 JUMPI PUSH1 0x3 PUSH1 0x0 PUSH2 0x711 DUP8 DUP7 PUSH8 0xFFFFFFFFFFFFFFFF AND PUSH2 0x1452 JUMP JUMPDEST DUP2 MSTORE PUSH1 0x20 DUP2 ADD SWAP2 SWAP1 SWAP2 MSTORE PUSH1 0x40 ADD PUSH1 0x0 KECCAK256 SLOAD PUSH8 0xFFFFFFFFFFFFFFFF AND SWAP3 POP DUP3 ISZERO ISZERO PUSH2 0x73A JUMPI PUSH2 0x76E JUMP JUMPDEST PUSH1 0x1 ADD PUSH2 0x6EE JUMP JUMPDEST PUSH1 0x4 PUSH1 0x0 PUSH2 0x75A DUP8 DUP7 PUSH8 0xFFFFFFFFFFFFFFFF AND PUSH2 0x1452 JUMP JUMPDEST DUP2 MSTORE PUSH1 0x20 DUP2 ADD SWAP2 SWAP1 SWAP2 MSTORE PUSH1 0x40 ADD PUSH1 0x0 KECCAK256 SLOAD SWAP2 POP JUMPDEST POP SWAP3 POP SWAP3 SWAP1 POP JUMP JUMPDEST PUSH1 0x6 SLOAD PUSH1 0xA0 PUSH1 0x2 EXP SWAP1 DIV PUSH1 0xFF AND DUP2 JUMP JUMPDEST PUSH1 0x40 DUP1 MLOAD DUP1 DUP3 ADD SWAP1 SWAP2 MSTORE PUSH1 0xA DUP2 MSTORE PUSH32 0x546865204C757875727900000000000000000000000000000000000000000000 PUSH1 0x20 DUP3 ADD MSTORE SWAP1 JUMP JUMPDEST CALLER PUSH1 0x0 DUP2 DUP2 MSTORE PUSH1 0x2 PUSH1 0x20 SWAP1 DUP2 MSTORE PUSH1 0x40 DUP1 DUP4 KECCAK256 PUSH1 0x1 PUSH1 0xA0 PUSH1 0x2 EXP SUB DUP8 AND DUP1 DUP6 MSTORE SWAP1 DUP4 MSTORE DUP2 DUP5 KECCAK256 DUP7 SWAP1 SSTORE DUP2 MLOAD DUP7 DUP2 MSTORE SWAP2 MLOAD SWAP4 SWAP5 SWAP1 SWAP4 SWAP1 SWAP3 PUSH32 0x8C5BE1E5EBEC7D5BD14F71427D1E84F3DD0314C0F7B2291E5B200AC8C7C3B925 SWAP3 DUP3 SWAP1 SUB ADD SWAP1 LOG3 POP PUSH1 0x1 SWAP3 SWAP2 POP POP JUMP JUMPDEST PUSH1 0x6 SLOAD PUSH1 0x0 SWAP1 DUP2 SWAP1 PUSH1 0x1 PUSH1 0xA0 PUSH1 0x2 EXP SUB AND CALLER EQ PUSH2 0x83F JUMPI PUSH1 0x0 DUP1 REVERT JUMPDEST PUSH1 0x6 SLOAD PUSH1 0xA0 PUSH1 0x2 EXP SWAP1 DIV PUSH1 0xFF AND ISZERO PUSH2 0x856 JUMPI PUSH1 0x0 DUP1 REVERT JUMPDEST PUSH1 0x1 SLOAD PUSH2 0x869 SWAP1 DUP6 PUSH4 0xFFFFFFFF PUSH2 0x1490 AND JUMP JUMPDEST PUSH1 0x1 SSTORE PUSH2 0x880 DUP6 PUSH8 0xFFFFFFFFFFFFFFFF DUP6 AND PUSH2 0x1452 JUMP JUMPDEST PUSH1 0x0 DUP2 DUP2 MSTORE PUSH1 0x4 PUSH1 0x20 MSTORE PUSH1 0x40 SWAP1 KECCAK256 SLOAD SWAP1 SWAP2 POP PUSH2 0x8A2 SWAP1 DUP6 PUSH4 0xFFFFFFFF PUSH2 0x1490 AND JUMP JUMPDEST PUSH1 0x0 DUP3 DUP2 MSTORE PUSH1 0x4 PUSH1 0x20 SWAP1 DUP2 MSTORE PUSH1 0x40 DUP1 DUP4 KECCAK256 SWAP4 SWAP1 SWAP4 SSTORE PUSH1 0x1 PUSH1 0xA0 PUSH1 0x2 EXP SUB DUP9 AND DUP3 MSTORE PUSH1 0x5 SWAP1 MSTORE KECCAK256 SLOAD PUSH2 0x8D9 SWAP1 DUP6 PUSH4 0xFFFFFFFF PUSH2 0x1490 AND JUMP JUMPDEST PUSH1 0x1 PUSH1 0xA0 PUSH1 0x2 EXP SUB DUP7 AND PUSH1 0x0 SWAP1 DUP2 MSTORE PUSH1 0x5 PUSH1 0x20 MSTORE PUSH1 0x40 SWAP1 KECCAK256 SSTORE PUSH2 0x8FC DUP6 DUP5 PUSH2 0x149D JUMP JUMPDEST PUSH1 0x40 DUP1 MLOAD DUP6 DUP2 MSTORE SWAP1 MLOAD PUSH1 0x1 PUSH1 0xA0 PUSH1 0x2 EXP SUB DUP8 AND SWAP2 PUSH32 0xF6798A560793A54C3BCFE86A93CDE1E73087D944C0EA20544137D4121396885 SWAP2 SWAP1 DUP2 SWAP1 SUB PUSH1 0x20 ADD SWAP1 LOG2 PUSH1 0x40 DUP1 MLOAD PUSH8 0xFFFFFFFFFFFFFFFF DUP6 AND DUP2 MSTORE PUSH1 0x20 DUP2 ADD DUP7 SWAP1 MSTORE DUP2 MLOAD PUSH1 0x1 PUSH1 0xA0 PUSH1 0x2 EXP SUB DUP9 AND SWAP3 PUSH32 0x2ECD071E4D10ED2221B04636ED0724CCE66A873AA98C1A31B4BB0E6846D3AAB4 SWAP3 DUP3 SWAP1 SUB ADD SWAP1 LOG2 PUSH1 0x40 DUP1 MLOAD DUP6 DUP2 MSTORE SWAP1 MLOAD PUSH1 0x1 PUSH1 0xA0 PUSH1 0x2 EXP SUB DUP8 AND SWAP2 CALLER SWAP2 PUSH1 0x0 DUP1 MLOAD PUSH1 0x20 PUSH2 0x1A06 DUP4 CODECOPY DUP2 MLOAD SWAP2 MSTORE SWAP2 DUP2 SWAP1 SUB PUSH1 0x20 ADD SWAP1 LOG3 POP PUSH1 0x1 SWAP5 SWAP4 POP POP POP POP JUMP JUMPDEST PUSH1 0x6 SLOAD PUSH23 0x100000000000000000000000000000000000000000000 SWAP1 DIV PUSH1 0xFF AND DUP2 JUMP JUMPDEST PUSH1 0x0 PUSH2 0x9EF DUP3 PUSH2 0x1637 JUMP JUMPDEST SWAP3 SWAP2 POP POP JUMP JUMPDEST PUSH1 0x1 SLOAD SWAP1 JUMP JUMPDEST PUSH1 0x40 DUP1 MLOAD DUP1 DUP3 ADD SWAP1 SWAP2 MSTORE PUSH1 0xA DUP2 MSTORE PUSH32 0x546865204C757875727900000000000000000000000000000000000000000000 PUSH1 0x20 DUP3 ADD MSTORE DUP2 JUMP JUMPDEST PUSH1 0x6 SLOAD PUSH1 0x0 SWAP1 PUSH1 0xA8 PUSH1 0x2 EXP SWAP1 DIV PUSH1 0xFF AND ISZERO PUSH2 0xA4C JUMPI PUSH1 0x0 DUP1 REVERT JUMPDEST PUSH2 0xA57 DUP5 DUP5 DUP5 PUSH2 0x1652 JUMP JUMPDEST SWAP5 SWAP4 POP POP POP POP JUMP JUMPDEST PUSH1 0x40 DUP1 MLOAD DUP1 DUP3 ADD SWAP1 SWAP2 MSTORE PUSH1 0x3 DUP2 MSTORE PUSH32 0x544C580000000000000000000000000000000000000000000000000000000000 PUSH1 0x20 DUP3 ADD MSTORE DUP2 JUMP JUMPDEST PUSH1 0x12 SWAP1 JUMP JUMPDEST PUSH1 0x0 PUSH1 0x1 PUSH1 0xA0 PUSH1 0x2 EXP SUB DUP5 AND ISZERO ISZERO PUSH2 0xAB2 JUMPI PUSH1 0x0 DUP1 REVERT JUMPDEST CALLER PUSH1 0x0 SWAP1 DUP2 MSTORE PUSH1 0x20 DUP2 SWAP1 MSTORE PUSH1 0x40 SWAP1 KECCAK256 SLOAD DUP4 GT ISZERO PUSH2 0xACE JUMPI PUSH1 0x0 DUP1 REVERT JUMPDEST CALLER PUSH1 0x0 SWAP1 DUP2 MSTORE PUSH1 0x20 DUP2 SWAP1 MSTORE PUSH1 0x40 SWAP1 KECCAK256 SLOAD PUSH2 0xAEE SWAP1 DUP5 PUSH4 0xFFFFFFFF PUSH2 0x17B7 AND JUMP JUMPDEST CALLER PUSH1 0x0 SWAP1 DUP2 MSTORE PUSH1 0x20 DUP2 SWAP1 MSTORE PUSH1 0x40 SWAP1 KECCAK256 SSTORE PUSH2 0xB12 DUP5 PUSH8 0xFFFFFFFFFFFFFFFF DUP5 AND PUSH2 0x1452 JUMP JUMPDEST PUSH1 0x0 DUP2 DUP2 MSTORE PUSH1 0x4 PUSH1 0x20 MSTORE PUSH1 0x40 SWAP1 KECCAK256 SLOAD SWAP1 SWAP2 POP PUSH2 0xB34 SWAP1 DUP5 PUSH4 0xFFFFFFFF PUSH2 0x1490 AND JUMP JUMPDEST PUSH1 0x0 DUP3 DUP2 MSTORE PUSH1 0x4 PUSH1 0x20 SWAP1 DUP2 MSTORE PUSH1 0x40 DUP1 DUP4 KECCAK256 SWAP4 SWAP1 SWAP4 SSTORE PUSH1 0x1 PUSH1 0xA0 PUSH1 0x2 EXP SUB DUP8 AND DUP3 MSTORE PUSH1 0x5 SWAP1 MSTORE KECCAK256 SLOAD PUSH2 0xB6B SWAP1 DUP5 PUSH4 0xFFFFFFFF PUSH2 0x1490 AND JUMP JUMPDEST PUSH1 0x1 PUSH1 0xA0 PUSH1 0x2 EXP SUB DUP6 AND PUSH1 0x0 SWAP1 DUP2 MSTORE PUSH1 0x5 PUSH1 0x20 MSTORE PUSH1 0x40 SWAP1 KECCAK256 SSTORE PUSH2 0xB8E DUP5 DUP4 PUSH2 0x149D JUMP JUMPDEST PUSH1 0x40 DUP1 MLOAD DUP5 DUP2 MSTORE SWAP1 MLOAD PUSH1 0x1 PUSH1 0xA0 PUSH1 0x2 EXP SUB DUP7 AND SWAP2 CALLER SWAP2 PUSH1 0x0 DUP1 MLOAD PUSH1 0x20 PUSH2 0x1A06 DUP4 CODECOPY DUP2 MLOAD SWAP2 MSTORE SWAP2 DUP2 SWAP1 SUB PUSH1 0x20 ADD SWAP1 LOG3 PUSH1 0x40 DUP1 MLOAD PUSH8 0xFFFFFFFFFFFFFFFF DUP5 AND DUP2 MSTORE PUSH1 0x20 DUP2 ADD DUP6 SWAP1 MSTORE DUP2 MLOAD PUSH1 0x1 PUSH1 0xA0 PUSH1 0x2 EXP SUB DUP8 AND SWAP3 PUSH32 0x2ECD071E4D10ED2221B04636ED0724CCE66A873AA98C1A31B4BB0E6846D3AAB4 SWAP3 DUP3 SWAP1 SUB ADD SWAP1 LOG2 POP POP POP POP JUMP JUMPDEST PUSH1 0x6 SLOAD PUSH1 0x1 PUSH1 0xA0 PUSH1 0x2 EXP SUB AND CALLER EQ PUSH2 0xC26 JUMPI PUSH1 0x0 DUP1 REVERT JUMPDEST PUSH1 0x6 SLOAD PUSH1 0xA8 PUSH1 0x2 EXP SWAP1 DIV PUSH1 0xFF AND ISZERO ISZERO PUSH2 0xC3E JUMPI PUSH1 0x0 DUP1 REVERT JUMPDEST PUSH1 0x6 DUP1 SLOAD PUSH22 0xFF000000000000000000000000000000000000000000 NOT AND SWAP1 SSTORE PUSH1 0x40 MLOAD PUSH32 0x7805862F689E2F13DF9F062FF482AD3AD112ACA9E0847911ED832E158C525B33 SWAP1 PUSH1 0x0 SWAP1 LOG1 JUMP JUMPDEST PUSH1 0x6 SLOAD PUSH1 0x0 SWAP1 PUSH1 0x1 PUSH1 0xA0 PUSH1 0x2 EXP SUB AND CALLER EQ PUSH2 0xCA2 JUMPI PUSH1 0x0 DUP1 REVERT JUMPDEST PUSH1 0x6 SLOAD PUSH1 0xA0 PUSH1 0x2 EXP SWAP1 DIV PUSH1 0xFF AND ISZERO PUSH2 0xCB9 JUMPI PUSH1 0x0 DUP1 REVERT JUMPDEST PUSH1 0x1 SLOAD PUSH2 0xCCC SWAP1 DUP4 PUSH4 0xFFFFFFFF PUSH2 0x1490 AND JUMP JUMPDEST PUSH1 0x1 SSTORE PUSH1 0x1 PUSH1 0xA0 PUSH1 0x2 EXP SUB DUP4 AND PUSH1 0x0 SWAP1 DUP2 MSTORE PUSH1 0x20 DUP2 SWAP1 MSTORE PUSH1 0x40 SWAP1 KECCAK256 SLOAD PUSH2 0xCF8 SWAP1 DUP4 PUSH4 0xFFFFFFFF PUSH2 0x1490 AND JUMP JUMPDEST PUSH1 0x1 PUSH1 0xA0 PUSH1 0x2 EXP SUB DUP5 AND PUSH1 0x0 DUP2 DUP2 MSTORE PUSH1 0x20 DUP2 DUP2 MSTORE PUSH1 0x40 SWAP2 DUP3 SWAP1 KECCAK256 SWAP4 SWAP1 SWAP4 SSTORE DUP1 MLOAD DUP6 DUP2 MSTORE SWAP1 MLOAD SWAP2 SWAP3 PUSH32 0xF6798A560793A54C3BCFE86A93CDE1E73087D944C0EA20544137D4121396885 SWAP3 SWAP2 DUP3 SWAP1 SUB ADD SWAP1 LOG2 PUSH1 0x40 DUP1 MLOAD DUP4 DUP2 MSTORE SWAP1 MLOAD PUSH1 0x1 PUSH1 0xA0 PUSH1 0x2 EXP SUB DUP6 AND SWAP2 PUSH1 0x0 SWAP2 PUSH1 0x0 DUP1 MLOAD PUSH1 0x20 PUSH2 0x1A06 DUP4 CODECOPY DUP2 MLOAD SWAP2 MSTORE SWAP2 DUP2 SWAP1 SUB PUSH1 0x20 ADD SWAP1 LOG3 POP PUSH1 0x1 SWAP3 SWAP2 POP POP JUMP JUMPDEST PUSH2 0xD8A CALLER DUP3 PUSH2 0x17C9 JUMP JUMPDEST POP JUMP JUMPDEST PUSH8 0xDE0B6B3A7640000 DUP2 JUMP JUMPDEST PUSH1 0x12 DUP2 JUMP JUMPDEST PUSH1 0x0 DUP1 PUSH1 0x0 PUSH2 0xDAE CALLER PUSH1 0x0 PUSH2 0x6E9 JUMP JUMPDEST PUSH8 0xFFFFFFFFFFFFFFFF SWAP1 SWAP2 AND SWAP3 POP SWAP1 POP JUMPDEST DUP2 ISZERO DUP1 ISZERO SWAP1 PUSH2 0xDCD JUMPI POP DUP2 TIMESTAMP GT JUMPDEST ISZERO PUSH2 0xDFE JUMPI PUSH2 0xDDA PUSH2 0xF03 JUMP JUMPDEST SWAP2 DUP3 ADD SWAP2 PUSH2 0xDE9 CALLER PUSH1 0x0 PUSH2 0x6E9 JUMP JUMPDEST PUSH8 0xFFFFFFFFFFFFFFFF SWAP1 SWAP2 AND SWAP3 POP SWAP1 POP PUSH2 0xDBF JUMP JUMPDEST POP POP SWAP1 JUMP JUMPDEST PUSH1 0x6 SLOAD PUSH1 0xA8 PUSH1 0x2 EXP SWAP1 DIV PUSH1 0xFF AND DUP2 JUMP JUMPDEST CALLER PUSH1 0x0 SWAP1 DUP2 MSTORE PUSH1 0x2 PUSH1 0x20 SWAP1 DUP2 MSTORE PUSH1 0x40 DUP1 DUP4 KECCAK256 PUSH1 0x1 PUSH1 0xA0 PUSH1 0x2 EXP SUB DUP7 AND DUP5 MSTORE SWAP1 SWAP2 MSTORE DUP2 KECCAK256 SLOAD DUP1 DUP4 GT ISZERO PUSH2 0xE68 JUMPI CALLER PUSH1 0x0 SWAP1 DUP2 MSTORE PUSH1 0x2 PUSH1 0x20 SWAP1 DUP2 MSTORE PUSH1 0x40 DUP1 DUP4 KECCAK256 PUSH1 0x1 PUSH1 0xA0 PUSH1 0x2 EXP SUB DUP9 AND DUP5 MSTORE SWAP1 SWAP2 MSTORE DUP2 KECCAK256 SSTORE PUSH2 0xE9D JUMP JUMPDEST PUSH2 0xE78 DUP2 DUP5 PUSH4 0xFFFFFFFF PUSH2 0x17B7 AND JUMP JUMPDEST CALLER PUSH1 0x0 SWAP1 DUP2 MSTORE PUSH1 0x2 PUSH1 0x20 SWAP1 DUP2 MSTORE PUSH1 0x40 DUP1 DUP4 KECCAK256 PUSH1 0x1 PUSH1 0xA0 PUSH1 0x2 EXP SUB DUP10 AND DUP5 MSTORE SWAP1 SWAP2 MSTORE SWAP1 KECCAK256 SSTORE JUMPDEST CALLER PUSH1 0x0 DUP2 DUP2 MSTORE PUSH1 0x2 PUSH1 0x20 SWAP1 DUP2 MSTORE PUSH1 0x40 DUP1 DUP4 KECCAK256 PUSH1 0x1 PUSH1 0xA0 PUSH1 0x2 EXP SUB DUP10 AND DUP1 DUP6 MSTORE SWAP1 DUP4 MSTORE SWAP3 DUP2 SWAP1 KECCAK256 SLOAD DUP2 MLOAD SWAP1 DUP2 MSTORE SWAP1 MLOAD SWAP3 SWAP4 SWAP3 PUSH32 0x8C5BE1E5EBEC7D5BD14F71427D1E84F3DD0314C0F7B2291E5B200AC8C7C3B925 SWAP3 SWAP2 DUP2 SWAP1 SUB SWAP1 SWAP2 ADD SWAP1 LOG3 POP PUSH1 0x1 SWAP4 SWAP3 POP POP POP JUMP JUMPDEST PUSH1 0x0 DUP1 PUSH1 0x0 DUP1 PUSH1 0x0 PUSH2 0xF16 CALLER PUSH1 0x0 PUSH2 0x1452 JUMP JUMPDEST PUSH1 0x0 DUP2 DUP2 MSTORE PUSH1 0x3 PUSH1 0x20 MSTORE PUSH1 0x40 SWAP1 KECCAK256 SLOAD SWAP1 SWAP6 POP PUSH8 0xFFFFFFFFFFFFFFFF AND SWAP4 POP DUP4 ISZERO ISZERO PUSH2 0xF40 JUMPI PUSH1 0x0 DUP1 REVERT JUMPDEST DUP4 PUSH8 0xFFFFFFFFFFFFFFFF AND TIMESTAMP PUSH8 0xFFFFFFFFFFFFFFFF AND GT ISZERO ISZERO PUSH2 0xF62 JUMPI PUSH1 0x0 DUP1 REVERT JUMPDEST PUSH2 0xF76 CALLER DUP6 PUSH8 0xFFFFFFFFFFFFFFFF AND PUSH2 0x1452 JUMP JUMPDEST PUSH1 0x0 DUP2 DUP2 MSTORE PUSH1 0x3 PUSH1 0x20 SWAP1 DUP2 MSTORE PUSH1 0x40 DUP1 DUP4 KECCAK256 SLOAD PUSH1 0x4 DUP4 MSTORE DUP2 DUP5 KECCAK256 DUP1 SLOAD SWAP1 DUP6 SWAP1 SSTORE CALLER DUP6 MSTORE SWAP3 DUP5 SWAP1 MSTORE SWAP3 KECCAK256 SLOAD SWAP3 SWAP6 POP PUSH8 0xFFFFFFFFFFFFFFFF SWAP1 SWAP2 AND SWAP4 POP SWAP2 POP PUSH2 0xFC2 SWAP1 DUP3 PUSH4 0xFFFFFFFF PUSH2 0x1490 AND JUMP JUMPDEST CALLER PUSH1 0x0 SWAP1 DUP2 MSTORE PUSH1 0x20 DUP2 DUP2 MSTORE PUSH1 0x40 DUP1 DUP4 KECCAK256 SWAP4 SWAP1 SWAP4 SSTORE PUSH1 0x5 SWAP1 MSTORE KECCAK256 SLOAD PUSH2 0xFEC SWAP1 DUP3 PUSH4 0xFFFFFFFF PUSH2 0x17B7 AND JUMP JUMPDEST CALLER PUSH1 0x0 SWAP1 DUP2 MSTORE PUSH1 0x5 PUSH1 0x20 MSTORE PUSH1 0x40 SWAP1 KECCAK256 SSTORE PUSH8 0xFFFFFFFFFFFFFFFF DUP3 AND ISZERO ISZERO PUSH2 0x102F JUMPI PUSH1 0x0 DUP6 DUP2 MSTORE PUSH1 0x3 PUSH1 0x20 MSTORE PUSH1 0x40 SWAP1 KECCAK256 DUP1 SLOAD PUSH8 0xFFFFFFFFFFFFFFFF NOT AND SWAP1 SSTORE PUSH2 0x1069 JUMP JUMPDEST PUSH1 0x0 DUP6 DUP2 MSTORE PUSH1 0x3 PUSH1 0x20 MSTORE PUSH1 0x40 DUP1 DUP3 KECCAK256 DUP1 SLOAD PUSH8 0xFFFFFFFFFFFFFFFF DUP7 AND PUSH8 0xFFFFFFFFFFFFFFFF NOT SWAP2 DUP3 AND OR SWAP1 SWAP2 SSTORE DUP6 DUP4 MSTORE SWAP2 KECCAK256 DUP1 SLOAD SWAP1 SWAP2 AND SWAP1 SSTORE JUMPDEST PUSH1 0x40 DUP1 MLOAD DUP3 DUP2 MSTORE SWAP1 MLOAD CALLER SWAP2 PUSH32 0xB21FB52D5749B80F3182F8C6992236B5E5576681880914484D7F4C9B062E619E SWAP2 SWAP1 DUP2 SWAP1 SUB PUSH1 0x20 ADD SWAP1 LOG2 POP POP POP POP POP JUMP JUMPDEST PUSH1 0x1 PUSH1 0xA0 PUSH1 0x2 EXP SUB DUP2 AND PUSH1 0x0 SWAP1 DUP2 MSTORE PUSH1 0x5 PUSH1 0x20 MSTORE PUSH1 0x40 DUP2 KECCAK256 SLOAD PUSH2 0x10C8 DUP4 PUSH2 0x1637 JUMP JUMPDEST ADD SWAP3 SWAP2 POP POP JUMP JUMPDEST PUSH1 0x6 SLOAD PUSH1 0x1 PUSH1 0xA0 PUSH1 0x2 EXP SUB AND CALLER EQ PUSH2 0x10E6 JUMPI PUSH1 0x0 DUP1 REVERT JUMPDEST PUSH1 0x6 SLOAD PUSH1 0x40 MLOAD PUSH1 0x1 PUSH1 0xA0 PUSH1 0x2 EXP SUB SWAP1 SWAP2 AND SWAP1 PUSH32 0xF8DF31144D9C2F0F6B59D69B8B98ABD5459D07F2742C4DF920B25AAE33C64820 SWAP1 PUSH1 0x0 SWAP1 LOG2 PUSH1 0x6 DUP1 SLOAD PUSH20 0xFFFFFFFFFFFFFFFFFFFFFFFFFFFFFFFFFFFFFFFF NOT AND SWAP1 SSTORE JUMP JUMPDEST PUSH20 0xCEB468C7EBB140B11998A350A8BB0A7CF9C3C3BA DUP2 JUMP JUMPDEST PUSH1 0x6 SLOAD PUSH1 0x0 SWAP1 PUSH1 0x1 PUSH1 0xA0 PUSH1 0x2 EXP SUB AND CALLER EQ PUSH2 0x116F JUMPI PUSH1 0x0 DUP1 REVERT JUMPDEST PUSH1 0x6 SLOAD PUSH1 0xA0 PUSH1 0x2 EXP SWAP1 DIV PUSH1 0xFF AND ISZERO PUSH2 0x1186 JUMPI PUSH1 0x0 DUP1 REVERT JUMPDEST PUSH1 0x6 DUP1 SLOAD PUSH21 0xFF0000000000000000000000000000000000000000 NOT AND PUSH1 0xA0 PUSH1 0x2 EXP OR SWAP1 SSTORE PUSH1 0x40 MLOAD PUSH32 0xAE5184FBA832CB2B1F702ACA6117B8D265EAF03AD33EB133F19DDE0F5920FA08 SWAP1 PUSH1 0x0 SWAP1 LOG1 POP PUSH1 0x1 SWAP1 JUMP JUMPDEST PUSH1 0x6 SLOAD PUSH1 0x1 PUSH1 0xA0 PUSH1 0x2 EXP SUB AND CALLER EQ PUSH2 0x11F0 JUMPI PUSH1 0x0 DUP1 REVERT JUMPDEST PUSH1 0x6 SLOAD PUSH1 0xA8 PUSH1 0x2 EXP SWAP1 DIV PUSH1 0xFF AND ISZERO PUSH2 0x1207 JUMPI PUSH1 0x0 DUP1 REVERT JUMPDEST PUSH1 0x6 DUP1 SLOAD PUSH22 0xFF000000000000000000000000000000000000000000 NOT AND PUSH1 0xA8 PUSH1 0x2 EXP OR SWAP1 SSTORE PUSH1 0x40 MLOAD PUSH32 0x6985A02210A168E66602D3235CB6DB0E70F92B3BA4D376A33C0F3D9434BFF625 SWAP1 PUSH1 0x0 SWAP1 LOG1 JUMP JUMPDEST PUSH1 0x6 SLOAD PUSH1 0x1 PUSH1 0xA0 PUSH1 0x2 EXP SUB AND DUP2 JUMP JUMPDEST PUSH1 0x40 DUP1 MLOAD DUP1 DUP3 ADD SWAP1 SWAP2 MSTORE PUSH1 0x3 DUP2 MSTORE PUSH32 0x544C580000000000000000000000000000000000000000000000000000000000 PUSH1 0x20 DUP3 ADD MSTORE SWAP1 JUMP JUMPDEST PUSH1 0x6 SLOAD PUSH1 0x0 SWAP1 PUSH1 0xA8 PUSH1 0x2 EXP SWAP1 DIV PUSH1 0xFF AND ISZERO PUSH2 0x12B7 JUMPI PUSH1 0x0 DUP1 REVERT JUMPDEST PUSH2 0x12C1 DUP4 DUP4 PUSH2 0x18B8 JUMP JUMPDEST SWAP4 SWAP3 POP POP POP JUMP JUMPDEST PUSH1 0x0 DUP2 JUMP JUMPDEST PUSH1 0x0 DUP1 PUSH1 0x3 PUSH1 0x0 PUSH2 0x12DF DUP6 PUSH1 0x0 PUSH2 0x1452 JUMP JUMPDEST DUP2 MSTORE PUSH1 0x20 DUP2 ADD SWAP2 SWAP1 SWAP2 MSTORE PUSH1 0x40 ADD PUSH1 0x0 KECCAK256 SLOAD PUSH8 0xFFFFFFFFFFFFFFFF AND SWAP1 POP JUMPDEST PUSH8 0xFFFFFFFFFFFFFFFF DUP2 AND ISZERO PUSH2 0x134D JUMPI PUSH1 0x1 SWAP1 SWAP2 ADD SWAP1 PUSH1 0x3 PUSH1 0x0 PUSH2 0x132B DUP6 PUSH8 0xFFFFFFFFFFFFFFFF DUP6 AND PUSH2 0x1452 JUMP JUMPDEST DUP2 MSTORE PUSH1 0x20 DUP2 ADD SWAP2 SWAP1 SWAP2 MSTORE PUSH1 0x40 ADD PUSH1 0x0 KECCAK256 SLOAD PUSH8 0xFFFFFFFFFFFFFFFF AND SWAP1 POP PUSH2 0x12FD JUMP JUMPDEST POP SWAP2 SWAP1 POP JUMP JUMPDEST CALLER PUSH1 0x0 SWAP1 DUP2 MSTORE PUSH1 0x2 PUSH1 0x20 SWAP1 DUP2 MSTORE PUSH1 0x40 DUP1 DUP4 KECCAK256 PUSH1 0x1 PUSH1 0xA0 PUSH1 0x2 EXP SUB DUP7 AND DUP5 MSTORE SWAP1 SWAP2 MSTORE DUP2 KECCAK256 SLOAD PUSH2 0x1387 SWAP1 DUP4 PUSH4 0xFFFFFFFF PUSH2 0x1490 AND JUMP JUMPDEST CALLER PUSH1 0x0 DUP2 DUP2 MSTORE PUSH1 0x2 PUSH1 0x20 SWAP1 DUP2 MSTORE PUSH1 0x40 DUP1 DUP4 KECCAK256 PUSH1 0x1 PUSH1 0xA0 PUSH1 0x2 EXP SUB DUP10 AND DUP1 DUP6 MSTORE SWAP1 DUP4 MSTORE SWAP3 DUP2 SWAP1 KECCAK256 DUP6 SWAP1 SSTORE DUP1 MLOAD SWAP5 DUP6 MSTORE MLOAD SWAP2 SWAP4 PUSH32 0x8C5BE1E5EBEC7D5BD14F71427D1E84F3DD0314C0F7B2291E5B200AC8C7C3B925 SWAP3 SWAP1 DUP2 SWAP1 SUB SWAP1 SWAP2 ADD SWAP1 LOG3 POP PUSH1 0x1 SWAP3 SWAP2 POP POP JUMP JUMPDEST PUSH1 0x1 PUSH1 0xA0 PUSH1 0x2 EXP SUB AND PUSH1 0x0 SWAP1 DUP2 MSTORE PUSH1 0x5 PUSH1 0x20 MSTORE PUSH1 0x40 SWAP1 KECCAK256 SLOAD SWAP1 JUMP JUMPDEST PUSH1 0x1 PUSH1 0xA0 PUSH1 0x2 EXP SUB SWAP2 DUP3 AND PUSH1 0x0 SWAP1 DUP2 MSTORE PUSH1 0x2 PUSH1 0x20 SWAP1 DUP2 MSTORE PUSH1 0x40 DUP1 DUP4 KECCAK256 SWAP4 SWAP1 SWAP5 AND DUP3 MSTORE SWAP2 SWAP1 SWAP2 MSTORE KECCAK256 SLOAD SWAP1 JUMP JUMPDEST PUSH1 0x6 SLOAD PUSH1 0x1 PUSH1 0xA0 PUSH1 0x2 EXP SUB AND CALLER EQ PUSH2 0x1449 JUMPI PUSH1 0x0 DUP1 REVERT JUMPDEST PUSH2 0xD8A DUP2 PUSH2 0x1987 JUMP JUMPDEST PUSH8 0xFFFFFFFFFFFFFFFF AND PUSH9 0x10000000000000000 SWAP2 SWAP1 SWAP2 MUL OR PUSH32 0x5749534800000000000000000000000000000000000000000000000000000000 OR SWAP1 JUMP JUMPDEST DUP2 DUP2 ADD DUP3 DUP2 LT ISZERO PUSH2 0x9EF JUMPI INVALID JUMPDEST PUSH1 0x0 DUP1 DUP1 DUP1 DUP1 TIMESTAMP PUSH8 0xFFFFFFFFFFFFFFFF DUP8 AND GT PUSH2 0x14B9 JUMPI PUSH1 0x0 DUP1 REVERT JUMPDEST PUSH2 0x14CD DUP8 DUP8 PUSH8 0xFFFFFFFFFFFFFFFF AND PUSH2 0x1452 JUMP JUMPDEST SWAP5 POP PUSH2 0x14DA DUP8 PUSH1 0x0 PUSH2 0x1452 JUMP JUMPDEST PUSH1 0x0 DUP2 DUP2 MSTORE PUSH1 0x3 PUSH1 0x20 MSTORE PUSH1 0x40 SWAP1 KECCAK256 SLOAD SWAP1 SWAP5 POP PUSH8 0xFFFFFFFFFFFFFFFF AND SWAP3 POP DUP3 ISZERO ISZERO PUSH2 0x152D JUMPI PUSH1 0x0 DUP5 DUP2 MSTORE PUSH1 0x3 PUSH1 0x20 MSTORE PUSH1 0x40 SWAP1 KECCAK256 DUP1 SLOAD PUSH8 0xFFFFFFFFFFFFFFFF NOT AND PUSH8 0xFFFFFFFFFFFFFFFF DUP9 AND OR SWAP1 SSTORE PUSH2 0x162E JUMP JUMPDEST PUSH2 0x1541 DUP8 DUP5 PUSH8 0xFFFFFFFFFFFFFFFF AND PUSH2 0x1452 JUMP JUMPDEST SWAP2 POP JUMPDEST PUSH8 0xFFFFFFFFFFFFFFFF DUP4 AND ISZERO DUP1 ISZERO SWAP1 PUSH2 0x1570 JUMPI POP DUP3 PUSH8 0xFFFFFFFFFFFFFFFF AND DUP7 PUSH8 0xFFFFFFFFFFFFFFFF AND GT JUMPDEST ISZERO PUSH2 0x15A9 JUMPI POP PUSH1 0x0 DUP2 DUP2 MSTORE PUSH1 0x3 PUSH1 0x20 MSTORE PUSH1 0x40 SWAP1 KECCAK256 SLOAD SWAP1 SWAP3 POP PUSH8 0xFFFFFFFFFFFFFFFF SWAP1 DUP2 AND SWAP2 DUP4 SWAP2 AND PUSH2 0x15A2 DUP8 DUP5 PUSH2 0x1452 JUMP JUMPDEST SWAP2 POP PUSH2 0x1544 JUMP JUMPDEST DUP3 PUSH8 0xFFFFFFFFFFFFFFFF AND DUP7 PUSH8 0xFFFFFFFFFFFFFFFF AND EQ ISZERO PUSH2 0x15CA JUMPI PUSH2 0x162E JUMP JUMPDEST PUSH8 0xFFFFFFFFFFFFFFFF DUP4 AND ISZERO PUSH2 0x1604 JUMPI PUSH1 0x0 DUP6 DUP2 MSTORE PUSH1 0x3 PUSH1 0x20 MSTORE PUSH1 0x40 SWAP1 KECCAK256 DUP1 SLOAD PUSH8 0xFFFFFFFFFFFFFFFF NOT AND PUSH8 0xFFFFFFFFFFFFFFFF DUP6 AND OR SWAP1 SSTORE JUMPDEST PUSH1 0x0 DUP5 DUP2 MSTORE PUSH1 0x3 PUSH1 0x20 MSTORE PUSH1 0x40 SWAP1 KECCAK256 DUP1 SLOAD PUSH8 0xFFFFFFFFFFFFFFFF NOT AND PUSH8 0xFFFFFFFFFFFFFFFF DUP9 AND OR SWAP1 SSTORE JUMPDEST POP POP POP POP POP POP POP JUMP JUMPDEST PUSH1 0x1 PUSH1 0xA0 PUSH1 0x2 EXP SUB AND PUSH1 0x0 SWAP1 DUP2 MSTORE PUSH1 0x20 DUP2 SWAP1 MSTORE PUSH1 0x40 SWAP1 KECCAK256 SLOAD SWAP1 JUMP JUMPDEST PUSH1 0x0 PUSH1 0x1 PUSH1 0xA0 PUSH1 0x2 EXP SUB DUP4 AND ISZERO ISZERO PUSH2 0x1669 JUMPI PUSH1 0x0 DUP1 REVERT JUMPDEST PUSH1 0x1 PUSH1 0xA0 PUSH1 0x2 EXP SUB DUP5 AND PUSH1 0x0 SWAP1 DUP2 MSTORE PUSH1 0x20 DUP2 SWAP1 MSTORE PUSH1 0x40 SWAP1 KECCAK256 SLOAD DUP3 GT ISZERO PUSH2 0x168E JUMPI PUSH1 0x0 DUP1 REVERT JUMPDEST PUSH1 0x1 PUSH1 0xA0 PUSH1 0x2 EXP SUB DUP5 AND PUSH1 0x0 SWAP1 DUP2 MSTORE PUSH1 0x2 PUSH1 0x20 SWAP1 DUP2 MSTORE PUSH1 0x40 DUP1 DUP4 KECCAK256 CALLER DUP5 MSTORE SWAP1 SWAP2 MSTORE SWAP1 KECCAK256 SLOAD DUP3 GT ISZERO PUSH2 0x16BE JUMPI PUSH1 0x0 DUP1 REVERT JUMPDEST PUSH1 0x1 PUSH1 0xA0 PUSH1 0x2 EXP SUB DUP5 AND PUSH1 0x0 SWAP1 DUP2 MSTORE PUSH1 0x20 DUP2 SWAP1 MSTORE PUSH1 0x40 SWAP1 KECCAK256 SLOAD PUSH2 0x16E7 SWAP1 DUP4 PUSH4 0xFFFFFFFF PUSH2 0x17B7 AND JUMP JUMPDEST PUSH1 0x1 PUSH1 0xA0 PUSH1 0x2 EXP SUB DUP1 DUP7 AND PUSH1 0x0 SWAP1 DUP2 MSTORE PUSH1 0x20 DUP2 SWAP1 MSTORE PUSH1 0x40 DUP1 DUP3 KECCAK256 SWAP4 SWAP1 SWAP4 SSTORE SWAP1 DUP6 AND DUP2 MSTORE KECCAK256 SLOAD PUSH2 0x171C SWAP1 DUP4 PUSH4 0xFFFFFFFF PUSH2 0x1490 AND JUMP JUMPDEST PUSH1 0x1 PUSH1 0xA0 PUSH1 0x2 EXP SUB DUP1 DUP6 AND PUSH1 0x0 SWAP1 DUP2 MSTORE PUSH1 0x20 DUP2 DUP2 MSTORE PUSH1 0x40 DUP1 DUP4 KECCAK256 SWAP5 SWAP1 SWAP5 SSTORE SWAP2 DUP8 AND DUP2 MSTORE PUSH1 0x2 DUP3 MSTORE DUP3 DUP2 KECCAK256 CALLER DUP3 MSTORE SWAP1 SWAP2 MSTORE KECCAK256 SLOAD PUSH2 0x175E SWAP1 DUP4 PUSH4 0xFFFFFFFF PUSH2 0x17B7 AND JUMP JUMPDEST PUSH1 0x1 PUSH1 0xA0 PUSH1 0x2 EXP SUB DUP1 DUP7 AND PUSH1 0x0 DUP2 DUP2 MSTORE PUSH1 0x2 PUSH1 0x20 SWAP1 DUP2 MSTORE PUSH1 0x40 DUP1 DUP4 KECCAK256 CALLER DUP5 MSTORE DUP3 MSTORE SWAP2 DUP3 SWAP1 KECCAK256 SWAP5 SWAP1 SWAP5 SSTORE DUP1 MLOAD DUP7 DUP2 MSTORE SWAP1 MLOAD SWAP3 DUP8 AND SWAP4 SWAP2 SWAP3 PUSH1 0x0 DUP1 MLOAD PUSH1 0x20 PUSH2 0x1A06 DUP4 CODECOPY DUP2 MLOAD SWAP2 MSTORE SWAP3 SWAP2 DUP2 SWAP1 SUB SWAP1 SWAP2 ADD SWAP1 LOG3 POP PUSH1 0x1 SWAP4 SWAP3 POP POP POP JUMP JUMPDEST PUSH1 0x0 DUP3 DUP3 GT ISZERO PUSH2 0x17C3 JUMPI INVALID JUMPDEST POP SWAP1 SUB SWAP1 JUMP JUMPDEST PUSH1 0x1 PUSH1 0xA0 PUSH1 0x2 EXP SUB DUP3 AND PUSH1 0x0 SWAP1 DUP2 MSTORE PUSH1 0x20 DUP2 SWAP1 MSTORE PUSH1 0x40 SWAP1 KECCAK256 SLOAD DUP2 GT ISZERO PUSH2 0x17EE JUMPI PUSH1 0x0 DUP1 REVERT JUMPDEST PUSH1 0x1 PUSH1 0xA0 PUSH1 0x2 EXP SUB DUP3 AND PUSH1 0x0 SWAP1 DUP2 MSTORE PUSH1 0x20 DUP2 SWAP1 MSTORE PUSH1 0x40 SWAP1 KECCAK256 SLOAD PUSH2 0x1817 SWAP1 DUP3 PUSH4 0xFFFFFFFF PUSH2 0x17B7 AND JUMP JUMPDEST PUSH1 0x1 PUSH1 0xA0 PUSH1 0x2 EXP SUB DUP4 AND PUSH1 0x0 SWAP1 DUP2 MSTORE PUSH1 0x20 DUP2 SWAP1 MSTORE PUSH1 0x40 SWAP1 KECCAK256 SSTORE PUSH1 0x1 SLOAD PUSH2 0x1843 SWAP1 DUP3 PUSH4 0xFFFFFFFF PUSH2 0x17B7 AND JUMP JUMPDEST PUSH1 0x1 SSTORE PUSH1 0x40 DUP1 MLOAD DUP3 DUP2 MSTORE SWAP1 MLOAD PUSH1 0x1 PUSH1 0xA0 PUSH1 0x2 EXP SUB DUP5 AND SWAP2 PUSH32 0xCC16F5DBB4873280815C1EE09DBD06736CFFCC184412CF7A71A0FDB75D397CA5 SWAP2 SWAP1 DUP2 SWAP1 SUB PUSH1 0x20 ADD SWAP1 LOG2 PUSH1 0x40 DUP1 MLOAD DUP3 DUP2 MSTORE SWAP1 MLOAD PUSH1 0x0 SWAP2 PUSH1 0x1 PUSH1 0xA0 PUSH1 0x2 EXP SUB DUP6 AND SWAP2 PUSH1 0x0 DUP1 MLOAD PUSH1 0x20 PUSH2 0x1A06 DUP4 CODECOPY DUP2 MLOAD SWAP2 MSTORE SWAP2 DUP2 SWAP1 SUB PUSH1 0x20 ADD SWAP1 LOG3 POP POP JUMP JUMPDEST PUSH1 0x0 PUSH1 0x1 PUSH1 0xA0 PUSH1 0x2 EXP SUB DUP4 AND ISZERO ISZERO PUSH2 0x18CF JUMPI PUSH1 0x0 DUP1 REVERT JUMPDEST CALLER PUSH1 0x0 SWAP1 DUP2 MSTORE PUSH1 0x20 DUP2 SWAP1 MSTORE PUSH1 0x40 SWAP1 KECCAK256 SLOAD DUP3 GT ISZERO PUSH2 0x18EB JUMPI PUSH1 0x0 DUP1 REVERT JUMPDEST CALLER PUSH1 0x0 SWAP1 DUP2 MSTORE PUSH1 0x20 DUP2 SWAP1 MSTORE PUSH1 0x40 SWAP1 KECCAK256 SLOAD PUSH2 0x190B SWAP1 DUP4 PUSH4 0xFFFFFFFF PUSH2 0x17B7 AND JUMP JUMPDEST CALLER PUSH1 0x0 SWAP1 DUP2 MSTORE PUSH1 0x20 DUP2 SWAP1 MSTORE PUSH1 0x40 DUP1 DUP3 KECCAK256 SWAP3 SWAP1 SWAP3 SSTORE PUSH1 0x1 PUSH1 0xA0 PUSH1 0x2 EXP SUB DUP6 AND DUP2 MSTORE KECCAK256 SLOAD PUSH2 0x193D SWAP1 DUP4 PUSH4 0xFFFFFFFF PUSH2 0x1490 AND JUMP JUMPDEST PUSH1 0x1 PUSH1 0xA0 PUSH1 0x2 EXP SUB DUP5 AND PUSH1 0x0 DUP2 DUP2 MSTORE PUSH1 0x20 DUP2 DUP2 MSTORE PUSH1 0x40 SWAP2 DUP3 SWAP1 KECCAK256 SWAP4 SWAP1 SWAP4 SSTORE DUP1 MLOAD DUP6 DUP2 MSTORE SWAP1 MLOAD SWAP2 SWAP3 CALLER SWAP3 PUSH1 0x0 DUP1 MLOAD PUSH1 0x20 PUSH2 0x1A06 DUP4 CODECOPY DUP2 MLOAD SWAP2 MSTORE SWAP3 DUP2 SWAP1 SUB SWAP1 SWAP2 ADD SWAP1 LOG3 POP PUSH1 0x1 SWAP3 SWAP2 POP POP JUMP JUMPDEST PUSH1 0x1 PUSH1 0xA0 PUSH1 0x2 EXP SUB DUP2 AND ISZERO ISZERO PUSH2 0x199C JUMPI PUSH1 0x0 DUP1 REVERT JUMPDEST PUSH1 0x6 SLOAD PUSH1 0x40 MLOAD PUSH1 0x1 PUSH1 0xA0 PUSH1 0x2 EXP SUB DUP1 DUP5 AND SWAP3 AND SWAP1 PUSH32 0x8BE0079C531659141344CD1FD0A4F28419497F9722A3DAAFE3B4186F6B6457E0 SWAP1 PUSH1 0x0 SWAP1 LOG3 PUSH1 0x6 DUP1 SLOAD PUSH20 0xFFFFFFFFFFFFFFFFFFFFFFFFFFFFFFFFFFFFFFFF NOT AND PUSH1 0x1 PUSH1 0xA0 PUSH1 0x2 EXP SUB SWAP3 SWAP1 SWAP3 AND SWAP2 SWAP1 SWAP2 OR SWAP1 SSTORE JUMP STOP 0xdd CALLCODE MSTORE 0xad SHL 0xe2 0xc8 SWAP12 PUSH10 0xC2B068FC378DAA952BA7 CALL PUSH4 0xC4A11628 0xf5 GAS 0x4d 0xf5 0x23 0xb3 0xef LOG1 PUSH6 0x627A7A723058 KECCAK256 0xd9 CALLDATASIZE 0x24 0xbe DUP8 0x21 PUSH26 0x5C91E1C15A4CB15685722A7EDC5401C966CD02FAF9B40F245A00 0x29 "
		},
		"gasEstimates": {
			"creation": {
				"codeDepositCost": "1347400",
				"executionCost": "infinite",
				"totalCost": "infinite"
			},
			"external": {
				"CONTINUE_MINTING()": "190",
				"PAUSED()": "872",
				"TARGET_USER()": "812",
				"TOKEN_DECIMALS()": "580",
				"TOKEN_DECIMALS_UINT8()": "919",
				"TOKEN_DECIMAL_MULTIPLIER()": "558",
				"TOKEN_NAME()": "infinite",
				"TOKEN_SYMBOL()": "infinite",
				"actualBalanceOf(address)": "803",
				"allowance(address,address)": "1500",
				"approve(address,uint256)": "22420",
				"balanceOf(address)": "1502",
				"burn(uint256)": "infinite",
				"decimals()": "457",
				"decreaseApproval(address,uint256)": "infinite",
				"finishMinting()": "22422",
				"freezeTo(address,uint256,uint64)": "infinite",
				"freezingBalanceOf(address)": "1376",
				"freezingCount(address)": "infinite",
				"getFreezing(address,uint256)": "infinite",
				"increaseApproval(address,uint256)": "infinite",
				"initialized()": "539",
				"mint(address,uint256)": "infinite",
				"mintAndFreeze(address,uint256,uint64)": "infinite",
				"mintingFinished()": "514",
				"name()": "infinite",
				"owner()": "1153",
				"pause()": "22376",
				"paused()": "910",
				"releaseAll()": "infinite",
				"releaseOnce()": "infinite",
				"renounceOwnership()": "22603",
				"symbol()": "infinite",
				"totalSupply()": "560",
				"transfer(address,uint256)": "infinite",
				"transferFrom(address,address,uint256)": "infinite",
				"transferOwnership(address)": "23574",
				"unpause()": "22024"
			},
			"internal": {
				"init()": "infinite"
			}
		},
		"methodIdentifiers": {
			"CONTINUE_MINTING()": "003fd35a",
			"PAUSED()": "a9aad58c",
			"TARGET_USER()": "726a431a",
			"TOKEN_DECIMALS()": "5b7f415c",
			"TOKEN_DECIMALS_UINT8()": "cf3b1967",
			"TOKEN_DECIMAL_MULTIPLIER()": "56780085",
			"TOKEN_NAME()": "18821400",
			"TOKEN_SYMBOL()": "2a905318",
			"actualBalanceOf(address)": "17a950ac",
			"allowance(address,address)": "dd62ed3e",
			"approve(address,uint256)": "095ea7b3",
			"balanceOf(address)": "70a08231",
			"burn(uint256)": "42966c68",
			"decimals()": "313ce567",
			"decreaseApproval(address,uint256)": "66188463",
			"finishMinting()": "7d64bcb4",
			"freezeTo(address,uint256,uint64)": "3be1e952",
			"freezingBalanceOf(address)": "d8aeedf5",
			"freezingCount(address)": "ca63b5b8",
			"getFreezing(address,uint256)": "02d6f730",
			"increaseApproval(address,uint256)": "d73dd623",
			"initialized()": "158ef93e",
			"mint(address,uint256)": "40c10f19",
			"mintAndFreeze(address,uint256,uint64)": "0bb2cd6b",
			"mintingFinished()": "05d2035b",
			"name()": "06fdde03",
			"owner()": "8da5cb5b",
			"pause()": "8456cb59",
			"paused()": "5c975abb",
			"releaseAll()": "5be7fde8",
			"releaseOnce()": "66a92cda",
			"renounceOwnership()": "715018a6",
			"symbol()": "95d89b41",
			"totalSupply()": "18160ddd",
			"transfer(address,uint256)": "a9059cbb",
			"transferFrom(address,address,uint256)": "23b872dd",
			"transferOwnership(address)": "f2fde38b",
			"unpause()": "3f4ba83a"
		}
	},
	"abi": [
		{
			"constant": true,
			"inputs": [],
			"name": "CONTINUE_MINTING",
			"outputs": [
				{
					"name": "",
					"type": "bool"
				}
			],
			"payable": false,
			"stateMutability": "view",
			"type": "function"
		},
		{
			"constant": true,
			"inputs": [
				{
					"name": "_addr",
					"type": "address"
				},
				{
					"name": "_index",
					"type": "uint256"
				}
			],
			"name": "getFreezing",
			"outputs": [
				{
					"name": "_release",
					"type": "uint64"
				},
				{
					"name": "_balance",
					"type": "uint256"
				}
			],
			"payable": false,
			"stateMutability": "view",
			"type": "function"
		},
		{
			"constant": true,
			"inputs": [],
			"name": "mintingFinished",
			"outputs": [
				{
					"name": "",
					"type": "bool"
				}
			],
			"payable": false,
			"stateMutability": "view",
			"type": "function"
		},
		{
			"constant": true,
			"inputs": [],
			"name": "name",
			"outputs": [
				{
					"name": "_name",
					"type": "string"
				}
			],
			"payable": false,
			"stateMutability": "view",
			"type": "function"
		},
		{
			"constant": false,
			"inputs": [
				{
					"name": "_spender",
					"type": "address"
				},
				{
					"name": "_value",
					"type": "uint256"
				}
			],
			"name": "approve",
			"outputs": [
				{
					"name": "",
					"type": "bool"
				}
			],
			"payable": false,
			"stateMutability": "nonpayable",
			"type": "function"
		},
		{
			"constant": false,
			"inputs": [
				{
					"name": "_to",
					"type": "address"
				},
				{
					"name": "_amount",
					"type": "uint256"
				},
				{
					"name": "_until",
					"type": "uint64"
				}
			],
			"name": "mintAndFreeze",
			"outputs": [
				{
					"name": "",
					"type": "bool"
				}
			],
			"payable": false,
			"stateMutability": "nonpayable",
			"type": "function"
		},
		{
			"constant": true,
			"inputs": [],
			"name": "initialized",
			"outputs": [
				{
					"name": "",
					"type": "bool"
				}
			],
			"payable": false,
			"stateMutability": "view",
			"type": "function"
		},
		{
			"constant": true,
			"inputs": [
				{
					"name": "_owner",
					"type": "address"
				}
			],
			"name": "actualBalanceOf",
			"outputs": [
				{
					"name": "balance",
					"type": "uint256"
				}
			],
			"payable": false,
			"stateMutability": "view",
			"type": "function"
		},
		{
			"constant": true,
			"inputs": [],
			"name": "totalSupply",
			"outputs": [
				{
					"name": "",
					"type": "uint256"
				}
			],
			"payable": false,
			"stateMutability": "view",
			"type": "function"
		},
		{
			"constant": true,
			"inputs": [],
			"name": "TOKEN_NAME",
			"outputs": [
				{
					"name": "",
					"type": "string"
				}
			],
			"payable": false,
			"stateMutability": "view",
			"type": "function"
		},
		{
			"constant": false,
			"inputs": [
				{
					"name": "_from",
					"type": "address"
				},
				{
					"name": "_to",
					"type": "address"
				},
				{
					"name": "_value",
					"type": "uint256"
				}
			],
			"name": "transferFrom",
			"outputs": [
				{
					"name": "_success",
					"type": "bool"
				}
			],
			"payable": false,
			"stateMutability": "nonpayable",
			"type": "function"
		},
		{
			"constant": true,
			"inputs": [],
			"name": "TOKEN_SYMBOL",
			"outputs": [
				{
					"name": "",
					"type": "string"
				}
			],
			"payable": false,
			"stateMutability": "view",
			"type": "function"
		},
		{
			"constant": true,
			"inputs": [],
			"name": "decimals",
			"outputs": [
				{
					"name": "_decimals",
					"type": "uint8"
				}
			],
			"payable": false,
			"stateMutability": "view",
			"type": "function"
		},
		{
			"constant": false,
			"inputs": [
				{
					"name": "_to",
					"type": "address"
				},
				{
					"name": "_amount",
					"type": "uint256"
				},
				{
					"name": "_until",
					"type": "uint64"
				}
			],
			"name": "freezeTo",
			"outputs": [],
			"payable": false,
			"stateMutability": "nonpayable",
			"type": "function"
		},
		{
			"constant": false,
			"inputs": [],
			"name": "unpause",
			"outputs": [],
			"payable": false,
			"stateMutability": "nonpayable",
			"type": "function"
		},
		{
			"constant": false,
			"inputs": [
				{
					"name": "_to",
					"type": "address"
				},
				{
					"name": "_amount",
					"type": "uint256"
				}
			],
			"name": "mint",
			"outputs": [
				{
					"name": "",
					"type": "bool"
				}
			],
			"payable": false,
			"stateMutability": "nonpayable",
			"type": "function"
		},
		{
			"constant": false,
			"inputs": [
				{
					"name": "_value",
					"type": "uint256"
				}
			],
			"name": "burn",
			"outputs": [],
			"payable": false,
			"stateMutability": "nonpayable",
			"type": "function"
		},
		{
			"constant": true,
			"inputs": [],
			"name": "TOKEN_DECIMAL_MULTIPLIER",
			"outputs": [
				{
					"name": "",
					"type": "uint256"
				}
			],
			"payable": false,
			"stateMutability": "view",
			"type": "function"
		},
		{
			"constant": true,
			"inputs": [],
			"name": "TOKEN_DECIMALS",
			"outputs": [
				{
					"name": "",
					"type": "uint256"
				}
			],
			"payable": false,
			"stateMutability": "view",
			"type": "function"
		},
		{
			"constant": false,
			"inputs": [],
			"name": "releaseAll",
			"outputs": [
				{
					"name": "tokens",
					"type": "uint256"
				}
			],
			"payable": false,
			"stateMutability": "nonpayable",
			"type": "function"
		},
		{
			"constant": true,
			"inputs": [],
			"name": "paused",
			"outputs": [
				{
					"name": "",
					"type": "bool"
				}
			],
			"payable": false,
			"stateMutability": "view",
			"type": "function"
		},
		{
			"constant": false,
			"inputs": [
				{
					"name": "_spender",
					"type": "address"
				},
				{
					"name": "_subtractedValue",
					"type": "uint256"
				}
			],
			"name": "decreaseApproval",
			"outputs": [
				{
					"name": "",
					"type": "bool"
				}
			],
			"payable": false,
			"stateMutability": "nonpayable",
			"type": "function"
		},
		{
			"constant": false,
			"inputs": [],
			"name": "releaseOnce",
			"outputs": [],
			"payable": false,
			"stateMutability": "nonpayable",
			"type": "function"
		},
		{
			"constant": true,
			"inputs": [
				{
					"name": "_owner",
					"type": "address"
				}
			],
			"name": "balanceOf",
			"outputs": [
				{
					"name": "balance",
					"type": "uint256"
				}
			],
			"payable": false,
			"stateMutability": "view",
			"type": "function"
		},
		{
			"constant": false,
			"inputs": [],
			"name": "renounceOwnership",
			"outputs": [],
			"payable": false,
			"stateMutability": "nonpayable",
			"type": "function"
		},
		{
			"constant": true,
			"inputs": [],
			"name": "TARGET_USER",
			"outputs": [
				{
					"name": "",
					"type": "address"
				}
			],
			"payable": false,
			"stateMutability": "view",
			"type": "function"
		},
		{
			"constant": false,
			"inputs": [],
			"name": "finishMinting",
			"outputs": [
				{
					"name": "",
					"type": "bool"
				}
			],
			"payable": false,
			"stateMutability": "nonpayable",
			"type": "function"
		},
		{
			"constant": false,
			"inputs": [],
			"name": "pause",
			"outputs": [],
			"payable": false,
			"stateMutability": "nonpayable",
			"type": "function"
		},
		{
			"constant": true,
			"inputs": [],
			"name": "owner",
			"outputs": [
				{
					"name": "",
					"type": "address"
				}
			],
			"payable": false,
			"stateMutability": "view",
			"type": "function"
		},
		{
			"constant": true,
			"inputs": [],
			"name": "symbol",
			"outputs": [
				{
					"name": "_symbol",
					"type": "string"
				}
			],
			"payable": false,
			"stateMutability": "view",
			"type": "function"
		},
		{
			"constant": false,
			"inputs": [
				{
					"name": "_to",
					"type": "address"
				},
				{
					"name": "_value",
					"type": "uint256"
				}
			],
			"name": "transfer",
			"outputs": [
				{
					"name": "_success",
					"type": "bool"
				}
			],
			"payable": false,
			"stateMutability": "nonpayable",
			"type": "function"
		},
		{
			"constant": true,
			"inputs": [],
			"name": "PAUSED",
			"outputs": [
				{
					"name": "",
					"type": "bool"
				}
			],
			"payable": false,
			"stateMutability": "view",
			"type": "function"
		},
		{
			"constant": true,
			"inputs": [
				{
					"name": "_addr",
					"type": "address"
				}
			],
			"name": "freezingCount",
			"outputs": [
				{
					"name": "count",
					"type": "uint256"
				}
			],
			"payable": false,
			"stateMutability": "view",
			"type": "function"
		},
		{
			"constant": true,
			"inputs": [],
			"name": "TOKEN_DECIMALS_UINT8",
			"outputs": [
				{
					"name": "",
					"type": "uint8"
				}
			],
			"payable": false,
			"stateMutability": "view",
			"type": "function"
		},
		{
			"constant": false,
			"inputs": [
				{
					"name": "_spender",
					"type": "address"
				},
				{
					"name": "_addedValue",
					"type": "uint256"
				}
			],
			"name": "increaseApproval",
			"outputs": [
				{
					"name": "",
					"type": "bool"
				}
			],
			"payable": false,
			"stateMutability": "nonpayable",
			"type": "function"
		},
		{
			"constant": true,
			"inputs": [
				{
					"name": "_owner",
					"type": "address"
				}
			],
			"name": "freezingBalanceOf",
			"outputs": [
				{
					"name": "balance",
					"type": "uint256"
				}
			],
			"payable": false,
			"stateMutability": "view",
			"type": "function"
		},
		{
			"constant": true,
			"inputs": [
				{
					"name": "_owner",
					"type": "address"
				},
				{
					"name": "_spender",
					"type": "address"
				}
			],
			"name": "allowance",
			"outputs": [
				{
					"name": "",
					"type": "uint256"
				}
			],
			"payable": false,
			"stateMutability": "view",
			"type": "function"
		},
		{
			"constant": false,
			"inputs": [
				{
					"name": "_newOwner",
					"type": "address"
				}
			],
			"name": "transferOwnership",
			"outputs": [],
			"payable": false,
			"stateMutability": "nonpayable",
			"type": "function"
		},
		{
			"inputs": [],
			"payable": false,
			"stateMutability": "nonpayable",
			"type": "constructor"
		},
		{
			"anonymous": false,
			"inputs": [],
			"name": "Initialized",
			"type": "event"
		},
		{
			"anonymous": false,
			"inputs": [],
			"name": "Pause",
			"type": "event"
		},
		{
			"anonymous": false,
			"inputs": [],
			"name": "Unpause",
			"type": "event"
		},
		{
			"anonymous": false,
			"inputs": [
				{
					"indexed": true,
					"name": "burner",
					"type": "address"
				},
				{
					"indexed": false,
					"name": "value",
					"type": "uint256"
				}
			],
			"name": "Burn",
			"type": "event"
		},
		{
			"anonymous": false,
			"inputs": [
				{
					"indexed": true,
					"name": "to",
					"type": "address"
				},
				{
					"indexed": false,
					"name": "amount",
					"type": "uint256"
				}
			],
			"name": "Mint",
			"type": "event"
		},
		{
			"anonymous": false,
			"inputs": [],
			"name": "MintFinished",
			"type": "event"
		},
		{
			"anonymous": false,
			"inputs": [
				{
					"indexed": true,
					"name": "previousOwner",
					"type": "address"
				}
			],
			"name": "OwnershipRenounced",
			"type": "event"
		},
		{
			"anonymous": false,
			"inputs": [
				{
					"indexed": true,
					"name": "previousOwner",
					"type": "address"
				},
				{
					"indexed": true,
					"name": "newOwner",
					"type": "address"
				}
			],
			"name": "OwnershipTransferred",
			"type": "event"
		},
		{
			"anonymous": false,
			"inputs": [
				{
					"indexed": true,
					"name": "to",
					"type": "address"
				},
				{
					"indexed": false,
					"name": "release",
					"type": "uint64"
				},
				{
					"indexed": false,
					"name": "amount",
					"type": "uint256"
				}
			],
			"name": "Freezed",
			"type": "event"
		},
		{
			"anonymous": false,
			"inputs": [
				{
					"indexed": true,
					"name": "owner",
					"type": "address"
				},
				{
					"indexed": false,
					"name": "amount",
					"type": "uint256"
				}
			],
			"name": "Released",
			"type": "event"
		},
		{
			"anonymous": false,
			"inputs": [
				{
					"indexed": true,
					"name": "owner",
					"type": "address"
				},
				{
					"indexed": true,
					"name": "spender",
					"type": "address"
				},
				{
					"indexed": false,
					"name": "value",
					"type": "uint256"
				}
			],
			"name": "Approval",
			"type": "event"
		},
		{
			"anonymous": false,
			"inputs": [
				{
					"indexed": true,
					"name": "from",
					"type": "address"
				},
				{
					"indexed": true,
					"name": "to",
					"type": "address"
				},
				{
					"indexed": false,
					"name": "value",
					"type": "uint256"
				}
			],
			"name": "Transfer",
			"type": "event"
		}
	]
}