{
	"data": {
		"bytecode": {
			"linkReferences": {},
			"object": "608060405234801561001057600080fd5b5060028054336001600160a01b0319918216811790925560018054909116909117905561082f806100426000396000f3fe608060405234801561001057600080fd5b50600436106100625760003560e01c80632065f2c0146100675780634a9f3ab81461008f57806359bfc385146100a45780638f118ece146100b7578063d411325b146100ce578063e1489191146100e1575b600080fd5b61007a610075366004610524565b6100ea565b60405190151581526020015b60405180910390f35b6100a261009d366004610570565b61016e565b005b61007a6100b23660046105a2565b6101de565b6100c060035481565b604051908152602001610086565b61007a6100dc366004610546565b610409565b6100c060045481565b6001546000906001600160a01b031633146101205760405162461bcd60e51b815260040161011790610655565b60405180910390fd5b600080546001600160a81b0319166001600160a01b03841617600160a01b1790556001600355601261015381600a61071c565b60035461016091906107c4565b60045550600190505b919050565b600054600160a01b900460ff166101975760405162461bcd60e51b81526004016101179061061e565b6001546001600160a01b031633146101c15760405162461bcd60e51b815260040161011790610655565b60038190556101d881670de0b6b3a76400006107c4565b60045550565b60008054600160a01b900460ff166102085760405162461bcd60e51b81526004016101179061061e565b600454339085116102675760405162461bcd60e51b8152602060048201526024808201527f596f752063616e6e6f742073656e64206c657373207468616e20636f6d69736960448201526339b4b7b760e11b6064820152608401610117565b6000546040516370a0823160e01b81526001600160a01b038381166004830152909116906370a082319060240160206040518083038186803b1580156102ac57600080fd5b505afa1580156102c0573d6000803e3d6000fd5b505050506040513d601f19601f820116820180604052508101906102e49190610589565b8511156103515760405162461bcd60e51b815260206004820152603560248201527f436865636b20746f206861766520656e6f75676820746f6b656e732028696e636044820152746c7564696e672074686520636f6d6d6973696f6e2960581b6064820152608401610117565b60005460405163079cc67960e41b81526001600160a01b03838116600483015260248201889052909116906379cc679090604401600060405180830381600087803b15801561039f57600080fd5b505af11580156103b3573d6000803e3d6000fd5b50505050806001600160a01b03167f661e781e0fa1532c955920e8dbed8df870be0982310a03fd575fc800fb107d77868686426040516103f69493929190610699565b60405180910390a2506001949350505050565b60008054600160a01b900460ff166104335760405162461bcd60e51b81526004016101179061061e565b6002546001600160a01b0316331461049c5760405162461bcd60e51b815260206004820152602660248201527f4f6e6c7920676174657761792063616e206578656375746520746869732066756044820152653731ba34b7b760d11b6064820152608401610117565b6000546040516340c10f1960e01b81526001600160a01b03858116600483015260248201859052909116906340c10f1990604401600060405180830381600087803b1580156104ea57600080fd5b505af11580156104fe573d6000803e3d6000fd5b50505050600190505b92915050565b80356001600160a01b038116811461016957600080fd5b60006020828403121561053657600080fd5b61053f8261050d565b9392505050565b6000806040838503121561055957600080fd5b6105628361050d565b946020939093013593505050565b60006020828403121561058257600080fd5b5035919050565b60006020828403121561059b57600080fd5b5051919050565b6000806000604084860312156105b757600080fd5b83359250602084013567ffffffffffffffff808211156105d657600080fd5b818601915086601f8301126105ea57600080fd5b8135818111156105f957600080fd5b87602082850101111561060b57600080fd5b6020830194508093505050509250925092565b6020808252601f908201527f42726964676520686173206e6f74206265656e20696e697469616c697a656400604082015260600190565b60208082526024908201527f4f6e6c79206f776e65722063616e206578656375746520746869732066756e636040820152633a34b7b760e11b606082015260800190565b848152606060208201528260608201528284608083013760006080848301015260006080601f19601f860116830101905082604083015295945050505050565b600181815b808511156107145781600019048211156106fa576106fa6107e3565b8085161561070757918102915b93841c93908002906106de565b509250929050565b600061053f838360008261073257506001610507565b8161073f57506000610507565b8160018114610755576002811461075f5761077b565b6001915050610507565b60ff841115610770576107706107e3565b50506001821b610507565b5060208310610133831016604e8410600b841016171561079e575081810a610507565b6107a883836106d9565b80600019048211156107bc576107bc6107e3565b029392505050565b60008160001904831182151516156107de576107de6107e3565b500290565b634e487b7160e01b600052601160045260246000fdfea2646970667358221220ea23c310026ccf47a5ef4750ebc0b47f899d378ee891e766916a186de842751f64736f6c63430008070033",
			"opcodes": "PUSH1 0x80 PUSH1 0x40 MSTORE CALLVALUE DUP1 ISZERO PUSH2 0x10 JUMPI PUSH1 0x0 DUP1 REVERT JUMPDEST POP PUSH1 0x2 DUP1 SLOAD CALLER PUSH1 0x1 PUSH1 0x1 PUSH1 0xA0 SHL SUB NOT SWAP2 DUP3 AND DUP2 OR SWAP1 SWAP3 SSTORE PUSH1 0x1 DUP1 SLOAD SWAP1 SWAP2 AND SWAP1 SWAP2 OR SWAP1 SSTORE PUSH2 0x82F DUP1 PUSH2 0x42 PUSH1 0x0 CODECOPY PUSH1 0x0 RETURN INVALID PUSH1 0x80 PUSH1 0x40 MSTORE CALLVALUE DUP1 ISZERO PUSH2 0x10 JUMPI PUSH1 0x0 DUP1 REVERT JUMPDEST POP PUSH1 0x4 CALLDATASIZE LT PUSH2 0x62 JUMPI PUSH1 0x0 CALLDATALOAD PUSH1 0xE0 SHR DUP1 PUSH4 0x2065F2C0 EQ PUSH2 0x67 JUMPI DUP1 PUSH4 0x4A9F3AB8 EQ PUSH2 0x8F JUMPI DUP1 PUSH4 0x59BFC385 EQ PUSH2 0xA4 JUMPI DUP1 PUSH4 0x8F118ECE EQ PUSH2 0xB7 JUMPI DUP1 PUSH4 0xD411325B EQ PUSH2 0xCE JUMPI DUP1 PUSH4 0xE1489191 EQ PUSH2 0xE1 JUMPI JUMPDEST PUSH1 0x0 DUP1 REVERT JUMPDEST PUSH2 0x7A PUSH2 0x75 CALLDATASIZE PUSH1 0x4 PUSH2 0x524 JUMP JUMPDEST PUSH2 0xEA JUMP JUMPDEST PUSH1 0x40 MLOAD SWAP1 ISZERO ISZERO DUP2 MSTORE PUSH1 0x20 ADD JUMPDEST PUSH1 0x40 MLOAD DUP1 SWAP2 SUB SWAP1 RETURN JUMPDEST PUSH2 0xA2 PUSH2 0x9D CALLDATASIZE PUSH1 0x4 PUSH2 0x570 JUMP JUMPDEST PUSH2 0x16E JUMP JUMPDEST STOP JUMPDEST PUSH2 0x7A PUSH2 0xB2 CALLDATASIZE PUSH1 0x4 PUSH2 0x5A2 JUMP JUMPDEST PUSH2 0x1DE JUMP JUMPDEST PUSH2 0xC0 PUSH1 0x3 SLOAD DUP2 JUMP JUMPDEST PUSH1 0x40 MLOAD SWAP1 DUP2 MSTORE PUSH1 0x20 ADD PUSH2 0x86 JUMP JUMPDEST PUSH2 0x7A PUSH2 0xDC CALLDATASIZE PUSH1 0x4 PUSH2 0x546 JUMP JUMPDEST PUSH2 0x409 JUMP JUMPDEST PUSH2 0xC0 PUSH1 0x4 SLOAD DUP2 JUMP JUMPDEST PUSH1 0x1 SLOAD PUSH1 0x0 SWAP1 PUSH1 0x1 PUSH1 0x1 PUSH1 0xA0 SHL SUB AND CALLER EQ PUSH2 0x120 JUMPI PUSH1 0x40 MLOAD PUSH3 0x461BCD PUSH1 0xE5 SHL DUP2 MSTORE PUSH1 0x4 ADD PUSH2 0x117 SWAP1 PUSH2 0x655 JUMP JUMPDEST PUSH1 0x40 MLOAD DUP1 SWAP2 SUB SWAP1 REVERT JUMPDEST PUSH1 0x0 DUP1 SLOAD PUSH1 0x1 PUSH1 0x1 PUSH1 0xA8 SHL SUB NOT AND PUSH1 0x1 PUSH1 0x1 PUSH1 0xA0 SHL SUB DUP5 AND OR PUSH1 0x1 PUSH1 0xA0 SHL OR SWAP1 SSTORE PUSH1 0x1 PUSH1 0x3 SSTORE PUSH1 0x12 PUSH2 0x153 DUP2 PUSH1 0xA PUSH2 0x71C JUMP JUMPDEST PUSH1 0x3 SLOAD PUSH2 0x160 SWAP2 SWAP1 PUSH2 0x7C4 JUMP JUMPDEST PUSH1 0x4 SSTORE POP PUSH1 0x1 SWAP1 POP JUMPDEST SWAP2 SWAP1 POP JUMP JUMPDEST PUSH1 0x0 SLOAD PUSH1 0x1 PUSH1 0xA0 SHL SWAP1 DIV PUSH1 0xFF AND PUSH2 0x197 JUMPI PUSH1 0x40 MLOAD PUSH3 0x461BCD PUSH1 0xE5 SHL DUP2 MSTORE PUSH1 0x4 ADD PUSH2 0x117 SWAP1 PUSH2 0x61E JUMP JUMPDEST PUSH1 0x1 SLOAD PUSH1 0x1 PUSH1 0x1 PUSH1 0xA0 SHL SUB AND CALLER EQ PUSH2 0x1C1 JUMPI PUSH1 0x40 MLOAD PUSH3 0x461BCD PUSH1 0xE5 SHL DUP2 MSTORE PUSH1 0x4 ADD PUSH2 0x117 SWAP1 PUSH2 0x655 JUMP JUMPDEST PUSH1 0x3 DUP2 SWAP1 SSTORE PUSH2 0x1D8 DUP2 PUSH8 0xDE0B6B3A7640000 PUSH2 0x7C4 JUMP JUMPDEST PUSH1 0x4 SSTORE POP JUMP JUMPDEST PUSH1 0x0 DUP1 SLOAD PUSH1 0x1 PUSH1 0xA0 SHL SWAP1 DIV PUSH1 0xFF AND PUSH2 0x208 JUMPI PUSH1 0x40 MLOAD PUSH3 0x461BCD PUSH1 0xE5 SHL DUP2 MSTORE PUSH1 0x4 ADD PUSH2 0x117 SWAP1 PUSH2 0x61E JUMP JUMPDEST PUSH1 0x4 SLOAD CALLER SWAP1 DUP6 GT PUSH2 0x267 JUMPI PUSH1 0x40 MLOAD PUSH3 0x461BCD PUSH1 0xE5 SHL DUP2 MSTORE PUSH1 0x20 PUSH1 0x4 DUP3 ADD MSTORE PUSH1 0x24 DUP1 DUP3 ADD MSTORE PUSH32 0x596F752063616E6E6F742073656E64206C657373207468616E20636F6D697369 PUSH1 0x44 DUP3 ADD MSTORE PUSH4 0x39B4B7B7 PUSH1 0xE1 SHL PUSH1 0x64 DUP3 ADD MSTORE PUSH1 0x84 ADD PUSH2 0x117 JUMP JUMPDEST PUSH1 0x0 SLOAD PUSH1 0x40 MLOAD PUSH4 0x70A08231 PUSH1 0xE0 SHL DUP2 MSTORE PUSH1 0x1 PUSH1 0x1 PUSH1 0xA0 SHL SUB DUP4 DUP2 AND PUSH1 0x4 DUP4 ADD MSTORE SWAP1 SWAP2 AND SWAP1 PUSH4 0x70A08231 SWAP1 PUSH1 0x24 ADD PUSH1 0x20 PUSH1 0x40 MLOAD DUP1 DUP4 SUB DUP2 DUP7 DUP1 EXTCODESIZE ISZERO DUP1 ISZERO PUSH2 0x2AC JUMPI PUSH1 0x0 DUP1 REVERT JUMPDEST POP GAS STATICCALL ISZERO DUP1 ISZERO PUSH2 0x2C0 JUMPI RETURNDATASIZE PUSH1 0x0 DUP1 RETURNDATACOPY RETURNDATASIZE PUSH1 0x0 REVERT JUMPDEST POP POP POP POP PUSH1 0x40 MLOAD RETURNDATASIZE PUSH1 0x1F NOT PUSH1 0x1F DUP3 ADD AND DUP3 ADD DUP1 PUSH1 0x40 MSTORE POP DUP2 ADD SWAP1 PUSH2 0x2E4 SWAP2 SWAP1 PUSH2 0x589 JUMP JUMPDEST DUP6 GT ISZERO PUSH2 0x351 JUMPI PUSH1 0x40 MLOAD PUSH3 0x461BCD PUSH1 0xE5 SHL DUP2 MSTORE PUSH1 0x20 PUSH1 0x4 DUP3 ADD MSTORE PUSH1 0x35 PUSH1 0x24 DUP3 ADD MSTORE PUSH32 0x436865636B20746F206861766520656E6F75676820746F6B656E732028696E63 PUSH1 0x44 DUP3 ADD MSTORE PUSH21 0x6C7564696E672074686520636F6D6D6973696F6E29 PUSH1 0x58 SHL PUSH1 0x64 DUP3 ADD MSTORE PUSH1 0x84 ADD PUSH2 0x117 JUMP JUMPDEST PUSH1 0x0 SLOAD PUSH1 0x40 MLOAD PUSH4 0x79CC679 PUSH1 0xE4 SHL DUP2 MSTORE PUSH1 0x1 PUSH1 0x1 PUSH1 0xA0 SHL SUB DUP4 DUP2 AND PUSH1 0x4 DUP4 ADD MSTORE PUSH1 0x24 DUP3 ADD DUP9 SWAP1 MSTORE SWAP1 SWAP2 AND SWAP1 PUSH4 0x79CC6790 SWAP1 PUSH1 0x44 ADD PUSH1 0x0 PUSH1 0x40 MLOAD DUP1 DUP4 SUB DUP2 PUSH1 0x0 DUP8 DUP1 EXTCODESIZE ISZERO DUP1 ISZERO PUSH2 0x39F JUMPI PUSH1 0x0 DUP1 REVERT JUMPDEST POP GAS CALL ISZERO DUP1 ISZERO PUSH2 0x3B3 JUMPI RETURNDATASIZE PUSH1 0x0 DUP1 RETURNDATACOPY RETURNDATASIZE PUSH1 0x0 REVERT JUMPDEST POP POP POP POP DUP1 PUSH1 0x1 PUSH1 0x1 PUSH1 0xA0 SHL SUB AND PUSH32 0x661E781E0FA1532C955920E8DBED8DF870BE0982310A03FD575FC800FB107D77 DUP7 DUP7 DUP7 TIMESTAMP PUSH1 0x40 MLOAD PUSH2 0x3F6 SWAP5 SWAP4 SWAP3 SWAP2 SWAP1 PUSH2 0x699 JUMP JUMPDEST PUSH1 0x40 MLOAD DUP1 SWAP2 SUB SWAP1 LOG2 POP PUSH1 0x1 SWAP5 SWAP4 POP POP POP POP JUMP JUMPDEST PUSH1 0x0 DUP1 SLOAD PUSH1 0x1 PUSH1 0xA0 SHL SWAP1 DIV PUSH1 0xFF AND PUSH2 0x433 JUMPI PUSH1 0x40 MLOAD PUSH3 0x461BCD PUSH1 0xE5 SHL DUP2 MSTORE PUSH1 0x4 ADD PUSH2 0x117 SWAP1 PUSH2 0x61E JUMP JUMPDEST PUSH1 0x2 SLOAD PUSH1 0x1 PUSH1 0x1 PUSH1 0xA0 SHL SUB AND CALLER EQ PUSH2 0x49C JUMPI PUSH1 0x40 MLOAD PUSH3 0x461BCD PUSH1 0xE5 SHL DUP2 MSTORE PUSH1 0x20 PUSH1 0x4 DUP3 ADD MSTORE PUSH1 0x26 PUSH1 0x24 DUP3 ADD MSTORE PUSH32 0x4F6E6C7920676174657761792063616E20657865637574652074686973206675 PUSH1 0x44 DUP3 ADD MSTORE PUSH6 0x3731BA34B7B7 PUSH1 0xD1 SHL PUSH1 0x64 DUP3 ADD MSTORE PUSH1 0x84 ADD PUSH2 0x117 JUMP JUMPDEST PUSH1 0x0 SLOAD PUSH1 0x40 MLOAD PUSH4 0x40C10F19 PUSH1 0xE0 SHL DUP2 MSTORE PUSH1 0x1 PUSH1 0x1 PUSH1 0xA0 SHL SUB DUP6 DUP2 AND PUSH1 0x4 DUP4 ADD MSTORE PUSH1 0x24 DUP3 ADD DUP6 SWAP1 MSTORE SWAP1 SWAP2 AND SWAP1 PUSH4 0x40C10F19 SWAP1 PUSH1 0x44 ADD PUSH1 0x0 PUSH1 0x40 MLOAD DUP1 DUP4 SUB DUP2 PUSH1 0x0 DUP8 DUP1 EXTCODESIZE ISZERO DUP1 ISZERO PUSH2 0x4EA JUMPI PUSH1 0x0 DUP1 REVERT JUMPDEST POP GAS CALL ISZERO DUP1 ISZERO PUSH2 0x4FE JUMPI RETURNDATASIZE PUSH1 0x0 DUP1 RETURNDATACOPY RETURNDATASIZE PUSH1 0x0 REVERT JUMPDEST POP POP POP POP PUSH1 0x1 SWAP1 POP JUMPDEST SWAP3 SWAP2 POP POP JUMP JUMPDEST DUP1 CALLDATALOAD PUSH1 0x1 PUSH1 0x1 PUSH1 0xA0 SHL SUB DUP2 AND DUP2 EQ PUSH2 0x169 JUMPI PUSH1 0x0 DUP1 REVERT JUMPDEST PUSH1 0x0 PUSH1 0x20 DUP3 DUP5 SUB SLT ISZERO PUSH2 0x536 JUMPI PUSH1 0x0 DUP1 REVERT JUMPDEST PUSH2 0x53F DUP3 PUSH2 0x50D JUMP JUMPDEST SWAP4 SWAP3 POP POP POP JUMP JUMPDEST PUSH1 0x0 DUP1 PUSH1 0x40 DUP4 DUP6 SUB SLT ISZERO PUSH2 0x559 JUMPI PUSH1 0x0 DUP1 REVERT JUMPDEST PUSH2 0x562 DUP4 PUSH2 0x50D JUMP JUMPDEST SWAP5 PUSH1 0x20 SWAP4 SWAP1 SWAP4 ADD CALLDATALOAD SWAP4 POP POP POP JUMP JUMPDEST PUSH1 0x0 PUSH1 0x20 DUP3 DUP5 SUB SLT ISZERO PUSH2 0x582 JUMPI PUSH1 0x0 DUP1 REVERT JUMPDEST POP CALLDATALOAD SWAP2 SWAP1 POP JUMP JUMPDEST PUSH1 0x0 PUSH1 0x20 DUP3 DUP5 SUB SLT ISZERO PUSH2 0x59B JUMPI PUSH1 0x0 DUP1 REVERT JUMPDEST POP MLOAD SWAP2 SWAP1 POP JUMP JUMPDEST PUSH1 0x0 DUP1 PUSH1 0x0 PUSH1 0x40 DUP5 DUP7 SUB SLT ISZERO PUSH2 0x5B7 JUMPI PUSH1 0x0 DUP1 REVERT JUMPDEST DUP4 CALLDATALOAD SWAP3 POP PUSH1 0x20 DUP5 ADD CALLDATALOAD PUSH8 0xFFFFFFFFFFFFFFFF DUP1 DUP3 GT ISZERO PUSH2 0x5D6 JUMPI PUSH1 0x0 DUP1 REVERT JUMPDEST DUP2 DUP7 ADD SWAP2 POP DUP7 PUSH1 0x1F DUP4 ADD SLT PUSH2 0x5EA JUMPI PUSH1 0x0 DUP1 REVERT JUMPDEST DUP2 CALLDATALOAD DUP2 DUP2 GT ISZERO PUSH2 0x5F9 JUMPI PUSH1 0x0 DUP1 REVERT JUMPDEST DUP8 PUSH1 0x20 DUP3 DUP6 ADD ADD GT ISZERO PUSH2 0x60B JUMPI PUSH1 0x0 DUP1 REVERT JUMPDEST PUSH1 0x20 DUP4 ADD SWAP5 POP DUP1 SWAP4 POP POP POP POP SWAP3 POP SWAP3 POP SWAP3 JUMP JUMPDEST PUSH1 0x20 DUP1 DUP3 MSTORE PUSH1 0x1F SWAP1 DUP3 ADD MSTORE PUSH32 0x42726964676520686173206E6F74206265656E20696E697469616C697A656400 PUSH1 0x40 DUP3 ADD MSTORE PUSH1 0x60 ADD SWAP1 JUMP JUMPDEST PUSH1 0x20 DUP1 DUP3 MSTORE PUSH1 0x24 SWAP1 DUP3 ADD MSTORE PUSH32 0x4F6E6C79206F776E65722063616E206578656375746520746869732066756E63 PUSH1 0x40 DUP3 ADD MSTORE PUSH4 0x3A34B7B7 PUSH1 0xE1 SHL PUSH1 0x60 DUP3 ADD MSTORE PUSH1 0x80 ADD SWAP1 JUMP JUMPDEST DUP5 DUP2 MSTORE PUSH1 0x60 PUSH1 0x20 DUP3 ADD MSTORE DUP3 PUSH1 0x60 DUP3 ADD MSTORE DUP3 DUP5 PUSH1 0x80 DUP4 ADD CALLDATACOPY PUSH1 0x0 PUSH1 0x80 DUP5 DUP4 ADD ADD MSTORE PUSH1 0x0 PUSH1 0x80 PUSH1 0x1F NOT PUSH1 0x1F DUP7 ADD AND DUP4 ADD ADD SWAP1 POP DUP3 PUSH1 0x40 DUP4 ADD MSTORE SWAP6 SWAP5 POP POP POP POP POP JUMP JUMPDEST PUSH1 0x1 DUP2 DUP2 JUMPDEST DUP1 DUP6 GT ISZERO PUSH2 0x714 JUMPI DUP2 PUSH1 0x0 NOT DIV DUP3 GT ISZERO PUSH2 0x6FA JUMPI PUSH2 0x6FA PUSH2 0x7E3 JUMP JUMPDEST DUP1 DUP6 AND ISZERO PUSH2 0x707 JUMPI SWAP2 DUP2 MUL SWAP2 JUMPDEST SWAP4 DUP5 SHR SWAP4 SWAP1 DUP1 MUL SWAP1 PUSH2 0x6DE JUMP JUMPDEST POP SWAP3 POP SWAP3 SWAP1 POP JUMP JUMPDEST PUSH1 0x0 PUSH2 0x53F DUP4 DUP4 PUSH1 0x0 DUP3 PUSH2 0x732 JUMPI POP PUSH1 0x1 PUSH2 0x507 JUMP JUMPDEST DUP2 PUSH2 0x73F JUMPI POP PUSH1 0x0 PUSH2 0x507 JUMP JUMPDEST DUP2 PUSH1 0x1 DUP2 EQ PUSH2 0x755 JUMPI PUSH1 0x2 DUP2 EQ PUSH2 0x75F JUMPI PUSH2 0x77B JUMP JUMPDEST PUSH1 0x1 SWAP2 POP POP PUSH2 0x507 JUMP JUMPDEST PUSH1 0xFF DUP5 GT ISZERO PUSH2 0x770 JUMPI PUSH2 0x770 PUSH2 0x7E3 JUMP JUMPDEST POP POP PUSH1 0x1 DUP3 SHL PUSH2 0x507 JUMP JUMPDEST POP PUSH1 0x20 DUP4 LT PUSH2 0x133 DUP4 LT AND PUSH1 0x4E DUP5 LT PUSH1 0xB DUP5 LT AND OR ISZERO PUSH2 0x79E JUMPI POP DUP2 DUP2 EXP PUSH2 0x507 JUMP JUMPDEST PUSH2 0x7A8 DUP4 DUP4 PUSH2 0x6D9 JUMP JUMPDEST DUP1 PUSH1 0x0 NOT DIV DUP3 GT ISZERO PUSH2 0x7BC JUMPI PUSH2 0x7BC PUSH2 0x7E3 JUMP JUMPDEST MUL SWAP4 SWAP3 POP POP POP JUMP JUMPDEST PUSH1 0x0 DUP2 PUSH1 0x0 NOT DIV DUP4 GT DUP3 ISZERO ISZERO AND ISZERO PUSH2 0x7DE JUMPI PUSH2 0x7DE PUSH2 0x7E3 JUMP JUMPDEST POP MUL SWAP1 JUMP JUMPDEST PUSH4 0x4E487B71 PUSH1 0xE0 SHL PUSH1 0x0 MSTORE PUSH1 0x11 PUSH1 0x4 MSTORE PUSH1 0x24 PUSH1 0x0 REVERT INVALID LOG2 PUSH5 0x6970667358 0x22 SLT KECCAK256 0xEA 0x23 0xC3 LT MUL PUSH13 0xCF47A5EF4750EBC0B47F899D37 DUP15 0xE8 SWAP2 0xE7 PUSH7 0x916A186DE84275 0x1F PUSH5 0x736F6C6343 STOP ADDMOD SMOD STOP CALLER "
		},
		"gasEstimates": {
			"creation": {
				"codeDepositCost": "419000",
				"executionCost": "48929",
				"totalCost": "467929"
			},
			"external": {
				"bridgeTokens(address,uint256)": "infinite",
				"changeCommissionValue(uint256)": "48807",
				"commisionValue()": "2339",
				"commission()": "2383",
				"initializeBridge(address)": "infinite",
				"returnTokens(uint256,string)": "infinite"
			}
		},
		"methodIdentifiers": {
			"bridgeTokens(address,uint256)": "d411325b",
			"changeCommissionValue(uint256)": "4a9f3ab8",
			"commisionValue()": "8f118ece",
			"commission()": "e1489191",
			"initializeBridge(address)": "2065f2c0",
			"returnTokens(uint256,string)": "59bfc385"
		}
	},
	"abi": [
		{
			"inputs": [],
			"stateMutability": "nonpayable",
			"type": "constructor"
		},
		{
			"anonymous": false,
			"inputs": [
				{
					"indexed": true,
					"internalType": "uint256",
					"name": "timestamp",
					"type": "uint256"
				}
			],
			"name": "BridgeInitialized",
			"type": "event"
		},
		{
			"anonymous": false,
			"inputs": [
				{
					"indexed": true,
					"internalType": "address",
					"name": "requester",
					"type": "address"
				},
				{
					"indexed": false,
					"internalType": "uint256",
					"name": "amount",
					"type": "uint256"
				},
				{
					"indexed": false,
					"internalType": "string",
					"name": "addressTo",
					"type": "string"
				},
				{
					"indexed": false,
					"internalType": "uint256",
					"name": "timestamp",
					"type": "uint256"
				}
			],
			"name": "TokensReturned",
			"type": "event"
		},
		{
			"inputs": [
				{
					"internalType": "address",
					"name": "_requester",
					"type": "address"
				},
				{
					"internalType": "uint256",
					"name": "_bridgedAmount",
					"type": "uint256"
				}
			],
			"name": "bridgeTokens",
			"outputs": [
				{
					"internalType": "bool",
					"name": "",
					"type": "bool"
				}
			],
			"stateMutability": "nonpayable",
			"type": "function"
		},
		{
			"inputs": [
				{
					"internalType": "uint256",
					"name": "value",
					"type": "uint256"
				}
			],
			"name": "changeCommissionValue",
			"outputs": [],
			"stateMutability": "nonpayable",
			"type": "function"
		},
		{
			"inputs": [],
			"name": "commisionValue",
			"outputs": [
				{
					"internalType": "uint256",
					"name": "",
					"type": "uint256"
				}
			],
			"stateMutability": "view",
			"type": "function"
		},
		{
			"inputs": [],
			"name": "commission",
			"outputs": [
				{
					"internalType": "uint256",
					"name": "",
					"type": "uint256"
				}
			],
			"stateMutability": "view",
			"type": "function"
		},
		{
			"inputs": [
				{
					"internalType": "address",
					"name": "_childTokenAddress",
					"type": "address"
				}
			],
			"name": "initializeBridge",
			"outputs": [
				{
					"internalType": "bool",
					"name": "",
					"type": "bool"
				}
			],
			"stateMutability": "nonpayable",
			"type": "function"
		},
		{
			"inputs": [
				{
					"internalType": "uint256",
					"name": "_bridgedAmount",
					"type": "uint256"
				},
				{
					"internalType": "string",
					"name": "_addressTo",
					"type": "string"
				}
			],
			"name": "returnTokens",
			"outputs": [
				{
					"internalType": "bool",
					"name": "",
					"type": "bool"
				}
			],
			"stateMutability": "nonpayable",
			"type": "function"
		}
	]
}