{
  "data": {
    "bytecode": {
      "linkReferences": {},
      "object": "60a06040527fea255909e46a54d54255219468991c69ca0e659d00000000000000000000000060805234801561003457600080fd5b5061003e33610117565b600480546001600160a01b031916331790556001805481018155600280548083018255620f742f7f405787fa12a823e0f2b7631cc41b3ba8828b3321ca811111fa75cd3aa3bb5ace9182015581548084018355620f876c9082015581548084018355620fa2dd908201558154808401909255620fc64891015560038054808301825560008290527fc2575a0e9e593c00f959f8c92f12db2869c3395a3b0502d05e2516446f71f85b908101839055815480840183558101829055815480840183556006908201558154928301909155600c910155610167565b600080546001600160a01b038381166001600160a01b0319831681178455604051919092169283917f8be0079c531659141344cd1fd0a4f28419497f9722a3daafe3b4186f6b6457e09190a35050565b60805160601c611230610185600039600061033d01526112306000f3fe6080604052600436106100ec5760003560e01c8063a4e15db91161008a578063c606627211610059578063c606627214610283578063e627f2db14610296578063e99881e8146102ab578063f2fde38b146102c157600080fd5b8063a4e15db914610219578063a5ba1ca91461022e578063b69ef8a814610250578063c0d8012c1461026357600080fd5b80634b2c0706116100c65780634b2c0706146101b357806351cff8d9146101d3578063715018a6146101e65780638da5cb5b146101fb57600080fd5b80631bbc4b83146101305780631c7baa2b1461016d5780633b7b61881461019157600080fd5b3661012b57604080513381523460208201527f88a5966d370b9919b20f3e2c13ff65706f196a4e32cc2c12bf57088f88525874910160405180910390a1005b600080fd5b34801561013c57600080fd5b50600654610150906001600160a01b031681565b6040516001600160a01b0390911681526020015b60405180910390f35b34801561017957600080fd5b5061018360085481565b604051908152602001610164565b34801561019d57600080fd5b506101b16101ac36600461104a565b6102e1565b005b3480156101bf57600080fd5b506101836101ce366004611018565b610656565b6101b16101e1366004610fa6565b61067d565b3480156101f257600080fd5b506101b16106e0565b34801561020757600080fd5b506000546001600160a01b0316610150565b34801561022557600080fd5b50600754610183565b34801561023a57600080fd5b50610243610716565b604051610164919061106c565b34801561025c57600080fd5b5047610183565b34801561026f57600080fd5b5061018361027e366004611018565b6108cf565b6101b1610291366004610fca565b6108e4565b3480156102a257600080fd5b50600854610183565b3480156102b757600080fd5b5061018360075481565b3480156102cd57600080fd5b506101b16102dc366004610fa6565b610c9d565b6000821161032d5760405162461bcd60e51b815260206004820152601460248201527343616e6e6f74207374616b65206e6f7468696e6760601b60448201526064015b60405180910390fd5b600680546001600160a01b0319167f00000000000000000000000000000000000000000000000000000000000000006001600160a01b0316908117909155604051636eb1769f60e11b81523360048201819052306024830152919063dd62ed3e9060440160206040518083038186803b1580156103a957600080fd5b505afa1580156103bd573d6000803e3d6000fd5b505050506040513d601f19601f820116820180604052508101906103e19190611031565b83111561042d5760405183815230906001600160a01b038316907f19e39b03dd7e2296346ea66f3481e266fbb82054a9402e7f98d1ec8da119dca49060200160405180910390a3600080fd5b6006546040516323b872dd60e01b81526001600160a01b03838116600483015230602483015260448201869052909116906323b872dd90606401602060405180830381600087803b15801561048157600080fd5b505af1158015610495573d6000803e3d6000fd5b505050506040513d601f19601f820116820180604052508101906104b99190610ff6565b6105115760405162461bcd60e51b815260206004820152602360248201527f4661696c656420746f207472616e7366657220746f6b656e7320746f206c6f6360448201526235b2b960e91b6064820152608401610324565b3360009081526005602052604090205442816105335761053033610d38565b91505b600061053f8686610dad565b905060018381548110610554576105546111b9565b600091825260208083206040805160a0810182523381528084018c815281830189815260608084018e815260808086018c8152600160029b8c0290990189018054808b018255908d529b8a902096516005909c0290960180546001600160a01b039c8d166001600160a01b0319909116178155945197850197909755915197830197909755516003820155905160049091015580518b81529283018890528201869052918101889052918616917f3c76af92589cd2131d262c4692f269a83b5c1627bb3379ed08c899fe86b0d2a4910160405180910390a28560075461063a9190611118565b60075560085461064b908290611118565b600855505050505050565b60006003828154811061066b5761066b6111b9565b90600052602060002001549050919050565b6000546001600160a01b031633146106a75760405162461bcd60e51b8152600401610324906110e3565b6040516001600160a01b038216904780156108fc02916000818181858888f193505050501580156106dc573d6000803e3d6000fd5b5050565b6000546001600160a01b0316331461070a5760405162461bcd60e51b8152600401610324906110e3565b6107146000610dff565b565b336000908152600560205260408120546001805460609391908390811061073f5761073f6111b9565b90600052602060002090600202016001018054905067ffffffffffffffff81111561076c5761076c6111cf565b6040519080825280602002602001820160405280156107d857816020015b6107c56040518060a0016040528060006001600160a01b03168152602001600081526020016000815260200160008152602001600081525090565b81526020019060019003908161078a5790505b50905060005b600183815481106107f1576107f16111b9565b9060005260206000209060020201600101805490508110156108c85760018381548110610820576108206111b9565b90600052602060002090600202016001018181548110610842576108426111b9565b60009182526020918290206040805160a081018252600590930290910180546001600160a01b0316835260018101549383019390935260028301549082015260038201546060820152600490910154608082015282518390839081106108aa576108aa6111b9565b602002602001018190525080806108c090611188565b9150506107de565b5092915050565b60006002828154811061066b5761066b6111b9565b336000908152600560205260409020546109355760405162461bcd60e51b81526020600482015260126024820152715573657220686173206e6f207374616b652160701b6044820152606401610324565b600061094082610e4f565b9050478110156109c25760405162461bcd60e51b815260206004820152604160248201527f57652063616e6e6f742070726f6365737320796f75722072657175657374207260448201527f69676874206e6f772e20506c6561736520636f6d65206261636b206c617465726064820152601760f91b608482015260a401610324565b60065460405163095ea7b360e01b8152306004820152602481018390526001600160a01b039091169063095ea7b390604401602060405180830381600087803b158015610a0e57600080fd5b505af1158015610a22573d6000803e3d6000fd5b505050506040513d601f19601f82011682018060405250810190610a469190610ff6565b610a925760405162461bcd60e51b815260206004820152601860248201527f4661696c656420746f20617070726f766520746f6b656e7300000000000000006044820152606401610324565b6006546040516323b872dd60e01b81523060048201526001600160a01b03858116602483015260448201849052909116906323b872dd90606401602060405180830381600087803b158015610ae657600080fd5b505af1158015610afa573d6000803e3d6000fd5b505050506040513d601f19601f82011682018060405250810190610b1e9190610ff6565b610b7b5760405162461bcd60e51b815260206004820152602860248201527f4661696c656420746f207472616e7366657220746f6b656e7320746f2062656e604482015267656669636961727960c01b6064820152608401610324565b336000908152600560205260408120546001805491929183908110610ba257610ba26111b9565b90600052602060002090600202016001018481548110610bc457610bc46111b9565b60009182526020918290206040805160a081018252600590930290910180546001600160a01b031683526001810154938301849052600281015491830191909152600381015460608301526004015460808201529150610c25908490611171565b60208201526001805483908110610c3e57610c3e6111b9565b90600052602060002090600202016001018481548110610c6057610c606111b9565b60009182526020822060059091020180546001600160a01b0319168155600181018290556002810182905560038101829055600401555050505050565b6000546001600160a01b03163314610cc75760405162461bcd60e51b8152600401610324906110e3565b6001600160a01b038116610d2c5760405162461bcd60e51b815260206004820152602660248201527f4f776e61626c653a206e6577206f776e657220697320746865207a65726f206160448201526564647265737360d01b6064820152608401610324565b610d3581610dff565b50565b6001805481018082556000828152918291610d539190611171565b90508260018281548110610d6957610d696111b9565b6000918252602080832060029290920290910180546001600160a01b0319166001600160a01b03948516179055949091168152600590935260409092208290555090565b600080610db9836108cf565b90506000610dc684610656565b905084620f424082610dd88584611152565b610de29190611152565b610dec9190611130565b610df69190611171565b95945050505050565b600080546001600160a01b038381166001600160a01b0319831681178455604051919092169283917f8be0079c531659141344cd1fd0a4f28419497f9722a3daafe3b4186f6b6457e09190a35050565b336000908152600560205260408120546001805483919083908110610e7657610e766111b9565b90600052602060002090600202016001018481548110610e9857610e986111b9565b600091825260208083206040805160a081018252600590940290910180546001600160a01b03168452600181015492840183905260028101549184018290526003810154606085015260040154608084018190529294509092906201518090610f019042611171565b610f0b9190611130565b90506000610f1c8560600151610656565b610f2790601e611152565b905080821015610f905760405162461bcd60e51b815260206004820152602e60248201527f5374616b65206973206c6f636b656420666f722074686520696e697469616c2060448201526d1919599a5b9959081c195c9a5bd960921b6064820152608401610324565b610f9a8385611118565b98975050505050505050565b600060208284031215610fb857600080fd5b8135610fc3816111e5565b9392505050565b60008060408385031215610fdd57600080fd5b8235610fe8816111e5565b946020939093013593505050565b60006020828403121561100857600080fd5b81518015158114610fc357600080fd5b60006020828403121561102a57600080fd5b5035919050565b60006020828403121561104357600080fd5b5051919050565b6000806040838503121561105d57600080fd5b50508035926020909101359150565b602080825282518282018190526000919060409081850190868401855b828110156110d657815180516001600160a01b0316855286810151878601528581015186860152606080820151908601526080908101519085015260a09093019290850190600101611089565b5091979650505050505050565b6020808252818101527f4f776e61626c653a2063616c6c6572206973206e6f7420746865206f776e6572604082015260600190565b6000821982111561112b5761112b6111a3565b500190565b60008261114d57634e487b7160e01b600052601260045260246000fd5b500490565b600081600019048311821515161561116c5761116c6111a3565b500290565b600082821015611183576111836111a3565b500390565b600060001982141561119c5761119c6111a3565b5060010190565b634e487b7160e01b600052601160045260246000fd5b634e487b7160e01b600052603260045260246000fd5b634e487b7160e01b600052604160045260246000fd5b6001600160a01b0381168114610d3557600080fdfea2646970667358221220afa7ba5be6e5952ef9b7badfc1cb46590393ba2328c4521387721fd3b876e9e864736f6c63430008070033",
      "opcodes": "PUSH1 0xA0 PUSH1 0x40 MSTORE PUSH32 0xEA255909E46A54D54255219468991C69CA0E659D000000000000000000000000 PUSH1 0x80 MSTORE CALLVALUE DUP1 ISZERO PUSH2 0x34 JUMPI PUSH1 0x0 DUP1 REVERT JUMPDEST POP PUSH2 0x3E CALLER PUSH2 0x117 JUMP JUMPDEST PUSH1 0x4 DUP1 SLOAD PUSH1 0x1 PUSH1 0x1 PUSH1 0xA0 SHL SUB NOT AND CALLER OR SWAP1 SSTORE PUSH1 0x1 DUP1 SLOAD DUP2 ADD DUP2 SSTORE PUSH1 0x2 DUP1 SLOAD DUP1 DUP4 ADD DUP3 SSTORE PUSH3 0xF742F PUSH32 0x405787FA12A823E0F2B7631CC41B3BA8828B3321CA811111FA75CD3AA3BB5ACE SWAP2 DUP3 ADD SSTORE DUP2 SLOAD DUP1 DUP5 ADD DUP4 SSTORE PUSH3 0xF876C SWAP1 DUP3 ADD SSTORE DUP2 SLOAD DUP1 DUP5 ADD DUP4 SSTORE PUSH3 0xFA2DD SWAP1 DUP3 ADD SSTORE DUP2 SLOAD DUP1 DUP5 ADD SWAP1 SWAP3 SSTORE PUSH3 0xFC648 SWAP2 ADD SSTORE PUSH1 0x3 DUP1 SLOAD DUP1 DUP4 ADD DUP3 SSTORE PUSH1 0x0 DUP3 SWAP1 MSTORE PUSH32 0xC2575A0E9E593C00F959F8C92F12DB2869C3395A3B0502D05E2516446F71F85B SWAP1 DUP2 ADD DUP4 SWAP1 SSTORE DUP2 SLOAD DUP1 DUP5 ADD DUP4 SSTORE DUP2 ADD DUP3 SWAP1 SSTORE DUP2 SLOAD DUP1 DUP5 ADD DUP4 SSTORE PUSH1 0x6 SWAP1 DUP3 ADD SSTORE DUP2 SLOAD SWAP3 DUP4 ADD SWAP1 SWAP2 SSTORE PUSH1 0xC SWAP2 ADD SSTORE PUSH2 0x167 JUMP JUMPDEST PUSH1 0x0 DUP1 SLOAD PUSH1 0x1 PUSH1 0x1 PUSH1 0xA0 SHL SUB DUP4 DUP2 AND PUSH1 0x1 PUSH1 0x1 PUSH1 0xA0 SHL SUB NOT DUP4 AND DUP2 OR DUP5 SSTORE PUSH1 0x40 MLOAD SWAP2 SWAP1 SWAP3 AND SWAP3 DUP4 SWAP2 PUSH32 0x8BE0079C531659141344CD1FD0A4F28419497F9722A3DAAFE3B4186F6B6457E0 SWAP2 SWAP1 LOG3 POP POP JUMP JUMPDEST PUSH1 0x80 MLOAD PUSH1 0x60 SHR PUSH2 0x1230 PUSH2 0x185 PUSH1 0x0 CODECOPY PUSH1 0x0 PUSH2 0x33D ADD MSTORE PUSH2 0x1230 PUSH1 0x0 RETURN INVALID PUSH1 0x80 PUSH1 0x40 MSTORE PUSH1 0x4 CALLDATASIZE LT PUSH2 0xEC JUMPI PUSH1 0x0 CALLDATALOAD PUSH1 0xE0 SHR DUP1 PUSH4 0xA4E15DB9 GT PUSH2 0x8A JUMPI DUP1 PUSH4 0xC6066272 GT PUSH2 0x59 JUMPI DUP1 PUSH4 0xC6066272 EQ PUSH2 0x283 JUMPI DUP1 PUSH4 0xE627F2DB EQ PUSH2 0x296 JUMPI DUP1 PUSH4 0xE99881E8 EQ PUSH2 0x2AB JUMPI DUP1 PUSH4 0xF2FDE38B EQ PUSH2 0x2C1 JUMPI PUSH1 0x0 DUP1 REVERT JUMPDEST DUP1 PUSH4 0xA4E15DB9 EQ PUSH2 0x219 JUMPI DUP1 PUSH4 0xA5BA1CA9 EQ PUSH2 0x22E JUMPI DUP1 PUSH4 0xB69EF8A8 EQ PUSH2 0x250 JUMPI DUP1 PUSH4 0xC0D8012C EQ PUSH2 0x263 JUMPI PUSH1 0x0 DUP1 REVERT JUMPDEST DUP1 PUSH4 0x4B2C0706 GT PUSH2 0xC6 JUMPI DUP1 PUSH4 0x4B2C0706 EQ PUSH2 0x1B3 JUMPI DUP1 PUSH4 0x51CFF8D9 EQ PUSH2 0x1D3 JUMPI DUP1 PUSH4 0x715018A6 EQ PUSH2 0x1E6 JUMPI DUP1 PUSH4 0x8DA5CB5B EQ PUSH2 0x1FB JUMPI PUSH1 0x0 DUP1 REVERT JUMPDEST DUP1 PUSH4 0x1BBC4B83 EQ PUSH2 0x130 JUMPI DUP1 PUSH4 0x1C7BAA2B EQ PUSH2 0x16D JUMPI DUP1 PUSH4 0x3B7B6188 EQ PUSH2 0x191 JUMPI PUSH1 0x0 DUP1 REVERT JUMPDEST CALLDATASIZE PUSH2 0x12B JUMPI PUSH1 0x40 DUP1 MLOAD CALLER DUP2 MSTORE CALLVALUE PUSH1 0x20 DUP3 ADD MSTORE PUSH32 0x88A5966D370B9919B20F3E2C13FF65706F196A4E32CC2C12BF57088F88525874 SWAP2 ADD PUSH1 0x40 MLOAD DUP1 SWAP2 SUB SWAP1 LOG1 STOP JUMPDEST PUSH1 0x0 DUP1 REVERT JUMPDEST CALLVALUE DUP1 ISZERO PUSH2 0x13C JUMPI PUSH1 0x0 DUP1 REVERT JUMPDEST POP PUSH1 0x6 SLOAD PUSH2 0x150 SWAP1 PUSH1 0x1 PUSH1 0x1 PUSH1 0xA0 SHL SUB AND DUP2 JUMP JUMPDEST PUSH1 0x40 MLOAD PUSH1 0x1 PUSH1 0x1 PUSH1 0xA0 SHL SUB SWAP1 SWAP2 AND DUP2 MSTORE PUSH1 0x20 ADD JUMPDEST PUSH1 0x40 MLOAD DUP1 SWAP2 SUB SWAP1 RETURN JUMPDEST CALLVALUE DUP1 ISZERO PUSH2 0x179 JUMPI PUSH1 0x0 DUP1 REVERT JUMPDEST POP PUSH2 0x183 PUSH1 0x8 SLOAD DUP2 JUMP JUMPDEST PUSH1 0x40 MLOAD SWAP1 DUP2 MSTORE PUSH1 0x20 ADD PUSH2 0x164 JUMP JUMPDEST CALLVALUE DUP1 ISZERO PUSH2 0x19D JUMPI PUSH1 0x0 DUP1 REVERT JUMPDEST POP PUSH2 0x1B1 PUSH2 0x1AC CALLDATASIZE PUSH1 0x4 PUSH2 0x104A JUMP JUMPDEST PUSH2 0x2E1 JUMP JUMPDEST STOP JUMPDEST CALLVALUE DUP1 ISZERO PUSH2 0x1BF JUMPI PUSH1 0x0 DUP1 REVERT JUMPDEST POP PUSH2 0x183 PUSH2 0x1CE CALLDATASIZE PUSH1 0x4 PUSH2 0x1018 JUMP JUMPDEST PUSH2 0x656 JUMP JUMPDEST PUSH2 0x1B1 PUSH2 0x1E1 CALLDATASIZE PUSH1 0x4 PUSH2 0xFA6 JUMP JUMPDEST PUSH2 0x67D JUMP JUMPDEST CALLVALUE DUP1 ISZERO PUSH2 0x1F2 JUMPI PUSH1 0x0 DUP1 REVERT JUMPDEST POP PUSH2 0x1B1 PUSH2 0x6E0 JUMP JUMPDEST CALLVALUE DUP1 ISZERO PUSH2 0x207 JUMPI PUSH1 0x0 DUP1 REVERT JUMPDEST POP PUSH1 0x0 SLOAD PUSH1 0x1 PUSH1 0x1 PUSH1 0xA0 SHL SUB AND PUSH2 0x150 JUMP JUMPDEST CALLVALUE DUP1 ISZERO PUSH2 0x225 JUMPI PUSH1 0x0 DUP1 REVERT JUMPDEST POP PUSH1 0x7 SLOAD PUSH2 0x183 JUMP JUMPDEST CALLVALUE DUP1 ISZERO PUSH2 0x23A JUMPI PUSH1 0x0 DUP1 REVERT JUMPDEST POP PUSH2 0x243 PUSH2 0x716 JUMP JUMPDEST PUSH1 0x40 MLOAD PUSH2 0x164 SWAP2 SWAP1 PUSH2 0x106C JUMP JUMPDEST CALLVALUE DUP1 ISZERO PUSH2 0x25C JUMPI PUSH1 0x0 DUP1 REVERT JUMPDEST POP SELFBALANCE PUSH2 0x183 JUMP JUMPDEST CALLVALUE DUP1 ISZERO PUSH2 0x26F JUMPI PUSH1 0x0 DUP1 REVERT JUMPDEST POP PUSH2 0x183 PUSH2 0x27E CALLDATASIZE PUSH1 0x4 PUSH2 0x1018 JUMP JUMPDEST PUSH2 0x8CF JUMP JUMPDEST PUSH2 0x1B1 PUSH2 0x291 CALLDATASIZE PUSH1 0x4 PUSH2 0xFCA JUMP JUMPDEST PUSH2 0x8E4 JUMP JUMPDEST CALLVALUE DUP1 ISZERO PUSH2 0x2A2 JUMPI PUSH1 0x0 DUP1 REVERT JUMPDEST POP PUSH1 0x8 SLOAD PUSH2 0x183 JUMP JUMPDEST CALLVALUE DUP1 ISZERO PUSH2 0x2B7 JUMPI PUSH1 0x0 DUP1 REVERT JUMPDEST POP PUSH2 0x183 PUSH1 0x7 SLOAD DUP2 JUMP JUMPDEST CALLVALUE DUP1 ISZERO PUSH2 0x2CD JUMPI PUSH1 0x0 DUP1 REVERT JUMPDEST POP PUSH2 0x1B1 PUSH2 0x2DC CALLDATASIZE PUSH1 0x4 PUSH2 0xFA6 JUMP JUMPDEST PUSH2 0xC9D JUMP JUMPDEST PUSH1 0x0 DUP3 GT PUSH2 0x32D JUMPI PUSH1 0x40 MLOAD PUSH3 0x461BCD PUSH1 0xE5 SHL DUP2 MSTORE PUSH1 0x20 PUSH1 0x4 DUP3 ADD MSTORE PUSH1 0x14 PUSH1 0x24 DUP3 ADD MSTORE PUSH20 0x43616E6E6F74207374616B65206E6F7468696E67 PUSH1 0x60 SHL PUSH1 0x44 DUP3 ADD MSTORE PUSH1 0x64 ADD JUMPDEST PUSH1 0x40 MLOAD DUP1 SWAP2 SUB SWAP1 REVERT JUMPDEST PUSH1 0x6 DUP1 SLOAD PUSH1 0x1 PUSH1 0x1 PUSH1 0xA0 SHL SUB NOT AND PUSH32 0x0 PUSH1 0x1 PUSH1 0x1 PUSH1 0xA0 SHL SUB AND SWAP1 DUP2 OR SWAP1 SWAP2 SSTORE PUSH1 0x40 MLOAD PUSH4 0x6EB1769F PUSH1 0xE1 SHL DUP2 MSTORE CALLER PUSH1 0x4 DUP3 ADD DUP2 SWAP1 MSTORE ADDRESS PUSH1 0x24 DUP4 ADD MSTORE SWAP2 SWAP1 PUSH4 0xDD62ED3E SWAP1 PUSH1 0x44 ADD PUSH1 0x20 PUSH1 0x40 MLOAD DUP1 DUP4 SUB DUP2 DUP7 DUP1 EXTCODESIZE ISZERO DUP1 ISZERO PUSH2 0x3A9 JUMPI PUSH1 0x0 DUP1 REVERT JUMPDEST POP GAS STATICCALL ISZERO DUP1 ISZERO PUSH2 0x3BD JUMPI RETURNDATASIZE PUSH1 0x0 DUP1 RETURNDATACOPY RETURNDATASIZE PUSH1 0x0 REVERT JUMPDEST POP POP POP POP PUSH1 0x40 MLOAD RETURNDATASIZE PUSH1 0x1F NOT PUSH1 0x1F DUP3 ADD AND DUP3 ADD DUP1 PUSH1 0x40 MSTORE POP DUP2 ADD SWAP1 PUSH2 0x3E1 SWAP2 SWAP1 PUSH2 0x1031 JUMP JUMPDEST DUP4 GT ISZERO PUSH2 0x42D JUMPI PUSH1 0x40 MLOAD DUP4 DUP2 MSTORE ADDRESS SWAP1 PUSH1 0x1 PUSH1 0x1 PUSH1 0xA0 SHL SUB DUP4 AND SWAP1 PUSH32 0x19E39B03DD7E2296346EA66F3481E266FBB82054A9402E7F98D1EC8DA119DCA4 SWAP1 PUSH1 0x20 ADD PUSH1 0x40 MLOAD DUP1 SWAP2 SUB SWAP1 LOG3 PUSH1 0x0 DUP1 REVERT JUMPDEST PUSH1 0x6 SLOAD PUSH1 0x40 MLOAD PUSH4 0x23B872DD PUSH1 0xE0 SHL DUP2 MSTORE PUSH1 0x1 PUSH1 0x1 PUSH1 0xA0 SHL SUB DUP4 DUP2 AND PUSH1 0x4 DUP4 ADD MSTORE ADDRESS PUSH1 0x24 DUP4 ADD MSTORE PUSH1 0x44 DUP3 ADD DUP7 SWAP1 MSTORE SWAP1 SWAP2 AND SWAP1 PUSH4 0x23B872DD SWAP1 PUSH1 0x64 ADD PUSH1 0x20 PUSH1 0x40 MLOAD DUP1 DUP4 SUB DUP2 PUSH1 0x0 DUP8 DUP1 EXTCODESIZE ISZERO DUP1 ISZERO PUSH2 0x481 JUMPI PUSH1 0x0 DUP1 REVERT JUMPDEST POP GAS CALL ISZERO DUP1 ISZERO PUSH2 0x495 JUMPI RETURNDATASIZE PUSH1 0x0 DUP1 RETURNDATACOPY RETURNDATASIZE PUSH1 0x0 REVERT JUMPDEST POP POP POP POP PUSH1 0x40 MLOAD RETURNDATASIZE PUSH1 0x1F NOT PUSH1 0x1F DUP3 ADD AND DUP3 ADD DUP1 PUSH1 0x40 MSTORE POP DUP2 ADD SWAP1 PUSH2 0x4B9 SWAP2 SWAP1 PUSH2 0xFF6 JUMP JUMPDEST PUSH2 0x511 JUMPI PUSH1 0x40 MLOAD PUSH3 0x461BCD PUSH1 0xE5 SHL DUP2 MSTORE PUSH1 0x20 PUSH1 0x4 DUP3 ADD MSTORE PUSH1 0x23 PUSH1 0x24 DUP3 ADD MSTORE PUSH32 0x4661696C656420746F207472616E7366657220746F6B656E7320746F206C6F63 PUSH1 0x44 DUP3 ADD MSTORE PUSH3 0x35B2B9 PUSH1 0xE9 SHL PUSH1 0x64 DUP3 ADD MSTORE PUSH1 0x84 ADD PUSH2 0x324 JUMP JUMPDEST CALLER PUSH1 0x0 SWAP1 DUP2 MSTORE PUSH1 0x5 PUSH1 0x20 MSTORE PUSH1 0x40 SWAP1 KECCAK256 SLOAD TIMESTAMP DUP2 PUSH2 0x533 JUMPI PUSH2 0x530 CALLER PUSH2 0xD38 JUMP JUMPDEST SWAP2 POP JUMPDEST PUSH1 0x0 PUSH2 0x53F DUP7 DUP7 PUSH2 0xDAD JUMP JUMPDEST SWAP1 POP PUSH1 0x1 DUP4 DUP2 SLOAD DUP2 LT PUSH2 0x554 JUMPI PUSH2 0x554 PUSH2 0x11B9 JUMP JUMPDEST PUSH1 0x0 SWAP2 DUP3 MSTORE PUSH1 0x20 DUP1 DUP4 KECCAK256 PUSH1 0x40 DUP1 MLOAD PUSH1 0xA0 DUP2 ADD DUP3 MSTORE CALLER DUP2 MSTORE DUP1 DUP5 ADD DUP13 DUP2 MSTORE DUP2 DUP4 ADD DUP10 DUP2 MSTORE PUSH1 0x60 DUP1 DUP5 ADD DUP15 DUP2 MSTORE PUSH1 0x80 DUP1 DUP7 ADD DUP13 DUP2 MSTORE PUSH1 0x1 PUSH1 0x2 SWAP12 DUP13 MUL SWAP1 SWAP10 ADD DUP10 ADD DUP1 SLOAD DUP1 DUP12 ADD DUP3 SSTORE SWAP1 DUP14 MSTORE SWAP12 DUP11 SWAP1 KECCAK256 SWAP7 MLOAD PUSH1 0x5 SWAP1 SWAP13 MUL SWAP1 SWAP7 ADD DUP1 SLOAD PUSH1 0x1 PUSH1 0x1 PUSH1 0xA0 SHL SUB SWAP13 DUP14 AND PUSH1 0x1 PUSH1 0x1 PUSH1 0xA0 SHL SUB NOT SWAP1 SWAP2 AND OR DUP2 SSTORE SWAP5 MLOAD SWAP8 DUP6 ADD SWAP8 SWAP1 SWAP8 SSTORE SWAP2 MLOAD SWAP8 DUP4 ADD SWAP8 SWAP1 SWAP8 SSTORE MLOAD PUSH1 0x3 DUP3 ADD SSTORE SWAP1 MLOAD PUSH1 0x4 SWAP1 SWAP2 ADD SSTORE DUP1 MLOAD DUP12 DUP2 MSTORE SWAP3 DUP4 ADD DUP9 SWAP1 MSTORE DUP3 ADD DUP7 SWAP1 MSTORE SWAP2 DUP2 ADD DUP9 SWAP1 MSTORE SWAP2 DUP7 AND SWAP2 PUSH32 0x3C76AF92589CD2131D262C4692F269A83B5C1627BB3379ED08C899FE86B0D2A4 SWAP2 ADD PUSH1 0x40 MLOAD DUP1 SWAP2 SUB SWAP1 LOG2 DUP6 PUSH1 0x7 SLOAD PUSH2 0x63A SWAP2 SWAP1 PUSH2 0x1118 JUMP JUMPDEST PUSH1 0x7 SSTORE PUSH1 0x8 SLOAD PUSH2 0x64B SWAP1 DUP3 SWAP1 PUSH2 0x1118 JUMP JUMPDEST PUSH1 0x8 SSTORE POP POP POP POP POP POP JUMP JUMPDEST PUSH1 0x0 PUSH1 0x3 DUP3 DUP2 SLOAD DUP2 LT PUSH2 0x66B JUMPI PUSH2 0x66B PUSH2 0x11B9 JUMP JUMPDEST SWAP1 PUSH1 0x0 MSTORE PUSH1 0x20 PUSH1 0x0 KECCAK256 ADD SLOAD SWAP1 POP SWAP2 SWAP1 POP JUMP JUMPDEST PUSH1 0x0 SLOAD PUSH1 0x1 PUSH1 0x1 PUSH1 0xA0 SHL SUB AND CALLER EQ PUSH2 0x6A7 JUMPI PUSH1 0x40 MLOAD PUSH3 0x461BCD PUSH1 0xE5 SHL DUP2 MSTORE PUSH1 0x4 ADD PUSH2 0x324 SWAP1 PUSH2 0x10E3 JUMP JUMPDEST PUSH1 0x40 MLOAD PUSH1 0x1 PUSH1 0x1 PUSH1 0xA0 SHL SUB DUP3 AND SWAP1 SELFBALANCE DUP1 ISZERO PUSH2 0x8FC MUL SWAP2 PUSH1 0x0 DUP2 DUP2 DUP2 DUP6 DUP9 DUP9 CALL SWAP4 POP POP POP POP ISZERO DUP1 ISZERO PUSH2 0x6DC JUMPI RETURNDATASIZE PUSH1 0x0 DUP1 RETURNDATACOPY RETURNDATASIZE PUSH1 0x0 REVERT JUMPDEST POP POP JUMP JUMPDEST PUSH1 0x0 SLOAD PUSH1 0x1 PUSH1 0x1 PUSH1 0xA0 SHL SUB AND CALLER EQ PUSH2 0x70A JUMPI PUSH1 0x40 MLOAD PUSH3 0x461BCD PUSH1 0xE5 SHL DUP2 MSTORE PUSH1 0x4 ADD PUSH2 0x324 SWAP1 PUSH2 0x10E3 JUMP JUMPDEST PUSH2 0x714 PUSH1 0x0 PUSH2 0xDFF JUMP JUMPDEST JUMP JUMPDEST CALLER PUSH1 0x0 SWAP1 DUP2 MSTORE PUSH1 0x5 PUSH1 0x20 MSTORE PUSH1 0x40 DUP2 KECCAK256 SLOAD PUSH1 0x1 DUP1 SLOAD PUSH1 0x60 SWAP4 SWAP2 SWAP1 DUP4 SWAP1 DUP2 LT PUSH2 0x73F JUMPI PUSH2 0x73F PUSH2 0x11B9 JUMP JUMPDEST SWAP1 PUSH1 0x0 MSTORE PUSH1 0x20 PUSH1 0x0 KECCAK256 SWAP1 PUSH1 0x2 MUL ADD PUSH1 0x1 ADD DUP1 SLOAD SWAP1 POP PUSH8 0xFFFFFFFFFFFFFFFF DUP2 GT ISZERO PUSH2 0x76C JUMPI PUSH2 0x76C PUSH2 0x11CF JUMP JUMPDEST PUSH1 0x40 MLOAD SWAP1 DUP1 DUP3 MSTORE DUP1 PUSH1 0x20 MUL PUSH1 0x20 ADD DUP3 ADD PUSH1 0x40 MSTORE DUP1 ISZERO PUSH2 0x7D8 JUMPI DUP2 PUSH1 0x20 ADD JUMPDEST PUSH2 0x7C5 PUSH1 0x40 MLOAD DUP1 PUSH1 0xA0 ADD PUSH1 0x40 MSTORE DUP1 PUSH1 0x0 PUSH1 0x1 PUSH1 0x1 PUSH1 0xA0 SHL SUB AND DUP2 MSTORE PUSH1 0x20 ADD PUSH1 0x0 DUP2 MSTORE PUSH1 0x20 ADD PUSH1 0x0 DUP2 MSTORE PUSH1 0x20 ADD PUSH1 0x0 DUP2 MSTORE PUSH1 0x20 ADD PUSH1 0x0 DUP2 MSTORE POP SWAP1 JUMP JUMPDEST DUP2 MSTORE PUSH1 0x20 ADD SWAP1 PUSH1 0x1 SWAP1 SUB SWAP1 DUP2 PUSH2 0x78A JUMPI SWAP1 POP JUMPDEST POP SWAP1 POP PUSH1 0x0 JUMPDEST PUSH1 0x1 DUP4 DUP2 SLOAD DUP2 LT PUSH2 0x7F1 JUMPI PUSH2 0x7F1 PUSH2 0x11B9 JUMP JUMPDEST SWAP1 PUSH1 0x0 MSTORE PUSH1 0x20 PUSH1 0x0 KECCAK256 SWAP1 PUSH1 0x2 MUL ADD PUSH1 0x1 ADD DUP1 SLOAD SWAP1 POP DUP2 LT ISZERO PUSH2 0x8C8 JUMPI PUSH1 0x1 DUP4 DUP2 SLOAD DUP2 LT PUSH2 0x820 JUMPI PUSH2 0x820 PUSH2 0x11B9 JUMP JUMPDEST SWAP1 PUSH1 0x0 MSTORE PUSH1 0x20 PUSH1 0x0 KECCAK256 SWAP1 PUSH1 0x2 MUL ADD PUSH1 0x1 ADD DUP2 DUP2 SLOAD DUP2 LT PUSH2 0x842 JUMPI PUSH2 0x842 PUSH2 0x11B9 JUMP JUMPDEST PUSH1 0x0 SWAP2 DUP3 MSTORE PUSH1 0x20 SWAP2 DUP3 SWAP1 KECCAK256 PUSH1 0x40 DUP1 MLOAD PUSH1 0xA0 DUP2 ADD DUP3 MSTORE PUSH1 0x5 SWAP1 SWAP4 MUL SWAP1 SWAP2 ADD DUP1 SLOAD PUSH1 0x1 PUSH1 0x1 PUSH1 0xA0 SHL SUB AND DUP4 MSTORE PUSH1 0x1 DUP2 ADD SLOAD SWAP4 DUP4 ADD SWAP4 SWAP1 SWAP4 MSTORE PUSH1 0x2 DUP4 ADD SLOAD SWAP1 DUP3 ADD MSTORE PUSH1 0x3 DUP3 ADD SLOAD PUSH1 0x60 DUP3 ADD MSTORE PUSH1 0x4 SWAP1 SWAP2 ADD SLOAD PUSH1 0x80 DUP3 ADD MSTORE DUP3 MLOAD DUP4 SWAP1 DUP4 SWAP1 DUP2 LT PUSH2 0x8AA JUMPI PUSH2 0x8AA PUSH2 0x11B9 JUMP JUMPDEST PUSH1 0x20 MUL PUSH1 0x20 ADD ADD DUP2 SWAP1 MSTORE POP DUP1 DUP1 PUSH2 0x8C0 SWAP1 PUSH2 0x1188 JUMP JUMPDEST SWAP2 POP POP PUSH2 0x7DE JUMP JUMPDEST POP SWAP3 SWAP2 POP POP JUMP JUMPDEST PUSH1 0x0 PUSH1 0x2 DUP3 DUP2 SLOAD DUP2 LT PUSH2 0x66B JUMPI PUSH2 0x66B PUSH2 0x11B9 JUMP JUMPDEST CALLER PUSH1 0x0 SWAP1 DUP2 MSTORE PUSH1 0x5 PUSH1 0x20 MSTORE PUSH1 0x40 SWAP1 KECCAK256 SLOAD PUSH2 0x935 JUMPI PUSH1 0x40 MLOAD PUSH3 0x461BCD PUSH1 0xE5 SHL DUP2 MSTORE PUSH1 0x20 PUSH1 0x4 DUP3 ADD MSTORE PUSH1 0x12 PUSH1 0x24 DUP3 ADD MSTORE PUSH18 0x5573657220686173206E6F207374616B6521 PUSH1 0x70 SHL PUSH1 0x44 DUP3 ADD MSTORE PUSH1 0x64 ADD PUSH2 0x324 JUMP JUMPDEST PUSH1 0x0 PUSH2 0x940 DUP3 PUSH2 0xE4F JUMP JUMPDEST SWAP1 POP SELFBALANCE DUP2 LT ISZERO PUSH2 0x9C2 JUMPI PUSH1 0x40 MLOAD PUSH3 0x461BCD PUSH1 0xE5 SHL DUP2 MSTORE PUSH1 0x20 PUSH1 0x4 DUP3 ADD MSTORE PUSH1 0x41 PUSH1 0x24 DUP3 ADD MSTORE PUSH32 0x57652063616E6E6F742070726F6365737320796F757220726571756573742072 PUSH1 0x44 DUP3 ADD MSTORE PUSH32 0x69676874206E6F772E20506C6561736520636F6D65206261636B206C61746572 PUSH1 0x64 DUP3 ADD MSTORE PUSH1 0x17 PUSH1 0xF9 SHL PUSH1 0x84 DUP3 ADD MSTORE PUSH1 0xA4 ADD PUSH2 0x324 JUMP JUMPDEST PUSH1 0x6 SLOAD PUSH1 0x40 MLOAD PUSH4 0x95EA7B3 PUSH1 0xE0 SHL DUP2 MSTORE ADDRESS PUSH1 0x4 DUP3 ADD MSTORE PUSH1 0x24 DUP2 ADD DUP4 SWAP1 MSTORE PUSH1 0x1 PUSH1 0x1 PUSH1 0xA0 SHL SUB SWAP1 SWAP2 AND SWAP1 PUSH4 0x95EA7B3 SWAP1 PUSH1 0x44 ADD PUSH1 0x20 PUSH1 0x40 MLOAD DUP1 DUP4 SUB DUP2 PUSH1 0x0 DUP8 DUP1 EXTCODESIZE ISZERO DUP1 ISZERO PUSH2 0xA0E JUMPI PUSH1 0x0 DUP1 REVERT JUMPDEST POP GAS CALL ISZERO DUP1 ISZERO PUSH2 0xA22 JUMPI RETURNDATASIZE PUSH1 0x0 DUP1 RETURNDATACOPY RETURNDATASIZE PUSH1 0x0 REVERT JUMPDEST POP POP POP POP PUSH1 0x40 MLOAD RETURNDATASIZE PUSH1 0x1F NOT PUSH1 0x1F DUP3 ADD AND DUP3 ADD DUP1 PUSH1 0x40 MSTORE POP DUP2 ADD SWAP1 PUSH2 0xA46 SWAP2 SWAP1 PUSH2 0xFF6 JUMP JUMPDEST PUSH2 0xA92 JUMPI PUSH1 0x40 MLOAD PUSH3 0x461BCD PUSH1 0xE5 SHL DUP2 MSTORE PUSH1 0x20 PUSH1 0x4 DUP3 ADD MSTORE PUSH1 0x18 PUSH1 0x24 DUP3 ADD MSTORE PUSH32 0x4661696C656420746F20617070726F766520746F6B656E730000000000000000 PUSH1 0x44 DUP3 ADD MSTORE PUSH1 0x64 ADD PUSH2 0x324 JUMP JUMPDEST PUSH1 0x6 SLOAD PUSH1 0x40 MLOAD PUSH4 0x23B872DD PUSH1 0xE0 SHL DUP2 MSTORE ADDRESS PUSH1 0x4 DUP3 ADD MSTORE PUSH1 0x1 PUSH1 0x1 PUSH1 0xA0 SHL SUB DUP6 DUP2 AND PUSH1 0x24 DUP4 ADD MSTORE PUSH1 0x44 DUP3 ADD DUP5 SWAP1 MSTORE SWAP1 SWAP2 AND SWAP1 PUSH4 0x23B872DD SWAP1 PUSH1 0x64 ADD PUSH1 0x20 PUSH1 0x40 MLOAD DUP1 DUP4 SUB DUP2 PUSH1 0x0 DUP8 DUP1 EXTCODESIZE ISZERO DUP1 ISZERO PUSH2 0xAE6 JUMPI PUSH1 0x0 DUP1 REVERT JUMPDEST POP GAS CALL ISZERO DUP1 ISZERO PUSH2 0xAFA JUMPI RETURNDATASIZE PUSH1 0x0 DUP1 RETURNDATACOPY RETURNDATASIZE PUSH1 0x0 REVERT JUMPDEST POP POP POP POP PUSH1 0x40 MLOAD RETURNDATASIZE PUSH1 0x1F NOT PUSH1 0x1F DUP3 ADD AND DUP3 ADD DUP1 PUSH1 0x40 MSTORE POP DUP2 ADD SWAP1 PUSH2 0xB1E SWAP2 SWAP1 PUSH2 0xFF6 JUMP JUMPDEST PUSH2 0xB7B JUMPI PUSH1 0x40 MLOAD PUSH3 0x461BCD PUSH1 0xE5 SHL DUP2 MSTORE PUSH1 0x20 PUSH1 0x4 DUP3 ADD MSTORE PUSH1 0x28 PUSH1 0x24 DUP3 ADD MSTORE PUSH32 0x4661696C656420746F207472616E7366657220746F6B656E7320746F2062656E PUSH1 0x44 DUP3 ADD MSTORE PUSH8 0x6566696369617279 PUSH1 0xC0 SHL PUSH1 0x64 DUP3 ADD MSTORE PUSH1 0x84 ADD PUSH2 0x324 JUMP JUMPDEST CALLER PUSH1 0x0 SWAP1 DUP2 MSTORE PUSH1 0x5 PUSH1 0x20 MSTORE PUSH1 0x40 DUP2 KECCAK256 SLOAD PUSH1 0x1 DUP1 SLOAD SWAP2 SWAP3 SWAP2 DUP4 SWAP1 DUP2 LT PUSH2 0xBA2 JUMPI PUSH2 0xBA2 PUSH2 0x11B9 JUMP JUMPDEST SWAP1 PUSH1 0x0 MSTORE PUSH1 0x20 PUSH1 0x0 KECCAK256 SWAP1 PUSH1 0x2 MUL ADD PUSH1 0x1 ADD DUP5 DUP2 SLOAD DUP2 LT PUSH2 0xBC4 JUMPI PUSH2 0xBC4 PUSH2 0x11B9 JUMP JUMPDEST PUSH1 0x0 SWAP2 DUP3 MSTORE PUSH1 0x20 SWAP2 DUP3 SWAP1 KECCAK256 PUSH1 0x40 DUP1 MLOAD PUSH1 0xA0 DUP2 ADD DUP3 MSTORE PUSH1 0x5 SWAP1 SWAP4 MUL SWAP1 SWAP2 ADD DUP1 SLOAD PUSH1 0x1 PUSH1 0x1 PUSH1 0xA0 SHL SUB AND DUP4 MSTORE PUSH1 0x1 DUP2 ADD SLOAD SWAP4 DUP4 ADD DUP5 SWAP1 MSTORE PUSH1 0x2 DUP2 ADD SLOAD SWAP2 DUP4 ADD SWAP2 SWAP1 SWAP2 MSTORE PUSH1 0x3 DUP2 ADD SLOAD PUSH1 0x60 DUP4 ADD MSTORE PUSH1 0x4 ADD SLOAD PUSH1 0x80 DUP3 ADD MSTORE SWAP2 POP PUSH2 0xC25 SWAP1 DUP5 SWAP1 PUSH2 0x1171 JUMP JUMPDEST PUSH1 0x20 DUP3 ADD MSTORE PUSH1 0x1 DUP1 SLOAD DUP4 SWAP1 DUP2 LT PUSH2 0xC3E JUMPI PUSH2 0xC3E PUSH2 0x11B9 JUMP JUMPDEST SWAP1 PUSH1 0x0 MSTORE PUSH1 0x20 PUSH1 0x0 KECCAK256 SWAP1 PUSH1 0x2 MUL ADD PUSH1 0x1 ADD DUP5 DUP2 SLOAD DUP2 LT PUSH2 0xC60 JUMPI PUSH2 0xC60 PUSH2 0x11B9 JUMP JUMPDEST PUSH1 0x0 SWAP2 DUP3 MSTORE PUSH1 0x20 DUP3 KECCAK256 PUSH1 0x5 SWAP1 SWAP2 MUL ADD DUP1 SLOAD PUSH1 0x1 PUSH1 0x1 PUSH1 0xA0 SHL SUB NOT AND DUP2 SSTORE PUSH1 0x1 DUP2 ADD DUP3 SWAP1 SSTORE PUSH1 0x2 DUP2 ADD DUP3 SWAP1 SSTORE PUSH1 0x3 DUP2 ADD DUP3 SWAP1 SSTORE PUSH1 0x4 ADD SSTORE POP POP POP POP POP JUMP JUMPDEST PUSH1 0x0 SLOAD PUSH1 0x1 PUSH1 0x1 PUSH1 0xA0 SHL SUB AND CALLER EQ PUSH2 0xCC7 JUMPI PUSH1 0x40 MLOAD PUSH3 0x461BCD PUSH1 0xE5 SHL DUP2 MSTORE PUSH1 0x4 ADD PUSH2 0x324 SWAP1 PUSH2 0x10E3 JUMP JUMPDEST PUSH1 0x1 PUSH1 0x1 PUSH1 0xA0 SHL SUB DUP2 AND PUSH2 0xD2C JUMPI PUSH1 0x40 MLOAD PUSH3 0x461BCD PUSH1 0xE5 SHL DUP2 MSTORE PUSH1 0x20 PUSH1 0x4 DUP3 ADD MSTORE PUSH1 0x26 PUSH1 0x24 DUP3 ADD MSTORE PUSH32 0x4F776E61626C653A206E6577206F776E657220697320746865207A65726F2061 PUSH1 0x44 DUP3 ADD MSTORE PUSH6 0x646472657373 PUSH1 0xD0 SHL PUSH1 0x64 DUP3 ADD MSTORE PUSH1 0x84 ADD PUSH2 0x324 JUMP JUMPDEST PUSH2 0xD35 DUP2 PUSH2 0xDFF JUMP JUMPDEST POP JUMP JUMPDEST PUSH1 0x1 DUP1 SLOAD DUP2 ADD DUP1 DUP3 SSTORE PUSH1 0x0 DUP3 DUP2 MSTORE SWAP2 DUP3 SWAP2 PUSH2 0xD53 SWAP2 SWAP1 PUSH2 0x1171 JUMP JUMPDEST SWAP1 POP DUP3 PUSH1 0x1 DUP3 DUP2 SLOAD DUP2 LT PUSH2 0xD69 JUMPI PUSH2 0xD69 PUSH2 0x11B9 JUMP JUMPDEST PUSH1 0x0 SWAP2 DUP3 MSTORE PUSH1 0x20 DUP1 DUP4 KECCAK256 PUSH1 0x2 SWAP3 SWAP1 SWAP3 MUL SWAP1 SWAP2 ADD DUP1 SLOAD PUSH1 0x1 PUSH1 0x1 PUSH1 0xA0 SHL SUB NOT AND PUSH1 0x1 PUSH1 0x1 PUSH1 0xA0 SHL SUB SWAP5 DUP6 AND OR SWAP1 SSTORE SWAP5 SWAP1 SWAP2 AND DUP2 MSTORE PUSH1 0x5 SWAP1 SWAP4 MSTORE PUSH1 0x40 SWAP1 SWAP3 KECCAK256 DUP3 SWAP1 SSTORE POP SWAP1 JUMP JUMPDEST PUSH1 0x0 DUP1 PUSH2 0xDB9 DUP4 PUSH2 0x8CF JUMP JUMPDEST SWAP1 POP PUSH1 0x0 PUSH2 0xDC6 DUP5 PUSH2 0x656 JUMP JUMPDEST SWAP1 POP DUP5 PUSH3 0xF4240 DUP3 PUSH2 0xDD8 DUP6 DUP5 PUSH2 0x1152 JUMP JUMPDEST PUSH2 0xDE2 SWAP2 SWAP1 PUSH2 0x1152 JUMP JUMPDEST PUSH2 0xDEC SWAP2 SWAP1 PUSH2 0x1130 JUMP JUMPDEST PUSH2 0xDF6 SWAP2 SWAP1 PUSH2 0x1171 JUMP JUMPDEST SWAP6 SWAP5 POP POP POP POP POP JUMP JUMPDEST PUSH1 0x0 DUP1 SLOAD PUSH1 0x1 PUSH1 0x1 PUSH1 0xA0 SHL SUB DUP4 DUP2 AND PUSH1 0x1 PUSH1 0x1 PUSH1 0xA0 SHL SUB NOT DUP4 AND DUP2 OR DUP5 SSTORE PUSH1 0x40 MLOAD SWAP2 SWAP1 SWAP3 AND SWAP3 DUP4 SWAP2 PUSH32 0x8BE0079C531659141344CD1FD0A4F28419497F9722A3DAAFE3B4186F6B6457E0 SWAP2 SWAP1 LOG3 POP POP JUMP JUMPDEST CALLER PUSH1 0x0 SWAP1 DUP2 MSTORE PUSH1 0x5 PUSH1 0x20 MSTORE PUSH1 0x40 DUP2 KECCAK256 SLOAD PUSH1 0x1 DUP1 SLOAD DUP4 SWAP2 SWAP1 DUP4 SWAP1 DUP2 LT PUSH2 0xE76 JUMPI PUSH2 0xE76 PUSH2 0x11B9 JUMP JUMPDEST SWAP1 PUSH1 0x0 MSTORE PUSH1 0x20 PUSH1 0x0 KECCAK256 SWAP1 PUSH1 0x2 MUL ADD PUSH1 0x1 ADD DUP5 DUP2 SLOAD DUP2 LT PUSH2 0xE98 JUMPI PUSH2 0xE98 PUSH2 0x11B9 JUMP JUMPDEST PUSH1 0x0 SWAP2 DUP3 MSTORE PUSH1 0x20 DUP1 DUP4 KECCAK256 PUSH1 0x40 DUP1 MLOAD PUSH1 0xA0 DUP2 ADD DUP3 MSTORE PUSH1 0x5 SWAP1 SWAP5 MUL SWAP1 SWAP2 ADD DUP1 SLOAD PUSH1 0x1 PUSH1 0x1 PUSH1 0xA0 SHL SUB AND DUP5 MSTORE PUSH1 0x1 DUP2 ADD SLOAD SWAP3 DUP5 ADD DUP4 SWAP1 MSTORE PUSH1 0x2 DUP2 ADD SLOAD SWAP2 DUP5 ADD DUP3 SWAP1 MSTORE PUSH1 0x3 DUP2 ADD SLOAD PUSH1 0x60 DUP6 ADD MSTORE PUSH1 0x4 ADD SLOAD PUSH1 0x80 DUP5 ADD DUP2 SWAP1 MSTORE SWAP3 SWAP5 POP SWAP1 SWAP3 SWAP1 PUSH3 0x15180 SWAP1 PUSH2 0xF01 SWAP1 TIMESTAMP PUSH2 0x1171 JUMP JUMPDEST PUSH2 0xF0B SWAP2 SWAP1 PUSH2 0x1130 JUMP JUMPDEST SWAP1 POP PUSH1 0x0 PUSH2 0xF1C DUP6 PUSH1 0x60 ADD MLOAD PUSH2 0x656 JUMP JUMPDEST PUSH2 0xF27 SWAP1 PUSH1 0x1E PUSH2 0x1152 JUMP JUMPDEST SWAP1 POP DUP1 DUP3 LT ISZERO PUSH2 0xF90 JUMPI PUSH1 0x40 MLOAD PUSH3 0x461BCD PUSH1 0xE5 SHL DUP2 MSTORE PUSH1 0x20 PUSH1 0x4 DUP3 ADD MSTORE PUSH1 0x2E PUSH1 0x24 DUP3 ADD MSTORE PUSH32 0x5374616B65206973206C6F636B656420666F722074686520696E697469616C20 PUSH1 0x44 DUP3 ADD MSTORE PUSH14 0x1919599A5B9959081C195C9A5BD9 PUSH1 0x92 SHL PUSH1 0x64 DUP3 ADD MSTORE PUSH1 0x84 ADD PUSH2 0x324 JUMP JUMPDEST PUSH2 0xF9A DUP4 DUP6 PUSH2 0x1118 JUMP JUMPDEST SWAP9 SWAP8 POP POP POP POP POP POP POP POP JUMP JUMPDEST PUSH1 0x0 PUSH1 0x20 DUP3 DUP5 SUB SLT ISZERO PUSH2 0xFB8 JUMPI PUSH1 0x0 DUP1 REVERT JUMPDEST DUP2 CALLDATALOAD PUSH2 0xFC3 DUP2 PUSH2 0x11E5 JUMP JUMPDEST SWAP4 SWAP3 POP POP POP JUMP JUMPDEST PUSH1 0x0 DUP1 PUSH1 0x40 DUP4 DUP6 SUB SLT ISZERO PUSH2 0xFDD JUMPI PUSH1 0x0 DUP1 REVERT JUMPDEST DUP3 CALLDATALOAD PUSH2 0xFE8 DUP2 PUSH2 0x11E5 JUMP JUMPDEST SWAP5 PUSH1 0x20 SWAP4 SWAP1 SWAP4 ADD CALLDATALOAD SWAP4 POP POP POP JUMP JUMPDEST PUSH1 0x0 PUSH1 0x20 DUP3 DUP5 SUB SLT ISZERO PUSH2 0x1008 JUMPI PUSH1 0x0 DUP1 REVERT JUMPDEST DUP2 MLOAD DUP1 ISZERO ISZERO DUP2 EQ PUSH2 0xFC3 JUMPI PUSH1 0x0 DUP1 REVERT JUMPDEST PUSH1 0x0 PUSH1 0x20 DUP3 DUP5 SUB SLT ISZERO PUSH2 0x102A JUMPI PUSH1 0x0 DUP1 REVERT JUMPDEST POP CALLDATALOAD SWAP2 SWAP1 POP JUMP JUMPDEST PUSH1 0x0 PUSH1 0x20 DUP3 DUP5 SUB SLT ISZERO PUSH2 0x1043 JUMPI PUSH1 0x0 DUP1 REVERT JUMPDEST POP MLOAD SWAP2 SWAP1 POP JUMP JUMPDEST PUSH1 0x0 DUP1 PUSH1 0x40 DUP4 DUP6 SUB SLT ISZERO PUSH2 0x105D JUMPI PUSH1 0x0 DUP1 REVERT JUMPDEST POP POP DUP1 CALLDATALOAD SWAP3 PUSH1 0x20 SWAP1 SWAP2 ADD CALLDATALOAD SWAP2 POP JUMP JUMPDEST PUSH1 0x20 DUP1 DUP3 MSTORE DUP3 MLOAD DUP3 DUP3 ADD DUP2 SWAP1 MSTORE PUSH1 0x0 SWAP2 SWAP1 PUSH1 0x40 SWAP1 DUP2 DUP6 ADD SWAP1 DUP7 DUP5 ADD DUP6 JUMPDEST DUP3 DUP2 LT ISZERO PUSH2 0x10D6 JUMPI DUP2 MLOAD DUP1 MLOAD PUSH1 0x1 PUSH1 0x1 PUSH1 0xA0 SHL SUB AND DUP6 MSTORE DUP7 DUP2 ADD MLOAD DUP8 DUP7 ADD MSTORE DUP6 DUP2 ADD MLOAD DUP7 DUP7 ADD MSTORE PUSH1 0x60 DUP1 DUP3 ADD MLOAD SWAP1 DUP7 ADD MSTORE PUSH1 0x80 SWAP1 DUP2 ADD MLOAD SWAP1 DUP6 ADD MSTORE PUSH1 0xA0 SWAP1 SWAP4 ADD SWAP3 SWAP1 DUP6 ADD SWAP1 PUSH1 0x1 ADD PUSH2 0x1089 JUMP JUMPDEST POP SWAP2 SWAP8 SWAP7 POP POP POP POP POP POP POP JUMP JUMPDEST PUSH1 0x20 DUP1 DUP3 MSTORE DUP2 DUP2 ADD MSTORE PUSH32 0x4F776E61626C653A2063616C6C6572206973206E6F7420746865206F776E6572 PUSH1 0x40 DUP3 ADD MSTORE PUSH1 0x60 ADD SWAP1 JUMP JUMPDEST PUSH1 0x0 DUP3 NOT DUP3 GT ISZERO PUSH2 0x112B JUMPI PUSH2 0x112B PUSH2 0x11A3 JUMP JUMPDEST POP ADD SWAP1 JUMP JUMPDEST PUSH1 0x0 DUP3 PUSH2 0x114D JUMPI PUSH4 0x4E487B71 PUSH1 0xE0 SHL PUSH1 0x0 MSTORE PUSH1 0x12 PUSH1 0x4 MSTORE PUSH1 0x24 PUSH1 0x0 REVERT JUMPDEST POP DIV SWAP1 JUMP JUMPDEST PUSH1 0x0 DUP2 PUSH1 0x0 NOT DIV DUP4 GT DUP3 ISZERO ISZERO AND ISZERO PUSH2 0x116C JUMPI PUSH2 0x116C PUSH2 0x11A3 JUMP JUMPDEST POP MUL SWAP1 JUMP JUMPDEST PUSH1 0x0 DUP3 DUP3 LT ISZERO PUSH2 0x1183 JUMPI PUSH2 0x1183 PUSH2 0x11A3 JUMP JUMPDEST POP SUB SWAP1 JUMP JUMPDEST PUSH1 0x0 PUSH1 0x0 NOT DUP3 EQ ISZERO PUSH2 0x119C JUMPI PUSH2 0x119C PUSH2 0x11A3 JUMP JUMPDEST POP PUSH1 0x1 ADD SWAP1 JUMP JUMPDEST PUSH4 0x4E487B71 PUSH1 0xE0 SHL PUSH1 0x0 MSTORE PUSH1 0x11 PUSH1 0x4 MSTORE PUSH1 0x24 PUSH1 0x0 REVERT JUMPDEST PUSH4 0x4E487B71 PUSH1 0xE0 SHL PUSH1 0x0 MSTORE PUSH1 0x32 PUSH1 0x4 MSTORE PUSH1 0x24 PUSH1 0x0 REVERT JUMPDEST PUSH4 0x4E487B71 PUSH1 0xE0 SHL PUSH1 0x0 MSTORE PUSH1 0x41 PUSH1 0x4 MSTORE PUSH1 0x24 PUSH1 0x0 REVERT JUMPDEST PUSH1 0x1 PUSH1 0x1 PUSH1 0xA0 SHL SUB DUP2 AND DUP2 EQ PUSH2 0xD35 JUMPI PUSH1 0x0 DUP1 REVERT INVALID LOG2 PUSH5 0x6970667358 0x22 SLT KECCAK256 0xAF 0xA7 0xBA JUMPDEST 0xE6 0xE5 SWAP6 0x2E 0xF9 0xB7 0xBA 0xDF 0xC1 0xCB CHAINID MSIZE SUB SWAP4 0xBA 0x23 0x28 0xC4 MSTORE SGT DUP8 PUSH19 0x1FD3B876E9E864736F6C634300080700330000 "
    },
    "gasEstimates": {
      "creation": {
        "codeDepositCost": "931200",
        "executionCost": "infinite",
        "totalCost": "infinite"
      },
      "external": {
        "ERC20Interface()": "2350",
        "_total_reward()": "2341",
        "_total_staked()": "2361",
        "balance()": "261",
        "getPeriod(uint256)": "4600",
        "getRewards(uint256)": "4666",
        "getStakedAmount()": "2315",
        "getTotalRewards()": "2336",
        "getUserStakes()": "infinite",
        "owner()": "2409",
        "renounceOwnership()": "28181",
        "stakeTokens(uint256,uint256)": "infinite",
        "transferOwnership(address)": "infinite",
        "withdraw(address)": "infinite",
        "withdrawStake(address,uint256)": "infinite"
      },
      "internal": {
        "_addStakeholder(address)": "72987",
        "_withdrawStake(uint256)": "infinite",
        "calculateStakeReward(uint256,uint256)": "infinite"
      }
    },
    "methodIdentifiers": {
      "ERC20Interface()": "1bbc4b83",
      "_total_reward()": "1c7baa2b",
      "_total_staked()": "e99881e8",
      "balance()": "b69ef8a8",
      "getPeriod(uint256)": "4b2c0706",
      "getRewards(uint256)": "c0d8012c",
      "getStakedAmount()": "a4e15db9",
      "getTotalRewards()": "e627f2db",
      "getUserStakes()": "a5ba1ca9",
      "owner()": "8da5cb5b",
      "renounceOwnership()": "715018a6",
      "stakeTokens(uint256,uint256)": "3b7b6188",
      "transferOwnership(address)": "f2fde38b",
      "withdraw(address)": "51cff8d9",
      "withdrawStake(address,uint256)": "c6066272"
    }
  },
  "abi": [
    {
      "inputs": [],
      "stateMutability": "nonpayable",
      "type": "constructor"
    },
    {
      "anonymous": false,
      "inputs": [
        {
          "indexed": true,
          "internalType": "address",
          "name": "previousOwner",
          "type": "address"
        },
        {
          "indexed": true,
          "internalType": "address",
          "name": "newOwner",
          "type": "address"
        }
      ],
      "name": "OwnershipTransferred",
      "type": "event"
    },
    {
      "anonymous": false,
      "inputs": [
        {
          "indexed": false,
          "internalType": "address",
          "name": "",
          "type": "address"
        },
        {
          "indexed": false,
          "internalType": "uint256",
          "name": "",
          "type": "uint256"
        }
      ],
      "name": "Received",
      "type": "event"
    },
    {
      "anonymous": false,
      "inputs": [
        {
          "indexed": true,
          "internalType": "address",
          "name": "from_",
          "type": "address"
        },
        {
          "indexed": true,
          "internalType": "address",
          "name": "to_",
          "type": "address"
        },
        {
          "indexed": false,
          "internalType": "uint256",
          "name": "amount_",
          "type": "uint256"
        }
      ],
      "name": "StakeFailed",
      "type": "event"
    },
    {
      "anonymous": false,
      "inputs": [
        {
          "indexed": true,
          "internalType": "address",
          "name": "user",
          "type": "address"
        },
        {
          "indexed": false,
          "internalType": "uint256",
          "name": "amount",
          "type": "uint256"
        },
        {
          "indexed": false,
          "internalType": "uint256",
          "name": "index",
          "type": "uint256"
        },
        {
          "indexed": false,
          "internalType": "uint256",
          "name": "timestamp",
          "type": "uint256"
        },
        {
          "indexed": false,
          "internalType": "uint256",
          "name": "period",
          "type": "uint256"
        }
      ],
      "name": "StakeSuccessful",
      "type": "event"
    },
    {
      "inputs": [],
      "name": "ERC20Interface",
      "outputs": [
        {
          "internalType": "contract ERC20",
          "name": "",
          "type": "address"
        }
      ],
      "stateMutability": "view",
      "type": "function"
    },
    {
      "inputs": [],
      "name": "_total_reward",
      "outputs": [
        {
          "internalType": "uint256",
          "name": "",
          "type": "uint256"
        }
      ],
      "stateMutability": "view",
      "type": "function"
    },
    {
      "inputs": [],
      "name": "_total_staked",
      "outputs": [
        {
          "internalType": "uint256",
          "name": "",
          "type": "uint256"
        }
      ],
      "stateMutability": "view",
      "type": "function"
    },
    {
      "inputs": [],
      "name": "balance",
      "outputs": [
        {
          "internalType": "uint256",
          "name": "",
          "type": "uint256"
        }
      ],
      "stateMutability": "view",
      "type": "function"
    },
    {
      "inputs": [
        {
          "internalType": "uint256",
          "name": "index",
          "type": "uint256"
        }
      ],
      "name": "getPeriod",
      "outputs": [
        {
          "internalType": "uint256",
          "name": "",
          "type": "uint256"
        }
      ],
      "stateMutability": "view",
      "type": "function"
    },
    {
      "inputs": [
        {
          "internalType": "uint256",
          "name": "index",
          "type": "uint256"
        }
      ],
      "name": "getRewards",
      "outputs": [
        {
          "internalType": "uint256",
          "name": "",
          "type": "uint256"
        }
      ],
      "stateMutability": "view",
      "type": "function"
    },
    {
      "inputs": [],
      "name": "getStakedAmount",
      "outputs": [
        {
          "internalType": "uint256",
          "name": "",
          "type": "uint256"
        }
      ],
      "stateMutability": "view",
      "type": "function"
    },
    {
      "inputs": [],
      "name": "getTotalRewards",
      "outputs": [
        {
          "internalType": "uint256",
          "name": "",
          "type": "uint256"
        }
      ],
      "stateMutability": "view",
      "type": "function"
    },
    {
      "inputs": [],
      "name": "getUserStakes",
      "outputs": [
        {
          "components": [
            {
              "internalType": "address",
              "name": "user",
              "type": "address"
            },
            {
              "internalType": "uint256",
              "name": "amount",
              "type": "uint256"
            },
            {
              "internalType": "uint256",
              "name": "since",
              "type": "uint256"
            },
            {
              "internalType": "uint256",
              "name": "period",
              "type": "uint256"
            },
            {
              "internalType": "uint256",
              "name": "claimable",
              "type": "uint256"
            }
          ],
          "internalType": "struct TheLuxuryStake.Stake[]",
          "name": "",
          "type": "tuple[]"
        }
      ],
      "stateMutability": "view",
      "type": "function"
    },
    {
      "inputs": [],
      "name": "owner",
      "outputs": [
        {
          "internalType": "address",
          "name": "",
          "type": "address"
        }
      ],
      "stateMutability": "view",
      "type": "function"
    },
    {
      "inputs": [],
      "name": "renounceOwnership",
      "outputs": [],
      "stateMutability": "nonpayable",
      "type": "function"
    },
    {
      "inputs": [
        {
          "internalType": "uint256",
          "name": "amount_",
          "type": "uint256"
        },
        {
          "internalType": "uint256",
          "name": "period_",
          "type": "uint256"
        }
      ],
      "name": "stakeTokens",
      "outputs": [],
      "stateMutability": "nonpayable",
      "type": "function"
    },
    {
      "inputs": [
        {
          "internalType": "address",
          "name": "newOwner",
          "type": "address"
        }
      ],
      "name": "transferOwnership",
      "outputs": [],
      "stateMutability": "nonpayable",
      "type": "function"
    },
    {
      "inputs": [
        {
          "internalType": "address payable",
          "name": "beneficiary",
          "type": "address"
        }
      ],
      "name": "withdraw",
      "outputs": [],
      "stateMutability": "payable",
      "type": "function"
    },
    {
      "inputs": [
        {
          "internalType": "address",
          "name": "beneficiary_",
          "type": "address"
        },
        {
          "internalType": "uint256",
          "name": "index",
          "type": "uint256"
        }
      ],
      "name": "withdrawStake",
      "outputs": [],
      "stateMutability": "payable",
      "type": "function"
    },
    {
      "stateMutability": "payable",
      "type": "receive"
    }
  ]
}