{
	"data": {
		"bytecode": {
			"linkReferences": {},
			"object": "60a06040523480156200001157600080fd5b5060405162004cb238038062004cb283398101604081905262000034916200013b565b600054610100900460ff16620000515760005460ff16156200005b565b6200005b6200010e565b620000c35760405162461bcd60e51b815260206004820152602e60248201527f496e697469616c697a61626c653a20636f6e747261637420697320616c72656160448201526d191e481a5b9a5d1a585b1a5e995960921b606482015260840160405180910390fd5b600054610100900460ff16158015620000e6576000805461ffff19166101011790555b6001600160a01b038216608052801562000106576000805461ff00191690555b50506200016d565b600062000126306200012c60201b62001c7d1760201c565b15905090565b6001600160a01b03163b151590565b6000602082840312156200014e57600080fd5b81516001600160a01b03811681146200016657600080fd5b9392505050565b608051614b2262000190600039600081816108c201526122260152614b226000f3fe6080604052600436106102c85760003560e01c80636f4f283711610175578063b24f2d39116100dc578063d45573f611610095578063e15916341161006f578063e159163414610979578063e8a3d48514610999578063e985e9c5146109ae578063eb13554f146109f857600080fd5b8063d45573f6146108e4578063d547741f1461091a578063de9037741461093a57600080fd5b8063b24f2d3914610800578063b88d4fde1461082f578063c87b56dd1461084f578063ca15c8731461086f578063cb2ef6f71461088f578063cf8267b1146108b057600080fd5b806395d89b411161012e57806395d89b411461074d5780639bcf7a1514610762578063a0a8e46014610782578063a217fddf1461079e578063a22cb465146107b3578063ac9650d8146107d357600080fd5b80636f4f28371461069857806370a08231146106b85780638da5cb5b146106d85780639010d07c146106ed57806391d148541461070d578063938e3d7b1461072d57600080fd5b80632a55205a1161023457806342842e0e116101ed5780634f6ccce7116101c75780634f6ccce7146105ff578063572b6c051461061f578063600dd5ea146106585780636352211e1461067857600080fd5b806342842e0e1461057d57806342966c681461059d5780634cc157df146105bd57600080fd5b80632a55205a146104b45780632c4510f8146104f35780632f2ff15d146105065780632f745c591461052657806336568abe146105465780633b1475a71461056657600080fd5b806313af40351161028657806313af4035146103cd57806318160ddd146103ed5780631e7ac4881461040357806322dcd13e1461042357806323b872dd14610463578063248a9ca31461048357600080fd5b806275a317146102cd57806301ffc9a71461030057806306fdde0314610330578063079fe40e14610352578063081812fc1461038b578063095ea7b3146103ab575b600080fd5b3480156102d957600080fd5b506102ed6102e8366004613d73565b610a19565b6040519081526020015b60405180910390f35b34801561030c57600080fd5b5061032061031b366004613ddd565b610a61565b60405190151581526020016102f7565b34801561033c57600080fd5b50610345610a8d565b6040516102f79190613e52565b34801561035e57600080fd5b506101f954610373906001600160a01b031681565b6040516001600160a01b0390911681526020016102f7565b34801561039757600080fd5b506103736103a6366004613e65565b610b20565b3480156103b757600080fd5b506103cb6103c6366004613e7e565b610bbc565b005b3480156103d957600080fd5b506103cb6103e8366004613eaa565b610ce4565b3480156103f957600080fd5b506101c7546102ed565b34801561040f57600080fd5b506103cb61041e366004613e7e565b610dad565b34801561042f57600080fd5b506101fc5461044b90600160801b90046001600160801b031681565b6040516001600160801b0390911681526020016102f7565b34801561046f57600080fd5b506103cb61047e366004613ec7565b610e73565b34801561048f57600080fd5b506102ed61049e366004613e65565b600090815261012f602052604090206001015490565b3480156104c057600080fd5b506104d46104cf366004613f08565b610eab565b604080516001600160a01b0390931683526020830191909152016102f7565b6102ed610501366004613f2a565b610ee8565b34801561051257600080fd5b506103cb610521366004613f8e565b61108f565b34801561053257600080fd5b506102ed610541366004613e7e565b6110b8565b34801561055257600080fd5b506103cb610561366004613f8e565b61114f565b34801561057257600080fd5b506102ed6101f85481565b34801561058957600080fd5b506103cb610598366004613ec7565b6111dd565b3480156105a957600080fd5b506103cb6105b8366004613e65565b6111f8565b3480156105c957600080fd5b506105dd6105d8366004613e65565b611274565b604080516001600160a01b03909316835261ffff9091166020830152016102f7565b34801561060b57600080fd5b506102ed61061a366004613e65565b6112e4565b34801561062b57600080fd5b5061032061063a366004613eaa565b6001600160a01b031660009081526099602052604090205460ff1690565b34801561066457600080fd5b506103cb610673366004613e7e565b611379565b34801561068457600080fd5b50610373610693366004613e65565b61143f565b3480156106a457600080fd5b506103cb6106b3366004613eaa565b6114b7565b3480156106c457600080fd5b506102ed6106d3366004613eaa565b611511565b3480156106e457600080fd5b50610373611599565b3480156106f957600080fd5b50610373610708366004613f08565b6115d1565b34801561071957600080fd5b50610320610728366004613f8e565b6115f1565b34801561073957600080fd5b506103cb610748366004613fbe565b61161d565b34801561075957600080fd5b5061034561163e565b34801561076e57600080fd5b506103cb61077d366004613fff565b61164e565b34801561078e57600080fd5b50604051600181526020016102f7565b3480156107aa57600080fd5b506102ed600081565b3480156107bf57600080fd5b506103cb6107ce366004614034565b61172d565b3480156107df57600080fd5b506107f36107ee366004614062565b61173f565b6040516102f791906140d6565b34801561080c57600080fd5b506101fb546101fc546001600160a01b03909116906001600160801b03166105dd565b34801561083b57600080fd5b506103cb61084a3660046141fe565b611833565b34801561085b57600080fd5b5061034561086a366004613e65565b61186c565b34801561087b57600080fd5b506102ed61088a366004613e65565b61190f565b34801561089b57600080fd5b506a546f6b656e45524337323160a81b6102ed565b3480156108bc57600080fd5b506103737f000000000000000000000000000000000000000000000000000000000000000081565b3480156108f057600080fd5b506101fa546101fc546001600160a01b0390911690600160801b90046001600160801b03166105dd565b34801561092657600080fd5b506103cb610935366004613f8e565b611927565b34801561094657600080fd5b5061095a610955366004613f2a565b611950565b6040805192151583526001600160a01b039091166020830152016102f7565b34801561098557600080fd5b506103cb61099436600461433c565b6119b9565b3480156109a557600080fd5b50610345611bee565b3480156109ba57600080fd5b506103206109c936600461444e565b6001600160a01b0391821660009081526101986020908152604080832093909416825291909152205460ff1690565b348015610a0457600080fd5b506101fa54610373906001600160a01b031681565b60007f9f2df0fed2c77648de5860a4cc508cd0818c85b8b8a1ab4ceeef8d981c8956a6610a4d81610a48611c8c565b611c96565b610a58858585611cfa565b95945050505050565b6000610a6c82611d84565b80610a8757506001600160e01b0319821663152a902d60e11b145b92915050565b60606101938054610a9d9061447c565b80601f0160208091040260200160405190810160405280929190818152602001828054610ac99061447c565b8015610b165780601f10610aeb57610100808354040283529160200191610b16565b820191906000526020600020905b815481529060010190602001808311610af957829003601f168201915b5050505050905090565b600081815261019560205260408120546001600160a01b0316610b9f5760405162461bcd60e51b815260206004820152602c60248201527f4552433732313a20617070726f76656420717565727920666f72206e6f6e657860448201526b34b9ba32b73a103a37b5b2b760a11b60648201526084015b60405180910390fd5b50600090815261019760205260409020546001600160a01b031690565b6000610bc78261143f565b9050806001600160a01b0316836001600160a01b03161415610c355760405162461bcd60e51b815260206004820152602160248201527f4552433732313a20617070726f76616c20746f2063757272656e74206f776e656044820152603960f91b6064820152608401610b96565b806001600160a01b0316610c47611c8c565b6001600160a01b03161480610c635750610c63816109c9611c8c565b610cd55760405162461bcd60e51b815260206004820152603860248201527f4552433732313a20617070726f76652063616c6c6572206973206e6f74206f7760448201527f6e6572206e6f7220617070726f76656420666f7220616c6c00000000000000006064820152608401610b96565b610cdf8383611da9565b505050565b6000610cf281610a48611c8c565b610cfd6000836115f1565b610d495760405162461bcd60e51b815260206004820152601b60248201527f6e6577206f776e6572206e6f74206d6f64756c652061646d696e2e00000000006044820152606401610b96565b6101f780546001600160a01b038481166001600160a01b031983168117909355604080519190921680825260208201939093527f8292fce18fa69edf4db7b94ea2e58241df0ae57f97e0a6c9b29067028bf92d7691015b60405180910390a1505050565b6000610dbb81610a48611c8c565b612710821115610dfd5760405162461bcd60e51b815260206004820152600d60248201526c313839901e1e9018981818181760991b6044820152606401610b96565b6101fc80546001600160801b03166001600160401b038416600160801b021790556101fa80546001600160a01b0319166001600160a01b03851690811790915560408051918252602082018490527fe2497bd806ec41a6e0dd992c29a72efc0ef8fec9092d1978fd4a1e00b2f183049101610da0565b610e84610e7e611c8c565b82611e18565b610ea05760405162461bcd60e51b8152600401610b96906144b7565b610cdf838383611f11565b600080600080610eba86611274565b90945084925061ffff169050612710610ed3828761451e565b610edd919061453d565b925050509250929050565b600060026001541415610f3d5760405162461bcd60e51b815260206004820152601f60248201527f5265656e7472616e637947756172643a207265656e7472616e742063616c6c006044820152606401610b96565b60026001556000610f4f8585856120bb565b9050600080610f616020880188613eaa565b6001600160a01b031614610f8157610f7c6020870187613eaa565b610f89565b610f89611c8c565b9050610fa181610f9c608089018961455f565b611cfa565b92506000610fb56040880160208901613eaa565b6001600160a01b031614611025576040518060400160405280876020016020810190610fe19190613eaa565b6001600160a01b0390811682526040898101356020938401526000878152610200845220835181546001600160a01b03191692169190911781559101516001909101555b611036611031876145a5565b6121bb565b82816001600160a01b0316836001600160a01b03167f110d160a1bedeea919a88fbc4b2a9fb61b7e664084391b6ca2740db66fef80fe8960405161107a91906146e0565b60405180910390a45050600180559392505050565b600082815261012f60205260409020600101546110ae81610a48611c8c565b610cdf83836123c0565b60006110c383611511565b82106111255760405162461bcd60e51b815260206004820152602b60248201527f455243373231456e756d657261626c653a206f776e657220696e646578206f7560448201526a74206f6620626f756e647360a81b6064820152608401610b96565b506001600160a01b039190911660009081526101c560209081526040808320938352929052205490565b611157611c8c565b6001600160a01b0316816001600160a01b0316146111cf5760405162461bcd60e51b815260206004820152602f60248201527f416363657373436f6e74726f6c3a2063616e206f6e6c792072656e6f756e636560448201526e103937b632b9903337b91039b2b63360891b6064820152608401610b96565b6111d982826123e3565b5050565b610cdf83838360405180602001604052806000815250611833565b611203610e7e611c8c565b6112685760405162461bcd60e51b815260206004820152603060248201527f4552433732314275726e61626c653a2063616c6c6572206973206e6f74206f7760448201526f1b995c881b9bdc88185c1c1c9bdd995960821b6064820152608401610b96565b61127181612406565b50565b600081815261020060209081526040808320815180830190925280546001600160a01b0316808352600190910154928201929092528291156112bc57805160208201516112da565b6101fb546101fc546001600160a01b03909116906001600160801b03165b9250925050915091565b60006112f06101c75490565b82106113535760405162461bcd60e51b815260206004820152602c60248201527f455243373231456e756d657261626c653a20676c6f62616c20696e646578206f60448201526b7574206f6620626f756e647360a01b6064820152608401610b96565b6101c78281548110611367576113676147f0565b90600052602060002001549050919050565b600061138781610a48611c8c565b6127108211156113ce5760405162461bcd60e51b815260206004820152601260248201527165786365656420726f79616c74792062707360701b6044820152606401610b96565b6101fb80546001600160a01b0319166001600160a01b0385169081179091556101fc80546001600160801b0319166001600160801b03851617905560408051918252602082018490527f90d7ec04bcb8978719414f82e52e4cb651db41d0e6f8cea6118c2191e6183adb9101610da0565b600081815261019560205260408120546001600160a01b031680610a875760405162461bcd60e51b815260206004820152602960248201527f4552433732313a206f776e657220717565727920666f72206e6f6e657869737460448201526832b73a103a37b5b2b760b91b6064820152608401610b96565b60006114c581610a48611c8c565b6101f980546001600160a01b0319166001600160a01b0384169081179091556040517f299d17e95023f496e0ffc4909cff1a61f74bb5eb18de6f900f4155bfa1b3b33390600090a25050565b60006001600160a01b03821661157c5760405162461bcd60e51b815260206004820152602a60248201527f4552433732313a2062616c616e636520717565727920666f7220746865207a65604482015269726f206164647265737360b01b6064820152608401610b96565b506001600160a01b03166000908152610196602052604090205490565b6101f7546000906115b49082906001600160a01b03166115f1565b6115be5750600090565b6101f7546001600160a01b03165b905090565b6000828152610161602052604081206115ea90836124af565b9392505050565b600091825261012f602090815260408084206001600160a01b0393909316845291905290205460ff1690565b600061162b81610a48611c8c565b6116386101fd8484613c00565b50505050565b60606101948054610a9d9061447c565b600061165c81610a48611c8c565b6127108211156116a35760405162461bcd60e51b815260206004820152601260248201527165786365656420726f79616c74792062707360701b6044820152606401610b96565b6040805180820182526001600160a01b03858116808352602080840187815260008a81526102008352869020945185546001600160a01b031916941693909317845591516001909301929092558251918252810184905285917f7365cf4122f072a3365c20d54eff9b38d73c096c28e1892ec8f5b0e403a0f12d910160405180910390a250505050565b6111d9611738611c8c565b83836124bb565b6060816001600160401b0381111561175957611759614138565b60405190808252806020026020018201604052801561178c57816020015b60608152602001906001900390816117775790505b50905060005b8281101561182c576117fc308585848181106117b0576117b06147f0565b90506020028101906117c2919061455f565b8080601f01602080910402602001604051908101604052809392919081815260200183838082843760009201919091525061258b92505050565b82828151811061180e5761180e6147f0565b6020026020010181905250808061182490614806565b915050611792565b5092915050565b61184461183e611c8c565b83611e18565b6118605760405162461bcd60e51b8152600401610b96906144b7565b61163884848484612676565b60008181526101ff6020526040902080546060919061188a9061447c565b80601f01602080910402602001604051908101604052809291908181526020018280546118b69061447c565b80156119035780601f106118d857610100808354040283529160200191611903565b820191906000526020600020905b8154815290600101906020018083116118e657829003601f168201915b50505050509050919050565b600081815261016160205260408120610a87906126a9565b600082815261012f602052604090206001015461194681610a48611c8c565b610cdf83836123e3565b60008060006119608686866126b3565b61012087013560009081526101fe602052604090205490915060ff161580156119ae57506119ae7f9f2df0fed2c77648de5860a4cc508cd0818c85b8b8a1ab4ceeef8d981c8956a6826115f1565b969095509350505050565b600054610100900460ff166119d45760005460ff16156119d8565b303b155b611a3b5760405162461bcd60e51b815260206004820152602e60248201527f496e697469616c697a61626c653a20636f6e747261637420697320616c72656160448201526d191e481a5b9a5d1a585b1a5e995960921b6064820152608401610b96565b600054610100900460ff16158015611a5d576000805461ffff19166101011790555b611a6561270f565b611aab6040518060400160405280600b81526020016a546f6b656e45524337323160a81b815250604051806040016040528060018152602001603160f81b815250612740565b611ab487612771565b611abe8a8a6127a9565b6101fb80546001600160a01b03199081166001600160a01b03888116919091179092556101fc80546001600160801b0319166001600160801b0388161790556101fa805482168584161790556101f980549091169188169190911790558751611b2f906101fd9060208b0190613c84565b506101fc80546001600160801b03808616600160801b0291161790556101f780546001600160a01b038d166001600160a01b0319909116179055611b7460008c6127da565b611b9e7f9f2df0fed2c77648de5860a4cc508cd0818c85b8b8a1ab4ceeef8d981c8956a68c6127da565b611bb6600080516020614aa68339815191528c6127da565b611bcf600080516020614aa683398151915260006127da565b8015611be1576000805461ff00191690555b5050505050505050505050565b6101fd8054611bfc9061447c565b80601f0160208091040260200160405190810160405280929190818152602001828054611c289061447c565b8015611c755780601f10611c4a57610100808354040283529160200191611c75565b820191906000526020600020905b815481529060010190602001808311611c5857829003601f168201915b505050505081565b6001600160a01b03163b151590565b60006115cc6127e4565b611ca082826115f1565b6111d957611cb8816001600160a01b0316601461280e565b611cc383602061280e565b604051602001611cd4929190614821565b60408051601f198184030181529082905262461bcd60e51b8252610b9691600401613e52565b6101f88054906001906000611d0f8385614896565b909155505060008181526101ff60205260409020611d2e908484613c00565b50611d3984826129a9565b80846001600160a01b03167f9d89e36eadf856db0ad9ffb5a569e07f95634dddd9501141ecf04820484ad0dc8585604051611d759291906148ae565b60405180910390a39392505050565b60006001600160e01b0319821663780e9d6360e01b1480610a875750610a8782612afa565b60008181526101976020526040902080546001600160a01b0319166001600160a01b0384169081179091558190611ddf8261143f565b6001600160a01b03167f8c5be1e5ebec7d5bd14f71427d1e84f3dd0314c0f7b2291e5b200ac8c7c3b92560405160405180910390a45050565b600081815261019560205260408120546001600160a01b0316611e925760405162461bcd60e51b815260206004820152602c60248201527f4552433732313a206f70657261746f7220717565727920666f72206e6f6e657860448201526b34b9ba32b73a103a37b5b2b760a11b6064820152608401610b96565b6000611e9d8361143f565b9050806001600160a01b0316846001600160a01b03161480611ed85750836001600160a01b0316611ecd84610b20565b6001600160a01b0316145b80611f0957506001600160a01b038082166000908152610198602090815260408083209388168352929052205460ff165b949350505050565b826001600160a01b0316611f248261143f565b6001600160a01b031614611f885760405162461bcd60e51b815260206004820152602560248201527f4552433732313a207472616e736665722066726f6d20696e636f72726563742060448201526437bbb732b960d91b6064820152608401610b96565b6001600160a01b038216611fea5760405162461bcd60e51b8152602060048201526024808201527f4552433732313a207472616e7366657220746f20746865207a65726f206164646044820152637265737360e01b6064820152608401610b96565b611ff5838383612b3a565b612000600082611da9565b6001600160a01b03831660009081526101966020526040812080546001929061202a9084906148c2565b90915550506001600160a01b038216600090815261019660205260408120805460019290612059908490614896565b90915550506000818152610195602052604080822080546001600160a01b0319166001600160a01b0386811691821790925591518493918716917fddf252ad1be2c89b69c2b068fc378daa952ba7f163c4a11628f55a4df523b3ef91a4505050565b60008060006120cb868686611950565b91509150816121105760405162461bcd60e51b8152602060048201526011602482015270696e76616c6964207369676e617475726560781b6044820152606401610b96565b42612122610100880160e089016148d9565b6001600160801b031611158015612153575042612147610120880161010089016148d9565b6001600160801b031610155b6121915760405162461bcd60e51b815260206004820152600f60248201526e1c995c5d595cdd08195e1c1a5c9959608a1b6044820152606401610b96565b61012086013560009081526101fe60205260409020805460ff191660011790559150509392505050565b60a08101516121c75750565b60a08101516101fc54600090612710906121f190600160801b90046001600160801b03168461451e565b6121fb919061453d565b60405163085b49ad60e41b815230600482015260006024820181905291925081906001600160a01b037f000000000000000000000000000000000000000000000000000000000000000016906385b49ad0906044016040805180830381865afa15801561226c573d6000803e3d6000fd5b505050506040513d601f19601f8201168201806040525081019061229091906148f4565b909250905060006127106122a4838761451e565b6122ae919061453d565b60c08701519091506001600160a01b031673eeeeeeeeeeeeeeeeeeeeeeeeeeeeeeeeeeeeeeee1415612322578434146123225760405162461bcd60e51b815260206004820152601660248201527536bab9ba1039b2b732103a37ba30b610383934b1b29760511b6044820152606401610b96565b60608601516000906001600160a01b031615612342578660600151612350565b6101f9546001600160a01b03165b90506123758760c00151612362611c8c565b6101fa546001600160a01b031688612c1a565b61238c8760c00151612385611c8c565b8685612c1a565b6123b78760c0015161239c611c8c565b83856123a88a8c6148c2565b6123b291906148c2565b612c1a565b50505050505050565b6123ca8282612c64565b600082815261016160205260409020610cdf9082612cec565b6123ed8282612d01565b600082815261016160205260409020610cdf9082612d87565b60006124118261143f565b905061241f81600084612b3a565b61242a600083611da9565b6001600160a01b0381166000908152610196602052604081208054600192906124549084906148c2565b90915550506000828152610195602052604080822080546001600160a01b0319169055518391906001600160a01b038416907fddf252ad1be2c89b69c2b068fc378daa952ba7f163c4a11628f55a4df523b3ef908390a45050565b60006115ea8383612d9c565b816001600160a01b0316836001600160a01b0316141561251d5760405162461bcd60e51b815260206004820152601960248201527f4552433732313a20617070726f766520746f2063616c6c6572000000000000006044820152606401610b96565b6001600160a01b0383811660008181526101986020908152604080832094871680845294825291829020805460ff191686151590811790915591519182527f17307eab39ab6107e8899845ad3d59bd9653f200f220920489ca2b5937696c31910160405180910390a3505050565b60606001600160a01b0383163b6125f35760405162461bcd60e51b815260206004820152602660248201527f416464726573733a2064656c65676174652063616c6c20746f206e6f6e2d636f6044820152651b9d1c9858dd60d21b6064820152608401610b96565b600080846001600160a01b03168460405161260e9190614922565b600060405180830381855af49150503d8060008114612649576040519150601f19603f3d011682016040523d82523d6000602084013e61264e565b606091505b5091509150610a588282604051806060016040528060278152602001614ac660279139612dc6565b612681848484611f11565b61268d84848484612dff565b6116385760405162461bcd60e51b8152600401610b969061493e565b6000610a87825490565b6000611f0983838080601f01602080910402602001604051908101604052809392919081815260200183838082843760009201919091525061270992506126fd9150889050612f04565b8051906020012061303e565b9061308c565b600054610100900460ff166127365760405162461bcd60e51b8152600401610b9690614990565b61273e6130b0565b565b600054610100900460ff166127675760405162461bcd60e51b8152600401610b9690614990565b6111d982826130dd565b600054610100900460ff166127985760405162461bcd60e51b8152600401610b9690614990565b6127a061311e565b61127181613145565b600054610100900460ff166127d05760405162461bcd60e51b8152600401610b9690614990565b6111d982826131d4565b6111d982826123c0565b3360009081526099602052604081205460ff1615612809575060131936013560601c90565b503390565b6060600061281d83600261451e565b612828906002614896565b6001600160401b0381111561283f5761283f614138565b6040519080825280601f01601f191660200182016040528015612869576020820181803683370190505b509050600360fc1b81600081518110612884576128846147f0565b60200101906001600160f81b031916908160001a905350600f60fb1b816001815181106128b3576128b36147f0565b60200101906001600160f81b031916908160001a90535060006128d784600261451e565b6128e2906001614896565b90505b600181111561295a576f181899199a1a9b1b9c1cb0b131b232b360811b85600f1660108110612916576129166147f0565b1a60f81b82828151811061292c5761292c6147f0565b60200101906001600160f81b031916908160001a90535060049490941c93612953816149db565b90506128e5565b5083156115ea5760405162461bcd60e51b815260206004820181905260248201527f537472696e67733a20686578206c656e67746820696e73756666696369656e746044820152606401610b96565b6001600160a01b0382166129ff5760405162461bcd60e51b815260206004820181905260248201527f4552433732313a206d696e7420746f20746865207a65726f20616464726573736044820152606401610b96565b600081815261019560205260409020546001600160a01b031615612a655760405162461bcd60e51b815260206004820152601c60248201527f4552433732313a20746f6b656e20616c7265616479206d696e746564000000006044820152606401610b96565b612a7160008383612b3a565b6001600160a01b038216600090815261019660205260408120805460019290612a9b908490614896565b90915550506000818152610195602052604080822080546001600160a01b0319166001600160a01b03861690811790915590518392907fddf252ad1be2c89b69c2b068fc378daa952ba7f163c4a11628f55a4df523b3ef908290a45050565b60006001600160e01b031982166380ac58cd60e01b1480612b2b57506001600160e01b03198216635b5e139f60e01b145b80610a875750610a8782613224565b612b45838383613249565b612b5e600080516020614aa683398151915260006115f1565b158015612b7357506001600160a01b03831615155b8015612b8757506001600160a01b03821615155b15610cdf57612ba4600080516020614aa6833981519152846115f1565b80612bc25750612bc2600080516020614aa6833981519152836115f1565b610cdf5760405162461bcd60e51b815260206004820152602360248201527f7265737472696374656420746f205452414e534645525f524f4c4520686f6c6460448201526265727360e81b6064820152608401610b96565b80612c2457611638565b6001600160a01b03841673eeeeeeeeeeeeeeeeeeeeeeeeeeeeeeeeeeeeeeee1415612c5857612c538282613303565b611638565b611638848484846133a6565b612c6e82826115f1565b6111d957600082815261012f602090815260408083206001600160a01b03851684529091529020805460ff19166001179055612ca8611c8c565b6001600160a01b0316816001600160a01b0316837f2f8788117e7eff1d82e926ec794901d17c78024a50270940304540a733656f0d60405160405180910390a45050565b60006115ea836001600160a01b038416613520565b612d0b82826115f1565b156111d957600082815261012f602090815260408083206001600160a01b03851684529091529020805460ff19169055612d43611c8c565b6001600160a01b0316816001600160a01b0316837ff6391f5c32d9c69d2a47ea670b442974b53935d1edc7fd64eb21e047a839171b60405160405180910390a45050565b60006115ea836001600160a01b03841661356f565b6000826000018281548110612db357612db36147f0565b9060005260206000200154905092915050565b60608315612dd55750816115ea565b825115612de55782518084602001fd5b8160405162461bcd60e51b8152600401610b969190613e52565b60006001600160a01b0384163b15612ef957836001600160a01b031663150b7a02612e28611c8c565b8786866040518563ffffffff1660e01b8152600401612e4a94939291906149f2565b6020604051808303816000875af1925050508015612e85575060408051601f3d908101601f19168201909252612e8291810190614a2f565b60015b612edf573d808015612eb3576040519150601f19603f3d011682016040523d82523d6000602084013e612eb8565b606091505b508051612ed75760405162461bcd60e51b8152600401610b969061493e565b805181602001fd5b6001600160e01b031916630a85bd0160e11b149050611f09565b506001949350505050565b60607f86633b4ffa94b7c3d316ca70d7d2700f3fdfa7a7806efd31499b513d9176692e612f346020840184613eaa565b612f446040850160208601613eaa565b6040850135612f596080870160608801613eaa565b612f66608088018861455f565b604051612f74929190614a4c565b60405190819003902060a0880135612f9260e08a0160c08b01613eaa565b612fa36101008b0160e08c016148d9565b612fb56101208c016101008d016148d9565b60408051602081019b909b526001600160a01b03998a16908b015296881660608a0152608089019590955292861660a088015260c087019190915260e08601529092166101008401526001600160801b03918216610120808501919091529116610140830152830135610160820152610180016040516020818303038152906040529050919050565b6000610a8761304b613662565b8360405161190160f01b6020820152602281018390526042810182905260009060620160405160208183030381529060405280519060200120905092915050565b600080600061309b85856136dd565b915091506130a88161374d565b509392505050565b600054610100900460ff166130d75760405162461bcd60e51b8152600401610b9690614990565b60018055565b600054610100900460ff166131045760405162461bcd60e51b8152600401610b9690614990565b815160209283012081519190920120603391909155603455565b600054610100900460ff1661273e5760405162461bcd60e51b8152600401610b9690614990565b600054610100900460ff1661316c5760405162461bcd60e51b8152600401610b9690614990565b60005b81518110156111d957600160996000848481518110613190576131906147f0565b6020908102919091018101516001600160a01b03168252810191909152604001600020805460ff1916911515919091179055806131cc81614806565b91505061316f565b600054610100900460ff166131fb5760405162461bcd60e51b8152600401610b9690614990565b815161320f90610193906020850190613c84565b508051610cdf90610194906020840190613c84565b60006001600160e01b03198216635a05180f60e01b1480610a875750610a8782613908565b6001600160a01b0383166132a6576132a1816101c7805460008381526101c860205260408120829055600182018355919091527fff6df30967a6a678f565c59a19e91e5c0dbb20cfe9f9bf26d7da6dea0fffa24c0155565b6132c9565b816001600160a01b0316836001600160a01b0316146132c9576132c9838261393d565b6001600160a01b0382166132e057610cdf816139df565b826001600160a01b0316826001600160a01b031614610cdf57610cdf8282613a94565b6000826001600160a01b03168260405160006040518083038185875af1925050503d8060008114613350576040519150601f19603f3d011682016040523d82523d6000602084013e613355565b606091505b5050905080610cdf5760405162461bcd60e51b815260206004820152601c60248201527f6e617469766520746f6b656e207472616e73666572206661696c6564000000006044820152606401610b96565b816001600160a01b0316836001600160a01b031614156133c557611638565b60006001600160a01b0384163014613457576040516323b872dd60e01b81526001600160a01b0385811660048301528481166024830152604482018490528616906323b872dd906064016020604051808303816000875af115801561342e573d6000803e3d6000fd5b505050506040513d601f19601f820116820180604052508101906134529190614a5c565b6134ca565b60405163a9059cbb60e01b81526001600160a01b0384811660048301526024820184905286169063a9059cbb906044016020604051808303816000875af11580156134a6573d6000803e3d6000fd5b505050506040513d601f19601f820116820180604052508101906134ca9190614a5c565b9050806135195760405162461bcd60e51b815260206004820152601960248201527f63757272656e6379207472616e73666572206661696c65642e000000000000006044820152606401610b96565b5050505050565b600081815260018301602052604081205461356757508154600181810184556000848152602080822090930184905584548482528286019093526040902091909155610a87565b506000610a87565b600081815260018301602052604081205480156136585760006135936001836148c2565b85549091506000906135a7906001906148c2565b905081811461360c5760008660000182815481106135c7576135c76147f0565b90600052602060002001549050808760000184815481106135ea576135ea6147f0565b6000918252602080832090910192909255918252600188019052604090208390555b855486908061361d5761361d614a79565b600190038181906000526020600020016000905590558560010160008681526020019081526020016000206000905560019350505050610a87565b6000915050610a87565b60006115cc7f8b73c3c69bb8fe3d512ecc4cf759cc79239f7b179b0ffacaa9a75d522b39400f61369160335490565b6034546040805160208101859052908101839052606081018290524660808201523060a082015260009060c0016040516020818303038152906040528051906020012090509392505050565b6000808251604114156137145760208301516040840151606085015160001a61370887828585613ada565b94509450505050613746565b82516040141561373e5760208301516040840151613733868383613bc7565b935093505050613746565b506000905060025b9250929050565b600081600481111561376157613761614a8f565b141561376a5750565b600181600481111561377e5761377e614a8f565b14156137cc5760405162461bcd60e51b815260206004820152601860248201527f45434453413a20696e76616c6964207369676e617475726500000000000000006044820152606401610b96565b60028160048111156137e0576137e0614a8f565b141561382e5760405162461bcd60e51b815260206004820152601f60248201527f45434453413a20696e76616c6964207369676e6174757265206c656e677468006044820152606401610b96565b600381600481111561384257613842614a8f565b141561389b5760405162461bcd60e51b815260206004820152602260248201527f45434453413a20696e76616c6964207369676e6174757265202773272076616c604482015261756560f01b6064820152608401610b96565b60048160048111156138af576138af614a8f565b14156112715760405162461bcd60e51b815260206004820152602260248201527f45434453413a20696e76616c6964207369676e6174757265202776272076616c604482015261756560f01b6064820152608401610b96565b60006001600160e01b03198216637965db0b60e01b1480610a8757506301ffc9a760e01b6001600160e01b0319831614610a87565b6000600161394a84611511565b61395491906148c2565b60008381526101c660205260409020549091508082146139aa576001600160a01b03841660009081526101c56020908152604080832085845282528083205484845281842081905583526101c690915290208190555b5060009182526101c6602090815260408084208490556001600160a01b0390941683526101c581528383209183525290812055565b6101c7546000906139f2906001906148c2565b60008381526101c860205260408120546101c78054939450909284908110613a1c57613a1c6147f0565b90600052602060002001549050806101c78381548110613a3e57613a3e6147f0565b60009182526020808320909101929092558281526101c890915260408082208490558582528120556101c7805480613a7857613a78614a79565b6001900381819060005260206000200160009055905550505050565b6000613a9f83611511565b6001600160a01b0390931660009081526101c56020908152604080832086845282528083208590559382526101c69052919091209190915550565b6000807f7fffffffffffffffffffffffffffffff5d576e7357a4501ddfe92f46681b20a0831115613b115750600090506003613bbe565b8460ff16601b14158015613b2957508460ff16601c14155b15613b3a5750600090506004613bbe565b6040805160008082526020820180845289905260ff881692820192909252606081018690526080810185905260019060a0016020604051602081039080840390855afa158015613b8e573d6000803e3d6000fd5b5050604051601f1901519150506001600160a01b038116613bb757600060019250925050613bbe565b9150600090505b94509492505050565b6000806001600160ff1b03831681613be460ff86901c601b614896565b9050613bf287828885613ada565b935093505050935093915050565b828054613c0c9061447c565b90600052602060002090601f016020900481019282613c2e5760008555613c74565b82601f10613c475782800160ff19823516178555613c74565b82800160010185558215613c74579182015b82811115613c74578235825591602001919060010190613c59565b50613c80929150613cf8565b5090565b828054613c909061447c565b90600052602060002090601f016020900481019282613cb25760008555613c74565b82601f10613ccb57805160ff1916838001178555613c74565b82800160010185558215613c74579182015b82811115613c74578251825591602001919060010190613cdd565b5b80821115613c805760008155600101613cf9565b6001600160a01b038116811461127157600080fd5b8035613d2d81613d0d565b919050565b60008083601f840112613d4457600080fd5b5081356001600160401b03811115613d5b57600080fd5b60208301915083602082850101111561374657600080fd5b600080600060408486031215613d8857600080fd5b8335613d9381613d0d565b925060208401356001600160401b03811115613dae57600080fd5b613dba86828701613d32565b9497909650939450505050565b6001600160e01b03198116811461127157600080fd5b600060208284031215613def57600080fd5b81356115ea81613dc7565b60005b83811015613e15578181015183820152602001613dfd565b838111156116385750506000910152565b60008151808452613e3e816020860160208601613dfa565b601f01601f19169290920160200192915050565b6020815260006115ea6020830184613e26565b600060208284031215613e7757600080fd5b5035919050565b60008060408385031215613e9157600080fd5b8235613e9c81613d0d565b946020939093013593505050565b600060208284031215613ebc57600080fd5b81356115ea81613d0d565b600080600060608486031215613edc57600080fd5b8335613ee781613d0d565b92506020840135613ef781613d0d565b929592945050506040919091013590565b60008060408385031215613f1b57600080fd5b50508035926020909101359150565b600080600060408486031215613f3f57600080fd5b83356001600160401b0380821115613f5657600080fd5b908501906101408288031215613f6b57600080fd5b90935060208501359080821115613f8157600080fd5b50613dba86828701613d32565b60008060408385031215613fa157600080fd5b823591506020830135613fb381613d0d565b809150509250929050565b60008060208385031215613fd157600080fd5b82356001600160401b03811115613fe757600080fd5b613ff385828601613d32565b90969095509350505050565b60008060006060848603121561401457600080fd5b833592506020840135613ef781613d0d565b801515811461127157600080fd5b6000806040838503121561404757600080fd5b823561405281613d0d565b91506020830135613fb381614026565b6000806020838503121561407557600080fd5b82356001600160401b038082111561408c57600080fd5b818501915085601f8301126140a057600080fd5b8135818111156140af57600080fd5b8660208260051b85010111156140c457600080fd5b60209290920196919550909350505050565b6000602080830181845280855180835260408601915060408160051b870101925083870160005b8281101561412b57603f19888603018452614119858351613e26565b945092850192908501906001016140fd565b5092979650505050505050565b634e487b7160e01b600052604160045260246000fd5b60405161014081016001600160401b038111828210171561417157614171614138565b60405290565b604051601f8201601f191681016001600160401b038111828210171561419f5761419f614138565b604052919050565b60006001600160401b038311156141c0576141c0614138565b6141d3601f8401601f1916602001614177565b90508281528383830111156141e757600080fd5b828260208301376000602084830101529392505050565b6000806000806080858703121561421457600080fd5b843561421f81613d0d565b9350602085013561422f81613d0d565b92506040850135915060608501356001600160401b0381111561425157600080fd5b8501601f8101871361426257600080fd5b614271878235602084016141a7565b91505092959194509250565b600082601f83011261428e57600080fd5b6115ea838335602085016141a7565b600082601f8301126142ae57600080fd5b813560206001600160401b038211156142c9576142c9614138565b8160051b6142d8828201614177565b92835284810182019282810190878511156142f257600080fd5b83870192505b8483101561431a57823561430b81613d0d565b825291830191908301906142f8565b979650505050505050565b80356001600160801b0381168114613d2d57600080fd5b6000806000806000806000806000806101408b8d03121561435c57600080fd5b6143658b613d22565b995060208b01356001600160401b038082111561438157600080fd5b61438d8e838f0161427d565b9a5060408d01359150808211156143a357600080fd5b6143af8e838f0161427d565b995060608d01359150808211156143c557600080fd5b6143d18e838f0161427d565b985060808d01359150808211156143e757600080fd5b506143f48d828e0161429d565b96505061440360a08c01613d22565b945061441160c08c01613d22565b935061441f60e08c01614325565b925061442e6101008c01614325565b915061443d6101208c01613d22565b90509295989b9194979a5092959850565b6000806040838503121561446157600080fd5b823561446c81613d0d565b91506020830135613fb381613d0d565b600181811c9082168061449057607f821691505b602082108114156144b157634e487b7160e01b600052602260045260246000fd5b50919050565b60208082526031908201527f4552433732313a207472616e736665722063616c6c6572206973206e6f74206f6040820152701ddb995c881b9bdc88185c1c1c9bdd9959607a1b606082015260800190565b634e487b7160e01b600052601160045260246000fd5b600081600019048311821515161561453857614538614508565b500290565b60008261455a57634e487b7160e01b600052601260045260246000fd5b500490565b6000808335601e1984360301811261457657600080fd5b8301803591506001600160401b0382111561459057600080fd5b60200191503681900382131561374657600080fd5b600061014082360312156145b857600080fd5b6145c061414e565b6145c983613d22565b81526145d760208401613d22565b6020820152604083013560408201526145f260608401613d22565b606082015260808301356001600160401b0381111561461057600080fd5b61461c3682860161427d565b60808301525060a083013560a082015261463860c08401613d22565b60c082015261464960e08401614325565b60e082015261010061465c818501614325565b9082015261012092830135928101929092525090565b6000808335601e1984360301811261468957600080fd5b83016020810192503590506001600160401b038111156146a857600080fd5b80360383131561374657600080fd5b81835281816020850137506000828201602090810191909152601f909101601f19169091010190565b60208152614701602082016146f484613d22565b6001600160a01b03169052565b600061470f60208401613d22565b6001600160a01b0381166040840152506040830135606083015261473560608401613d22565b6001600160a01b0381166080840152506147526080840184614672565b6101408060a086015261476a610160860183856146b7565b925060a086013560c086015261478260c08701613d22565b6001600160a01b03811660e0870152915061479f60e08701614325565b91506101006147b8818701846001600160801b03169052565b6147c3818801614325565b9250506101206147dd818701846001600160801b03169052565b9590950135939094019290925250919050565b634e487b7160e01b600052603260045260246000fd5b600060001982141561481a5761481a614508565b5060010190565b7f416363657373436f6e74726f6c3a206163636f756e7420000000000000000000815260008351614859816017850160208801613dfa565b7001034b99036b4b9b9b4b733903937b6329607d1b601791840191820152835161488a816028840160208801613dfa565b01602801949350505050565b600082198211156148a9576148a9614508565b500190565b602081526000611f096020830184866146b7565b6000828210156148d4576148d4614508565b500390565b6000602082840312156148eb57600080fd5b6115ea82614325565b6000806040838503121561490757600080fd5b825161491281613d0d565b6020939093015192949293505050565b60008251614934818460208701613dfa565b9190910192915050565b60208082526032908201527f4552433732313a207472616e7366657220746f206e6f6e20455243373231526560408201527131b2b4bb32b91034b6b83632b6b2b73a32b960711b606082015260800190565b6020808252602b908201527f496e697469616c697a61626c653a20636f6e7472616374206973206e6f74206960408201526a6e697469616c697a696e6760a81b606082015260800190565b6000816149ea576149ea614508565b506000190190565b6001600160a01b0385811682528416602082015260408101839052608060608201819052600090614a2590830184613e26565b9695505050505050565b600060208284031215614a4157600080fd5b81516115ea81613dc7565b8183823760009101908152919050565b600060208284031215614a6e57600080fd5b81516115ea81614026565b634e487b7160e01b600052603160045260246000fd5b634e487b7160e01b600052602160045260246000fdfe8502233096d909befbda0999bb8ea2f3a6be3c138b9fbf003752a4c8bce86f6c416464726573733a206c6f772d6c6576656c2064656c65676174652063616c6c206661696c6564a2646970667358221220a5a45ce1c43e25aa93b86be5fd8c2f9f72fa6bbb08c104f7a64ed125782fc78f64736f6c634300080b0033",
			"opcodes": "PUSH1 0xA0 PUSH1 0x40 MSTORE CALLVALUE DUP1 ISZERO PUSH3 0x11 JUMPI PUSH1 0x0 DUP1 REVERT JUMPDEST POP PUSH1 0x40 MLOAD PUSH3 0x4CB2 CODESIZE SUB DUP1 PUSH3 0x4CB2 DUP4 CODECOPY DUP2 ADD PUSH1 0x40 DUP2 SWAP1 MSTORE PUSH3 0x34 SWAP2 PUSH3 0x13B JUMP JUMPDEST PUSH1 0x0 SLOAD PUSH2 0x100 SWAP1 DIV PUSH1 0xFF AND PUSH3 0x51 JUMPI PUSH1 0x0 SLOAD PUSH1 0xFF AND ISZERO PUSH3 0x5B JUMP JUMPDEST PUSH3 0x5B PUSH3 0x10E JUMP JUMPDEST PUSH3 0xC3 JUMPI PUSH1 0x40 MLOAD PUSH3 0x461BCD PUSH1 0xE5 SHL DUP2 MSTORE PUSH1 0x20 PUSH1 0x4 DUP3 ADD MSTORE PUSH1 0x2E PUSH1 0x24 DUP3 ADD MSTORE PUSH32 0x496E697469616C697A61626C653A20636F6E747261637420697320616C726561 PUSH1 0x44 DUP3 ADD MSTORE PUSH14 0x191E481A5B9A5D1A585B1A5E9959 PUSH1 0x92 SHL PUSH1 0x64 DUP3 ADD MSTORE PUSH1 0x84 ADD PUSH1 0x40 MLOAD DUP1 SWAP2 SUB SWAP1 REVERT JUMPDEST PUSH1 0x0 SLOAD PUSH2 0x100 SWAP1 DIV PUSH1 0xFF AND ISZERO DUP1 ISZERO PUSH3 0xE6 JUMPI PUSH1 0x0 DUP1 SLOAD PUSH2 0xFFFF NOT AND PUSH2 0x101 OR SWAP1 SSTORE JUMPDEST PUSH1 0x1 PUSH1 0x1 PUSH1 0xA0 SHL SUB DUP3 AND PUSH1 0x80 MSTORE DUP1 ISZERO PUSH3 0x106 JUMPI PUSH1 0x0 DUP1 SLOAD PUSH2 0xFF00 NOT AND SWAP1 SSTORE JUMPDEST POP POP PUSH3 0x16D JUMP JUMPDEST PUSH1 0x0 PUSH3 0x126 ADDRESS PUSH3 0x12C PUSH1 0x20 SHL PUSH3 0x1C7D OR PUSH1 0x20 SHR JUMP JUMPDEST ISZERO SWAP1 POP SWAP1 JUMP JUMPDEST PUSH1 0x1 PUSH1 0x1 PUSH1 0xA0 SHL SUB AND EXTCODESIZE ISZERO ISZERO SWAP1 JUMP JUMPDEST PUSH1 0x0 PUSH1 0x20 DUP3 DUP5 SUB SLT ISZERO PUSH3 0x14E JUMPI PUSH1 0x0 DUP1 REVERT JUMPDEST DUP2 MLOAD PUSH1 0x1 PUSH1 0x1 PUSH1 0xA0 SHL SUB DUP2 AND DUP2 EQ PUSH3 0x166 JUMPI PUSH1 0x0 DUP1 REVERT JUMPDEST SWAP4 SWAP3 POP POP POP JUMP JUMPDEST PUSH1 0x80 MLOAD PUSH2 0x4B22 PUSH3 0x190 PUSH1 0x0 CODECOPY PUSH1 0x0 DUP2 DUP2 PUSH2 0x8C2 ADD MSTORE PUSH2 0x2226 ADD MSTORE PUSH2 0x4B22 PUSH1 0x0 RETURN INVALID PUSH1 0x80 PUSH1 0x40 MSTORE PUSH1 0x4 CALLDATASIZE LT PUSH2 0x2C8 JUMPI PUSH1 0x0 CALLDATALOAD PUSH1 0xE0 SHR DUP1 PUSH4 0x6F4F2837 GT PUSH2 0x175 JUMPI DUP1 PUSH4 0xB24F2D39 GT PUSH2 0xDC JUMPI DUP1 PUSH4 0xD45573F6 GT PUSH2 0x95 JUMPI DUP1 PUSH4 0xE1591634 GT PUSH2 0x6F JUMPI DUP1 PUSH4 0xE1591634 EQ PUSH2 0x979 JUMPI DUP1 PUSH4 0xE8A3D485 EQ PUSH2 0x999 JUMPI DUP1 PUSH4 0xE985E9C5 EQ PUSH2 0x9AE JUMPI DUP1 PUSH4 0xEB13554F EQ PUSH2 0x9F8 JUMPI PUSH1 0x0 DUP1 REVERT JUMPDEST DUP1 PUSH4 0xD45573F6 EQ PUSH2 0x8E4 JUMPI DUP1 PUSH4 0xD547741F EQ PUSH2 0x91A JUMPI DUP1 PUSH4 0xDE903774 EQ PUSH2 0x93A JUMPI PUSH1 0x0 DUP1 REVERT JUMPDEST DUP1 PUSH4 0xB24F2D39 EQ PUSH2 0x800 JUMPI DUP1 PUSH4 0xB88D4FDE EQ PUSH2 0x82F JUMPI DUP1 PUSH4 0xC87B56DD EQ PUSH2 0x84F JUMPI DUP1 PUSH4 0xCA15C873 EQ PUSH2 0x86F JUMPI DUP1 PUSH4 0xCB2EF6F7 EQ PUSH2 0x88F JUMPI DUP1 PUSH4 0xCF8267B1 EQ PUSH2 0x8B0 JUMPI PUSH1 0x0 DUP1 REVERT JUMPDEST DUP1 PUSH4 0x95D89B41 GT PUSH2 0x12E JUMPI DUP1 PUSH4 0x95D89B41 EQ PUSH2 0x74D JUMPI DUP1 PUSH4 0x9BCF7A15 EQ PUSH2 0x762 JUMPI DUP1 PUSH4 0xA0A8E460 EQ PUSH2 0x782 JUMPI DUP1 PUSH4 0xA217FDDF EQ PUSH2 0x79E JUMPI DUP1 PUSH4 0xA22CB465 EQ PUSH2 0x7B3 JUMPI DUP1 PUSH4 0xAC9650D8 EQ PUSH2 0x7D3 JUMPI PUSH1 0x0 DUP1 REVERT JUMPDEST DUP1 PUSH4 0x6F4F2837 EQ PUSH2 0x698 JUMPI DUP1 PUSH4 0x70A08231 EQ PUSH2 0x6B8 JUMPI DUP1 PUSH4 0x8DA5CB5B EQ PUSH2 0x6D8 JUMPI DUP1 PUSH4 0x9010D07C EQ PUSH2 0x6ED JUMPI DUP1 PUSH4 0x91D14854 EQ PUSH2 0x70D JUMPI DUP1 PUSH4 0x938E3D7B EQ PUSH2 0x72D JUMPI PUSH1 0x0 DUP1 REVERT JUMPDEST DUP1 PUSH4 0x2A55205A GT PUSH2 0x234 JUMPI DUP1 PUSH4 0x42842E0E GT PUSH2 0x1ED JUMPI DUP1 PUSH4 0x4F6CCCE7 GT PUSH2 0x1C7 JUMPI DUP1 PUSH4 0x4F6CCCE7 EQ PUSH2 0x5FF JUMPI DUP1 PUSH4 0x572B6C05 EQ PUSH2 0x61F JUMPI DUP1 PUSH4 0x600DD5EA EQ PUSH2 0x658 JUMPI DUP1 PUSH4 0x6352211E EQ PUSH2 0x678 JUMPI PUSH1 0x0 DUP1 REVERT JUMPDEST DUP1 PUSH4 0x42842E0E EQ PUSH2 0x57D JUMPI DUP1 PUSH4 0x42966C68 EQ PUSH2 0x59D JUMPI DUP1 PUSH4 0x4CC157DF EQ PUSH2 0x5BD JUMPI PUSH1 0x0 DUP1 REVERT JUMPDEST DUP1 PUSH4 0x2A55205A EQ PUSH2 0x4B4 JUMPI DUP1 PUSH4 0x2C4510F8 EQ PUSH2 0x4F3 JUMPI DUP1 PUSH4 0x2F2FF15D EQ PUSH2 0x506 JUMPI DUP1 PUSH4 0x2F745C59 EQ PUSH2 0x526 JUMPI DUP1 PUSH4 0x36568ABE EQ PUSH2 0x546 JUMPI DUP1 PUSH4 0x3B1475A7 EQ PUSH2 0x566 JUMPI PUSH1 0x0 DUP1 REVERT JUMPDEST DUP1 PUSH4 0x13AF4035 GT PUSH2 0x286 JUMPI DUP1 PUSH4 0x13AF4035 EQ PUSH2 0x3CD JUMPI DUP1 PUSH4 0x18160DDD EQ PUSH2 0x3ED JUMPI DUP1 PUSH4 0x1E7AC488 EQ PUSH2 0x403 JUMPI DUP1 PUSH4 0x22DCD13E EQ PUSH2 0x423 JUMPI DUP1 PUSH4 0x23B872DD EQ PUSH2 0x463 JUMPI DUP1 PUSH4 0x248A9CA3 EQ PUSH2 0x483 JUMPI PUSH1 0x0 DUP1 REVERT JUMPDEST DUP1 PUSH3 0x75A317 EQ PUSH2 0x2CD JUMPI DUP1 PUSH4 0x1FFC9A7 EQ PUSH2 0x300 JUMPI DUP1 PUSH4 0x6FDDE03 EQ PUSH2 0x330 JUMPI DUP1 PUSH4 0x79FE40E EQ PUSH2 0x352 JUMPI DUP1 PUSH4 0x81812FC EQ PUSH2 0x38B JUMPI DUP1 PUSH4 0x95EA7B3 EQ PUSH2 0x3AB JUMPI JUMPDEST PUSH1 0x0 DUP1 REVERT JUMPDEST CALLVALUE DUP1 ISZERO PUSH2 0x2D9 JUMPI PUSH1 0x0 DUP1 REVERT JUMPDEST POP PUSH2 0x2ED PUSH2 0x2E8 CALLDATASIZE PUSH1 0x4 PUSH2 0x3D73 JUMP JUMPDEST PUSH2 0xA19 JUMP JUMPDEST PUSH1 0x40 MLOAD SWAP1 DUP2 MSTORE PUSH1 0x20 ADD JUMPDEST PUSH1 0x40 MLOAD DUP1 SWAP2 SUB SWAP1 RETURN JUMPDEST CALLVALUE DUP1 ISZERO PUSH2 0x30C JUMPI PUSH1 0x0 DUP1 REVERT JUMPDEST POP PUSH2 0x320 PUSH2 0x31B CALLDATASIZE PUSH1 0x4 PUSH2 0x3DDD JUMP JUMPDEST PUSH2 0xA61 JUMP JUMPDEST PUSH1 0x40 MLOAD SWAP1 ISZERO ISZERO DUP2 MSTORE PUSH1 0x20 ADD PUSH2 0x2F7 JUMP JUMPDEST CALLVALUE DUP1 ISZERO PUSH2 0x33C JUMPI PUSH1 0x0 DUP1 REVERT JUMPDEST POP PUSH2 0x345 PUSH2 0xA8D JUMP JUMPDEST PUSH1 0x40 MLOAD PUSH2 0x2F7 SWAP2 SWAP1 PUSH2 0x3E52 JUMP JUMPDEST CALLVALUE DUP1 ISZERO PUSH2 0x35E JUMPI PUSH1 0x0 DUP1 REVERT JUMPDEST POP PUSH2 0x1F9 SLOAD PUSH2 0x373 SWAP1 PUSH1 0x1 PUSH1 0x1 PUSH1 0xA0 SHL SUB AND DUP2 JUMP JUMPDEST PUSH1 0x40 MLOAD PUSH1 0x1 PUSH1 0x1 PUSH1 0xA0 SHL SUB SWAP1 SWAP2 AND DUP2 MSTORE PUSH1 0x20 ADD PUSH2 0x2F7 JUMP JUMPDEST CALLVALUE DUP1 ISZERO PUSH2 0x397 JUMPI PUSH1 0x0 DUP1 REVERT JUMPDEST POP PUSH2 0x373 PUSH2 0x3A6 CALLDATASIZE PUSH1 0x4 PUSH2 0x3E65 JUMP JUMPDEST PUSH2 0xB20 JUMP JUMPDEST CALLVALUE DUP1 ISZERO PUSH2 0x3B7 JUMPI PUSH1 0x0 DUP1 REVERT JUMPDEST POP PUSH2 0x3CB PUSH2 0x3C6 CALLDATASIZE PUSH1 0x4 PUSH2 0x3E7E JUMP JUMPDEST PUSH2 0xBBC JUMP JUMPDEST STOP JUMPDEST CALLVALUE DUP1 ISZERO PUSH2 0x3D9 JUMPI PUSH1 0x0 DUP1 REVERT JUMPDEST POP PUSH2 0x3CB PUSH2 0x3E8 CALLDATASIZE PUSH1 0x4 PUSH2 0x3EAA JUMP JUMPDEST PUSH2 0xCE4 JUMP JUMPDEST CALLVALUE DUP1 ISZERO PUSH2 0x3F9 JUMPI PUSH1 0x0 DUP1 REVERT JUMPDEST POP PUSH2 0x1C7 SLOAD PUSH2 0x2ED JUMP JUMPDEST CALLVALUE DUP1 ISZERO PUSH2 0x40F JUMPI PUSH1 0x0 DUP1 REVERT JUMPDEST POP PUSH2 0x3CB PUSH2 0x41E CALLDATASIZE PUSH1 0x4 PUSH2 0x3E7E JUMP JUMPDEST PUSH2 0xDAD JUMP JUMPDEST CALLVALUE DUP1 ISZERO PUSH2 0x42F JUMPI PUSH1 0x0 DUP1 REVERT JUMPDEST POP PUSH2 0x1FC SLOAD PUSH2 0x44B SWAP1 PUSH1 0x1 PUSH1 0x80 SHL SWAP1 DIV PUSH1 0x1 PUSH1 0x1 PUSH1 0x80 SHL SUB AND DUP2 JUMP JUMPDEST PUSH1 0x40 MLOAD PUSH1 0x1 PUSH1 0x1 PUSH1 0x80 SHL SUB SWAP1 SWAP2 AND DUP2 MSTORE PUSH1 0x20 ADD PUSH2 0x2F7 JUMP JUMPDEST CALLVALUE DUP1 ISZERO PUSH2 0x46F JUMPI PUSH1 0x0 DUP1 REVERT JUMPDEST POP PUSH2 0x3CB PUSH2 0x47E CALLDATASIZE PUSH1 0x4 PUSH2 0x3EC7 JUMP JUMPDEST PUSH2 0xE73 JUMP JUMPDEST CALLVALUE DUP1 ISZERO PUSH2 0x48F JUMPI PUSH1 0x0 DUP1 REVERT JUMPDEST POP PUSH2 0x2ED PUSH2 0x49E CALLDATASIZE PUSH1 0x4 PUSH2 0x3E65 JUMP JUMPDEST PUSH1 0x0 SWAP1 DUP2 MSTORE PUSH2 0x12F PUSH1 0x20 MSTORE PUSH1 0x40 SWAP1 KECCAK256 PUSH1 0x1 ADD SLOAD SWAP1 JUMP JUMPDEST CALLVALUE DUP1 ISZERO PUSH2 0x4C0 JUMPI PUSH1 0x0 DUP1 REVERT JUMPDEST POP PUSH2 0x4D4 PUSH2 0x4CF CALLDATASIZE PUSH1 0x4 PUSH2 0x3F08 JUMP JUMPDEST PUSH2 0xEAB JUMP JUMPDEST PUSH1 0x40 DUP1 MLOAD PUSH1 0x1 PUSH1 0x1 PUSH1 0xA0 SHL SUB SWAP1 SWAP4 AND DUP4 MSTORE PUSH1 0x20 DUP4 ADD SWAP2 SWAP1 SWAP2 MSTORE ADD PUSH2 0x2F7 JUMP JUMPDEST PUSH2 0x2ED PUSH2 0x501 CALLDATASIZE PUSH1 0x4 PUSH2 0x3F2A JUMP JUMPDEST PUSH2 0xEE8 JUMP JUMPDEST CALLVALUE DUP1 ISZERO PUSH2 0x512 JUMPI PUSH1 0x0 DUP1 REVERT JUMPDEST POP PUSH2 0x3CB PUSH2 0x521 CALLDATASIZE PUSH1 0x4 PUSH2 0x3F8E JUMP JUMPDEST PUSH2 0x108F JUMP JUMPDEST CALLVALUE DUP1 ISZERO PUSH2 0x532 JUMPI PUSH1 0x0 DUP1 REVERT JUMPDEST POP PUSH2 0x2ED PUSH2 0x541 CALLDATASIZE PUSH1 0x4 PUSH2 0x3E7E JUMP JUMPDEST PUSH2 0x10B8 JUMP JUMPDEST CALLVALUE DUP1 ISZERO PUSH2 0x552 JUMPI PUSH1 0x0 DUP1 REVERT JUMPDEST POP PUSH2 0x3CB PUSH2 0x561 CALLDATASIZE PUSH1 0x4 PUSH2 0x3F8E JUMP JUMPDEST PUSH2 0x114F JUMP JUMPDEST CALLVALUE DUP1 ISZERO PUSH2 0x572 JUMPI PUSH1 0x0 DUP1 REVERT JUMPDEST POP PUSH2 0x2ED PUSH2 0x1F8 SLOAD DUP2 JUMP JUMPDEST CALLVALUE DUP1 ISZERO PUSH2 0x589 JUMPI PUSH1 0x0 DUP1 REVERT JUMPDEST POP PUSH2 0x3CB PUSH2 0x598 CALLDATASIZE PUSH1 0x4 PUSH2 0x3EC7 JUMP JUMPDEST PUSH2 0x11DD JUMP JUMPDEST CALLVALUE DUP1 ISZERO PUSH2 0x5A9 JUMPI PUSH1 0x0 DUP1 REVERT JUMPDEST POP PUSH2 0x3CB PUSH2 0x5B8 CALLDATASIZE PUSH1 0x4 PUSH2 0x3E65 JUMP JUMPDEST PUSH2 0x11F8 JUMP JUMPDEST CALLVALUE DUP1 ISZERO PUSH2 0x5C9 JUMPI PUSH1 0x0 DUP1 REVERT JUMPDEST POP PUSH2 0x5DD PUSH2 0x5D8 CALLDATASIZE PUSH1 0x4 PUSH2 0x3E65 JUMP JUMPDEST PUSH2 0x1274 JUMP JUMPDEST PUSH1 0x40 DUP1 MLOAD PUSH1 0x1 PUSH1 0x1 PUSH1 0xA0 SHL SUB SWAP1 SWAP4 AND DUP4 MSTORE PUSH2 0xFFFF SWAP1 SWAP2 AND PUSH1 0x20 DUP4 ADD MSTORE ADD PUSH2 0x2F7 JUMP JUMPDEST CALLVALUE DUP1 ISZERO PUSH2 0x60B JUMPI PUSH1 0x0 DUP1 REVERT JUMPDEST POP PUSH2 0x2ED PUSH2 0x61A CALLDATASIZE PUSH1 0x4 PUSH2 0x3E65 JUMP JUMPDEST PUSH2 0x12E4 JUMP JUMPDEST CALLVALUE DUP1 ISZERO PUSH2 0x62B JUMPI PUSH1 0x0 DUP1 REVERT JUMPDEST POP PUSH2 0x320 PUSH2 0x63A CALLDATASIZE PUSH1 0x4 PUSH2 0x3EAA JUMP JUMPDEST PUSH1 0x1 PUSH1 0x1 PUSH1 0xA0 SHL SUB AND PUSH1 0x0 SWAP1 DUP2 MSTORE PUSH1 0x99 PUSH1 0x20 MSTORE PUSH1 0x40 SWAP1 KECCAK256 SLOAD PUSH1 0xFF AND SWAP1 JUMP JUMPDEST CALLVALUE DUP1 ISZERO PUSH2 0x664 JUMPI PUSH1 0x0 DUP1 REVERT JUMPDEST POP PUSH2 0x3CB PUSH2 0x673 CALLDATASIZE PUSH1 0x4 PUSH2 0x3E7E JUMP JUMPDEST PUSH2 0x1379 JUMP JUMPDEST CALLVALUE DUP1 ISZERO PUSH2 0x684 JUMPI PUSH1 0x0 DUP1 REVERT JUMPDEST POP PUSH2 0x373 PUSH2 0x693 CALLDATASIZE PUSH1 0x4 PUSH2 0x3E65 JUMP JUMPDEST PUSH2 0x143F JUMP JUMPDEST CALLVALUE DUP1 ISZERO PUSH2 0x6A4 JUMPI PUSH1 0x0 DUP1 REVERT JUMPDEST POP PUSH2 0x3CB PUSH2 0x6B3 CALLDATASIZE PUSH1 0x4 PUSH2 0x3EAA JUMP JUMPDEST PUSH2 0x14B7 JUMP JUMPDEST CALLVALUE DUP1 ISZERO PUSH2 0x6C4 JUMPI PUSH1 0x0 DUP1 REVERT JUMPDEST POP PUSH2 0x2ED PUSH2 0x6D3 CALLDATASIZE PUSH1 0x4 PUSH2 0x3EAA JUMP JUMPDEST PUSH2 0x1511 JUMP JUMPDEST CALLVALUE DUP1 ISZERO PUSH2 0x6E4 JUMPI PUSH1 0x0 DUP1 REVERT JUMPDEST POP PUSH2 0x373 PUSH2 0x1599 JUMP JUMPDEST CALLVALUE DUP1 ISZERO PUSH2 0x6F9 JUMPI PUSH1 0x0 DUP1 REVERT JUMPDEST POP PUSH2 0x373 PUSH2 0x708 CALLDATASIZE PUSH1 0x4 PUSH2 0x3F08 JUMP JUMPDEST PUSH2 0x15D1 JUMP JUMPDEST CALLVALUE DUP1 ISZERO PUSH2 0x719 JUMPI PUSH1 0x0 DUP1 REVERT JUMPDEST POP PUSH2 0x320 PUSH2 0x728 CALLDATASIZE PUSH1 0x4 PUSH2 0x3F8E JUMP JUMPDEST PUSH2 0x15F1 JUMP JUMPDEST CALLVALUE DUP1 ISZERO PUSH2 0x739 JUMPI PUSH1 0x0 DUP1 REVERT JUMPDEST POP PUSH2 0x3CB PUSH2 0x748 CALLDATASIZE PUSH1 0x4 PUSH2 0x3FBE JUMP JUMPDEST PUSH2 0x161D JUMP JUMPDEST CALLVALUE DUP1 ISZERO PUSH2 0x759 JUMPI PUSH1 0x0 DUP1 REVERT JUMPDEST POP PUSH2 0x345 PUSH2 0x163E JUMP JUMPDEST CALLVALUE DUP1 ISZERO PUSH2 0x76E JUMPI PUSH1 0x0 DUP1 REVERT JUMPDEST POP PUSH2 0x3CB PUSH2 0x77D CALLDATASIZE PUSH1 0x4 PUSH2 0x3FFF JUMP JUMPDEST PUSH2 0x164E JUMP JUMPDEST CALLVALUE DUP1 ISZERO PUSH2 0x78E JUMPI PUSH1 0x0 DUP1 REVERT JUMPDEST POP PUSH1 0x40 MLOAD PUSH1 0x1 DUP2 MSTORE PUSH1 0x20 ADD PUSH2 0x2F7 JUMP JUMPDEST CALLVALUE DUP1 ISZERO PUSH2 0x7AA JUMPI PUSH1 0x0 DUP1 REVERT JUMPDEST POP PUSH2 0x2ED PUSH1 0x0 DUP2 JUMP JUMPDEST CALLVALUE DUP1 ISZERO PUSH2 0x7BF JUMPI PUSH1 0x0 DUP1 REVERT JUMPDEST POP PUSH2 0x3CB PUSH2 0x7CE CALLDATASIZE PUSH1 0x4 PUSH2 0x4034 JUMP JUMPDEST PUSH2 0x172D JUMP JUMPDEST CALLVALUE DUP1 ISZERO PUSH2 0x7DF JUMPI PUSH1 0x0 DUP1 REVERT JUMPDEST POP PUSH2 0x7F3 PUSH2 0x7EE CALLDATASIZE PUSH1 0x4 PUSH2 0x4062 JUMP JUMPDEST PUSH2 0x173F JUMP JUMPDEST PUSH1 0x40 MLOAD PUSH2 0x2F7 SWAP2 SWAP1 PUSH2 0x40D6 JUMP JUMPDEST CALLVALUE DUP1 ISZERO PUSH2 0x80C JUMPI PUSH1 0x0 DUP1 REVERT JUMPDEST POP PUSH2 0x1FB SLOAD PUSH2 0x1FC SLOAD PUSH1 0x1 PUSH1 0x1 PUSH1 0xA0 SHL SUB SWAP1 SWAP2 AND SWAP1 PUSH1 0x1 PUSH1 0x1 PUSH1 0x80 SHL SUB AND PUSH2 0x5DD JUMP JUMPDEST CALLVALUE DUP1 ISZERO PUSH2 0x83B JUMPI PUSH1 0x0 DUP1 REVERT JUMPDEST POP PUSH2 0x3CB PUSH2 0x84A CALLDATASIZE PUSH1 0x4 PUSH2 0x41FE JUMP JUMPDEST PUSH2 0x1833 JUMP JUMPDEST CALLVALUE DUP1 ISZERO PUSH2 0x85B JUMPI PUSH1 0x0 DUP1 REVERT JUMPDEST POP PUSH2 0x345 PUSH2 0x86A CALLDATASIZE PUSH1 0x4 PUSH2 0x3E65 JUMP JUMPDEST PUSH2 0x186C JUMP JUMPDEST CALLVALUE DUP1 ISZERO PUSH2 0x87B JUMPI PUSH1 0x0 DUP1 REVERT JUMPDEST POP PUSH2 0x2ED PUSH2 0x88A CALLDATASIZE PUSH1 0x4 PUSH2 0x3E65 JUMP JUMPDEST PUSH2 0x190F JUMP JUMPDEST CALLVALUE DUP1 ISZERO PUSH2 0x89B JUMPI PUSH1 0x0 DUP1 REVERT JUMPDEST POP PUSH11 0x546F6B656E455243373231 PUSH1 0xA8 SHL PUSH2 0x2ED JUMP JUMPDEST CALLVALUE DUP1 ISZERO PUSH2 0x8BC JUMPI PUSH1 0x0 DUP1 REVERT JUMPDEST POP PUSH2 0x373 PUSH32 0x0 DUP2 JUMP JUMPDEST CALLVALUE DUP1 ISZERO PUSH2 0x8F0 JUMPI PUSH1 0x0 DUP1 REVERT JUMPDEST POP PUSH2 0x1FA SLOAD PUSH2 0x1FC SLOAD PUSH1 0x1 PUSH1 0x1 PUSH1 0xA0 SHL SUB SWAP1 SWAP2 AND SWAP1 PUSH1 0x1 PUSH1 0x80 SHL SWAP1 DIV PUSH1 0x1 PUSH1 0x1 PUSH1 0x80 SHL SUB AND PUSH2 0x5DD JUMP JUMPDEST CALLVALUE DUP1 ISZERO PUSH2 0x926 JUMPI PUSH1 0x0 DUP1 REVERT JUMPDEST POP PUSH2 0x3CB PUSH2 0x935 CALLDATASIZE PUSH1 0x4 PUSH2 0x3F8E JUMP JUMPDEST PUSH2 0x1927 JUMP JUMPDEST CALLVALUE DUP1 ISZERO PUSH2 0x946 JUMPI PUSH1 0x0 DUP1 REVERT JUMPDEST POP PUSH2 0x95A PUSH2 0x955 CALLDATASIZE PUSH1 0x4 PUSH2 0x3F2A JUMP JUMPDEST PUSH2 0x1950 JUMP JUMPDEST PUSH1 0x40 DUP1 MLOAD SWAP3 ISZERO ISZERO DUP4 MSTORE PUSH1 0x1 PUSH1 0x1 PUSH1 0xA0 SHL SUB SWAP1 SWAP2 AND PUSH1 0x20 DUP4 ADD MSTORE ADD PUSH2 0x2F7 JUMP JUMPDEST CALLVALUE DUP1 ISZERO PUSH2 0x985 JUMPI PUSH1 0x0 DUP1 REVERT JUMPDEST POP PUSH2 0x3CB PUSH2 0x994 CALLDATASIZE PUSH1 0x4 PUSH2 0x433C JUMP JUMPDEST PUSH2 0x19B9 JUMP JUMPDEST CALLVALUE DUP1 ISZERO PUSH2 0x9A5 JUMPI PUSH1 0x0 DUP1 REVERT JUMPDEST POP PUSH2 0x345 PUSH2 0x1BEE JUMP JUMPDEST CALLVALUE DUP1 ISZERO PUSH2 0x9BA JUMPI PUSH1 0x0 DUP1 REVERT JUMPDEST POP PUSH2 0x320 PUSH2 0x9C9 CALLDATASIZE PUSH1 0x4 PUSH2 0x444E JUMP JUMPDEST PUSH1 0x1 PUSH1 0x1 PUSH1 0xA0 SHL SUB SWAP2 DUP3 AND PUSH1 0x0 SWAP1 DUP2 MSTORE PUSH2 0x198 PUSH1 0x20 SWAP1 DUP2 MSTORE PUSH1 0x40 DUP1 DUP4 KECCAK256 SWAP4 SWAP1 SWAP5 AND DUP3 MSTORE SWAP2 SWAP1 SWAP2 MSTORE KECCAK256 SLOAD PUSH1 0xFF AND SWAP1 JUMP JUMPDEST CALLVALUE DUP1 ISZERO PUSH2 0xA04 JUMPI PUSH1 0x0 DUP1 REVERT JUMPDEST POP PUSH2 0x1FA SLOAD PUSH2 0x373 SWAP1 PUSH1 0x1 PUSH1 0x1 PUSH1 0xA0 SHL SUB AND DUP2 JUMP JUMPDEST PUSH1 0x0 PUSH32 0x9F2DF0FED2C77648DE5860A4CC508CD0818C85B8B8A1AB4CEEEF8D981C8956A6 PUSH2 0xA4D DUP2 PUSH2 0xA48 PUSH2 0x1C8C JUMP JUMPDEST PUSH2 0x1C96 JUMP JUMPDEST PUSH2 0xA58 DUP6 DUP6 DUP6 PUSH2 0x1CFA JUMP JUMPDEST SWAP6 SWAP5 POP POP POP POP POP JUMP JUMPDEST PUSH1 0x0 PUSH2 0xA6C DUP3 PUSH2 0x1D84 JUMP JUMPDEST DUP1 PUSH2 0xA87 JUMPI POP PUSH1 0x1 PUSH1 0x1 PUSH1 0xE0 SHL SUB NOT DUP3 AND PUSH4 0x152A902D PUSH1 0xE1 SHL EQ JUMPDEST SWAP3 SWAP2 POP POP JUMP JUMPDEST PUSH1 0x60 PUSH2 0x193 DUP1 SLOAD PUSH2 0xA9D SWAP1 PUSH2 0x447C JUMP JUMPDEST DUP1 PUSH1 0x1F ADD PUSH1 0x20 DUP1 SWAP2 DIV MUL PUSH1 0x20 ADD PUSH1 0x40 MLOAD SWAP1 DUP2 ADD PUSH1 0x40 MSTORE DUP1 SWAP3 SWAP2 SWAP1 DUP2 DUP2 MSTORE PUSH1 0x20 ADD DUP3 DUP1 SLOAD PUSH2 0xAC9 SWAP1 PUSH2 0x447C JUMP JUMPDEST DUP1 ISZERO PUSH2 0xB16 JUMPI DUP1 PUSH1 0x1F LT PUSH2 0xAEB JUMPI PUSH2 0x100 DUP1 DUP4 SLOAD DIV MUL DUP4 MSTORE SWAP2 PUSH1 0x20 ADD SWAP2 PUSH2 0xB16 JUMP JUMPDEST DUP3 ADD SWAP2 SWAP1 PUSH1 0x0 MSTORE PUSH1 0x20 PUSH1 0x0 KECCAK256 SWAP1 JUMPDEST DUP2 SLOAD DUP2 MSTORE SWAP1 PUSH1 0x1 ADD SWAP1 PUSH1 0x20 ADD DUP1 DUP4 GT PUSH2 0xAF9 JUMPI DUP3 SWAP1 SUB PUSH1 0x1F AND DUP3 ADD SWAP2 JUMPDEST POP POP POP POP POP SWAP1 POP SWAP1 JUMP JUMPDEST PUSH1 0x0 DUP2 DUP2 MSTORE PUSH2 0x195 PUSH1 0x20 MSTORE PUSH1 0x40 DUP2 KECCAK256 SLOAD PUSH1 0x1 PUSH1 0x1 PUSH1 0xA0 SHL SUB AND PUSH2 0xB9F JUMPI PUSH1 0x40 MLOAD PUSH3 0x461BCD PUSH1 0xE5 SHL DUP2 MSTORE PUSH1 0x20 PUSH1 0x4 DUP3 ADD MSTORE PUSH1 0x2C PUSH1 0x24 DUP3 ADD MSTORE PUSH32 0x4552433732313A20617070726F76656420717565727920666F72206E6F6E6578 PUSH1 0x44 DUP3 ADD MSTORE PUSH12 0x34B9BA32B73A103A37B5B2B7 PUSH1 0xA1 SHL PUSH1 0x64 DUP3 ADD MSTORE PUSH1 0x84 ADD JUMPDEST PUSH1 0x40 MLOAD DUP1 SWAP2 SUB SWAP1 REVERT JUMPDEST POP PUSH1 0x0 SWAP1 DUP2 MSTORE PUSH2 0x197 PUSH1 0x20 MSTORE PUSH1 0x40 SWAP1 KECCAK256 SLOAD PUSH1 0x1 PUSH1 0x1 PUSH1 0xA0 SHL SUB AND SWAP1 JUMP JUMPDEST PUSH1 0x0 PUSH2 0xBC7 DUP3 PUSH2 0x143F JUMP JUMPDEST SWAP1 POP DUP1 PUSH1 0x1 PUSH1 0x1 PUSH1 0xA0 SHL SUB AND DUP4 PUSH1 0x1 PUSH1 0x1 PUSH1 0xA0 SHL SUB AND EQ ISZERO PUSH2 0xC35 JUMPI PUSH1 0x40 MLOAD PUSH3 0x461BCD PUSH1 0xE5 SHL DUP2 MSTORE PUSH1 0x20 PUSH1 0x4 DUP3 ADD MSTORE PUSH1 0x21 PUSH1 0x24 DUP3 ADD MSTORE PUSH32 0x4552433732313A20617070726F76616C20746F2063757272656E74206F776E65 PUSH1 0x44 DUP3 ADD MSTORE PUSH1 0x39 PUSH1 0xF9 SHL PUSH1 0x64 DUP3 ADD MSTORE PUSH1 0x84 ADD PUSH2 0xB96 JUMP JUMPDEST DUP1 PUSH1 0x1 PUSH1 0x1 PUSH1 0xA0 SHL SUB AND PUSH2 0xC47 PUSH2 0x1C8C JUMP JUMPDEST PUSH1 0x1 PUSH1 0x1 PUSH1 0xA0 SHL SUB AND EQ DUP1 PUSH2 0xC63 JUMPI POP PUSH2 0xC63 DUP2 PUSH2 0x9C9 PUSH2 0x1C8C JUMP JUMPDEST PUSH2 0xCD5 JUMPI PUSH1 0x40 MLOAD PUSH3 0x461BCD PUSH1 0xE5 SHL DUP2 MSTORE PUSH1 0x20 PUSH1 0x4 DUP3 ADD MSTORE PUSH1 0x38 PUSH1 0x24 DUP3 ADD MSTORE PUSH32 0x4552433732313A20617070726F76652063616C6C6572206973206E6F74206F77 PUSH1 0x44 DUP3 ADD MSTORE PUSH32 0x6E6572206E6F7220617070726F76656420666F7220616C6C0000000000000000 PUSH1 0x64 DUP3 ADD MSTORE PUSH1 0x84 ADD PUSH2 0xB96 JUMP JUMPDEST PUSH2 0xCDF DUP4 DUP4 PUSH2 0x1DA9 JUMP JUMPDEST POP POP POP JUMP JUMPDEST PUSH1 0x0 PUSH2 0xCF2 DUP2 PUSH2 0xA48 PUSH2 0x1C8C JUMP JUMPDEST PUSH2 0xCFD PUSH1 0x0 DUP4 PUSH2 0x15F1 JUMP JUMPDEST PUSH2 0xD49 JUMPI PUSH1 0x40 MLOAD PUSH3 0x461BCD PUSH1 0xE5 SHL DUP2 MSTORE PUSH1 0x20 PUSH1 0x4 DUP3 ADD MSTORE PUSH1 0x1B PUSH1 0x24 DUP3 ADD MSTORE PUSH32 0x6E6577206F776E6572206E6F74206D6F64756C652061646D696E2E0000000000 PUSH1 0x44 DUP3 ADD MSTORE PUSH1 0x64 ADD PUSH2 0xB96 JUMP JUMPDEST PUSH2 0x1F7 DUP1 SLOAD PUSH1 0x1 PUSH1 0x1 PUSH1 0xA0 SHL SUB DUP5 DUP2 AND PUSH1 0x1 PUSH1 0x1 PUSH1 0xA0 SHL SUB NOT DUP4 AND DUP2 OR SWAP1 SWAP4 SSTORE PUSH1 0x40 DUP1 MLOAD SWAP2 SWAP1 SWAP3 AND DUP1 DUP3 MSTORE PUSH1 0x20 DUP3 ADD SWAP4 SWAP1 SWAP4 MSTORE PUSH32 0x8292FCE18FA69EDF4DB7B94EA2E58241DF0AE57F97E0A6C9B29067028BF92D76 SWAP2 ADD JUMPDEST PUSH1 0x40 MLOAD DUP1 SWAP2 SUB SWAP1 LOG1 POP POP POP JUMP JUMPDEST PUSH1 0x0 PUSH2 0xDBB DUP2 PUSH2 0xA48 PUSH2 0x1C8C JUMP JUMPDEST PUSH2 0x2710 DUP3 GT ISZERO PUSH2 0xDFD JUMPI PUSH1 0x40 MLOAD PUSH3 0x461BCD PUSH1 0xE5 SHL DUP2 MSTORE PUSH1 0x20 PUSH1 0x4 DUP3 ADD MSTORE PUSH1 0xD PUSH1 0x24 DUP3 ADD MSTORE PUSH13 0x313839901E1E90189818181817 PUSH1 0x99 SHL PUSH1 0x44 DUP3 ADD MSTORE PUSH1 0x64 ADD PUSH2 0xB96 JUMP JUMPDEST PUSH2 0x1FC DUP1 SLOAD PUSH1 0x1 PUSH1 0x1 PUSH1 0x80 SHL SUB AND PUSH1 0x1 PUSH1 0x1 PUSH1 0x40 SHL SUB DUP5 AND PUSH1 0x1 PUSH1 0x80 SHL MUL OR SWAP1 SSTORE PUSH2 0x1FA DUP1 SLOAD PUSH1 0x1 PUSH1 0x1 PUSH1 0xA0 SHL SUB NOT AND PUSH1 0x1 PUSH1 0x1 PUSH1 0xA0 SHL SUB DUP6 AND SWAP1 DUP2 OR SWAP1 SWAP2 SSTORE PUSH1 0x40 DUP1 MLOAD SWAP2 DUP3 MSTORE PUSH1 0x20 DUP3 ADD DUP5 SWAP1 MSTORE PUSH32 0xE2497BD806EC41A6E0DD992C29A72EFC0EF8FEC9092D1978FD4A1E00B2F18304 SWAP2 ADD PUSH2 0xDA0 JUMP JUMPDEST PUSH2 0xE84 PUSH2 0xE7E PUSH2 0x1C8C JUMP JUMPDEST DUP3 PUSH2 0x1E18 JUMP JUMPDEST PUSH2 0xEA0 JUMPI PUSH1 0x40 MLOAD PUSH3 0x461BCD PUSH1 0xE5 SHL DUP2 MSTORE PUSH1 0x4 ADD PUSH2 0xB96 SWAP1 PUSH2 0x44B7 JUMP JUMPDEST PUSH2 0xCDF DUP4 DUP4 DUP4 PUSH2 0x1F11 JUMP JUMPDEST PUSH1 0x0 DUP1 PUSH1 0x0 DUP1 PUSH2 0xEBA DUP7 PUSH2 0x1274 JUMP JUMPDEST SWAP1 SWAP5 POP DUP5 SWAP3 POP PUSH2 0xFFFF AND SWAP1 POP PUSH2 0x2710 PUSH2 0xED3 DUP3 DUP8 PUSH2 0x451E JUMP JUMPDEST PUSH2 0xEDD SWAP2 SWAP1 PUSH2 0x453D JUMP JUMPDEST SWAP3 POP POP POP SWAP3 POP SWAP3 SWAP1 POP JUMP JUMPDEST PUSH1 0x0 PUSH1 0x2 PUSH1 0x1 SLOAD EQ ISZERO PUSH2 0xF3D JUMPI PUSH1 0x40 MLOAD PUSH3 0x461BCD PUSH1 0xE5 SHL DUP2 MSTORE PUSH1 0x20 PUSH1 0x4 DUP3 ADD MSTORE PUSH1 0x1F PUSH1 0x24 DUP3 ADD MSTORE PUSH32 0x5265656E7472616E637947756172643A207265656E7472616E742063616C6C00 PUSH1 0x44 DUP3 ADD MSTORE PUSH1 0x64 ADD PUSH2 0xB96 JUMP JUMPDEST PUSH1 0x2 PUSH1 0x1 SSTORE PUSH1 0x0 PUSH2 0xF4F DUP6 DUP6 DUP6 PUSH2 0x20BB JUMP JUMPDEST SWAP1 POP PUSH1 0x0 DUP1 PUSH2 0xF61 PUSH1 0x20 DUP9 ADD DUP9 PUSH2 0x3EAA JUMP JUMPDEST PUSH1 0x1 PUSH1 0x1 PUSH1 0xA0 SHL SUB AND EQ PUSH2 0xF81 JUMPI PUSH2 0xF7C PUSH1 0x20 DUP8 ADD DUP8 PUSH2 0x3EAA JUMP JUMPDEST PUSH2 0xF89 JUMP JUMPDEST PUSH2 0xF89 PUSH2 0x1C8C JUMP JUMPDEST SWAP1 POP PUSH2 0xFA1 DUP2 PUSH2 0xF9C PUSH1 0x80 DUP10 ADD DUP10 PUSH2 0x455F JUMP JUMPDEST PUSH2 0x1CFA JUMP JUMPDEST SWAP3 POP PUSH1 0x0 PUSH2 0xFB5 PUSH1 0x40 DUP9 ADD PUSH1 0x20 DUP10 ADD PUSH2 0x3EAA JUMP JUMPDEST PUSH1 0x1 PUSH1 0x1 PUSH1 0xA0 SHL SUB AND EQ PUSH2 0x1025 JUMPI PUSH1 0x40 MLOAD DUP1 PUSH1 0x40 ADD PUSH1 0x40 MSTORE DUP1 DUP8 PUSH1 0x20 ADD PUSH1 0x20 DUP2 ADD SWAP1 PUSH2 0xFE1 SWAP2 SWAP1 PUSH2 0x3EAA JUMP JUMPDEST PUSH1 0x1 PUSH1 0x1 PUSH1 0xA0 SHL SUB SWAP1 DUP2 AND DUP3 MSTORE PUSH1 0x40 DUP10 DUP2 ADD CALLDATALOAD PUSH1 0x20 SWAP4 DUP5 ADD MSTORE PUSH1 0x0 DUP8 DUP2 MSTORE PUSH2 0x200 DUP5 MSTORE KECCAK256 DUP4 MLOAD DUP2 SLOAD PUSH1 0x1 PUSH1 0x1 PUSH1 0xA0 SHL SUB NOT AND SWAP3 AND SWAP2 SWAP1 SWAP2 OR DUP2 SSTORE SWAP2 ADD MLOAD PUSH1 0x1 SWAP1 SWAP2 ADD SSTORE JUMPDEST PUSH2 0x1036 PUSH2 0x1031 DUP8 PUSH2 0x45A5 JUMP JUMPDEST PUSH2 0x21BB JUMP JUMPDEST DUP3 DUP2 PUSH1 0x1 PUSH1 0x1 PUSH1 0xA0 SHL SUB AND DUP4 PUSH1 0x1 PUSH1 0x1 PUSH1 0xA0 SHL SUB AND PUSH32 0x110D160A1BEDEEA919A88FBC4B2A9FB61B7E664084391B6CA2740DB66FEF80FE DUP10 PUSH1 0x40 MLOAD PUSH2 0x107A SWAP2 SWAP1 PUSH2 0x46E0 JUMP JUMPDEST PUSH1 0x40 MLOAD DUP1 SWAP2 SUB SWAP1 LOG4 POP POP PUSH1 0x1 DUP1 SSTORE SWAP4 SWAP3 POP POP POP JUMP JUMPDEST PUSH1 0x0 DUP3 DUP2 MSTORE PUSH2 0x12F PUSH1 0x20 MSTORE PUSH1 0x40 SWAP1 KECCAK256 PUSH1 0x1 ADD SLOAD PUSH2 0x10AE DUP2 PUSH2 0xA48 PUSH2 0x1C8C JUMP JUMPDEST PUSH2 0xCDF DUP4 DUP4 PUSH2 0x23C0 JUMP JUMPDEST PUSH1 0x0 PUSH2 0x10C3 DUP4 PUSH2 0x1511 JUMP JUMPDEST DUP3 LT PUSH2 0x1125 JUMPI PUSH1 0x40 MLOAD PUSH3 0x461BCD PUSH1 0xE5 SHL DUP2 MSTORE PUSH1 0x20 PUSH1 0x4 DUP3 ADD MSTORE PUSH1 0x2B PUSH1 0x24 DUP3 ADD MSTORE PUSH32 0x455243373231456E756D657261626C653A206F776E657220696E646578206F75 PUSH1 0x44 DUP3 ADD MSTORE PUSH11 0x74206F6620626F756E6473 PUSH1 0xA8 SHL PUSH1 0x64 DUP3 ADD MSTORE PUSH1 0x84 ADD PUSH2 0xB96 JUMP JUMPDEST POP PUSH1 0x1 PUSH1 0x1 PUSH1 0xA0 SHL SUB SWAP2 SWAP1 SWAP2 AND PUSH1 0x0 SWAP1 DUP2 MSTORE PUSH2 0x1C5 PUSH1 0x20 SWAP1 DUP2 MSTORE PUSH1 0x40 DUP1 DUP4 KECCAK256 SWAP4 DUP4 MSTORE SWAP3 SWAP1 MSTORE KECCAK256 SLOAD SWAP1 JUMP JUMPDEST PUSH2 0x1157 PUSH2 0x1C8C JUMP JUMPDEST PUSH1 0x1 PUSH1 0x1 PUSH1 0xA0 SHL SUB AND DUP2 PUSH1 0x1 PUSH1 0x1 PUSH1 0xA0 SHL SUB AND EQ PUSH2 0x11CF JUMPI PUSH1 0x40 MLOAD PUSH3 0x461BCD PUSH1 0xE5 SHL DUP2 MSTORE PUSH1 0x20 PUSH1 0x4 DUP3 ADD MSTORE PUSH1 0x2F PUSH1 0x24 DUP3 ADD MSTORE PUSH32 0x416363657373436F6E74726F6C3A2063616E206F6E6C792072656E6F756E6365 PUSH1 0x44 DUP3 ADD MSTORE PUSH15 0x103937B632B9903337B91039B2B633 PUSH1 0x89 SHL PUSH1 0x64 DUP3 ADD MSTORE PUSH1 0x84 ADD PUSH2 0xB96 JUMP JUMPDEST PUSH2 0x11D9 DUP3 DUP3 PUSH2 0x23E3 JUMP JUMPDEST POP POP JUMP JUMPDEST PUSH2 0xCDF DUP4 DUP4 DUP4 PUSH1 0x40 MLOAD DUP1 PUSH1 0x20 ADD PUSH1 0x40 MSTORE DUP1 PUSH1 0x0 DUP2 MSTORE POP PUSH2 0x1833 JUMP JUMPDEST PUSH2 0x1203 PUSH2 0xE7E PUSH2 0x1C8C JUMP JUMPDEST PUSH2 0x1268 JUMPI PUSH1 0x40 MLOAD PUSH3 0x461BCD PUSH1 0xE5 SHL DUP2 MSTORE PUSH1 0x20 PUSH1 0x4 DUP3 ADD MSTORE PUSH1 0x30 PUSH1 0x24 DUP3 ADD MSTORE PUSH32 0x4552433732314275726E61626C653A2063616C6C6572206973206E6F74206F77 PUSH1 0x44 DUP3 ADD MSTORE PUSH16 0x1B995C881B9BDC88185C1C1C9BDD9959 PUSH1 0x82 SHL PUSH1 0x64 DUP3 ADD MSTORE PUSH1 0x84 ADD PUSH2 0xB96 JUMP JUMPDEST PUSH2 0x1271 DUP2 PUSH2 0x2406 JUMP JUMPDEST POP JUMP JUMPDEST PUSH1 0x0 DUP2 DUP2 MSTORE PUSH2 0x200 PUSH1 0x20 SWAP1 DUP2 MSTORE PUSH1 0x40 DUP1 DUP4 KECCAK256 DUP2 MLOAD DUP1 DUP4 ADD SWAP1 SWAP3 MSTORE DUP1 SLOAD PUSH1 0x1 PUSH1 0x1 PUSH1 0xA0 SHL SUB AND DUP1 DUP4 MSTORE PUSH1 0x1 SWAP1 SWAP2 ADD SLOAD SWAP3 DUP3 ADD SWAP3 SWAP1 SWAP3 MSTORE DUP3 SWAP2 ISZERO PUSH2 0x12BC JUMPI DUP1 MLOAD PUSH1 0x20 DUP3 ADD MLOAD PUSH2 0x12DA JUMP JUMPDEST PUSH2 0x1FB SLOAD PUSH2 0x1FC SLOAD PUSH1 0x1 PUSH1 0x1 PUSH1 0xA0 SHL SUB SWAP1 SWAP2 AND SWAP1 PUSH1 0x1 PUSH1 0x1 PUSH1 0x80 SHL SUB AND JUMPDEST SWAP3 POP SWAP3 POP POP SWAP2 POP SWAP2 JUMP JUMPDEST PUSH1 0x0 PUSH2 0x12F0 PUSH2 0x1C7 SLOAD SWAP1 JUMP JUMPDEST DUP3 LT PUSH2 0x1353 JUMPI PUSH1 0x40 MLOAD PUSH3 0x461BCD PUSH1 0xE5 SHL DUP2 MSTORE PUSH1 0x20 PUSH1 0x4 DUP3 ADD MSTORE PUSH1 0x2C PUSH1 0x24 DUP3 ADD MSTORE PUSH32 0x455243373231456E756D657261626C653A20676C6F62616C20696E646578206F PUSH1 0x44 DUP3 ADD MSTORE PUSH12 0x7574206F6620626F756E6473 PUSH1 0xA0 SHL PUSH1 0x64 DUP3 ADD MSTORE PUSH1 0x84 ADD PUSH2 0xB96 JUMP JUMPDEST PUSH2 0x1C7 DUP3 DUP2 SLOAD DUP2 LT PUSH2 0x1367 JUMPI PUSH2 0x1367 PUSH2 0x47F0 JUMP JUMPDEST SWAP1 PUSH1 0x0 MSTORE PUSH1 0x20 PUSH1 0x0 KECCAK256 ADD SLOAD SWAP1 POP SWAP2 SWAP1 POP JUMP JUMPDEST PUSH1 0x0 PUSH2 0x1387 DUP2 PUSH2 0xA48 PUSH2 0x1C8C JUMP JUMPDEST PUSH2 0x2710 DUP3 GT ISZERO PUSH2 0x13CE JUMPI PUSH1 0x40 MLOAD PUSH3 0x461BCD PUSH1 0xE5 SHL DUP2 MSTORE PUSH1 0x20 PUSH1 0x4 DUP3 ADD MSTORE PUSH1 0x12 PUSH1 0x24 DUP3 ADD MSTORE PUSH18 0x65786365656420726F79616C747920627073 PUSH1 0x70 SHL PUSH1 0x44 DUP3 ADD MSTORE PUSH1 0x64 ADD PUSH2 0xB96 JUMP JUMPDEST PUSH2 0x1FB DUP1 SLOAD PUSH1 0x1 PUSH1 0x1 PUSH1 0xA0 SHL SUB NOT AND PUSH1 0x1 PUSH1 0x1 PUSH1 0xA0 SHL SUB DUP6 AND SWAP1 DUP2 OR SWAP1 SWAP2 SSTORE PUSH2 0x1FC DUP1 SLOAD PUSH1 0x1 PUSH1 0x1 PUSH1 0x80 SHL SUB NOT AND PUSH1 0x1 PUSH1 0x1 PUSH1 0x80 SHL SUB DUP6 AND OR SWAP1 SSTORE PUSH1 0x40 DUP1 MLOAD SWAP2 DUP3 MSTORE PUSH1 0x20 DUP3 ADD DUP5 SWAP1 MSTORE PUSH32 0x90D7EC04BCB8978719414F82E52E4CB651DB41D0E6F8CEA6118C2191E6183ADB SWAP2 ADD PUSH2 0xDA0 JUMP JUMPDEST PUSH1 0x0 DUP2 DUP2 MSTORE PUSH2 0x195 PUSH1 0x20 MSTORE PUSH1 0x40 DUP2 KECCAK256 SLOAD PUSH1 0x1 PUSH1 0x1 PUSH1 0xA0 SHL SUB AND DUP1 PUSH2 0xA87 JUMPI PUSH1 0x40 MLOAD PUSH3 0x461BCD PUSH1 0xE5 SHL DUP2 MSTORE PUSH1 0x20 PUSH1 0x4 DUP3 ADD MSTORE PUSH1 0x29 PUSH1 0x24 DUP3 ADD MSTORE PUSH32 0x4552433732313A206F776E657220717565727920666F72206E6F6E6578697374 PUSH1 0x44 DUP3 ADD MSTORE PUSH9 0x32B73A103A37B5B2B7 PUSH1 0xB9 SHL PUSH1 0x64 DUP3 ADD MSTORE PUSH1 0x84 ADD PUSH2 0xB96 JUMP JUMPDEST PUSH1 0x0 PUSH2 0x14C5 DUP2 PUSH2 0xA48 PUSH2 0x1C8C JUMP JUMPDEST PUSH2 0x1F9 DUP1 SLOAD PUSH1 0x1 PUSH1 0x1 PUSH1 0xA0 SHL SUB NOT AND PUSH1 0x1 PUSH1 0x1 PUSH1 0xA0 SHL SUB DUP5 AND SWAP1 DUP2 OR SWAP1 SWAP2 SSTORE PUSH1 0x40 MLOAD PUSH32 0x299D17E95023F496E0FFC4909CFF1A61F74BB5EB18DE6F900F4155BFA1B3B333 SWAP1 PUSH1 0x0 SWAP1 LOG2 POP POP JUMP JUMPDEST PUSH1 0x0 PUSH1 0x1 PUSH1 0x1 PUSH1 0xA0 SHL SUB DUP3 AND PUSH2 0x157C JUMPI PUSH1 0x40 MLOAD PUSH3 0x461BCD PUSH1 0xE5 SHL DUP2 MSTORE PUSH1 0x20 PUSH1 0x4 DUP3 ADD MSTORE PUSH1 0x2A PUSH1 0x24 DUP3 ADD MSTORE PUSH32 0x4552433732313A2062616C616E636520717565727920666F7220746865207A65 PUSH1 0x44 DUP3 ADD MSTORE PUSH10 0x726F2061646472657373 PUSH1 0xB0 SHL PUSH1 0x64 DUP3 ADD MSTORE PUSH1 0x84 ADD PUSH2 0xB96 JUMP JUMPDEST POP PUSH1 0x1 PUSH1 0x1 PUSH1 0xA0 SHL SUB AND PUSH1 0x0 SWAP1 DUP2 MSTORE PUSH2 0x196 PUSH1 0x20 MSTORE PUSH1 0x40 SWAP1 KECCAK256 SLOAD SWAP1 JUMP JUMPDEST PUSH2 0x1F7 SLOAD PUSH1 0x0 SWAP1 PUSH2 0x15B4 SWAP1 DUP3 SWAP1 PUSH1 0x1 PUSH1 0x1 PUSH1 0xA0 SHL SUB AND PUSH2 0x15F1 JUMP JUMPDEST PUSH2 0x15BE JUMPI POP PUSH1 0x0 SWAP1 JUMP JUMPDEST PUSH2 0x1F7 SLOAD PUSH1 0x1 PUSH1 0x1 PUSH1 0xA0 SHL SUB AND JUMPDEST SWAP1 POP SWAP1 JUMP JUMPDEST PUSH1 0x0 DUP3 DUP2 MSTORE PUSH2 0x161 PUSH1 0x20 MSTORE PUSH1 0x40 DUP2 KECCAK256 PUSH2 0x15EA SWAP1 DUP4 PUSH2 0x24AF JUMP JUMPDEST SWAP4 SWAP3 POP POP POP JUMP JUMPDEST PUSH1 0x0 SWAP2 DUP3 MSTORE PUSH2 0x12F PUSH1 0x20 SWAP1 DUP2 MSTORE PUSH1 0x40 DUP1 DUP5 KECCAK256 PUSH1 0x1 PUSH1 0x1 PUSH1 0xA0 SHL SUB SWAP4 SWAP1 SWAP4 AND DUP5 MSTORE SWAP2 SWAP1 MSTORE SWAP1 KECCAK256 SLOAD PUSH1 0xFF AND SWAP1 JUMP JUMPDEST PUSH1 0x0 PUSH2 0x162B DUP2 PUSH2 0xA48 PUSH2 0x1C8C JUMP JUMPDEST PUSH2 0x1638 PUSH2 0x1FD DUP5 DUP5 PUSH2 0x3C00 JUMP JUMPDEST POP POP POP POP JUMP JUMPDEST PUSH1 0x60 PUSH2 0x194 DUP1 SLOAD PUSH2 0xA9D SWAP1 PUSH2 0x447C JUMP JUMPDEST PUSH1 0x0 PUSH2 0x165C DUP2 PUSH2 0xA48 PUSH2 0x1C8C JUMP JUMPDEST PUSH2 0x2710 DUP3 GT ISZERO PUSH2 0x16A3 JUMPI PUSH1 0x40 MLOAD PUSH3 0x461BCD PUSH1 0xE5 SHL DUP2 MSTORE PUSH1 0x20 PUSH1 0x4 DUP3 ADD MSTORE PUSH1 0x12 PUSH1 0x24 DUP3 ADD MSTORE PUSH18 0x65786365656420726F79616C747920627073 PUSH1 0x70 SHL PUSH1 0x44 DUP3 ADD MSTORE PUSH1 0x64 ADD PUSH2 0xB96 JUMP JUMPDEST PUSH1 0x40 DUP1 MLOAD DUP1 DUP3 ADD DUP3 MSTORE PUSH1 0x1 PUSH1 0x1 PUSH1 0xA0 SHL SUB DUP6 DUP2 AND DUP1 DUP4 MSTORE PUSH1 0x20 DUP1 DUP5 ADD DUP8 DUP2 MSTORE PUSH1 0x0 DUP11 DUP2 MSTORE PUSH2 0x200 DUP4 MSTORE DUP7 SWAP1 KECCAK256 SWAP5 MLOAD DUP6 SLOAD PUSH1 0x1 PUSH1 0x1 PUSH1 0xA0 SHL SUB NOT AND SWAP5 AND SWAP4 SWAP1 SWAP4 OR DUP5 SSTORE SWAP2 MLOAD PUSH1 0x1 SWAP1 SWAP4 ADD SWAP3 SWAP1 SWAP3 SSTORE DUP3 MLOAD SWAP2 DUP3 MSTORE DUP2 ADD DUP5 SWAP1 MSTORE DUP6 SWAP2 PUSH32 0x7365CF4122F072A3365C20D54EFF9B38D73C096C28E1892EC8F5B0E403A0F12D SWAP2 ADD PUSH1 0x40 MLOAD DUP1 SWAP2 SUB SWAP1 LOG2 POP POP POP POP JUMP JUMPDEST PUSH2 0x11D9 PUSH2 0x1738 PUSH2 0x1C8C JUMP JUMPDEST DUP4 DUP4 PUSH2 0x24BB JUMP JUMPDEST PUSH1 0x60 DUP2 PUSH1 0x1 PUSH1 0x1 PUSH1 0x40 SHL SUB DUP2 GT ISZERO PUSH2 0x1759 JUMPI PUSH2 0x1759 PUSH2 0x4138 JUMP JUMPDEST PUSH1 0x40 MLOAD SWAP1 DUP1 DUP3 MSTORE DUP1 PUSH1 0x20 MUL PUSH1 0x20 ADD DUP3 ADD PUSH1 0x40 MSTORE DUP1 ISZERO PUSH2 0x178C JUMPI DUP2 PUSH1 0x20 ADD JUMPDEST PUSH1 0x60 DUP2 MSTORE PUSH1 0x20 ADD SWAP1 PUSH1 0x1 SWAP1 SUB SWAP1 DUP2 PUSH2 0x1777 JUMPI SWAP1 POP JUMPDEST POP SWAP1 POP PUSH1 0x0 JUMPDEST DUP3 DUP2 LT ISZERO PUSH2 0x182C JUMPI PUSH2 0x17FC ADDRESS DUP6 DUP6 DUP5 DUP2 DUP2 LT PUSH2 0x17B0 JUMPI PUSH2 0x17B0 PUSH2 0x47F0 JUMP JUMPDEST SWAP1 POP PUSH1 0x20 MUL DUP2 ADD SWAP1 PUSH2 0x17C2 SWAP2 SWAP1 PUSH2 0x455F JUMP JUMPDEST DUP1 DUP1 PUSH1 0x1F ADD PUSH1 0x20 DUP1 SWAP2 DIV MUL PUSH1 0x20 ADD PUSH1 0x40 MLOAD SWAP1 DUP2 ADD PUSH1 0x40 MSTORE DUP1 SWAP4 SWAP3 SWAP2 SWAP1 DUP2 DUP2 MSTORE PUSH1 0x20 ADD DUP4 DUP4 DUP1 DUP3 DUP5 CALLDATACOPY PUSH1 0x0 SWAP3 ADD SWAP2 SWAP1 SWAP2 MSTORE POP PUSH2 0x258B SWAP3 POP POP POP JUMP JUMPDEST DUP3 DUP3 DUP2 MLOAD DUP2 LT PUSH2 0x180E JUMPI PUSH2 0x180E PUSH2 0x47F0 JUMP JUMPDEST PUSH1 0x20 MUL PUSH1 0x20 ADD ADD DUP2 SWAP1 MSTORE POP DUP1 DUP1 PUSH2 0x1824 SWAP1 PUSH2 0x4806 JUMP JUMPDEST SWAP2 POP POP PUSH2 0x1792 JUMP JUMPDEST POP SWAP3 SWAP2 POP POP JUMP JUMPDEST PUSH2 0x1844 PUSH2 0x183E PUSH2 0x1C8C JUMP JUMPDEST DUP4 PUSH2 0x1E18 JUMP JUMPDEST PUSH2 0x1860 JUMPI PUSH1 0x40 MLOAD PUSH3 0x461BCD PUSH1 0xE5 SHL DUP2 MSTORE PUSH1 0x4 ADD PUSH2 0xB96 SWAP1 PUSH2 0x44B7 JUMP JUMPDEST PUSH2 0x1638 DUP5 DUP5 DUP5 DUP5 PUSH2 0x2676 JUMP JUMPDEST PUSH1 0x0 DUP2 DUP2 MSTORE PUSH2 0x1FF PUSH1 0x20 MSTORE PUSH1 0x40 SWAP1 KECCAK256 DUP1 SLOAD PUSH1 0x60 SWAP2 SWAP1 PUSH2 0x188A SWAP1 PUSH2 0x447C JUMP JUMPDEST DUP1 PUSH1 0x1F ADD PUSH1 0x20 DUP1 SWAP2 DIV MUL PUSH1 0x20 ADD PUSH1 0x40 MLOAD SWAP1 DUP2 ADD PUSH1 0x40 MSTORE DUP1 SWAP3 SWAP2 SWAP1 DUP2 DUP2 MSTORE PUSH1 0x20 ADD DUP3 DUP1 SLOAD PUSH2 0x18B6 SWAP1 PUSH2 0x447C JUMP JUMPDEST DUP1 ISZERO PUSH2 0x1903 JUMPI DUP1 PUSH1 0x1F LT PUSH2 0x18D8 JUMPI PUSH2 0x100 DUP1 DUP4 SLOAD DIV MUL DUP4 MSTORE SWAP2 PUSH1 0x20 ADD SWAP2 PUSH2 0x1903 JUMP JUMPDEST DUP3 ADD SWAP2 SWAP1 PUSH1 0x0 MSTORE PUSH1 0x20 PUSH1 0x0 KECCAK256 SWAP1 JUMPDEST DUP2 SLOAD DUP2 MSTORE SWAP1 PUSH1 0x1 ADD SWAP1 PUSH1 0x20 ADD DUP1 DUP4 GT PUSH2 0x18E6 JUMPI DUP3 SWAP1 SUB PUSH1 0x1F AND DUP3 ADD SWAP2 JUMPDEST POP POP POP POP POP SWAP1 POP SWAP2 SWAP1 POP JUMP JUMPDEST PUSH1 0x0 DUP2 DUP2 MSTORE PUSH2 0x161 PUSH1 0x20 MSTORE PUSH1 0x40 DUP2 KECCAK256 PUSH2 0xA87 SWAP1 PUSH2 0x26A9 JUMP JUMPDEST PUSH1 0x0 DUP3 DUP2 MSTORE PUSH2 0x12F PUSH1 0x20 MSTORE PUSH1 0x40 SWAP1 KECCAK256 PUSH1 0x1 ADD SLOAD PUSH2 0x1946 DUP2 PUSH2 0xA48 PUSH2 0x1C8C JUMP JUMPDEST PUSH2 0xCDF DUP4 DUP4 PUSH2 0x23E3 JUMP JUMPDEST PUSH1 0x0 DUP1 PUSH1 0x0 PUSH2 0x1960 DUP7 DUP7 DUP7 PUSH2 0x26B3 JUMP JUMPDEST PUSH2 0x120 DUP8 ADD CALLDATALOAD PUSH1 0x0 SWAP1 DUP2 MSTORE PUSH2 0x1FE PUSH1 0x20 MSTORE PUSH1 0x40 SWAP1 KECCAK256 SLOAD SWAP1 SWAP2 POP PUSH1 0xFF AND ISZERO DUP1 ISZERO PUSH2 0x19AE JUMPI POP PUSH2 0x19AE PUSH32 0x9F2DF0FED2C77648DE5860A4CC508CD0818C85B8B8A1AB4CEEEF8D981C8956A6 DUP3 PUSH2 0x15F1 JUMP JUMPDEST SWAP7 SWAP1 SWAP6 POP SWAP4 POP POP POP POP JUMP JUMPDEST PUSH1 0x0 SLOAD PUSH2 0x100 SWAP1 DIV PUSH1 0xFF AND PUSH2 0x19D4 JUMPI PUSH1 0x0 SLOAD PUSH1 0xFF AND ISZERO PUSH2 0x19D8 JUMP JUMPDEST ADDRESS EXTCODESIZE ISZERO JUMPDEST PUSH2 0x1A3B JUMPI PUSH1 0x40 MLOAD PUSH3 0x461BCD PUSH1 0xE5 SHL DUP2 MSTORE PUSH1 0x20 PUSH1 0x4 DUP3 ADD MSTORE PUSH1 0x2E PUSH1 0x24 DUP3 ADD MSTORE PUSH32 0x496E697469616C697A61626C653A20636F6E747261637420697320616C726561 PUSH1 0x44 DUP3 ADD MSTORE PUSH14 0x191E481A5B9A5D1A585B1A5E9959 PUSH1 0x92 SHL PUSH1 0x64 DUP3 ADD MSTORE PUSH1 0x84 ADD PUSH2 0xB96 JUMP JUMPDEST PUSH1 0x0 SLOAD PUSH2 0x100 SWAP1 DIV PUSH1 0xFF AND ISZERO DUP1 ISZERO PUSH2 0x1A5D JUMPI PUSH1 0x0 DUP1 SLOAD PUSH2 0xFFFF NOT AND PUSH2 0x101 OR SWAP1 SSTORE JUMPDEST PUSH2 0x1A65 PUSH2 0x270F JUMP JUMPDEST PUSH2 0x1AAB PUSH1 0x40 MLOAD DUP1 PUSH1 0x40 ADD PUSH1 0x40 MSTORE DUP1 PUSH1 0xB DUP2 MSTORE PUSH1 0x20 ADD PUSH11 0x546F6B656E455243373231 PUSH1 0xA8 SHL DUP2 MSTORE POP PUSH1 0x40 MLOAD DUP1 PUSH1 0x40 ADD PUSH1 0x40 MSTORE DUP1 PUSH1 0x1 DUP2 MSTORE PUSH1 0x20 ADD PUSH1 0x31 PUSH1 0xF8 SHL DUP2 MSTORE POP PUSH2 0x2740 JUMP JUMPDEST PUSH2 0x1AB4 DUP8 PUSH2 0x2771 JUMP JUMPDEST PUSH2 0x1ABE DUP11 DUP11 PUSH2 0x27A9 JUMP JUMPDEST PUSH2 0x1FB DUP1 SLOAD PUSH1 0x1 PUSH1 0x1 PUSH1 0xA0 SHL SUB NOT SWAP1 DUP2 AND PUSH1 0x1 PUSH1 0x1 PUSH1 0xA0 SHL SUB DUP9 DUP2 AND SWAP2 SWAP1 SWAP2 OR SWAP1 SWAP3 SSTORE PUSH2 0x1FC DUP1 SLOAD PUSH1 0x1 PUSH1 0x1 PUSH1 0x80 SHL SUB NOT AND PUSH1 0x1 PUSH1 0x1 PUSH1 0x80 SHL SUB DUP9 AND OR SWAP1 SSTORE PUSH2 0x1FA DUP1 SLOAD DUP3 AND DUP6 DUP5 AND OR SWAP1 SSTORE PUSH2 0x1F9 DUP1 SLOAD SWAP1 SWAP2 AND SWAP2 DUP9 AND SWAP2 SWAP1 SWAP2 OR SWAP1 SSTORE DUP8 MLOAD PUSH2 0x1B2F SWAP1 PUSH2 0x1FD SWAP1 PUSH1 0x20 DUP12 ADD SWAP1 PUSH2 0x3C84 JUMP JUMPDEST POP PUSH2 0x1FC DUP1 SLOAD PUSH1 0x1 PUSH1 0x1 PUSH1 0x80 SHL SUB DUP1 DUP7 AND PUSH1 0x1 PUSH1 0x80 SHL MUL SWAP2 AND OR SWAP1 SSTORE PUSH2 0x1F7 DUP1 SLOAD PUSH1 0x1 PUSH1 0x1 PUSH1 0xA0 SHL SUB DUP14 AND PUSH1 0x1 PUSH1 0x1 PUSH1 0xA0 SHL SUB NOT SWAP1 SWAP2 AND OR SWAP1 SSTORE PUSH2 0x1B74 PUSH1 0x0 DUP13 PUSH2 0x27DA JUMP JUMPDEST PUSH2 0x1B9E PUSH32 0x9F2DF0FED2C77648DE5860A4CC508CD0818C85B8B8A1AB4CEEEF8D981C8956A6 DUP13 PUSH2 0x27DA JUMP JUMPDEST PUSH2 0x1BB6 PUSH1 0x0 DUP1 MLOAD PUSH1 0x20 PUSH2 0x4AA6 DUP4 CODECOPY DUP2 MLOAD SWAP2 MSTORE DUP13 PUSH2 0x27DA JUMP JUMPDEST PUSH2 0x1BCF PUSH1 0x0 DUP1 MLOAD PUSH1 0x20 PUSH2 0x4AA6 DUP4 CODECOPY DUP2 MLOAD SWAP2 MSTORE PUSH1 0x0 PUSH2 0x27DA JUMP JUMPDEST DUP1 ISZERO PUSH2 0x1BE1 JUMPI PUSH1 0x0 DUP1 SLOAD PUSH2 0xFF00 NOT AND SWAP1 SSTORE JUMPDEST POP POP POP POP POP POP POP POP POP POP POP JUMP JUMPDEST PUSH2 0x1FD DUP1 SLOAD PUSH2 0x1BFC SWAP1 PUSH2 0x447C JUMP JUMPDEST DUP1 PUSH1 0x1F ADD PUSH1 0x20 DUP1 SWAP2 DIV MUL PUSH1 0x20 ADD PUSH1 0x40 MLOAD SWAP1 DUP2 ADD PUSH1 0x40 MSTORE DUP1 SWAP3 SWAP2 SWAP1 DUP2 DUP2 MSTORE PUSH1 0x20 ADD DUP3 DUP1 SLOAD PUSH2 0x1C28 SWAP1 PUSH2 0x447C JUMP JUMPDEST DUP1 ISZERO PUSH2 0x1C75 JUMPI DUP1 PUSH1 0x1F LT PUSH2 0x1C4A JUMPI PUSH2 0x100 DUP1 DUP4 SLOAD DIV MUL DUP4 MSTORE SWAP2 PUSH1 0x20 ADD SWAP2 PUSH2 0x1C75 JUMP JUMPDEST DUP3 ADD SWAP2 SWAP1 PUSH1 0x0 MSTORE PUSH1 0x20 PUSH1 0x0 KECCAK256 SWAP1 JUMPDEST DUP2 SLOAD DUP2 MSTORE SWAP1 PUSH1 0x1 ADD SWAP1 PUSH1 0x20 ADD DUP1 DUP4 GT PUSH2 0x1C58 JUMPI DUP3 SWAP1 SUB PUSH1 0x1F AND DUP3 ADD SWAP2 JUMPDEST POP POP POP POP POP DUP2 JUMP JUMPDEST PUSH1 0x1 PUSH1 0x1 PUSH1 0xA0 SHL SUB AND EXTCODESIZE ISZERO ISZERO SWAP1 JUMP JUMPDEST PUSH1 0x0 PUSH2 0x15CC PUSH2 0x27E4 JUMP JUMPDEST PUSH2 0x1CA0 DUP3 DUP3 PUSH2 0x15F1 JUMP JUMPDEST PUSH2 0x11D9 JUMPI PUSH2 0x1CB8 DUP2 PUSH1 0x1 PUSH1 0x1 PUSH1 0xA0 SHL SUB AND PUSH1 0x14 PUSH2 0x280E JUMP JUMPDEST PUSH2 0x1CC3 DUP4 PUSH1 0x20 PUSH2 0x280E JUMP JUMPDEST PUSH1 0x40 MLOAD PUSH1 0x20 ADD PUSH2 0x1CD4 SWAP3 SWAP2 SWAP1 PUSH2 0x4821 JUMP JUMPDEST PUSH1 0x40 DUP1 MLOAD PUSH1 0x1F NOT DUP2 DUP5 SUB ADD DUP2 MSTORE SWAP1 DUP3 SWAP1 MSTORE PUSH3 0x461BCD PUSH1 0xE5 SHL DUP3 MSTORE PUSH2 0xB96 SWAP2 PUSH1 0x4 ADD PUSH2 0x3E52 JUMP JUMPDEST PUSH2 0x1F8 DUP1 SLOAD SWAP1 PUSH1 0x1 SWAP1 PUSH1 0x0 PUSH2 0x1D0F DUP4 DUP6 PUSH2 0x4896 JUMP JUMPDEST SWAP1 SWAP2 SSTORE POP POP PUSH1 0x0 DUP2 DUP2 MSTORE PUSH2 0x1FF PUSH1 0x20 MSTORE PUSH1 0x40 SWAP1 KECCAK256 PUSH2 0x1D2E SWAP1 DUP5 DUP5 PUSH2 0x3C00 JUMP JUMPDEST POP PUSH2 0x1D39 DUP5 DUP3 PUSH2 0x29A9 JUMP JUMPDEST DUP1 DUP5 PUSH1 0x1 PUSH1 0x1 PUSH1 0xA0 SHL SUB AND PUSH32 0x9D89E36EADF856DB0AD9FFB5A569E07F95634DDDD9501141ECF04820484AD0DC DUP6 DUP6 PUSH1 0x40 MLOAD PUSH2 0x1D75 SWAP3 SWAP2 SWAP1 PUSH2 0x48AE JUMP JUMPDEST PUSH1 0x40 MLOAD DUP1 SWAP2 SUB SWAP1 LOG3 SWAP4 SWAP3 POP POP POP JUMP JUMPDEST PUSH1 0x0 PUSH1 0x1 PUSH1 0x1 PUSH1 0xE0 SHL SUB NOT DUP3 AND PUSH4 0x780E9D63 PUSH1 0xE0 SHL EQ DUP1 PUSH2 0xA87 JUMPI POP PUSH2 0xA87 DUP3 PUSH2 0x2AFA JUMP JUMPDEST PUSH1 0x0 DUP2 DUP2 MSTORE PUSH2 0x197 PUSH1 0x20 MSTORE PUSH1 0x40 SWAP1 KECCAK256 DUP1 SLOAD PUSH1 0x1 PUSH1 0x1 PUSH1 0xA0 SHL SUB NOT AND PUSH1 0x1 PUSH1 0x1 PUSH1 0xA0 SHL SUB DUP5 AND SWAP1 DUP2 OR SWAP1 SWAP2 SSTORE DUP2 SWAP1 PUSH2 0x1DDF DUP3 PUSH2 0x143F JUMP JUMPDEST PUSH1 0x1 PUSH1 0x1 PUSH1 0xA0 SHL SUB AND PUSH32 0x8C5BE1E5EBEC7D5BD14F71427D1E84F3DD0314C0F7B2291E5B200AC8C7C3B925 PUSH1 0x40 MLOAD PUSH1 0x40 MLOAD DUP1 SWAP2 SUB SWAP1 LOG4 POP POP JUMP JUMPDEST PUSH1 0x0 DUP2 DUP2 MSTORE PUSH2 0x195 PUSH1 0x20 MSTORE PUSH1 0x40 DUP2 KECCAK256 SLOAD PUSH1 0x1 PUSH1 0x1 PUSH1 0xA0 SHL SUB AND PUSH2 0x1E92 JUMPI PUSH1 0x40 MLOAD PUSH3 0x461BCD PUSH1 0xE5 SHL DUP2 MSTORE PUSH1 0x20 PUSH1 0x4 DUP3 ADD MSTORE PUSH1 0x2C PUSH1 0x24 DUP3 ADD MSTORE PUSH32 0x4552433732313A206F70657261746F7220717565727920666F72206E6F6E6578 PUSH1 0x44 DUP3 ADD MSTORE PUSH12 0x34B9BA32B73A103A37B5B2B7 PUSH1 0xA1 SHL PUSH1 0x64 DUP3 ADD MSTORE PUSH1 0x84 ADD PUSH2 0xB96 JUMP JUMPDEST PUSH1 0x0 PUSH2 0x1E9D DUP4 PUSH2 0x143F JUMP JUMPDEST SWAP1 POP DUP1 PUSH1 0x1 PUSH1 0x1 PUSH1 0xA0 SHL SUB AND DUP5 PUSH1 0x1 PUSH1 0x1 PUSH1 0xA0 SHL SUB AND EQ DUP1 PUSH2 0x1ED8 JUMPI POP DUP4 PUSH1 0x1 PUSH1 0x1 PUSH1 0xA0 SHL SUB AND PUSH2 0x1ECD DUP5 PUSH2 0xB20 JUMP JUMPDEST PUSH1 0x1 PUSH1 0x1 PUSH1 0xA0 SHL SUB AND EQ JUMPDEST DUP1 PUSH2 0x1F09 JUMPI POP PUSH1 0x1 PUSH1 0x1 PUSH1 0xA0 SHL SUB DUP1 DUP3 AND PUSH1 0x0 SWAP1 DUP2 MSTORE PUSH2 0x198 PUSH1 0x20 SWAP1 DUP2 MSTORE PUSH1 0x40 DUP1 DUP4 KECCAK256 SWAP4 DUP9 AND DUP4 MSTORE SWAP3 SWAP1 MSTORE KECCAK256 SLOAD PUSH1 0xFF AND JUMPDEST SWAP5 SWAP4 POP POP POP POP JUMP JUMPDEST DUP3 PUSH1 0x1 PUSH1 0x1 PUSH1 0xA0 SHL SUB AND PUSH2 0x1F24 DUP3 PUSH2 0x143F JUMP JUMPDEST PUSH1 0x1 PUSH1 0x1 PUSH1 0xA0 SHL SUB AND EQ PUSH2 0x1F88 JUMPI PUSH1 0x40 MLOAD PUSH3 0x461BCD PUSH1 0xE5 SHL DUP2 MSTORE PUSH1 0x20 PUSH1 0x4 DUP3 ADD MSTORE PUSH1 0x25 PUSH1 0x24 DUP3 ADD MSTORE PUSH32 0x4552433732313A207472616E736665722066726F6D20696E636F727265637420 PUSH1 0x44 DUP3 ADD MSTORE PUSH5 0x37BBB732B9 PUSH1 0xD9 SHL PUSH1 0x64 DUP3 ADD MSTORE PUSH1 0x84 ADD PUSH2 0xB96 JUMP JUMPDEST PUSH1 0x1 PUSH1 0x1 PUSH1 0xA0 SHL SUB DUP3 AND PUSH2 0x1FEA JUMPI PUSH1 0x40 MLOAD PUSH3 0x461BCD PUSH1 0xE5 SHL DUP2 MSTORE PUSH1 0x20 PUSH1 0x4 DUP3 ADD MSTORE PUSH1 0x24 DUP1 DUP3 ADD MSTORE PUSH32 0x4552433732313A207472616E7366657220746F20746865207A65726F20616464 PUSH1 0x44 DUP3 ADD MSTORE PUSH4 0x72657373 PUSH1 0xE0 SHL PUSH1 0x64 DUP3 ADD MSTORE PUSH1 0x84 ADD PUSH2 0xB96 JUMP JUMPDEST PUSH2 0x1FF5 DUP4 DUP4 DUP4 PUSH2 0x2B3A JUMP JUMPDEST PUSH2 0x2000 PUSH1 0x0 DUP3 PUSH2 0x1DA9 JUMP JUMPDEST PUSH1 0x1 PUSH1 0x1 PUSH1 0xA0 SHL SUB DUP4 AND PUSH1 0x0 SWAP1 DUP2 MSTORE PUSH2 0x196 PUSH1 0x20 MSTORE PUSH1 0x40 DUP2 KECCAK256 DUP1 SLOAD PUSH1 0x1 SWAP3 SWAP1 PUSH2 0x202A SWAP1 DUP5 SWAP1 PUSH2 0x48C2 JUMP JUMPDEST SWAP1 SWAP2 SSTORE POP POP PUSH1 0x1 PUSH1 0x1 PUSH1 0xA0 SHL SUB DUP3 AND PUSH1 0x0 SWAP1 DUP2 MSTORE PUSH2 0x196 PUSH1 0x20 MSTORE PUSH1 0x40 DUP2 KECCAK256 DUP1 SLOAD PUSH1 0x1 SWAP3 SWAP1 PUSH2 0x2059 SWAP1 DUP5 SWAP1 PUSH2 0x4896 JUMP JUMPDEST SWAP1 SWAP2 SSTORE POP POP PUSH1 0x0 DUP2 DUP2 MSTORE PUSH2 0x195 PUSH1 0x20 MSTORE PUSH1 0x40 DUP1 DUP3 KECCAK256 DUP1 SLOAD PUSH1 0x1 PUSH1 0x1 PUSH1 0xA0 SHL SUB NOT AND PUSH1 0x1 PUSH1 0x1 PUSH1 0xA0 SHL SUB DUP7 DUP2 AND SWAP2 DUP3 OR SWAP1 SWAP3 SSTORE SWAP2 MLOAD DUP5 SWAP4 SWAP2 DUP8 AND SWAP2 PUSH32 0xDDF252AD1BE2C89B69C2B068FC378DAA952BA7F163C4A11628F55A4DF523B3EF SWAP2 LOG4 POP POP POP JUMP JUMPDEST PUSH1 0x0 DUP1 PUSH1 0x0 PUSH2 0x20CB DUP7 DUP7 DUP7 PUSH2 0x1950 JUMP JUMPDEST SWAP2 POP SWAP2 POP DUP2 PUSH2 0x2110 JUMPI PUSH1 0x40 MLOAD PUSH3 0x461BCD PUSH1 0xE5 SHL DUP2 MSTORE PUSH1 0x20 PUSH1 0x4 DUP3 ADD MSTORE PUSH1 0x11 PUSH1 0x24 DUP3 ADD MSTORE PUSH17 0x696E76616C6964207369676E6174757265 PUSH1 0x78 SHL PUSH1 0x44 DUP3 ADD MSTORE PUSH1 0x64 ADD PUSH2 0xB96 JUMP JUMPDEST TIMESTAMP PUSH2 0x2122 PUSH2 0x100 DUP9 ADD PUSH1 0xE0 DUP10 ADD PUSH2 0x48D9 JUMP JUMPDEST PUSH1 0x1 PUSH1 0x1 PUSH1 0x80 SHL SUB AND GT ISZERO DUP1 ISZERO PUSH2 0x2153 JUMPI POP TIMESTAMP PUSH2 0x2147 PUSH2 0x120 DUP9 ADD PUSH2 0x100 DUP10 ADD PUSH2 0x48D9 JUMP JUMPDEST PUSH1 0x1 PUSH1 0x1 PUSH1 0x80 SHL SUB AND LT ISZERO JUMPDEST PUSH2 0x2191 JUMPI PUSH1 0x40 MLOAD PUSH3 0x461BCD PUSH1 0xE5 SHL DUP2 MSTORE PUSH1 0x20 PUSH1 0x4 DUP3 ADD MSTORE PUSH1 0xF PUSH1 0x24 DUP3 ADD MSTORE PUSH15 0x1C995C5D595CDD08195E1C1A5C9959 PUSH1 0x8A SHL PUSH1 0x44 DUP3 ADD MSTORE PUSH1 0x64 ADD PUSH2 0xB96 JUMP JUMPDEST PUSH2 0x120 DUP7 ADD CALLDATALOAD PUSH1 0x0 SWAP1 DUP2 MSTORE PUSH2 0x1FE PUSH1 0x20 MSTORE PUSH1 0x40 SWAP1 KECCAK256 DUP1 SLOAD PUSH1 0xFF NOT AND PUSH1 0x1 OR SWAP1 SSTORE SWAP2 POP POP SWAP4 SWAP3 POP POP POP JUMP JUMPDEST PUSH1 0xA0 DUP2 ADD MLOAD PUSH2 0x21C7 JUMPI POP JUMP JUMPDEST PUSH1 0xA0 DUP2 ADD MLOAD PUSH2 0x1FC SLOAD PUSH1 0x0 SWAP1 PUSH2 0x2710 SWAP1 PUSH2 0x21F1 SWAP1 PUSH1 0x1 PUSH1 0x80 SHL SWAP1 DIV PUSH1 0x1 PUSH1 0x1 PUSH1 0x80 SHL SUB AND DUP5 PUSH2 0x451E JUMP JUMPDEST PUSH2 0x21FB SWAP2 SWAP1 PUSH2 0x453D JUMP JUMPDEST PUSH1 0x40 MLOAD PUSH4 0x85B49AD PUSH1 0xE4 SHL DUP2 MSTORE ADDRESS PUSH1 0x4 DUP3 ADD MSTORE PUSH1 0x0 PUSH1 0x24 DUP3 ADD DUP2 SWAP1 MSTORE SWAP2 SWAP3 POP DUP2 SWAP1 PUSH1 0x1 PUSH1 0x1 PUSH1 0xA0 SHL SUB PUSH32 0x0 AND SWAP1 PUSH4 0x85B49AD0 SWAP1 PUSH1 0x44 ADD PUSH1 0x40 DUP1 MLOAD DUP1 DUP4 SUB DUP2 DUP7 GAS STATICCALL ISZERO DUP1 ISZERO PUSH2 0x226C JUMPI RETURNDATASIZE PUSH1 0x0 DUP1 RETURNDATACOPY RETURNDATASIZE PUSH1 0x0 REVERT JUMPDEST POP POP POP POP PUSH1 0x40 MLOAD RETURNDATASIZE PUSH1 0x1F NOT PUSH1 0x1F DUP3 ADD AND DUP3 ADD DUP1 PUSH1 0x40 MSTORE POP DUP2 ADD SWAP1 PUSH2 0x2290 SWAP2 SWAP1 PUSH2 0x48F4 JUMP JUMPDEST SWAP1 SWAP3 POP SWAP1 POP PUSH1 0x0 PUSH2 0x2710 PUSH2 0x22A4 DUP4 DUP8 PUSH2 0x451E JUMP JUMPDEST PUSH2 0x22AE SWAP2 SWAP1 PUSH2 0x453D JUMP JUMPDEST PUSH1 0xC0 DUP8 ADD MLOAD SWAP1 SWAP2 POP PUSH1 0x1 PUSH1 0x1 PUSH1 0xA0 SHL SUB AND PUSH20 0xEEEEEEEEEEEEEEEEEEEEEEEEEEEEEEEEEEEEEEEE EQ ISZERO PUSH2 0x2322 JUMPI DUP5 CALLVALUE EQ PUSH2 0x2322 JUMPI PUSH1 0x40 MLOAD PUSH3 0x461BCD PUSH1 0xE5 SHL DUP2 MSTORE PUSH1 0x20 PUSH1 0x4 DUP3 ADD MSTORE PUSH1 0x16 PUSH1 0x24 DUP3 ADD MSTORE PUSH22 0x36BAB9BA1039B2B732103A37BA30B610383934B1B297 PUSH1 0x51 SHL PUSH1 0x44 DUP3 ADD MSTORE PUSH1 0x64 ADD PUSH2 0xB96 JUMP JUMPDEST PUSH1 0x60 DUP7 ADD MLOAD PUSH1 0x0 SWAP1 PUSH1 0x1 PUSH1 0x1 PUSH1 0xA0 SHL SUB AND ISZERO PUSH2 0x2342 JUMPI DUP7 PUSH1 0x60 ADD MLOAD PUSH2 0x2350 JUMP JUMPDEST PUSH2 0x1F9 SLOAD PUSH1 0x1 PUSH1 0x1 PUSH1 0xA0 SHL SUB AND JUMPDEST SWAP1 POP PUSH2 0x2375 DUP8 PUSH1 0xC0 ADD MLOAD PUSH2 0x2362 PUSH2 0x1C8C JUMP JUMPDEST PUSH2 0x1FA SLOAD PUSH1 0x1 PUSH1 0x1 PUSH1 0xA0 SHL SUB AND DUP9 PUSH2 0x2C1A JUMP JUMPDEST PUSH2 0x238C DUP8 PUSH1 0xC0 ADD MLOAD PUSH2 0x2385 PUSH2 0x1C8C JUMP JUMPDEST DUP7 DUP6 PUSH2 0x2C1A JUMP JUMPDEST PUSH2 0x23B7 DUP8 PUSH1 0xC0 ADD MLOAD PUSH2 0x239C PUSH2 0x1C8C JUMP JUMPDEST DUP4 DUP6 PUSH2 0x23A8 DUP11 DUP13 PUSH2 0x48C2 JUMP JUMPDEST PUSH2 0x23B2 SWAP2 SWAP1 PUSH2 0x48C2 JUMP JUMPDEST PUSH2 0x2C1A JUMP JUMPDEST POP POP POP POP POP POP POP JUMP JUMPDEST PUSH2 0x23CA DUP3 DUP3 PUSH2 0x2C64 JUMP JUMPDEST PUSH1 0x0 DUP3 DUP2 MSTORE PUSH2 0x161 PUSH1 0x20 MSTORE PUSH1 0x40 SWAP1 KECCAK256 PUSH2 0xCDF SWAP1 DUP3 PUSH2 0x2CEC JUMP JUMPDEST PUSH2 0x23ED DUP3 DUP3 PUSH2 0x2D01 JUMP JUMPDEST PUSH1 0x0 DUP3 DUP2 MSTORE PUSH2 0x161 PUSH1 0x20 MSTORE PUSH1 0x40 SWAP1 KECCAK256 PUSH2 0xCDF SWAP1 DUP3 PUSH2 0x2D87 JUMP JUMPDEST PUSH1 0x0 PUSH2 0x2411 DUP3 PUSH2 0x143F JUMP JUMPDEST SWAP1 POP PUSH2 0x241F DUP2 PUSH1 0x0 DUP5 PUSH2 0x2B3A JUMP JUMPDEST PUSH2 0x242A PUSH1 0x0 DUP4 PUSH2 0x1DA9 JUMP JUMPDEST PUSH1 0x1 PUSH1 0x1 PUSH1 0xA0 SHL SUB DUP2 AND PUSH1 0x0 SWAP1 DUP2 MSTORE PUSH2 0x196 PUSH1 0x20 MSTORE PUSH1 0x40 DUP2 KECCAK256 DUP1 SLOAD PUSH1 0x1 SWAP3 SWAP1 PUSH2 0x2454 SWAP1 DUP5 SWAP1 PUSH2 0x48C2 JUMP JUMPDEST SWAP1 SWAP2 SSTORE POP POP PUSH1 0x0 DUP3 DUP2 MSTORE PUSH2 0x195 PUSH1 0x20 MSTORE PUSH1 0x40 DUP1 DUP3 KECCAK256 DUP1 SLOAD PUSH1 0x1 PUSH1 0x1 PUSH1 0xA0 SHL SUB NOT AND SWAP1 SSTORE MLOAD DUP4 SWAP2 SWAP1 PUSH1 0x1 PUSH1 0x1 PUSH1 0xA0 SHL SUB DUP5 AND SWAP1 PUSH32 0xDDF252AD1BE2C89B69C2B068FC378DAA952BA7F163C4A11628F55A4DF523B3EF SWAP1 DUP4 SWAP1 LOG4 POP POP JUMP JUMPDEST PUSH1 0x0 PUSH2 0x15EA DUP4 DUP4 PUSH2 0x2D9C JUMP JUMPDEST DUP2 PUSH1 0x1 PUSH1 0x1 PUSH1 0xA0 SHL SUB AND DUP4 PUSH1 0x1 PUSH1 0x1 PUSH1 0xA0 SHL SUB AND EQ ISZERO PUSH2 0x251D JUMPI PUSH1 0x40 MLOAD PUSH3 0x461BCD PUSH1 0xE5 SHL DUP2 MSTORE PUSH1 0x20 PUSH1 0x4 DUP3 ADD MSTORE PUSH1 0x19 PUSH1 0x24 DUP3 ADD MSTORE PUSH32 0x4552433732313A20617070726F766520746F2063616C6C657200000000000000 PUSH1 0x44 DUP3 ADD MSTORE PUSH1 0x64 ADD PUSH2 0xB96 JUMP JUMPDEST PUSH1 0x1 PUSH1 0x1 PUSH1 0xA0 SHL SUB DUP4 DUP2 AND PUSH1 0x0 DUP2 DUP2 MSTORE PUSH2 0x198 PUSH1 0x20 SWAP1 DUP2 MSTORE PUSH1 0x40 DUP1 DUP4 KECCAK256 SWAP5 DUP8 AND DUP1 DUP5 MSTORE SWAP5 DUP3 MSTORE SWAP2 DUP3 SWAP1 KECCAK256 DUP1 SLOAD PUSH1 0xFF NOT AND DUP7 ISZERO ISZERO SWAP1 DUP2 OR SWAP1 SWAP2 SSTORE SWAP2 MLOAD SWAP2 DUP3 MSTORE PUSH32 0x17307EAB39AB6107E8899845AD3D59BD9653F200F220920489CA2B5937696C31 SWAP2 ADD PUSH1 0x40 MLOAD DUP1 SWAP2 SUB SWAP1 LOG3 POP POP POP JUMP JUMPDEST PUSH1 0x60 PUSH1 0x1 PUSH1 0x1 PUSH1 0xA0 SHL SUB DUP4 AND EXTCODESIZE PUSH2 0x25F3 JUMPI PUSH1 0x40 MLOAD PUSH3 0x461BCD PUSH1 0xE5 SHL DUP2 MSTORE PUSH1 0x20 PUSH1 0x4 DUP3 ADD MSTORE PUSH1 0x26 PUSH1 0x24 DUP3 ADD MSTORE PUSH32 0x416464726573733A2064656C65676174652063616C6C20746F206E6F6E2D636F PUSH1 0x44 DUP3 ADD MSTORE PUSH6 0x1B9D1C9858DD PUSH1 0xD2 SHL PUSH1 0x64 DUP3 ADD MSTORE PUSH1 0x84 ADD PUSH2 0xB96 JUMP JUMPDEST PUSH1 0x0 DUP1 DUP5 PUSH1 0x1 PUSH1 0x1 PUSH1 0xA0 SHL SUB AND DUP5 PUSH1 0x40 MLOAD PUSH2 0x260E SWAP2 SWAP1 PUSH2 0x4922 JUMP JUMPDEST PUSH1 0x0 PUSH1 0x40 MLOAD DUP1 DUP4 SUB DUP2 DUP6 GAS DELEGATECALL SWAP2 POP POP RETURNDATASIZE DUP1 PUSH1 0x0 DUP2 EQ PUSH2 0x2649 JUMPI PUSH1 0x40 MLOAD SWAP2 POP PUSH1 0x1F NOT PUSH1 0x3F RETURNDATASIZE ADD AND DUP3 ADD PUSH1 0x40 MSTORE RETURNDATASIZE DUP3 MSTORE RETURNDATASIZE PUSH1 0x0 PUSH1 0x20 DUP5 ADD RETURNDATACOPY PUSH2 0x264E JUMP JUMPDEST PUSH1 0x60 SWAP2 POP JUMPDEST POP SWAP2 POP SWAP2 POP PUSH2 0xA58 DUP3 DUP3 PUSH1 0x40 MLOAD DUP1 PUSH1 0x60 ADD PUSH1 0x40 MSTORE DUP1 PUSH1 0x27 DUP2 MSTORE PUSH1 0x20 ADD PUSH2 0x4AC6 PUSH1 0x27 SWAP2 CODECOPY PUSH2 0x2DC6 JUMP JUMPDEST PUSH2 0x2681 DUP5 DUP5 DUP5 PUSH2 0x1F11 JUMP JUMPDEST PUSH2 0x268D DUP5 DUP5 DUP5 DUP5 PUSH2 0x2DFF JUMP JUMPDEST PUSH2 0x1638 JUMPI PUSH1 0x40 MLOAD PUSH3 0x461BCD PUSH1 0xE5 SHL DUP2 MSTORE PUSH1 0x4 ADD PUSH2 0xB96 SWAP1 PUSH2 0x493E JUMP JUMPDEST PUSH1 0x0 PUSH2 0xA87 DUP3 SLOAD SWAP1 JUMP JUMPDEST PUSH1 0x0 PUSH2 0x1F09 DUP4 DUP4 DUP1 DUP1 PUSH1 0x1F ADD PUSH1 0x20 DUP1 SWAP2 DIV MUL PUSH1 0x20 ADD PUSH1 0x40 MLOAD SWAP1 DUP2 ADD PUSH1 0x40 MSTORE DUP1 SWAP4 SWAP3 SWAP2 SWAP1 DUP2 DUP2 MSTORE PUSH1 0x20 ADD DUP4 DUP4 DUP1 DUP3 DUP5 CALLDATACOPY PUSH1 0x0 SWAP3 ADD SWAP2 SWAP1 SWAP2 MSTORE POP PUSH2 0x2709 SWAP3 POP PUSH2 0x26FD SWAP2 POP DUP9 SWAP1 POP PUSH2 0x2F04 JUMP JUMPDEST DUP1 MLOAD SWAP1 PUSH1 0x20 ADD KECCAK256 PUSH2 0x303E JUMP JUMPDEST SWAP1 PUSH2 0x308C JUMP JUMPDEST PUSH1 0x0 SLOAD PUSH2 0x100 SWAP1 DIV PUSH1 0xFF AND PUSH2 0x2736 JUMPI PUSH1 0x40 MLOAD PUSH3 0x461BCD PUSH1 0xE5 SHL DUP2 MSTORE PUSH1 0x4 ADD PUSH2 0xB96 SWAP1 PUSH2 0x4990 JUMP JUMPDEST PUSH2 0x273E PUSH2 0x30B0 JUMP JUMPDEST JUMP JUMPDEST PUSH1 0x0 SLOAD PUSH2 0x100 SWAP1 DIV PUSH1 0xFF AND PUSH2 0x2767 JUMPI PUSH1 0x40 MLOAD PUSH3 0x461BCD PUSH1 0xE5 SHL DUP2 MSTORE PUSH1 0x4 ADD PUSH2 0xB96 SWAP1 PUSH2 0x4990 JUMP JUMPDEST PUSH2 0x11D9 DUP3 DUP3 PUSH2 0x30DD JUMP JUMPDEST PUSH1 0x0 SLOAD PUSH2 0x100 SWAP1 DIV PUSH1 0xFF AND PUSH2 0x2798 JUMPI PUSH1 0x40 MLOAD PUSH3 0x461BCD PUSH1 0xE5 SHL DUP2 MSTORE PUSH1 0x4 ADD PUSH2 0xB96 SWAP1 PUSH2 0x4990 JUMP JUMPDEST PUSH2 0x27A0 PUSH2 0x311E JUMP JUMPDEST PUSH2 0x1271 DUP2 PUSH2 0x3145 JUMP JUMPDEST PUSH1 0x0 SLOAD PUSH2 0x100 SWAP1 DIV PUSH1 0xFF AND PUSH2 0x27D0 JUMPI PUSH1 0x40 MLOAD PUSH3 0x461BCD PUSH1 0xE5 SHL DUP2 MSTORE PUSH1 0x4 ADD PUSH2 0xB96 SWAP1 PUSH2 0x4990 JUMP JUMPDEST PUSH2 0x11D9 DUP3 DUP3 PUSH2 0x31D4 JUMP JUMPDEST PUSH2 0x11D9 DUP3 DUP3 PUSH2 0x23C0 JUMP JUMPDEST CALLER PUSH1 0x0 SWAP1 DUP2 MSTORE PUSH1 0x99 PUSH1 0x20 MSTORE PUSH1 0x40 DUP2 KECCAK256 SLOAD PUSH1 0xFF AND ISZERO PUSH2 0x2809 JUMPI POP PUSH1 0x13 NOT CALLDATASIZE ADD CALLDATALOAD PUSH1 0x60 SHR SWAP1 JUMP JUMPDEST POP CALLER SWAP1 JUMP JUMPDEST PUSH1 0x60 PUSH1 0x0 PUSH2 0x281D DUP4 PUSH1 0x2 PUSH2 0x451E JUMP JUMPDEST PUSH2 0x2828 SWAP1 PUSH1 0x2 PUSH2 0x4896 JUMP JUMPDEST PUSH1 0x1 PUSH1 0x1 PUSH1 0x40 SHL SUB DUP2 GT ISZERO PUSH2 0x283F JUMPI PUSH2 0x283F PUSH2 0x4138 JUMP JUMPDEST PUSH1 0x40 MLOAD SWAP1 DUP1 DUP3 MSTORE DUP1 PUSH1 0x1F ADD PUSH1 0x1F NOT AND PUSH1 0x20 ADD DUP3 ADD PUSH1 0x40 MSTORE DUP1 ISZERO PUSH2 0x2869 JUMPI PUSH1 0x20 DUP3 ADD DUP2 DUP1 CALLDATASIZE DUP4 CALLDATACOPY ADD SWAP1 POP JUMPDEST POP SWAP1 POP PUSH1 0x3 PUSH1 0xFC SHL DUP2 PUSH1 0x0 DUP2 MLOAD DUP2 LT PUSH2 0x2884 JUMPI PUSH2 0x2884 PUSH2 0x47F0 JUMP JUMPDEST PUSH1 0x20 ADD ADD SWAP1 PUSH1 0x1 PUSH1 0x1 PUSH1 0xF8 SHL SUB NOT AND SWAP1 DUP2 PUSH1 0x0 BYTE SWAP1 MSTORE8 POP PUSH1 0xF PUSH1 0xFB SHL DUP2 PUSH1 0x1 DUP2 MLOAD DUP2 LT PUSH2 0x28B3 JUMPI PUSH2 0x28B3 PUSH2 0x47F0 JUMP JUMPDEST PUSH1 0x20 ADD ADD SWAP1 PUSH1 0x1 PUSH1 0x1 PUSH1 0xF8 SHL SUB NOT AND SWAP1 DUP2 PUSH1 0x0 BYTE SWAP1 MSTORE8 POP PUSH1 0x0 PUSH2 0x28D7 DUP5 PUSH1 0x2 PUSH2 0x451E JUMP JUMPDEST PUSH2 0x28E2 SWAP1 PUSH1 0x1 PUSH2 0x4896 JUMP JUMPDEST SWAP1 POP JUMPDEST PUSH1 0x1 DUP2 GT ISZERO PUSH2 0x295A JUMPI PUSH16 0x181899199A1A9B1B9C1CB0B131B232B3 PUSH1 0x81 SHL DUP6 PUSH1 0xF AND PUSH1 0x10 DUP2 LT PUSH2 0x2916 JUMPI PUSH2 0x2916 PUSH2 0x47F0 JUMP JUMPDEST BYTE PUSH1 0xF8 SHL DUP3 DUP3 DUP2 MLOAD DUP2 LT PUSH2 0x292C JUMPI PUSH2 0x292C PUSH2 0x47F0 JUMP JUMPDEST PUSH1 0x20 ADD ADD SWAP1 PUSH1 0x1 PUSH1 0x1 PUSH1 0xF8 SHL SUB NOT AND SWAP1 DUP2 PUSH1 0x0 BYTE SWAP1 MSTORE8 POP PUSH1 0x4 SWAP5 SWAP1 SWAP5 SHR SWAP4 PUSH2 0x2953 DUP2 PUSH2 0x49DB JUMP JUMPDEST SWAP1 POP PUSH2 0x28E5 JUMP JUMPDEST POP DUP4 ISZERO PUSH2 0x15EA JUMPI PUSH1 0x40 MLOAD PUSH3 0x461BCD PUSH1 0xE5 SHL DUP2 MSTORE PUSH1 0x20 PUSH1 0x4 DUP3 ADD DUP2 SWAP1 MSTORE PUSH1 0x24 DUP3 ADD MSTORE PUSH32 0x537472696E67733A20686578206C656E67746820696E73756666696369656E74 PUSH1 0x44 DUP3 ADD MSTORE PUSH1 0x64 ADD PUSH2 0xB96 JUMP JUMPDEST PUSH1 0x1 PUSH1 0x1 PUSH1 0xA0 SHL SUB DUP3 AND PUSH2 0x29FF JUMPI PUSH1 0x40 MLOAD PUSH3 0x461BCD PUSH1 0xE5 SHL DUP2 MSTORE PUSH1 0x20 PUSH1 0x4 DUP3 ADD DUP2 SWAP1 MSTORE PUSH1 0x24 DUP3 ADD MSTORE PUSH32 0x4552433732313A206D696E7420746F20746865207A65726F2061646472657373 PUSH1 0x44 DUP3 ADD MSTORE PUSH1 0x64 ADD PUSH2 0xB96 JUMP JUMPDEST PUSH1 0x0 DUP2 DUP2 MSTORE PUSH2 0x195 PUSH1 0x20 MSTORE PUSH1 0x40 SWAP1 KECCAK256 SLOAD PUSH1 0x1 PUSH1 0x1 PUSH1 0xA0 SHL SUB AND ISZERO PUSH2 0x2A65 JUMPI PUSH1 0x40 MLOAD PUSH3 0x461BCD PUSH1 0xE5 SHL DUP2 MSTORE PUSH1 0x20 PUSH1 0x4 DUP3 ADD MSTORE PUSH1 0x1C PUSH1 0x24 DUP3 ADD MSTORE PUSH32 0x4552433732313A20746F6B656E20616C7265616479206D696E74656400000000 PUSH1 0x44 DUP3 ADD MSTORE PUSH1 0x64 ADD PUSH2 0xB96 JUMP JUMPDEST PUSH2 0x2A71 PUSH1 0x0 DUP4 DUP4 PUSH2 0x2B3A JUMP JUMPDEST PUSH1 0x1 PUSH1 0x1 PUSH1 0xA0 SHL SUB DUP3 AND PUSH1 0x0 SWAP1 DUP2 MSTORE PUSH2 0x196 PUSH1 0x20 MSTORE PUSH1 0x40 DUP2 KECCAK256 DUP1 SLOAD PUSH1 0x1 SWAP3 SWAP1 PUSH2 0x2A9B SWAP1 DUP5 SWAP1 PUSH2 0x4896 JUMP JUMPDEST SWAP1 SWAP2 SSTORE POP POP PUSH1 0x0 DUP2 DUP2 MSTORE PUSH2 0x195 PUSH1 0x20 MSTORE PUSH1 0x40 DUP1 DUP3 KECCAK256 DUP1 SLOAD PUSH1 0x1 PUSH1 0x1 PUSH1 0xA0 SHL SUB NOT AND PUSH1 0x1 PUSH1 0x1 PUSH1 0xA0 SHL SUB DUP7 AND SWAP1 DUP2 OR SWAP1 SWAP2 SSTORE SWAP1 MLOAD DUP4 SWAP3 SWAP1 PUSH32 0xDDF252AD1BE2C89B69C2B068FC378DAA952BA7F163C4A11628F55A4DF523B3EF SWAP1 DUP3 SWAP1 LOG4 POP POP JUMP JUMPDEST PUSH1 0x0 PUSH1 0x1 PUSH1 0x1 PUSH1 0xE0 SHL SUB NOT DUP3 AND PUSH4 0x80AC58CD PUSH1 0xE0 SHL EQ DUP1 PUSH2 0x2B2B JUMPI POP PUSH1 0x1 PUSH1 0x1 PUSH1 0xE0 SHL SUB NOT DUP3 AND PUSH4 0x5B5E139F PUSH1 0xE0 SHL EQ JUMPDEST DUP1 PUSH2 0xA87 JUMPI POP PUSH2 0xA87 DUP3 PUSH2 0x3224 JUMP JUMPDEST PUSH2 0x2B45 DUP4 DUP4 DUP4 PUSH2 0x3249 JUMP JUMPDEST PUSH2 0x2B5E PUSH1 0x0 DUP1 MLOAD PUSH1 0x20 PUSH2 0x4AA6 DUP4 CODECOPY DUP2 MLOAD SWAP2 MSTORE PUSH1 0x0 PUSH2 0x15F1 JUMP JUMPDEST ISZERO DUP1 ISZERO PUSH2 0x2B73 JUMPI POP PUSH1 0x1 PUSH1 0x1 PUSH1 0xA0 SHL SUB DUP4 AND ISZERO ISZERO JUMPDEST DUP1 ISZERO PUSH2 0x2B87 JUMPI POP PUSH1 0x1 PUSH1 0x1 PUSH1 0xA0 SHL SUB DUP3 AND ISZERO ISZERO JUMPDEST ISZERO PUSH2 0xCDF JUMPI PUSH2 0x2BA4 PUSH1 0x0 DUP1 MLOAD PUSH1 0x20 PUSH2 0x4AA6 DUP4 CODECOPY DUP2 MLOAD SWAP2 MSTORE DUP5 PUSH2 0x15F1 JUMP JUMPDEST DUP1 PUSH2 0x2BC2 JUMPI POP PUSH2 0x2BC2 PUSH1 0x0 DUP1 MLOAD PUSH1 0x20 PUSH2 0x4AA6 DUP4 CODECOPY DUP2 MLOAD SWAP2 MSTORE DUP4 PUSH2 0x15F1 JUMP JUMPDEST PUSH2 0xCDF JUMPI PUSH1 0x40 MLOAD PUSH3 0x461BCD PUSH1 0xE5 SHL DUP2 MSTORE PUSH1 0x20 PUSH1 0x4 DUP3 ADD MSTORE PUSH1 0x23 PUSH1 0x24 DUP3 ADD MSTORE PUSH32 0x7265737472696374656420746F205452414E534645525F524F4C4520686F6C64 PUSH1 0x44 DUP3 ADD MSTORE PUSH3 0x657273 PUSH1 0xE8 SHL PUSH1 0x64 DUP3 ADD MSTORE PUSH1 0x84 ADD PUSH2 0xB96 JUMP JUMPDEST DUP1 PUSH2 0x2C24 JUMPI PUSH2 0x1638 JUMP JUMPDEST PUSH1 0x1 PUSH1 0x1 PUSH1 0xA0 SHL SUB DUP5 AND PUSH20 0xEEEEEEEEEEEEEEEEEEEEEEEEEEEEEEEEEEEEEEEE EQ ISZERO PUSH2 0x2C58 JUMPI PUSH2 0x2C53 DUP3 DUP3 PUSH2 0x3303 JUMP JUMPDEST PUSH2 0x1638 JUMP JUMPDEST PUSH2 0x1638 DUP5 DUP5 DUP5 DUP5 PUSH2 0x33A6 JUMP JUMPDEST PUSH2 0x2C6E DUP3 DUP3 PUSH2 0x15F1 JUMP JUMPDEST PUSH2 0x11D9 JUMPI PUSH1 0x0 DUP3 DUP2 MSTORE PUSH2 0x12F PUSH1 0x20 SWAP1 DUP2 MSTORE PUSH1 0x40 DUP1 DUP4 KECCAK256 PUSH1 0x1 PUSH1 0x1 PUSH1 0xA0 SHL SUB DUP6 AND DUP5 MSTORE SWAP1 SWAP2 MSTORE SWAP1 KECCAK256 DUP1 SLOAD PUSH1 0xFF NOT AND PUSH1 0x1 OR SWAP1 SSTORE PUSH2 0x2CA8 PUSH2 0x1C8C JUMP JUMPDEST PUSH1 0x1 PUSH1 0x1 PUSH1 0xA0 SHL SUB AND DUP2 PUSH1 0x1 PUSH1 0x1 PUSH1 0xA0 SHL SUB AND DUP4 PUSH32 0x2F8788117E7EFF1D82E926EC794901D17C78024A50270940304540A733656F0D PUSH1 0x40 MLOAD PUSH1 0x40 MLOAD DUP1 SWAP2 SUB SWAP1 LOG4 POP POP JUMP JUMPDEST PUSH1 0x0 PUSH2 0x15EA DUP4 PUSH1 0x1 PUSH1 0x1 PUSH1 0xA0 SHL SUB DUP5 AND PUSH2 0x3520 JUMP JUMPDEST PUSH2 0x2D0B DUP3 DUP3 PUSH2 0x15F1 JUMP JUMPDEST ISZERO PUSH2 0x11D9 JUMPI PUSH1 0x0 DUP3 DUP2 MSTORE PUSH2 0x12F PUSH1 0x20 SWAP1 DUP2 MSTORE PUSH1 0x40 DUP1 DUP4 KECCAK256 PUSH1 0x1 PUSH1 0x1 PUSH1 0xA0 SHL SUB DUP6 AND DUP5 MSTORE SWAP1 SWAP2 MSTORE SWAP1 KECCAK256 DUP1 SLOAD PUSH1 0xFF NOT AND SWAP1 SSTORE PUSH2 0x2D43 PUSH2 0x1C8C JUMP JUMPDEST PUSH1 0x1 PUSH1 0x1 PUSH1 0xA0 SHL SUB AND DUP2 PUSH1 0x1 PUSH1 0x1 PUSH1 0xA0 SHL SUB AND DUP4 PUSH32 0xF6391F5C32D9C69D2A47EA670B442974B53935D1EDC7FD64EB21E047A839171B PUSH1 0x40 MLOAD PUSH1 0x40 MLOAD DUP1 SWAP2 SUB SWAP1 LOG4 POP POP JUMP JUMPDEST PUSH1 0x0 PUSH2 0x15EA DUP4 PUSH1 0x1 PUSH1 0x1 PUSH1 0xA0 SHL SUB DUP5 AND PUSH2 0x356F JUMP JUMPDEST PUSH1 0x0 DUP3 PUSH1 0x0 ADD DUP3 DUP2 SLOAD DUP2 LT PUSH2 0x2DB3 JUMPI PUSH2 0x2DB3 PUSH2 0x47F0 JUMP JUMPDEST SWAP1 PUSH1 0x0 MSTORE PUSH1 0x20 PUSH1 0x0 KECCAK256 ADD SLOAD SWAP1 POP SWAP3 SWAP2 POP POP JUMP JUMPDEST PUSH1 0x60 DUP4 ISZERO PUSH2 0x2DD5 JUMPI POP DUP2 PUSH2 0x15EA JUMP JUMPDEST DUP3 MLOAD ISZERO PUSH2 0x2DE5 JUMPI DUP3 MLOAD DUP1 DUP5 PUSH1 0x20 ADD REVERT JUMPDEST DUP2 PUSH1 0x40 MLOAD PUSH3 0x461BCD PUSH1 0xE5 SHL DUP2 MSTORE PUSH1 0x4 ADD PUSH2 0xB96 SWAP2 SWAP1 PUSH2 0x3E52 JUMP JUMPDEST PUSH1 0x0 PUSH1 0x1 PUSH1 0x1 PUSH1 0xA0 SHL SUB DUP5 AND EXTCODESIZE ISZERO PUSH2 0x2EF9 JUMPI DUP4 PUSH1 0x1 PUSH1 0x1 PUSH1 0xA0 SHL SUB AND PUSH4 0x150B7A02 PUSH2 0x2E28 PUSH2 0x1C8C JUMP JUMPDEST DUP8 DUP7 DUP7 PUSH1 0x40 MLOAD DUP6 PUSH4 0xFFFFFFFF AND PUSH1 0xE0 SHL DUP2 MSTORE PUSH1 0x4 ADD PUSH2 0x2E4A SWAP5 SWAP4 SWAP3 SWAP2 SWAP1 PUSH2 0x49F2 JUMP JUMPDEST PUSH1 0x20 PUSH1 0x40 MLOAD DUP1 DUP4 SUB DUP2 PUSH1 0x0 DUP8 GAS CALL SWAP3 POP POP POP DUP1 ISZERO PUSH2 0x2E85 JUMPI POP PUSH1 0x40 DUP1 MLOAD PUSH1 0x1F RETURNDATASIZE SWAP1 DUP2 ADD PUSH1 0x1F NOT AND DUP3 ADD SWAP1 SWAP3 MSTORE PUSH2 0x2E82 SWAP2 DUP2 ADD SWAP1 PUSH2 0x4A2F JUMP JUMPDEST PUSH1 0x1 JUMPDEST PUSH2 0x2EDF JUMPI RETURNDATASIZE DUP1 DUP1 ISZERO PUSH2 0x2EB3 JUMPI PUSH1 0x40 MLOAD SWAP2 POP PUSH1 0x1F NOT PUSH1 0x3F RETURNDATASIZE ADD AND DUP3 ADD PUSH1 0x40 MSTORE RETURNDATASIZE DUP3 MSTORE RETURNDATASIZE PUSH1 0x0 PUSH1 0x20 DUP5 ADD RETURNDATACOPY PUSH2 0x2EB8 JUMP JUMPDEST PUSH1 0x60 SWAP2 POP JUMPDEST POP DUP1 MLOAD PUSH2 0x2ED7 JUMPI PUSH1 0x40 MLOAD PUSH3 0x461BCD PUSH1 0xE5 SHL DUP2 MSTORE PUSH1 0x4 ADD PUSH2 0xB96 SWAP1 PUSH2 0x493E JUMP JUMPDEST DUP1 MLOAD DUP2 PUSH1 0x20 ADD REVERT JUMPDEST PUSH1 0x1 PUSH1 0x1 PUSH1 0xE0 SHL SUB NOT AND PUSH4 0xA85BD01 PUSH1 0xE1 SHL EQ SWAP1 POP PUSH2 0x1F09 JUMP JUMPDEST POP PUSH1 0x1 SWAP5 SWAP4 POP POP POP POP JUMP JUMPDEST PUSH1 0x60 PUSH32 0x86633B4FFA94B7C3D316CA70D7D2700F3FDFA7A7806EFD31499B513D9176692E PUSH2 0x2F34 PUSH1 0x20 DUP5 ADD DUP5 PUSH2 0x3EAA JUMP JUMPDEST PUSH2 0x2F44 PUSH1 0x40 DUP6 ADD PUSH1 0x20 DUP7 ADD PUSH2 0x3EAA JUMP JUMPDEST PUSH1 0x40 DUP6 ADD CALLDATALOAD PUSH2 0x2F59 PUSH1 0x80 DUP8 ADD PUSH1 0x60 DUP9 ADD PUSH2 0x3EAA JUMP JUMPDEST PUSH2 0x2F66 PUSH1 0x80 DUP9 ADD DUP9 PUSH2 0x455F JUMP JUMPDEST PUSH1 0x40 MLOAD PUSH2 0x2F74 SWAP3 SWAP2 SWAP1 PUSH2 0x4A4C JUMP JUMPDEST PUSH1 0x40 MLOAD SWAP1 DUP2 SWAP1 SUB SWAP1 KECCAK256 PUSH1 0xA0 DUP9 ADD CALLDATALOAD PUSH2 0x2F92 PUSH1 0xE0 DUP11 ADD PUSH1 0xC0 DUP12 ADD PUSH2 0x3EAA JUMP JUMPDEST PUSH2 0x2FA3 PUSH2 0x100 DUP12 ADD PUSH1 0xE0 DUP13 ADD PUSH2 0x48D9 JUMP JUMPDEST PUSH2 0x2FB5 PUSH2 0x120 DUP13 ADD PUSH2 0x100 DUP14 ADD PUSH2 0x48D9 JUMP JUMPDEST PUSH1 0x40 DUP1 MLOAD PUSH1 0x20 DUP2 ADD SWAP12 SWAP1 SWAP12 MSTORE PUSH1 0x1 PUSH1 0x1 PUSH1 0xA0 SHL SUB SWAP10 DUP11 AND SWAP1 DUP12 ADD MSTORE SWAP7 DUP9 AND PUSH1 0x60 DUP11 ADD MSTORE PUSH1 0x80 DUP10 ADD SWAP6 SWAP1 SWAP6 MSTORE SWAP3 DUP7 AND PUSH1 0xA0 DUP9 ADD MSTORE PUSH1 0xC0 DUP8 ADD SWAP2 SWAP1 SWAP2 MSTORE PUSH1 0xE0 DUP7 ADD MSTORE SWAP1 SWAP3 AND PUSH2 0x100 DUP5 ADD MSTORE PUSH1 0x1 PUSH1 0x1 PUSH1 0x80 SHL SUB SWAP2 DUP3 AND PUSH2 0x120 DUP1 DUP6 ADD SWAP2 SWAP1 SWAP2 MSTORE SWAP2 AND PUSH2 0x140 DUP4 ADD MSTORE DUP4 ADD CALLDATALOAD PUSH2 0x160 DUP3 ADD MSTORE PUSH2 0x180 ADD PUSH1 0x40 MLOAD PUSH1 0x20 DUP2 DUP4 SUB SUB DUP2 MSTORE SWAP1 PUSH1 0x40 MSTORE SWAP1 POP SWAP2 SWAP1 POP JUMP JUMPDEST PUSH1 0x0 PUSH2 0xA87 PUSH2 0x304B PUSH2 0x3662 JUMP JUMPDEST DUP4 PUSH1 0x40 MLOAD PUSH2 0x1901 PUSH1 0xF0 SHL PUSH1 0x20 DUP3 ADD MSTORE PUSH1 0x22 DUP2 ADD DUP4 SWAP1 MSTORE PUSH1 0x42 DUP2 ADD DUP3 SWAP1 MSTORE PUSH1 0x0 SWAP1 PUSH1 0x62 ADD PUSH1 0x40 MLOAD PUSH1 0x20 DUP2 DUP4 SUB SUB DUP2 MSTORE SWAP1 PUSH1 0x40 MSTORE DUP1 MLOAD SWAP1 PUSH1 0x20 ADD KECCAK256 SWAP1 POP SWAP3 SWAP2 POP POP JUMP JUMPDEST PUSH1 0x0 DUP1 PUSH1 0x0 PUSH2 0x309B DUP6 DUP6 PUSH2 0x36DD JUMP JUMPDEST SWAP2 POP SWAP2 POP PUSH2 0x30A8 DUP2 PUSH2 0x374D JUMP JUMPDEST POP SWAP4 SWAP3 POP POP POP JUMP JUMPDEST PUSH1 0x0 SLOAD PUSH2 0x100 SWAP1 DIV PUSH1 0xFF AND PUSH2 0x30D7 JUMPI PUSH1 0x40 MLOAD PUSH3 0x461BCD PUSH1 0xE5 SHL DUP2 MSTORE PUSH1 0x4 ADD PUSH2 0xB96 SWAP1 PUSH2 0x4990 JUMP JUMPDEST PUSH1 0x1 DUP1 SSTORE JUMP JUMPDEST PUSH1 0x0 SLOAD PUSH2 0x100 SWAP1 DIV PUSH1 0xFF AND PUSH2 0x3104 JUMPI PUSH1 0x40 MLOAD PUSH3 0x461BCD PUSH1 0xE5 SHL DUP2 MSTORE PUSH1 0x4 ADD PUSH2 0xB96 SWAP1 PUSH2 0x4990 JUMP JUMPDEST DUP2 MLOAD PUSH1 0x20 SWAP3 DUP4 ADD KECCAK256 DUP2 MLOAD SWAP2 SWAP1 SWAP3 ADD KECCAK256 PUSH1 0x33 SWAP2 SWAP1 SWAP2 SSTORE PUSH1 0x34 SSTORE JUMP JUMPDEST PUSH1 0x0 SLOAD PUSH2 0x100 SWAP1 DIV PUSH1 0xFF AND PUSH2 0x273E JUMPI PUSH1 0x40 MLOAD PUSH3 0x461BCD PUSH1 0xE5 SHL DUP2 MSTORE PUSH1 0x4 ADD PUSH2 0xB96 SWAP1 PUSH2 0x4990 JUMP JUMPDEST PUSH1 0x0 SLOAD PUSH2 0x100 SWAP1 DIV PUSH1 0xFF AND PUSH2 0x316C JUMPI PUSH1 0x40 MLOAD PUSH3 0x461BCD PUSH1 0xE5 SHL DUP2 MSTORE PUSH1 0x4 ADD PUSH2 0xB96 SWAP1 PUSH2 0x4990 JUMP JUMPDEST PUSH1 0x0 JUMPDEST DUP2 MLOAD DUP2 LT ISZERO PUSH2 0x11D9 JUMPI PUSH1 0x1 PUSH1 0x99 PUSH1 0x0 DUP5 DUP5 DUP2 MLOAD DUP2 LT PUSH2 0x3190 JUMPI PUSH2 0x3190 PUSH2 0x47F0 JUMP JUMPDEST PUSH1 0x20 SWAP1 DUP2 MUL SWAP2 SWAP1 SWAP2 ADD DUP2 ADD MLOAD PUSH1 0x1 PUSH1 0x1 PUSH1 0xA0 SHL SUB AND DUP3 MSTORE DUP2 ADD SWAP2 SWAP1 SWAP2 MSTORE PUSH1 0x40 ADD PUSH1 0x0 KECCAK256 DUP1 SLOAD PUSH1 0xFF NOT AND SWAP2 ISZERO ISZERO SWAP2 SWAP1 SWAP2 OR SWAP1 SSTORE DUP1 PUSH2 0x31CC DUP2 PUSH2 0x4806 JUMP JUMPDEST SWAP2 POP POP PUSH2 0x316F JUMP JUMPDEST PUSH1 0x0 SLOAD PUSH2 0x100 SWAP1 DIV PUSH1 0xFF AND PUSH2 0x31FB JUMPI PUSH1 0x40 MLOAD PUSH3 0x461BCD PUSH1 0xE5 SHL DUP2 MSTORE PUSH1 0x4 ADD PUSH2 0xB96 SWAP1 PUSH2 0x4990 JUMP JUMPDEST DUP2 MLOAD PUSH2 0x320F SWAP1 PUSH2 0x193 SWAP1 PUSH1 0x20 DUP6 ADD SWAP1 PUSH2 0x3C84 JUMP JUMPDEST POP DUP1 MLOAD PUSH2 0xCDF SWAP1 PUSH2 0x194 SWAP1 PUSH1 0x20 DUP5 ADD SWAP1 PUSH2 0x3C84 JUMP JUMPDEST PUSH1 0x0 PUSH1 0x1 PUSH1 0x1 PUSH1 0xE0 SHL SUB NOT DUP3 AND PUSH4 0x5A05180F PUSH1 0xE0 SHL EQ DUP1 PUSH2 0xA87 JUMPI POP PUSH2 0xA87 DUP3 PUSH2 0x3908 JUMP JUMPDEST PUSH1 0x1 PUSH1 0x1 PUSH1 0xA0 SHL SUB DUP4 AND PUSH2 0x32A6 JUMPI PUSH2 0x32A1 DUP2 PUSH2 0x1C7 DUP1 SLOAD PUSH1 0x0 DUP4 DUP2 MSTORE PUSH2 0x1C8 PUSH1 0x20 MSTORE PUSH1 0x40 DUP2 KECCAK256 DUP3 SWAP1 SSTORE PUSH1 0x1 DUP3 ADD DUP4 SSTORE SWAP2 SWAP1 SWAP2 MSTORE PUSH32 0xFF6DF30967A6A678F565C59A19E91E5C0DBB20CFE9F9BF26D7DA6DEA0FFFA24C ADD SSTORE JUMP JUMPDEST PUSH2 0x32C9 JUMP JUMPDEST DUP2 PUSH1 0x1 PUSH1 0x1 PUSH1 0xA0 SHL SUB AND DUP4 PUSH1 0x1 PUSH1 0x1 PUSH1 0xA0 SHL SUB AND EQ PUSH2 0x32C9 JUMPI PUSH2 0x32C9 DUP4 DUP3 PUSH2 0x393D JUMP JUMPDEST PUSH1 0x1 PUSH1 0x1 PUSH1 0xA0 SHL SUB DUP3 AND PUSH2 0x32E0 JUMPI PUSH2 0xCDF DUP2 PUSH2 0x39DF JUMP JUMPDEST DUP3 PUSH1 0x1 PUSH1 0x1 PUSH1 0xA0 SHL SUB AND DUP3 PUSH1 0x1 PUSH1 0x1 PUSH1 0xA0 SHL SUB AND EQ PUSH2 0xCDF JUMPI PUSH2 0xCDF DUP3 DUP3 PUSH2 0x3A94 JUMP JUMPDEST PUSH1 0x0 DUP3 PUSH1 0x1 PUSH1 0x1 PUSH1 0xA0 SHL SUB AND DUP3 PUSH1 0x40 MLOAD PUSH1 0x0 PUSH1 0x40 MLOAD DUP1 DUP4 SUB DUP2 DUP6 DUP8 GAS CALL SWAP3 POP POP POP RETURNDATASIZE DUP1 PUSH1 0x0 DUP2 EQ PUSH2 0x3350 JUMPI PUSH1 0x40 MLOAD SWAP2 POP PUSH1 0x1F NOT PUSH1 0x3F RETURNDATASIZE ADD AND DUP3 ADD PUSH1 0x40 MSTORE RETURNDATASIZE DUP3 MSTORE RETURNDATASIZE PUSH1 0x0 PUSH1 0x20 DUP5 ADD RETURNDATACOPY PUSH2 0x3355 JUMP JUMPDEST PUSH1 0x60 SWAP2 POP JUMPDEST POP POP SWAP1 POP DUP1 PUSH2 0xCDF JUMPI PUSH1 0x40 MLOAD PUSH3 0x461BCD PUSH1 0xE5 SHL DUP2 MSTORE PUSH1 0x20 PUSH1 0x4 DUP3 ADD MSTORE PUSH1 0x1C PUSH1 0x24 DUP3 ADD MSTORE PUSH32 0x6E617469766520746F6B656E207472616E73666572206661696C656400000000 PUSH1 0x44 DUP3 ADD MSTORE PUSH1 0x64 ADD PUSH2 0xB96 JUMP JUMPDEST DUP2 PUSH1 0x1 PUSH1 0x1 PUSH1 0xA0 SHL SUB AND DUP4 PUSH1 0x1 PUSH1 0x1 PUSH1 0xA0 SHL SUB AND EQ ISZERO PUSH2 0x33C5 JUMPI PUSH2 0x1638 JUMP JUMPDEST PUSH1 0x0 PUSH1 0x1 PUSH1 0x1 PUSH1 0xA0 SHL SUB DUP5 AND ADDRESS EQ PUSH2 0x3457 JUMPI PUSH1 0x40 MLOAD PUSH4 0x23B872DD PUSH1 0xE0 SHL DUP2 MSTORE PUSH1 0x1 PUSH1 0x1 PUSH1 0xA0 SHL SUB DUP6 DUP2 AND PUSH1 0x4 DUP4 ADD MSTORE DUP5 DUP2 AND PUSH1 0x24 DUP4 ADD MSTORE PUSH1 0x44 DUP3 ADD DUP5 SWAP1 MSTORE DUP7 AND SWAP1 PUSH4 0x23B872DD SWAP1 PUSH1 0x64 ADD PUSH1 0x20 PUSH1 0x40 MLOAD DUP1 DUP4 SUB DUP2 PUSH1 0x0 DUP8 GAS CALL ISZERO DUP1 ISZERO PUSH2 0x342E JUMPI RETURNDATASIZE PUSH1 0x0 DUP1 RETURNDATACOPY RETURNDATASIZE PUSH1 0x0 REVERT JUMPDEST POP POP POP POP PUSH1 0x40 MLOAD RETURNDATASIZE PUSH1 0x1F NOT PUSH1 0x1F DUP3 ADD AND DUP3 ADD DUP1 PUSH1 0x40 MSTORE POP DUP2 ADD SWAP1 PUSH2 0x3452 SWAP2 SWAP1 PUSH2 0x4A5C JUMP JUMPDEST PUSH2 0x34CA JUMP JUMPDEST PUSH1 0x40 MLOAD PUSH4 0xA9059CBB PUSH1 0xE0 SHL DUP2 MSTORE PUSH1 0x1 PUSH1 0x1 PUSH1 0xA0 SHL SUB DUP5 DUP2 AND PUSH1 0x4 DUP4 ADD MSTORE PUSH1 0x24 DUP3 ADD DUP5 SWAP1 MSTORE DUP7 AND SWAP1 PUSH4 0xA9059CBB SWAP1 PUSH1 0x44 ADD PUSH1 0x20 PUSH1 0x40 MLOAD DUP1 DUP4 SUB DUP2 PUSH1 0x0 DUP8 GAS CALL ISZERO DUP1 ISZERO PUSH2 0x34A6 JUMPI RETURNDATASIZE PUSH1 0x0 DUP1 RETURNDATACOPY RETURNDATASIZE PUSH1 0x0 REVERT JUMPDEST POP POP POP POP PUSH1 0x40 MLOAD RETURNDATASIZE PUSH1 0x1F NOT PUSH1 0x1F DUP3 ADD AND DUP3 ADD DUP1 PUSH1 0x40 MSTORE POP DUP2 ADD SWAP1 PUSH2 0x34CA SWAP2 SWAP1 PUSH2 0x4A5C JUMP JUMPDEST SWAP1 POP DUP1 PUSH2 0x3519 JUMPI PUSH1 0x40 MLOAD PUSH3 0x461BCD PUSH1 0xE5 SHL DUP2 MSTORE PUSH1 0x20 PUSH1 0x4 DUP3 ADD MSTORE PUSH1 0x19 PUSH1 0x24 DUP3 ADD MSTORE PUSH32 0x63757272656E6379207472616E73666572206661696C65642E00000000000000 PUSH1 0x44 DUP3 ADD MSTORE PUSH1 0x64 ADD PUSH2 0xB96 JUMP JUMPDEST POP POP POP POP POP JUMP JUMPDEST PUSH1 0x0 DUP2 DUP2 MSTORE PUSH1 0x1 DUP4 ADD PUSH1 0x20 MSTORE PUSH1 0x40 DUP2 KECCAK256 SLOAD PUSH2 0x3567 JUMPI POP DUP2 SLOAD PUSH1 0x1 DUP2 DUP2 ADD DUP5 SSTORE PUSH1 0x0 DUP5 DUP2 MSTORE PUSH1 0x20 DUP1 DUP3 KECCAK256 SWAP1 SWAP4 ADD DUP5 SWAP1 SSTORE DUP5 SLOAD DUP5 DUP3 MSTORE DUP3 DUP7 ADD SWAP1 SWAP4 MSTORE PUSH1 0x40 SWAP1 KECCAK256 SWAP2 SWAP1 SWAP2 SSTORE PUSH2 0xA87 JUMP JUMPDEST POP PUSH1 0x0 PUSH2 0xA87 JUMP JUMPDEST PUSH1 0x0 DUP2 DUP2 MSTORE PUSH1 0x1 DUP4 ADD PUSH1 0x20 MSTORE PUSH1 0x40 DUP2 KECCAK256 SLOAD DUP1 ISZERO PUSH2 0x3658 JUMPI PUSH1 0x0 PUSH2 0x3593 PUSH1 0x1 DUP4 PUSH2 0x48C2 JUMP JUMPDEST DUP6 SLOAD SWAP1 SWAP2 POP PUSH1 0x0 SWAP1 PUSH2 0x35A7 SWAP1 PUSH1 0x1 SWAP1 PUSH2 0x48C2 JUMP JUMPDEST SWAP1 POP DUP2 DUP2 EQ PUSH2 0x360C JUMPI PUSH1 0x0 DUP7 PUSH1 0x0 ADD DUP3 DUP2 SLOAD DUP2 LT PUSH2 0x35C7 JUMPI PUSH2 0x35C7 PUSH2 0x47F0 JUMP JUMPDEST SWAP1 PUSH1 0x0 MSTORE PUSH1 0x20 PUSH1 0x0 KECCAK256 ADD SLOAD SWAP1 POP DUP1 DUP8 PUSH1 0x0 ADD DUP5 DUP2 SLOAD DUP2 LT PUSH2 0x35EA JUMPI PUSH2 0x35EA PUSH2 0x47F0 JUMP JUMPDEST PUSH1 0x0 SWAP2 DUP3 MSTORE PUSH1 0x20 DUP1 DUP4 KECCAK256 SWAP1 SWAP2 ADD SWAP3 SWAP1 SWAP3 SSTORE SWAP2 DUP3 MSTORE PUSH1 0x1 DUP9 ADD SWAP1 MSTORE PUSH1 0x40 SWAP1 KECCAK256 DUP4 SWAP1 SSTORE JUMPDEST DUP6 SLOAD DUP7 SWAP1 DUP1 PUSH2 0x361D JUMPI PUSH2 0x361D PUSH2 0x4A79 JUMP JUMPDEST PUSH1 0x1 SWAP1 SUB DUP2 DUP2 SWAP1 PUSH1 0x0 MSTORE PUSH1 0x20 PUSH1 0x0 KECCAK256 ADD PUSH1 0x0 SWAP1 SSTORE SWAP1 SSTORE DUP6 PUSH1 0x1 ADD PUSH1 0x0 DUP7 DUP2 MSTORE PUSH1 0x20 ADD SWAP1 DUP2 MSTORE PUSH1 0x20 ADD PUSH1 0x0 KECCAK256 PUSH1 0x0 SWAP1 SSTORE PUSH1 0x1 SWAP4 POP POP POP POP PUSH2 0xA87 JUMP JUMPDEST PUSH1 0x0 SWAP2 POP POP PUSH2 0xA87 JUMP JUMPDEST PUSH1 0x0 PUSH2 0x15CC PUSH32 0x8B73C3C69BB8FE3D512ECC4CF759CC79239F7B179B0FFACAA9A75D522B39400F PUSH2 0x3691 PUSH1 0x33 SLOAD SWAP1 JUMP JUMPDEST PUSH1 0x34 SLOAD PUSH1 0x40 DUP1 MLOAD PUSH1 0x20 DUP2 ADD DUP6 SWAP1 MSTORE SWAP1 DUP2 ADD DUP4 SWAP1 MSTORE PUSH1 0x60 DUP2 ADD DUP3 SWAP1 MSTORE CHAINID PUSH1 0x80 DUP3 ADD MSTORE ADDRESS PUSH1 0xA0 DUP3 ADD MSTORE PUSH1 0x0 SWAP1 PUSH1 0xC0 ADD PUSH1 0x40 MLOAD PUSH1 0x20 DUP2 DUP4 SUB SUB DUP2 MSTORE SWAP1 PUSH1 0x40 MSTORE DUP1 MLOAD SWAP1 PUSH1 0x20 ADD KECCAK256 SWAP1 POP SWAP4 SWAP3 POP POP POP JUMP JUMPDEST PUSH1 0x0 DUP1 DUP3 MLOAD PUSH1 0x41 EQ ISZERO PUSH2 0x3714 JUMPI PUSH1 0x20 DUP4 ADD MLOAD PUSH1 0x40 DUP5 ADD MLOAD PUSH1 0x60 DUP6 ADD MLOAD PUSH1 0x0 BYTE PUSH2 0x3708 DUP8 DUP3 DUP6 DUP6 PUSH2 0x3ADA JUMP JUMPDEST SWAP5 POP SWAP5 POP POP POP POP PUSH2 0x3746 JUMP JUMPDEST DUP3 MLOAD PUSH1 0x40 EQ ISZERO PUSH2 0x373E JUMPI PUSH1 0x20 DUP4 ADD MLOAD PUSH1 0x40 DUP5 ADD MLOAD PUSH2 0x3733 DUP7 DUP4 DUP4 PUSH2 0x3BC7 JUMP JUMPDEST SWAP4 POP SWAP4 POP POP POP PUSH2 0x3746 JUMP JUMPDEST POP PUSH1 0x0 SWAP1 POP PUSH1 0x2 JUMPDEST SWAP3 POP SWAP3 SWAP1 POP JUMP JUMPDEST PUSH1 0x0 DUP2 PUSH1 0x4 DUP2 GT ISZERO PUSH2 0x3761 JUMPI PUSH2 0x3761 PUSH2 0x4A8F JUMP JUMPDEST EQ ISZERO PUSH2 0x376A JUMPI POP JUMP JUMPDEST PUSH1 0x1 DUP2 PUSH1 0x4 DUP2 GT ISZERO PUSH2 0x377E JUMPI PUSH2 0x377E PUSH2 0x4A8F JUMP JUMPDEST EQ ISZERO PUSH2 0x37CC JUMPI PUSH1 0x40 MLOAD PUSH3 0x461BCD PUSH1 0xE5 SHL DUP2 MSTORE PUSH1 0x20 PUSH1 0x4 DUP3 ADD MSTORE PUSH1 0x18 PUSH1 0x24 DUP3 ADD MSTORE PUSH32 0x45434453413A20696E76616C6964207369676E61747572650000000000000000 PUSH1 0x44 DUP3 ADD MSTORE PUSH1 0x64 ADD PUSH2 0xB96 JUMP JUMPDEST PUSH1 0x2 DUP2 PUSH1 0x4 DUP2 GT ISZERO PUSH2 0x37E0 JUMPI PUSH2 0x37E0 PUSH2 0x4A8F JUMP JUMPDEST EQ ISZERO PUSH2 0x382E JUMPI PUSH1 0x40 MLOAD PUSH3 0x461BCD PUSH1 0xE5 SHL DUP2 MSTORE PUSH1 0x20 PUSH1 0x4 DUP3 ADD MSTORE PUSH1 0x1F PUSH1 0x24 DUP3 ADD MSTORE PUSH32 0x45434453413A20696E76616C6964207369676E6174757265206C656E67746800 PUSH1 0x44 DUP3 ADD MSTORE PUSH1 0x64 ADD PUSH2 0xB96 JUMP JUMPDEST PUSH1 0x3 DUP2 PUSH1 0x4 DUP2 GT ISZERO PUSH2 0x3842 JUMPI PUSH2 0x3842 PUSH2 0x4A8F JUMP JUMPDEST EQ ISZERO PUSH2 0x389B JUMPI PUSH1 0x40 MLOAD PUSH3 0x461BCD PUSH1 0xE5 SHL DUP2 MSTORE PUSH1 0x20 PUSH1 0x4 DUP3 ADD MSTORE PUSH1 0x22 PUSH1 0x24 DUP3 ADD MSTORE PUSH32 0x45434453413A20696E76616C6964207369676E6174757265202773272076616C PUSH1 0x44 DUP3 ADD MSTORE PUSH2 0x7565 PUSH1 0xF0 SHL PUSH1 0x64 DUP3 ADD MSTORE PUSH1 0x84 ADD PUSH2 0xB96 JUMP JUMPDEST PUSH1 0x4 DUP2 PUSH1 0x4 DUP2 GT ISZERO PUSH2 0x38AF JUMPI PUSH2 0x38AF PUSH2 0x4A8F JUMP JUMPDEST EQ ISZERO PUSH2 0x1271 JUMPI PUSH1 0x40 MLOAD PUSH3 0x461BCD PUSH1 0xE5 SHL DUP2 MSTORE PUSH1 0x20 PUSH1 0x4 DUP3 ADD MSTORE PUSH1 0x22 PUSH1 0x24 DUP3 ADD MSTORE PUSH32 0x45434453413A20696E76616C6964207369676E6174757265202776272076616C PUSH1 0x44 DUP3 ADD MSTORE PUSH2 0x7565 PUSH1 0xF0 SHL PUSH1 0x64 DUP3 ADD MSTORE PUSH1 0x84 ADD PUSH2 0xB96 JUMP JUMPDEST PUSH1 0x0 PUSH1 0x1 PUSH1 0x1 PUSH1 0xE0 SHL SUB NOT DUP3 AND PUSH4 0x7965DB0B PUSH1 0xE0 SHL EQ DUP1 PUSH2 0xA87 JUMPI POP PUSH4 0x1FFC9A7 PUSH1 0xE0 SHL PUSH1 0x1 PUSH1 0x1 PUSH1 0xE0 SHL SUB NOT DUP4 AND EQ PUSH2 0xA87 JUMP JUMPDEST PUSH1 0x0 PUSH1 0x1 PUSH2 0x394A DUP5 PUSH2 0x1511 JUMP JUMPDEST PUSH2 0x3954 SWAP2 SWAP1 PUSH2 0x48C2 JUMP JUMPDEST PUSH1 0x0 DUP4 DUP2 MSTORE PUSH2 0x1C6 PUSH1 0x20 MSTORE PUSH1 0x40 SWAP1 KECCAK256 SLOAD SWAP1 SWAP2 POP DUP1 DUP3 EQ PUSH2 0x39AA JUMPI PUSH1 0x1 PUSH1 0x1 PUSH1 0xA0 SHL SUB DUP5 AND PUSH1 0x0 SWAP1 DUP2 MSTORE PUSH2 0x1C5 PUSH1 0x20 SWAP1 DUP2 MSTORE PUSH1 0x40 DUP1 DUP4 KECCAK256 DUP6 DUP5 MSTORE DUP3 MSTORE DUP1 DUP4 KECCAK256 SLOAD DUP5 DUP5 MSTORE DUP2 DUP5 KECCAK256 DUP2 SWAP1 SSTORE DUP4 MSTORE PUSH2 0x1C6 SWAP1 SWAP2 MSTORE SWAP1 KECCAK256 DUP2 SWAP1 SSTORE JUMPDEST POP PUSH1 0x0 SWAP2 DUP3 MSTORE PUSH2 0x1C6 PUSH1 0x20 SWAP1 DUP2 MSTORE PUSH1 0x40 DUP1 DUP5 KECCAK256 DUP5 SWAP1 SSTORE PUSH1 0x1 PUSH1 0x1 PUSH1 0xA0 SHL SUB SWAP1 SWAP5 AND DUP4 MSTORE PUSH2 0x1C5 DUP2 MSTORE DUP4 DUP4 KECCAK256 SWAP2 DUP4 MSTORE MSTORE SWAP1 DUP2 KECCAK256 SSTORE JUMP JUMPDEST PUSH2 0x1C7 SLOAD PUSH1 0x0 SWAP1 PUSH2 0x39F2 SWAP1 PUSH1 0x1 SWAP1 PUSH2 0x48C2 JUMP JUMPDEST PUSH1 0x0 DUP4 DUP2 MSTORE PUSH2 0x1C8 PUSH1 0x20 MSTORE PUSH1 0x40 DUP2 KECCAK256 SLOAD PUSH2 0x1C7 DUP1 SLOAD SWAP4 SWAP5 POP SWAP1 SWAP3 DUP5 SWAP1 DUP2 LT PUSH2 0x3A1C JUMPI PUSH2 0x3A1C PUSH2 0x47F0 JUMP JUMPDEST SWAP1 PUSH1 0x0 MSTORE PUSH1 0x20 PUSH1 0x0 KECCAK256 ADD SLOAD SWAP1 POP DUP1 PUSH2 0x1C7 DUP4 DUP2 SLOAD DUP2 LT PUSH2 0x3A3E JUMPI PUSH2 0x3A3E PUSH2 0x47F0 JUMP JUMPDEST PUSH1 0x0 SWAP2 DUP3 MSTORE PUSH1 0x20 DUP1 DUP4 KECCAK256 SWAP1 SWAP2 ADD SWAP3 SWAP1 SWAP3 SSTORE DUP3 DUP2 MSTORE PUSH2 0x1C8 SWAP1 SWAP2 MSTORE PUSH1 0x40 DUP1 DUP3 KECCAK256 DUP5 SWAP1 SSTORE DUP6 DUP3 MSTORE DUP2 KECCAK256 SSTORE PUSH2 0x1C7 DUP1 SLOAD DUP1 PUSH2 0x3A78 JUMPI PUSH2 0x3A78 PUSH2 0x4A79 JUMP JUMPDEST PUSH1 0x1 SWAP1 SUB DUP2 DUP2 SWAP1 PUSH1 0x0 MSTORE PUSH1 0x20 PUSH1 0x0 KECCAK256 ADD PUSH1 0x0 SWAP1 SSTORE SWAP1 SSTORE POP POP POP POP JUMP JUMPDEST PUSH1 0x0 PUSH2 0x3A9F DUP4 PUSH2 0x1511 JUMP JUMPDEST PUSH1 0x1 PUSH1 0x1 PUSH1 0xA0 SHL SUB SWAP1 SWAP4 AND PUSH1 0x0 SWAP1 DUP2 MSTORE PUSH2 0x1C5 PUSH1 0x20 SWAP1 DUP2 MSTORE PUSH1 0x40 DUP1 DUP4 KECCAK256 DUP7 DUP5 MSTORE DUP3 MSTORE DUP1 DUP4 KECCAK256 DUP6 SWAP1 SSTORE SWAP4 DUP3 MSTORE PUSH2 0x1C6 SWAP1 MSTORE SWAP2 SWAP1 SWAP2 KECCAK256 SWAP2 SWAP1 SWAP2 SSTORE POP JUMP JUMPDEST PUSH1 0x0 DUP1 PUSH32 0x7FFFFFFFFFFFFFFFFFFFFFFFFFFFFFFF5D576E7357A4501DDFE92F46681B20A0 DUP4 GT ISZERO PUSH2 0x3B11 JUMPI POP PUSH1 0x0 SWAP1 POP PUSH1 0x3 PUSH2 0x3BBE JUMP JUMPDEST DUP5 PUSH1 0xFF AND PUSH1 0x1B EQ ISZERO DUP1 ISZERO PUSH2 0x3B29 JUMPI POP DUP5 PUSH1 0xFF AND PUSH1 0x1C EQ ISZERO JUMPDEST ISZERO PUSH2 0x3B3A JUMPI POP PUSH1 0x0 SWAP1 POP PUSH1 0x4 PUSH2 0x3BBE JUMP JUMPDEST PUSH1 0x40 DUP1 MLOAD PUSH1 0x0 DUP1 DUP3 MSTORE PUSH1 0x20 DUP3 ADD DUP1 DUP5 MSTORE DUP10 SWAP1 MSTORE PUSH1 0xFF DUP9 AND SWAP3 DUP3 ADD SWAP3 SWAP1 SWAP3 MSTORE PUSH1 0x60 DUP2 ADD DUP7 SWAP1 MSTORE PUSH1 0x80 DUP2 ADD DUP6 SWAP1 MSTORE PUSH1 0x1 SWAP1 PUSH1 0xA0 ADD PUSH1 0x20 PUSH1 0x40 MLOAD PUSH1 0x20 DUP2 SUB SWAP1 DUP1 DUP5 SUB SWAP1 DUP6 GAS STATICCALL ISZERO DUP1 ISZERO PUSH2 0x3B8E JUMPI RETURNDATASIZE PUSH1 0x0 DUP1 RETURNDATACOPY RETURNDATASIZE PUSH1 0x0 REVERT JUMPDEST POP POP PUSH1 0x40 MLOAD PUSH1 0x1F NOT ADD MLOAD SWAP2 POP POP PUSH1 0x1 PUSH1 0x1 PUSH1 0xA0 SHL SUB DUP2 AND PUSH2 0x3BB7 JUMPI PUSH1 0x0 PUSH1 0x1 SWAP3 POP SWAP3 POP POP PUSH2 0x3BBE JUMP JUMPDEST SWAP2 POP PUSH1 0x0 SWAP1 POP JUMPDEST SWAP5 POP SWAP5 SWAP3 POP POP POP JUMP JUMPDEST PUSH1 0x0 DUP1 PUSH1 0x1 PUSH1 0x1 PUSH1 0xFF SHL SUB DUP4 AND DUP2 PUSH2 0x3BE4 PUSH1 0xFF DUP7 SWAP1 SHR PUSH1 0x1B PUSH2 0x4896 JUMP JUMPDEST SWAP1 POP PUSH2 0x3BF2 DUP8 DUP3 DUP9 DUP6 PUSH2 0x3ADA JUMP JUMPDEST SWAP4 POP SWAP4 POP POP POP SWAP4 POP SWAP4 SWAP2 POP POP JUMP JUMPDEST DUP3 DUP1 SLOAD PUSH2 0x3C0C SWAP1 PUSH2 0x447C JUMP JUMPDEST SWAP1 PUSH1 0x0 MSTORE PUSH1 0x20 PUSH1 0x0 KECCAK256 SWAP1 PUSH1 0x1F ADD PUSH1 0x20 SWAP1 DIV DUP2 ADD SWAP3 DUP3 PUSH2 0x3C2E JUMPI PUSH1 0x0 DUP6 SSTORE PUSH2 0x3C74 JUMP JUMPDEST DUP3 PUSH1 0x1F LT PUSH2 0x3C47 JUMPI DUP3 DUP1 ADD PUSH1 0xFF NOT DUP3 CALLDATALOAD AND OR DUP6 SSTORE PUSH2 0x3C74 JUMP JUMPDEST DUP3 DUP1 ADD PUSH1 0x1 ADD DUP6 SSTORE DUP3 ISZERO PUSH2 0x3C74 JUMPI SWAP2 DUP3 ADD JUMPDEST DUP3 DUP2 GT ISZERO PUSH2 0x3C74 JUMPI DUP3 CALLDATALOAD DUP3 SSTORE SWAP2 PUSH1 0x20 ADD SWAP2 SWAP1 PUSH1 0x1 ADD SWAP1 PUSH2 0x3C59 JUMP JUMPDEST POP PUSH2 0x3C80 SWAP3 SWAP2 POP PUSH2 0x3CF8 JUMP JUMPDEST POP SWAP1 JUMP JUMPDEST DUP3 DUP1 SLOAD PUSH2 0x3C90 SWAP1 PUSH2 0x447C JUMP JUMPDEST SWAP1 PUSH1 0x0 MSTORE PUSH1 0x20 PUSH1 0x0 KECCAK256 SWAP1 PUSH1 0x1F ADD PUSH1 0x20 SWAP1 DIV DUP2 ADD SWAP3 DUP3 PUSH2 0x3CB2 JUMPI PUSH1 0x0 DUP6 SSTORE PUSH2 0x3C74 JUMP JUMPDEST DUP3 PUSH1 0x1F LT PUSH2 0x3CCB JUMPI DUP1 MLOAD PUSH1 0xFF NOT AND DUP4 DUP1 ADD OR DUP6 SSTORE PUSH2 0x3C74 JUMP JUMPDEST DUP3 DUP1 ADD PUSH1 0x1 ADD DUP6 SSTORE DUP3 ISZERO PUSH2 0x3C74 JUMPI SWAP2 DUP3 ADD JUMPDEST DUP3 DUP2 GT ISZERO PUSH2 0x3C74 JUMPI DUP3 MLOAD DUP3 SSTORE SWAP2 PUSH1 0x20 ADD SWAP2 SWAP1 PUSH1 0x1 ADD SWAP1 PUSH2 0x3CDD JUMP JUMPDEST JUMPDEST DUP1 DUP3 GT ISZERO PUSH2 0x3C80 JUMPI PUSH1 0x0 DUP2 SSTORE PUSH1 0x1 ADD PUSH2 0x3CF9 JUMP JUMPDEST PUSH1 0x1 PUSH1 0x1 PUSH1 0xA0 SHL SUB DUP2 AND DUP2 EQ PUSH2 0x1271 JUMPI PUSH1 0x0 DUP1 REVERT JUMPDEST DUP1 CALLDATALOAD PUSH2 0x3D2D DUP2 PUSH2 0x3D0D JUMP JUMPDEST SWAP2 SWAP1 POP JUMP JUMPDEST PUSH1 0x0 DUP1 DUP4 PUSH1 0x1F DUP5 ADD SLT PUSH2 0x3D44 JUMPI PUSH1 0x0 DUP1 REVERT JUMPDEST POP DUP2 CALLDATALOAD PUSH1 0x1 PUSH1 0x1 PUSH1 0x40 SHL SUB DUP2 GT ISZERO PUSH2 0x3D5B JUMPI PUSH1 0x0 DUP1 REVERT JUMPDEST PUSH1 0x20 DUP4 ADD SWAP2 POP DUP4 PUSH1 0x20 DUP3 DUP6 ADD ADD GT ISZERO PUSH2 0x3746 JUMPI PUSH1 0x0 DUP1 REVERT JUMPDEST PUSH1 0x0 DUP1 PUSH1 0x0 PUSH1 0x40 DUP5 DUP7 SUB SLT ISZERO PUSH2 0x3D88 JUMPI PUSH1 0x0 DUP1 REVERT JUMPDEST DUP4 CALLDATALOAD PUSH2 0x3D93 DUP2 PUSH2 0x3D0D JUMP JUMPDEST SWAP3 POP PUSH1 0x20 DUP5 ADD CALLDATALOAD PUSH1 0x1 PUSH1 0x1 PUSH1 0x40 SHL SUB DUP2 GT ISZERO PUSH2 0x3DAE JUMPI PUSH1 0x0 DUP1 REVERT JUMPDEST PUSH2 0x3DBA DUP7 DUP3 DUP8 ADD PUSH2 0x3D32 JUMP JUMPDEST SWAP5 SWAP8 SWAP1 SWAP7 POP SWAP4 SWAP5 POP POP POP POP JUMP JUMPDEST PUSH1 0x1 PUSH1 0x1 PUSH1 0xE0 SHL SUB NOT DUP2 AND DUP2 EQ PUSH2 0x1271 JUMPI PUSH1 0x0 DUP1 REVERT JUMPDEST PUSH1 0x0 PUSH1 0x20 DUP3 DUP5 SUB SLT ISZERO PUSH2 0x3DEF JUMPI PUSH1 0x0 DUP1 REVERT JUMPDEST DUP2 CALLDATALOAD PUSH2 0x15EA DUP2 PUSH2 0x3DC7 JUMP JUMPDEST PUSH1 0x0 JUMPDEST DUP4 DUP2 LT ISZERO PUSH2 0x3E15 JUMPI DUP2 DUP2 ADD MLOAD DUP4 DUP3 ADD MSTORE PUSH1 0x20 ADD PUSH2 0x3DFD JUMP JUMPDEST DUP4 DUP2 GT ISZERO PUSH2 0x1638 JUMPI POP POP PUSH1 0x0 SWAP2 ADD MSTORE JUMP JUMPDEST PUSH1 0x0 DUP2 MLOAD DUP1 DUP5 MSTORE PUSH2 0x3E3E DUP2 PUSH1 0x20 DUP7 ADD PUSH1 0x20 DUP7 ADD PUSH2 0x3DFA JUMP JUMPDEST PUSH1 0x1F ADD PUSH1 0x1F NOT AND SWAP3 SWAP1 SWAP3 ADD PUSH1 0x20 ADD SWAP3 SWAP2 POP POP JUMP JUMPDEST PUSH1 0x20 DUP2 MSTORE PUSH1 0x0 PUSH2 0x15EA PUSH1 0x20 DUP4 ADD DUP5 PUSH2 0x3E26 JUMP JUMPDEST PUSH1 0x0 PUSH1 0x20 DUP3 DUP5 SUB SLT ISZERO PUSH2 0x3E77 JUMPI PUSH1 0x0 DUP1 REVERT JUMPDEST POP CALLDATALOAD SWAP2 SWAP1 POP JUMP JUMPDEST PUSH1 0x0 DUP1 PUSH1 0x40 DUP4 DUP6 SUB SLT ISZERO PUSH2 0x3E91 JUMPI PUSH1 0x0 DUP1 REVERT JUMPDEST DUP3 CALLDATALOAD PUSH2 0x3E9C DUP2 PUSH2 0x3D0D JUMP JUMPDEST SWAP5 PUSH1 0x20 SWAP4 SWAP1 SWAP4 ADD CALLDATALOAD SWAP4 POP POP POP JUMP JUMPDEST PUSH1 0x0 PUSH1 0x20 DUP3 DUP5 SUB SLT ISZERO PUSH2 0x3EBC JUMPI PUSH1 0x0 DUP1 REVERT JUMPDEST DUP2 CALLDATALOAD PUSH2 0x15EA DUP2 PUSH2 0x3D0D JUMP JUMPDEST PUSH1 0x0 DUP1 PUSH1 0x0 PUSH1 0x60 DUP5 DUP7 SUB SLT ISZERO PUSH2 0x3EDC JUMPI PUSH1 0x0 DUP1 REVERT JUMPDEST DUP4 CALLDATALOAD PUSH2 0x3EE7 DUP2 PUSH2 0x3D0D JUMP JUMPDEST SWAP3 POP PUSH1 0x20 DUP5 ADD CALLDATALOAD PUSH2 0x3EF7 DUP2 PUSH2 0x3D0D JUMP JUMPDEST SWAP3 SWAP6 SWAP3 SWAP5 POP POP POP PUSH1 0x40 SWAP2 SWAP1 SWAP2 ADD CALLDATALOAD SWAP1 JUMP JUMPDEST PUSH1 0x0 DUP1 PUSH1 0x40 DUP4 DUP6 SUB SLT ISZERO PUSH2 0x3F1B JUMPI PUSH1 0x0 DUP1 REVERT JUMPDEST POP POP DUP1 CALLDATALOAD SWAP3 PUSH1 0x20 SWAP1 SWAP2 ADD CALLDATALOAD SWAP2 POP JUMP JUMPDEST PUSH1 0x0 DUP1 PUSH1 0x0 PUSH1 0x40 DUP5 DUP7 SUB SLT ISZERO PUSH2 0x3F3F JUMPI PUSH1 0x0 DUP1 REVERT JUMPDEST DUP4 CALLDATALOAD PUSH1 0x1 PUSH1 0x1 PUSH1 0x40 SHL SUB DUP1 DUP3 GT ISZERO PUSH2 0x3F56 JUMPI PUSH1 0x0 DUP1 REVERT JUMPDEST SWAP1 DUP6 ADD SWAP1 PUSH2 0x140 DUP3 DUP9 SUB SLT ISZERO PUSH2 0x3F6B JUMPI PUSH1 0x0 DUP1 REVERT JUMPDEST SWAP1 SWAP4 POP PUSH1 0x20 DUP6 ADD CALLDATALOAD SWAP1 DUP1 DUP3 GT ISZERO PUSH2 0x3F81 JUMPI PUSH1 0x0 DUP1 REVERT JUMPDEST POP PUSH2 0x3DBA DUP7 DUP3 DUP8 ADD PUSH2 0x3D32 JUMP JUMPDEST PUSH1 0x0 DUP1 PUSH1 0x40 DUP4 DUP6 SUB SLT ISZERO PUSH2 0x3FA1 JUMPI PUSH1 0x0 DUP1 REVERT JUMPDEST DUP3 CALLDATALOAD SWAP2 POP PUSH1 0x20 DUP4 ADD CALLDATALOAD PUSH2 0x3FB3 DUP2 PUSH2 0x3D0D JUMP JUMPDEST DUP1 SWAP2 POP POP SWAP3 POP SWAP3 SWAP1 POP JUMP JUMPDEST PUSH1 0x0 DUP1 PUSH1 0x20 DUP4 DUP6 SUB SLT ISZERO PUSH2 0x3FD1 JUMPI PUSH1 0x0 DUP1 REVERT JUMPDEST DUP3 CALLDATALOAD PUSH1 0x1 PUSH1 0x1 PUSH1 0x40 SHL SUB DUP2 GT ISZERO PUSH2 0x3FE7 JUMPI PUSH1 0x0 DUP1 REVERT JUMPDEST PUSH2 0x3FF3 DUP6 DUP3 DUP7 ADD PUSH2 0x3D32 JUMP JUMPDEST SWAP1 SWAP7 SWAP1 SWAP6 POP SWAP4 POP POP POP POP JUMP JUMPDEST PUSH1 0x0 DUP1 PUSH1 0x0 PUSH1 0x60 DUP5 DUP7 SUB SLT ISZERO PUSH2 0x4014 JUMPI PUSH1 0x0 DUP1 REVERT JUMPDEST DUP4 CALLDATALOAD SWAP3 POP PUSH1 0x20 DUP5 ADD CALLDATALOAD PUSH2 0x3EF7 DUP2 PUSH2 0x3D0D JUMP JUMPDEST DUP1 ISZERO ISZERO DUP2 EQ PUSH2 0x1271 JUMPI PUSH1 0x0 DUP1 REVERT JUMPDEST PUSH1 0x0 DUP1 PUSH1 0x40 DUP4 DUP6 SUB SLT ISZERO PUSH2 0x4047 JUMPI PUSH1 0x0 DUP1 REVERT JUMPDEST DUP3 CALLDATALOAD PUSH2 0x4052 DUP2 PUSH2 0x3D0D JUMP JUMPDEST SWAP2 POP PUSH1 0x20 DUP4 ADD CALLDATALOAD PUSH2 0x3FB3 DUP2 PUSH2 0x4026 JUMP JUMPDEST PUSH1 0x0 DUP1 PUSH1 0x20 DUP4 DUP6 SUB SLT ISZERO PUSH2 0x4075 JUMPI PUSH1 0x0 DUP1 REVERT JUMPDEST DUP3 CALLDATALOAD PUSH1 0x1 PUSH1 0x1 PUSH1 0x40 SHL SUB DUP1 DUP3 GT ISZERO PUSH2 0x408C JUMPI PUSH1 0x0 DUP1 REVERT JUMPDEST DUP2 DUP6 ADD SWAP2 POP DUP6 PUSH1 0x1F DUP4 ADD SLT PUSH2 0x40A0 JUMPI PUSH1 0x0 DUP1 REVERT JUMPDEST DUP2 CALLDATALOAD DUP2 DUP2 GT ISZERO PUSH2 0x40AF JUMPI PUSH1 0x0 DUP1 REVERT JUMPDEST DUP7 PUSH1 0x20 DUP3 PUSH1 0x5 SHL DUP6 ADD ADD GT ISZERO PUSH2 0x40C4 JUMPI PUSH1 0x0 DUP1 REVERT JUMPDEST PUSH1 0x20 SWAP3 SWAP1 SWAP3 ADD SWAP7 SWAP2 SWAP6 POP SWAP1 SWAP4 POP POP POP POP JUMP JUMPDEST PUSH1 0x0 PUSH1 0x20 DUP1 DUP4 ADD DUP2 DUP5 MSTORE DUP1 DUP6 MLOAD DUP1 DUP4 MSTORE PUSH1 0x40 DUP7 ADD SWAP2 POP PUSH1 0x40 DUP2 PUSH1 0x5 SHL DUP8 ADD ADD SWAP3 POP DUP4 DUP8 ADD PUSH1 0x0 JUMPDEST DUP3 DUP2 LT ISZERO PUSH2 0x412B JUMPI PUSH1 0x3F NOT DUP9 DUP7 SUB ADD DUP5 MSTORE PUSH2 0x4119 DUP6 DUP4 MLOAD PUSH2 0x3E26 JUMP JUMPDEST SWAP5 POP SWAP3 DUP6 ADD SWAP3 SWAP1 DUP6 ADD SWAP1 PUSH1 0x1 ADD PUSH2 0x40FD JUMP JUMPDEST POP SWAP3 SWAP8 SWAP7 POP POP POP POP POP POP POP JUMP JUMPDEST PUSH4 0x4E487B71 PUSH1 0xE0 SHL PUSH1 0x0 MSTORE PUSH1 0x41 PUSH1 0x4 MSTORE PUSH1 0x24 PUSH1 0x0 REVERT JUMPDEST PUSH1 0x40 MLOAD PUSH2 0x140 DUP2 ADD PUSH1 0x1 PUSH1 0x1 PUSH1 0x40 SHL SUB DUP2 GT DUP3 DUP3 LT OR ISZERO PUSH2 0x4171 JUMPI PUSH2 0x4171 PUSH2 0x4138 JUMP JUMPDEST PUSH1 0x40 MSTORE SWAP1 JUMP JUMPDEST PUSH1 0x40 MLOAD PUSH1 0x1F DUP3 ADD PUSH1 0x1F NOT AND DUP2 ADD PUSH1 0x1 PUSH1 0x1 PUSH1 0x40 SHL SUB DUP2 GT DUP3 DUP3 LT OR ISZERO PUSH2 0x419F JUMPI PUSH2 0x419F PUSH2 0x4138 JUMP JUMPDEST PUSH1 0x40 MSTORE SWAP2 SWAP1 POP JUMP JUMPDEST PUSH1 0x0 PUSH1 0x1 PUSH1 0x1 PUSH1 0x40 SHL SUB DUP4 GT ISZERO PUSH2 0x41C0 JUMPI PUSH2 0x41C0 PUSH2 0x4138 JUMP JUMPDEST PUSH2 0x41D3 PUSH1 0x1F DUP5 ADD PUSH1 0x1F NOT AND PUSH1 0x20 ADD PUSH2 0x4177 JUMP JUMPDEST SWAP1 POP DUP3 DUP2 MSTORE DUP4 DUP4 DUP4 ADD GT ISZERO PUSH2 0x41E7 JUMPI PUSH1 0x0 DUP1 REVERT JUMPDEST DUP3 DUP3 PUSH1 0x20 DUP4 ADD CALLDATACOPY PUSH1 0x0 PUSH1 0x20 DUP5 DUP4 ADD ADD MSTORE SWAP4 SWAP3 POP POP POP JUMP JUMPDEST PUSH1 0x0 DUP1 PUSH1 0x0 DUP1 PUSH1 0x80 DUP6 DUP8 SUB SLT ISZERO PUSH2 0x4214 JUMPI PUSH1 0x0 DUP1 REVERT JUMPDEST DUP5 CALLDATALOAD PUSH2 0x421F DUP2 PUSH2 0x3D0D JUMP JUMPDEST SWAP4 POP PUSH1 0x20 DUP6 ADD CALLDATALOAD PUSH2 0x422F DUP2 PUSH2 0x3D0D JUMP JUMPDEST SWAP3 POP PUSH1 0x40 DUP6 ADD CALLDATALOAD SWAP2 POP PUSH1 0x60 DUP6 ADD CALLDATALOAD PUSH1 0x1 PUSH1 0x1 PUSH1 0x40 SHL SUB DUP2 GT ISZERO PUSH2 0x4251 JUMPI PUSH1 0x0 DUP1 REVERT JUMPDEST DUP6 ADD PUSH1 0x1F DUP2 ADD DUP8 SGT PUSH2 0x4262 JUMPI PUSH1 0x0 DUP1 REVERT JUMPDEST PUSH2 0x4271 DUP8 DUP3 CALLDATALOAD PUSH1 0x20 DUP5 ADD PUSH2 0x41A7 JUMP JUMPDEST SWAP2 POP POP SWAP3 SWAP6 SWAP2 SWAP5 POP SWAP3 POP JUMP JUMPDEST PUSH1 0x0 DUP3 PUSH1 0x1F DUP4 ADD SLT PUSH2 0x428E JUMPI PUSH1 0x0 DUP1 REVERT JUMPDEST PUSH2 0x15EA DUP4 DUP4 CALLDATALOAD PUSH1 0x20 DUP6 ADD PUSH2 0x41A7 JUMP JUMPDEST PUSH1 0x0 DUP3 PUSH1 0x1F DUP4 ADD SLT PUSH2 0x42AE JUMPI PUSH1 0x0 DUP1 REVERT JUMPDEST DUP2 CALLDATALOAD PUSH1 0x20 PUSH1 0x1 PUSH1 0x1 PUSH1 0x40 SHL SUB DUP3 GT ISZERO PUSH2 0x42C9 JUMPI PUSH2 0x42C9 PUSH2 0x4138 JUMP JUMPDEST DUP2 PUSH1 0x5 SHL PUSH2 0x42D8 DUP3 DUP3 ADD PUSH2 0x4177 JUMP JUMPDEST SWAP3 DUP4 MSTORE DUP5 DUP2 ADD DUP3 ADD SWAP3 DUP3 DUP2 ADD SWAP1 DUP8 DUP6 GT ISZERO PUSH2 0x42F2 JUMPI PUSH1 0x0 DUP1 REVERT JUMPDEST DUP4 DUP8 ADD SWAP3 POP JUMPDEST DUP5 DUP4 LT ISZERO PUSH2 0x431A JUMPI DUP3 CALLDATALOAD PUSH2 0x430B DUP2 PUSH2 0x3D0D JUMP JUMPDEST DUP3 MSTORE SWAP2 DUP4 ADD SWAP2 SWAP1 DUP4 ADD SWAP1 PUSH2 0x42F8 JUMP JUMPDEST SWAP8 SWAP7 POP POP POP POP POP POP POP JUMP JUMPDEST DUP1 CALLDATALOAD PUSH1 0x1 PUSH1 0x1 PUSH1 0x80 SHL SUB DUP2 AND DUP2 EQ PUSH2 0x3D2D JUMPI PUSH1 0x0 DUP1 REVERT JUMPDEST PUSH1 0x0 DUP1 PUSH1 0x0 DUP1 PUSH1 0x0 DUP1 PUSH1 0x0 DUP1 PUSH1 0x0 DUP1 PUSH2 0x140 DUP12 DUP14 SUB SLT ISZERO PUSH2 0x435C JUMPI PUSH1 0x0 DUP1 REVERT JUMPDEST PUSH2 0x4365 DUP12 PUSH2 0x3D22 JUMP JUMPDEST SWAP10 POP PUSH1 0x20 DUP12 ADD CALLDATALOAD PUSH1 0x1 PUSH1 0x1 PUSH1 0x40 SHL SUB DUP1 DUP3 GT ISZERO PUSH2 0x4381 JUMPI PUSH1 0x0 DUP1 REVERT JUMPDEST PUSH2 0x438D DUP15 DUP4 DUP16 ADD PUSH2 0x427D JUMP JUMPDEST SWAP11 POP PUSH1 0x40 DUP14 ADD CALLDATALOAD SWAP2 POP DUP1 DUP3 GT ISZERO PUSH2 0x43A3 JUMPI PUSH1 0x0 DUP1 REVERT JUMPDEST PUSH2 0x43AF DUP15 DUP4 DUP16 ADD PUSH2 0x427D JUMP JUMPDEST SWAP10 POP PUSH1 0x60 DUP14 ADD CALLDATALOAD SWAP2 POP DUP1 DUP3 GT ISZERO PUSH2 0x43C5 JUMPI PUSH1 0x0 DUP1 REVERT JUMPDEST PUSH2 0x43D1 DUP15 DUP4 DUP16 ADD PUSH2 0x427D JUMP JUMPDEST SWAP9 POP PUSH1 0x80 DUP14 ADD CALLDATALOAD SWAP2 POP DUP1 DUP3 GT ISZERO PUSH2 0x43E7 JUMPI PUSH1 0x0 DUP1 REVERT JUMPDEST POP PUSH2 0x43F4 DUP14 DUP3 DUP15 ADD PUSH2 0x429D JUMP JUMPDEST SWAP7 POP POP PUSH2 0x4403 PUSH1 0xA0 DUP13 ADD PUSH2 0x3D22 JUMP JUMPDEST SWAP5 POP PUSH2 0x4411 PUSH1 0xC0 DUP13 ADD PUSH2 0x3D22 JUMP JUMPDEST SWAP4 POP PUSH2 0x441F PUSH1 0xE0 DUP13 ADD PUSH2 0x4325 JUMP JUMPDEST SWAP3 POP PUSH2 0x442E PUSH2 0x100 DUP13 ADD PUSH2 0x4325 JUMP JUMPDEST SWAP2 POP PUSH2 0x443D PUSH2 0x120 DUP13 ADD PUSH2 0x3D22 JUMP JUMPDEST SWAP1 POP SWAP3 SWAP6 SWAP9 SWAP12 SWAP2 SWAP5 SWAP8 SWAP11 POP SWAP3 SWAP6 SWAP9 POP JUMP JUMPDEST PUSH1 0x0 DUP1 PUSH1 0x40 DUP4 DUP6 SUB SLT ISZERO PUSH2 0x4461 JUMPI PUSH1 0x0 DUP1 REVERT JUMPDEST DUP3 CALLDATALOAD PUSH2 0x446C DUP2 PUSH2 0x3D0D JUMP JUMPDEST SWAP2 POP PUSH1 0x20 DUP4 ADD CALLDATALOAD PUSH2 0x3FB3 DUP2 PUSH2 0x3D0D JUMP JUMPDEST PUSH1 0x1 DUP2 DUP2 SHR SWAP1 DUP3 AND DUP1 PUSH2 0x4490 JUMPI PUSH1 0x7F DUP3 AND SWAP2 POP JUMPDEST PUSH1 0x20 DUP3 LT DUP2 EQ ISZERO PUSH2 0x44B1 JUMPI PUSH4 0x4E487B71 PUSH1 0xE0 SHL PUSH1 0x0 MSTORE PUSH1 0x22 PUSH1 0x4 MSTORE PUSH1 0x24 PUSH1 0x0 REVERT JUMPDEST POP SWAP2 SWAP1 POP JUMP JUMPDEST PUSH1 0x20 DUP1 DUP3 MSTORE PUSH1 0x31 SWAP1 DUP3 ADD MSTORE PUSH32 0x4552433732313A207472616E736665722063616C6C6572206973206E6F74206F PUSH1 0x40 DUP3 ADD MSTORE PUSH17 0x1DDB995C881B9BDC88185C1C1C9BDD9959 PUSH1 0x7A SHL PUSH1 0x60 DUP3 ADD MSTORE PUSH1 0x80 ADD SWAP1 JUMP JUMPDEST PUSH4 0x4E487B71 PUSH1 0xE0 SHL PUSH1 0x0 MSTORE PUSH1 0x11 PUSH1 0x4 MSTORE PUSH1 0x24 PUSH1 0x0 REVERT JUMPDEST PUSH1 0x0 DUP2 PUSH1 0x0 NOT DIV DUP4 GT DUP3 ISZERO ISZERO AND ISZERO PUSH2 0x4538 JUMPI PUSH2 0x4538 PUSH2 0x4508 JUMP JUMPDEST POP MUL SWAP1 JUMP JUMPDEST PUSH1 0x0 DUP3 PUSH2 0x455A JUMPI PUSH4 0x4E487B71 PUSH1 0xE0 SHL PUSH1 0x0 MSTORE PUSH1 0x12 PUSH1 0x4 MSTORE PUSH1 0x24 PUSH1 0x0 REVERT JUMPDEST POP DIV SWAP1 JUMP JUMPDEST PUSH1 0x0 DUP1 DUP4 CALLDATALOAD PUSH1 0x1E NOT DUP5 CALLDATASIZE SUB ADD DUP2 SLT PUSH2 0x4576 JUMPI PUSH1 0x0 DUP1 REVERT JUMPDEST DUP4 ADD DUP1 CALLDATALOAD SWAP2 POP PUSH1 0x1 PUSH1 0x1 PUSH1 0x40 SHL SUB DUP3 GT ISZERO PUSH2 0x4590 JUMPI PUSH1 0x0 DUP1 REVERT JUMPDEST PUSH1 0x20 ADD SWAP2 POP CALLDATASIZE DUP2 SWAP1 SUB DUP3 SGT ISZERO PUSH2 0x3746 JUMPI PUSH1 0x0 DUP1 REVERT JUMPDEST PUSH1 0x0 PUSH2 0x140 DUP3 CALLDATASIZE SUB SLT ISZERO PUSH2 0x45B8 JUMPI PUSH1 0x0 DUP1 REVERT JUMPDEST PUSH2 0x45C0 PUSH2 0x414E JUMP JUMPDEST PUSH2 0x45C9 DUP4 PUSH2 0x3D22 JUMP JUMPDEST DUP2 MSTORE PUSH2 0x45D7 PUSH1 0x20 DUP5 ADD PUSH2 0x3D22 JUMP JUMPDEST PUSH1 0x20 DUP3 ADD MSTORE PUSH1 0x40 DUP4 ADD CALLDATALOAD PUSH1 0x40 DUP3 ADD MSTORE PUSH2 0x45F2 PUSH1 0x60 DUP5 ADD PUSH2 0x3D22 JUMP JUMPDEST PUSH1 0x60 DUP3 ADD MSTORE PUSH1 0x80 DUP4 ADD CALLDATALOAD PUSH1 0x1 PUSH1 0x1 PUSH1 0x40 SHL SUB DUP2 GT ISZERO PUSH2 0x4610 JUMPI PUSH1 0x0 DUP1 REVERT JUMPDEST PUSH2 0x461C CALLDATASIZE DUP3 DUP7 ADD PUSH2 0x427D JUMP JUMPDEST PUSH1 0x80 DUP4 ADD MSTORE POP PUSH1 0xA0 DUP4 ADD CALLDATALOAD PUSH1 0xA0 DUP3 ADD MSTORE PUSH2 0x4638 PUSH1 0xC0 DUP5 ADD PUSH2 0x3D22 JUMP JUMPDEST PUSH1 0xC0 DUP3 ADD MSTORE PUSH2 0x4649 PUSH1 0xE0 DUP5 ADD PUSH2 0x4325 JUMP JUMPDEST PUSH1 0xE0 DUP3 ADD MSTORE PUSH2 0x100 PUSH2 0x465C DUP2 DUP6 ADD PUSH2 0x4325 JUMP JUMPDEST SWAP1 DUP3 ADD MSTORE PUSH2 0x120 SWAP3 DUP4 ADD CALLDATALOAD SWAP3 DUP2 ADD SWAP3 SWAP1 SWAP3 MSTORE POP SWAP1 JUMP JUMPDEST PUSH1 0x0 DUP1 DUP4 CALLDATALOAD PUSH1 0x1E NOT DUP5 CALLDATASIZE SUB ADD DUP2 SLT PUSH2 0x4689 JUMPI PUSH1 0x0 DUP1 REVERT JUMPDEST DUP4 ADD PUSH1 0x20 DUP2 ADD SWAP3 POP CALLDATALOAD SWAP1 POP PUSH1 0x1 PUSH1 0x1 PUSH1 0x40 SHL SUB DUP2 GT ISZERO PUSH2 0x46A8 JUMPI PUSH1 0x0 DUP1 REVERT JUMPDEST DUP1 CALLDATASIZE SUB DUP4 SGT ISZERO PUSH2 0x3746 JUMPI PUSH1 0x0 DUP1 REVERT JUMPDEST DUP2 DUP4 MSTORE DUP2 DUP2 PUSH1 0x20 DUP6 ADD CALLDATACOPY POP PUSH1 0x0 DUP3 DUP3 ADD PUSH1 0x20 SWAP1 DUP2 ADD SWAP2 SWAP1 SWAP2 MSTORE PUSH1 0x1F SWAP1 SWAP2 ADD PUSH1 0x1F NOT AND SWAP1 SWAP2 ADD ADD SWAP1 JUMP JUMPDEST PUSH1 0x20 DUP2 MSTORE PUSH2 0x4701 PUSH1 0x20 DUP3 ADD PUSH2 0x46F4 DUP5 PUSH2 0x3D22 JUMP JUMPDEST PUSH1 0x1 PUSH1 0x1 PUSH1 0xA0 SHL SUB AND SWAP1 MSTORE JUMP JUMPDEST PUSH1 0x0 PUSH2 0x470F PUSH1 0x20 DUP5 ADD PUSH2 0x3D22 JUMP JUMPDEST PUSH1 0x1 PUSH1 0x1 PUSH1 0xA0 SHL SUB DUP2 AND PUSH1 0x40 DUP5 ADD MSTORE POP PUSH1 0x40 DUP4 ADD CALLDATALOAD PUSH1 0x60 DUP4 ADD MSTORE PUSH2 0x4735 PUSH1 0x60 DUP5 ADD PUSH2 0x3D22 JUMP JUMPDEST PUSH1 0x1 PUSH1 0x1 PUSH1 0xA0 SHL SUB DUP2 AND PUSH1 0x80 DUP5 ADD MSTORE POP PUSH2 0x4752 PUSH1 0x80 DUP5 ADD DUP5 PUSH2 0x4672 JUMP JUMPDEST PUSH2 0x140 DUP1 PUSH1 0xA0 DUP7 ADD MSTORE PUSH2 0x476A PUSH2 0x160 DUP7 ADD DUP4 DUP6 PUSH2 0x46B7 JUMP JUMPDEST SWAP3 POP PUSH1 0xA0 DUP7 ADD CALLDATALOAD PUSH1 0xC0 DUP7 ADD MSTORE PUSH2 0x4782 PUSH1 0xC0 DUP8 ADD PUSH2 0x3D22 JUMP JUMPDEST PUSH1 0x1 PUSH1 0x1 PUSH1 0xA0 SHL SUB DUP2 AND PUSH1 0xE0 DUP8 ADD MSTORE SWAP2 POP PUSH2 0x479F PUSH1 0xE0 DUP8 ADD PUSH2 0x4325 JUMP JUMPDEST SWAP2 POP PUSH2 0x100 PUSH2 0x47B8 DUP2 DUP8 ADD DUP5 PUSH1 0x1 PUSH1 0x1 PUSH1 0x80 SHL SUB AND SWAP1 MSTORE JUMP JUMPDEST PUSH2 0x47C3 DUP2 DUP9 ADD PUSH2 0x4325 JUMP JUMPDEST SWAP3 POP POP PUSH2 0x120 PUSH2 0x47DD DUP2 DUP8 ADD DUP5 PUSH1 0x1 PUSH1 0x1 PUSH1 0x80 SHL SUB AND SWAP1 MSTORE JUMP JUMPDEST SWAP6 SWAP1 SWAP6 ADD CALLDATALOAD SWAP4 SWAP1 SWAP5 ADD SWAP3 SWAP1 SWAP3 MSTORE POP SWAP2 SWAP1 POP JUMP JUMPDEST PUSH4 0x4E487B71 PUSH1 0xE0 SHL PUSH1 0x0 MSTORE PUSH1 0x32 PUSH1 0x4 MSTORE PUSH1 0x24 PUSH1 0x0 REVERT JUMPDEST PUSH1 0x0 PUSH1 0x0 NOT DUP3 EQ ISZERO PUSH2 0x481A JUMPI PUSH2 0x481A PUSH2 0x4508 JUMP JUMPDEST POP PUSH1 0x1 ADD SWAP1 JUMP JUMPDEST PUSH32 0x416363657373436F6E74726F6C3A206163636F756E7420000000000000000000 DUP2 MSTORE PUSH1 0x0 DUP4 MLOAD PUSH2 0x4859 DUP2 PUSH1 0x17 DUP6 ADD PUSH1 0x20 DUP9 ADD PUSH2 0x3DFA JUMP JUMPDEST PUSH17 0x1034B99036B4B9B9B4B733903937B6329 PUSH1 0x7D SHL PUSH1 0x17 SWAP2 DUP5 ADD SWAP2 DUP3 ADD MSTORE DUP4 MLOAD PUSH2 0x488A DUP2 PUSH1 0x28 DUP5 ADD PUSH1 0x20 DUP9 ADD PUSH2 0x3DFA JUMP JUMPDEST ADD PUSH1 0x28 ADD SWAP5 SWAP4 POP POP POP POP JUMP JUMPDEST PUSH1 0x0 DUP3 NOT DUP3 GT ISZERO PUSH2 0x48A9 JUMPI PUSH2 0x48A9 PUSH2 0x4508 JUMP JUMPDEST POP ADD SWAP1 JUMP JUMPDEST PUSH1 0x20 DUP2 MSTORE PUSH1 0x0 PUSH2 0x1F09 PUSH1 0x20 DUP4 ADD DUP5 DUP7 PUSH2 0x46B7 JUMP JUMPDEST PUSH1 0x0 DUP3 DUP3 LT ISZERO PUSH2 0x48D4 JUMPI PUSH2 0x48D4 PUSH2 0x4508 JUMP JUMPDEST POP SUB SWAP1 JUMP JUMPDEST PUSH1 0x0 PUSH1 0x20 DUP3 DUP5 SUB SLT ISZERO PUSH2 0x48EB JUMPI PUSH1 0x0 DUP1 REVERT JUMPDEST PUSH2 0x15EA DUP3 PUSH2 0x4325 JUMP JUMPDEST PUSH1 0x0 DUP1 PUSH1 0x40 DUP4 DUP6 SUB SLT ISZERO PUSH2 0x4907 JUMPI PUSH1 0x0 DUP1 REVERT JUMPDEST DUP3 MLOAD PUSH2 0x4912 DUP2 PUSH2 0x3D0D JUMP JUMPDEST PUSH1 0x20 SWAP4 SWAP1 SWAP4 ADD MLOAD SWAP3 SWAP5 SWAP3 SWAP4 POP POP POP JUMP JUMPDEST PUSH1 0x0 DUP3 MLOAD PUSH2 0x4934 DUP2 DUP5 PUSH1 0x20 DUP8 ADD PUSH2 0x3DFA JUMP JUMPDEST SWAP2 SWAP1 SWAP2 ADD SWAP3 SWAP2 POP POP JUMP JUMPDEST PUSH1 0x20 DUP1 DUP3 MSTORE PUSH1 0x32 SWAP1 DUP3 ADD MSTORE PUSH32 0x4552433732313A207472616E7366657220746F206E6F6E204552433732315265 PUSH1 0x40 DUP3 ADD MSTORE PUSH18 0x31B2B4BB32B91034B6B83632B6B2B73A32B9 PUSH1 0x71 SHL PUSH1 0x60 DUP3 ADD MSTORE PUSH1 0x80 ADD SWAP1 JUMP JUMPDEST PUSH1 0x20 DUP1 DUP3 MSTORE PUSH1 0x2B SWAP1 DUP3 ADD MSTORE PUSH32 0x496E697469616C697A61626C653A20636F6E7472616374206973206E6F742069 PUSH1 0x40 DUP3 ADD MSTORE PUSH11 0x6E697469616C697A696E67 PUSH1 0xA8 SHL PUSH1 0x60 DUP3 ADD MSTORE PUSH1 0x80 ADD SWAP1 JUMP JUMPDEST PUSH1 0x0 DUP2 PUSH2 0x49EA JUMPI PUSH2 0x49EA PUSH2 0x4508 JUMP JUMPDEST POP PUSH1 0x0 NOT ADD SWAP1 JUMP JUMPDEST PUSH1 0x1 PUSH1 0x1 PUSH1 0xA0 SHL SUB DUP6 DUP2 AND DUP3 MSTORE DUP5 AND PUSH1 0x20 DUP3 ADD MSTORE PUSH1 0x40 DUP2 ADD DUP4 SWAP1 MSTORE PUSH1 0x80 PUSH1 0x60 DUP3 ADD DUP2 SWAP1 MSTORE PUSH1 0x0 SWAP1 PUSH2 0x4A25 SWAP1 DUP4 ADD DUP5 PUSH2 0x3E26 JUMP JUMPDEST SWAP7 SWAP6 POP POP POP POP POP POP JUMP JUMPDEST PUSH1 0x0 PUSH1 0x20 DUP3 DUP5 SUB SLT ISZERO PUSH2 0x4A41 JUMPI PUSH1 0x0 DUP1 REVERT JUMPDEST DUP2 MLOAD PUSH2 0x15EA DUP2 PUSH2 0x3DC7 JUMP JUMPDEST DUP2 DUP4 DUP3 CALLDATACOPY PUSH1 0x0 SWAP2 ADD SWAP1 DUP2 MSTORE SWAP2 SWAP1 POP JUMP JUMPDEST PUSH1 0x0 PUSH1 0x20 DUP3 DUP5 SUB SLT ISZERO PUSH2 0x4A6E JUMPI PUSH1 0x0 DUP1 REVERT JUMPDEST DUP2 MLOAD PUSH2 0x15EA DUP2 PUSH2 0x4026 JUMP JUMPDEST PUSH4 0x4E487B71 PUSH1 0xE0 SHL PUSH1 0x0 MSTORE PUSH1 0x31 PUSH1 0x4 MSTORE PUSH1 0x24 PUSH1 0x0 REVERT JUMPDEST PUSH4 0x4E487B71 PUSH1 0xE0 SHL PUSH1 0x0 MSTORE PUSH1 0x21 PUSH1 0x4 MSTORE PUSH1 0x24 PUSH1 0x0 REVERT INVALID DUP6 MUL 0x23 ADDRESS SWAP7 0xD9 MULMOD 0xBE 0xFB 0xDA MULMOD SWAP10 0xBB DUP15 LOG2 RETURN 0xA6 0xBE EXTCODECOPY SGT DUP12 SWAP16 0xBF STOP CALLDATACOPY MSTORE LOG4 0xC8 0xBC 0xE8 PUSH16 0x6C416464726573733A206C6F772D6C65 PUSH23 0x656C2064656C65676174652063616C6C206661696C6564 LOG2 PUSH5 0x6970667358 0x22 SLT KECCAK256 0xA5 LOG4 0x5C 0xE1 0xC4 RETURNDATACOPY 0x25 0xAA SWAP4 0xB8 PUSH12 0xE5FD8C2F9F72FA6BBB08C104 0xF7 0xA6 0x4E 0xD1 0x25 PUSH25 0x2FC78F64736F6C634300080B00330000000000000000000000 "
		},
		"gasEstimates": {
			"creation": {
				"codeDepositCost": "3846800",
				"executionCost": "infinite",
				"totalCost": "infinite"
			},
			"external": {
				"DEFAULT_ADMIN_ROLE()": "295",
				"approve(address,uint256)": "infinite",
				"balanceOf(address)": "2640",
				"burn(uint256)": "infinite",
				"contractType()": "320",
				"contractURI()": "infinite",
				"contractVersion()": "266",
				"getApproved(uint256)": "4827",
				"getDefaultRoyaltyInfo()": "4533",
				"getPlatformFeeInfo()": "4572",
				"getRoleAdmin(bytes32)": "2589",
				"getRoleMember(bytes32,uint256)": "infinite",
				"getRoleMemberCount(bytes32)": "infinite",
				"getRoyaltyInfoForToken(uint256)": "9104",
				"grantRole(bytes32,address)": "infinite",
				"hasRole(bytes32,address)": "2798",
				"initialize(address,string,string,string,address[],address,address,uint128,uint128,address)": "infinite",
				"isApprovedForAll(address,address)": "infinite",
				"isTrustedForwarder(address)": "2632",
				"mintTo(address,string)": "infinite",
				"mintWithSignature((address,address,uint256,address,string,uint256,address,uint128,uint128,bytes32),bytes)": "infinite",
				"multicall(bytes[])": "infinite",
				"name()": "infinite",
				"nextTokenIdToMint()": "2440",
				"owner()": "6890",
				"ownerOf(uint256)": "2689",
				"platformFeeBps()": "2466",
				"platformFeeRecipient()": "2469",
				"primarySaleRecipient()": "2450",
				"renounceRole(bytes32,address)": "infinite",
				"revokeRole(bytes32,address)": "infinite",
				"royaltyInfo(uint256,uint256)": "9301",
				"safeTransferFrom(address,address,uint256)": "infinite",
				"safeTransferFrom(address,address,uint256,bytes)": "infinite",
				"setApprovalForAll(address,bool)": "infinite",
				"setContractURI(string)": "infinite",
				"setDefaultRoyaltyInfo(address,uint256)": "infinite",
				"setOwner(address)": "infinite",
				"setPlatformFeeInfo(address,uint256)": "infinite",
				"setPrimarySaleRecipient(address)": "infinite",
				"setRoyaltyInfoForToken(uint256,address,uint256)": "infinite",
				"supportsInterface(bytes4)": "infinite",
				"symbol()": "infinite",
				"thirdwebFee()": "infinite",
				"tokenByIndex(uint256)": "6771",
				"tokenOfOwnerByIndex(address,uint256)": "5025",
				"tokenURI(uint256)": "infinite",
				"totalSupply()": "2349",
				"transferFrom(address,address,uint256)": "infinite",
				"verify((address,address,uint256,address,string,uint256,address,uint128,uint128,bytes32),bytes)": "infinite"
			},
			"internal": {
				"_beforeTokenTransfer(address,address,uint256)": "infinite",
				"_encodeRequest(struct ITokenERC721.MintRequest calldata)": "infinite",
				"_mintTo(address,string calldata)": "infinite",
				"_msgData()": "infinite",
				"_msgSender()": "2268",
				"collectPrice(struct ITokenERC721.MintRequest memory)": "infinite",
				"recoverAddress(struct ITokenERC721.MintRequest calldata,bytes calldata)": "infinite",
				"verifyRequest(struct ITokenERC721.MintRequest calldata,bytes calldata)": "infinite"
			}
		},
		"methodIdentifiers": {
			"DEFAULT_ADMIN_ROLE()": "a217fddf",
			"approve(address,uint256)": "095ea7b3",
			"balanceOf(address)": "70a08231",
			"burn(uint256)": "42966c68",
			"contractType()": "cb2ef6f7",
			"contractURI()": "e8a3d485",
			"contractVersion()": "a0a8e460",
			"getApproved(uint256)": "081812fc",
			"getDefaultRoyaltyInfo()": "b24f2d39",
			"getPlatformFeeInfo()": "d45573f6",
			"getRoleAdmin(bytes32)": "248a9ca3",
			"getRoleMember(bytes32,uint256)": "9010d07c",
			"getRoleMemberCount(bytes32)": "ca15c873",
			"getRoyaltyInfoForToken(uint256)": "4cc157df",
			"grantRole(bytes32,address)": "2f2ff15d",
			"hasRole(bytes32,address)": "91d14854",
			"initialize(address,string,string,string,address[],address,address,uint128,uint128,address)": "e1591634",
			"isApprovedForAll(address,address)": "e985e9c5",
			"isTrustedForwarder(address)": "572b6c05",
			"mintTo(address,string)": "0075a317",
			"mintWithSignature((address,address,uint256,address,string,uint256,address,uint128,uint128,bytes32),bytes)": "2c4510f8",
			"multicall(bytes[])": "ac9650d8",
			"name()": "06fdde03",
			"nextTokenIdToMint()": "3b1475a7",
			"owner()": "8da5cb5b",
			"ownerOf(uint256)": "6352211e",
			"platformFeeBps()": "22dcd13e",
			"platformFeeRecipient()": "eb13554f",
			"primarySaleRecipient()": "079fe40e",
			"renounceRole(bytes32,address)": "36568abe",
			"revokeRole(bytes32,address)": "d547741f",
			"royaltyInfo(uint256,uint256)": "2a55205a",
			"safeTransferFrom(address,address,uint256)": "42842e0e",
			"safeTransferFrom(address,address,uint256,bytes)": "b88d4fde",
			"setApprovalForAll(address,bool)": "a22cb465",
			"setContractURI(string)": "938e3d7b",
			"setDefaultRoyaltyInfo(address,uint256)": "600dd5ea",
			"setOwner(address)": "13af4035",
			"setPlatformFeeInfo(address,uint256)": "1e7ac488",
			"setPrimarySaleRecipient(address)": "6f4f2837",
			"setRoyaltyInfoForToken(uint256,address,uint256)": "9bcf7a15",
			"supportsInterface(bytes4)": "01ffc9a7",
			"symbol()": "95d89b41",
			"thirdwebFee()": "cf8267b1",
			"tokenByIndex(uint256)": "4f6ccce7",
			"tokenOfOwnerByIndex(address,uint256)": "2f745c59",
			"tokenURI(uint256)": "c87b56dd",
			"totalSupply()": "18160ddd",
			"transferFrom(address,address,uint256)": "23b872dd",
			"verify((address,address,uint256,address,string,uint256,address,uint128,uint128,bytes32),bytes)": "de903774"
		}
	},
	"abi": [
		{
			"inputs": [
				{
					"internalType": "address",
					"name": "_thirdwebFee",
					"type": "address"
				}
			],
			"stateMutability": "nonpayable",
			"type": "constructor"
		},
		{
			"anonymous": false,
			"inputs": [
				{
					"indexed": true,
					"internalType": "address",
					"name": "owner",
					"type": "address"
				},
				{
					"indexed": true,
					"internalType": "address",
					"name": "approved",
					"type": "address"
				},
				{
					"indexed": true,
					"internalType": "uint256",
					"name": "tokenId",
					"type": "uint256"
				}
			],
			"name": "Approval",
			"type": "event"
		},
		{
			"anonymous": false,
			"inputs": [
				{
					"indexed": true,
					"internalType": "address",
					"name": "owner",
					"type": "address"
				},
				{
					"indexed": true,
					"internalType": "address",
					"name": "operator",
					"type": "address"
				},
				{
					"indexed": false,
					"internalType": "bool",
					"name": "approved",
					"type": "bool"
				}
			],
			"name": "ApprovalForAll",
			"type": "event"
		},
		{
			"anonymous": false,
			"inputs": [
				{
					"indexed": false,
					"internalType": "address",
					"name": "newRoyaltyRecipient",
					"type": "address"
				},
				{
					"indexed": false,
					"internalType": "uint256",
					"name": "newRoyaltyBps",
					"type": "uint256"
				}
			],
			"name": "DefaultRoyalty",
			"type": "event"
		},
		{
			"anonymous": false,
			"inputs": [
				{
					"indexed": true,
					"internalType": "address",
					"name": "paymentReceiver",
					"type": "address"
				},
				{
					"indexed": false,
					"internalType": "address",
					"name": "feeRecipient",
					"type": "address"
				},
				{
					"indexed": false,
					"internalType": "uint256",
					"name": "totalAmount",
					"type": "uint256"
				},
				{
					"indexed": false,
					"internalType": "uint256",
					"name": "feeCollected",
					"type": "uint256"
				}
			],
			"name": "FundsWithdrawn",
			"type": "event"
		},
		{
			"anonymous": false,
			"inputs": [
				{
					"indexed": false,
					"internalType": "address",
					"name": "prevOwner",
					"type": "address"
				},
				{
					"indexed": false,
					"internalType": "address",
					"name": "newOwner",
					"type": "address"
				}
			],
			"name": "OwnerUpdated",
			"type": "event"
		},
		{
			"anonymous": false,
			"inputs": [
				{
					"indexed": false,
					"internalType": "address",
					"name": "platformFeeRecipient",
					"type": "address"
				},
				{
					"indexed": false,
					"internalType": "uint256",
					"name": "platformFeeBps",
					"type": "uint256"
				}
			],
			"name": "PlatformFeeInfoUpdated",
			"type": "event"
		},
		{
			"anonymous": false,
			"inputs": [
				{
					"indexed": true,
					"internalType": "address",
					"name": "recipient",
					"type": "address"
				}
			],
			"name": "PrimarySaleRecipientUpdated",
			"type": "event"
		},
		{
			"anonymous": false,
			"inputs": [
				{
					"indexed": true,
					"internalType": "bytes32",
					"name": "role",
					"type": "bytes32"
				},
				{
					"indexed": true,
					"internalType": "bytes32",
					"name": "previousAdminRole",
					"type": "bytes32"
				},
				{
					"indexed": true,
					"internalType": "bytes32",
					"name": "newAdminRole",
					"type": "bytes32"
				}
			],
			"name": "RoleAdminChanged",
			"type": "event"
		},
		{
			"anonymous": false,
			"inputs": [
				{
					"indexed": true,
					"internalType": "bytes32",
					"name": "role",
					"type": "bytes32"
				},
				{
					"indexed": true,
					"internalType": "address",
					"name": "account",
					"type": "address"
				},
				{
					"indexed": true,
					"internalType": "address",
					"name": "sender",
					"type": "address"
				}
			],
			"name": "RoleGranted",
			"type": "event"
		},
		{
			"anonymous": false,
			"inputs": [
				{
					"indexed": true,
					"internalType": "bytes32",
					"name": "role",
					"type": "bytes32"
				},
				{
					"indexed": true,
					"internalType": "address",
					"name": "account",
					"type": "address"
				},
				{
					"indexed": true,
					"internalType": "address",
					"name": "sender",
					"type": "address"
				}
			],
			"name": "RoleRevoked",
			"type": "event"
		},
		{
			"anonymous": false,
			"inputs": [
				{
					"indexed": true,
					"internalType": "uint256",
					"name": "tokenId",
					"type": "uint256"
				},
				{
					"indexed": false,
					"internalType": "address",
					"name": "royaltyRecipient",
					"type": "address"
				},
				{
					"indexed": false,
					"internalType": "uint256",
					"name": "royaltyBps",
					"type": "uint256"
				}
			],
			"name": "RoyaltyForToken",
			"type": "event"
		},
		{
			"anonymous": false,
			"inputs": [
				{
					"indexed": true,
					"internalType": "address",
					"name": "mintedTo",
					"type": "address"
				},
				{
					"indexed": true,
					"internalType": "uint256",
					"name": "tokenIdMinted",
					"type": "uint256"
				},
				{
					"indexed": false,
					"internalType": "string",
					"name": "uri",
					"type": "string"
				}
			],
			"name": "TokensMinted",
			"type": "event"
		},
		{
			"anonymous": false,
			"inputs": [
				{
					"indexed": true,
					"internalType": "address",
					"name": "signer",
					"type": "address"
				},
				{
					"indexed": true,
					"internalType": "address",
					"name": "mintedTo",
					"type": "address"
				},
				{
					"indexed": true,
					"internalType": "uint256",
					"name": "tokenIdMinted",
					"type": "uint256"
				},
				{
					"components": [
						{
							"internalType": "address",
							"name": "to",
							"type": "address"
						},
						{
							"internalType": "address",
							"name": "royaltyRecipient",
							"type": "address"
						},
						{
							"internalType": "uint256",
							"name": "royaltyBps",
							"type": "uint256"
						},
						{
							"internalType": "address",
							"name": "primarySaleRecipient",
							"type": "address"
						},
						{
							"internalType": "string",
							"name": "uri",
							"type": "string"
						},
						{
							"internalType": "uint256",
							"name": "price",
							"type": "uint256"
						},
						{
							"internalType": "address",
							"name": "currency",
							"type": "address"
						},
						{
							"internalType": "uint128",
							"name": "validityStartTimestamp",
							"type": "uint128"
						},
						{
							"internalType": "uint128",
							"name": "validityEndTimestamp",
							"type": "uint128"
						},
						{
							"internalType": "bytes32",
							"name": "uid",
							"type": "bytes32"
						}
					],
					"indexed": false,
					"internalType": "struct ITokenERC721.MintRequest",
					"name": "mintRequest",
					"type": "tuple"
				}
			],
			"name": "TokensMintedWithSignature",
			"type": "event"
		},
		{
			"anonymous": false,
			"inputs": [
				{
					"indexed": true,
					"internalType": "address",
					"name": "from",
					"type": "address"
				},
				{
					"indexed": true,
					"internalType": "address",
					"name": "to",
					"type": "address"
				},
				{
					"indexed": true,
					"internalType": "uint256",
					"name": "tokenId",
					"type": "uint256"
				}
			],
			"name": "Transfer",
			"type": "event"
		},
		{
			"inputs": [],
			"name": "DEFAULT_ADMIN_ROLE",
			"outputs": [
				{
					"internalType": "bytes32",
					"name": "",
					"type": "bytes32"
				}
			],
			"stateMutability": "view",
			"type": "function"
		},
		{
			"inputs": [
				{
					"internalType": "address",
					"name": "to",
					"type": "address"
				},
				{
					"internalType": "uint256",
					"name": "tokenId",
					"type": "uint256"
				}
			],
			"name": "approve",
			"outputs": [],
			"stateMutability": "nonpayable",
			"type": "function"
		},
		{
			"inputs": [
				{
					"internalType": "address",
					"name": "owner",
					"type": "address"
				}
			],
			"name": "balanceOf",
			"outputs": [
				{
					"internalType": "uint256",
					"name": "",
					"type": "uint256"
				}
			],
			"stateMutability": "view",
			"type": "function"
		},
		{
			"inputs": [
				{
					"internalType": "uint256",
					"name": "tokenId",
					"type": "uint256"
				}
			],
			"name": "burn",
			"outputs": [],
			"stateMutability": "nonpayable",
			"type": "function"
		},
		{
			"inputs": [],
			"name": "contractType",
			"outputs": [
				{
					"internalType": "bytes32",
					"name": "",
					"type": "bytes32"
				}
			],
			"stateMutability": "pure",
			"type": "function"
		},
		{
			"inputs": [],
			"name": "contractURI",
			"outputs": [
				{
					"internalType": "string",
					"name": "",
					"type": "string"
				}
			],
			"stateMutability": "view",
			"type": "function"
		},
		{
			"inputs": [],
			"name": "contractVersion",
			"outputs": [
				{
					"internalType": "uint8",
					"name": "",
					"type": "uint8"
				}
			],
			"stateMutability": "pure",
			"type": "function"
		},
		{
			"inputs": [
				{
					"internalType": "uint256",
					"name": "tokenId",
					"type": "uint256"
				}
			],
			"name": "getApproved",
			"outputs": [
				{
					"internalType": "address",
					"name": "",
					"type": "address"
				}
			],
			"stateMutability": "view",
			"type": "function"
		},
		{
			"inputs": [],
			"name": "getDefaultRoyaltyInfo",
			"outputs": [
				{
					"internalType": "address",
					"name": "",
					"type": "address"
				},
				{
					"internalType": "uint16",
					"name": "",
					"type": "uint16"
				}
			],
			"stateMutability": "view",
			"type": "function"
		},
		{
			"inputs": [],
			"name": "getPlatformFeeInfo",
			"outputs": [
				{
					"internalType": "address",
					"name": "",
					"type": "address"
				},
				{
					"internalType": "uint16",
					"name": "",
					"type": "uint16"
				}
			],
			"stateMutability": "view",
			"type": "function"
		},
		{
			"inputs": [
				{
					"internalType": "bytes32",
					"name": "role",
					"type": "bytes32"
				}
			],
			"name": "getRoleAdmin",
			"outputs": [
				{
					"internalType": "bytes32",
					"name": "",
					"type": "bytes32"
				}
			],
			"stateMutability": "view",
			"type": "function"
		},
		{
			"inputs": [
				{
					"internalType": "bytes32",
					"name": "role",
					"type": "bytes32"
				},
				{
					"internalType": "uint256",
					"name": "index",
					"type": "uint256"
				}
			],
			"name": "getRoleMember",
			"outputs": [
				{
					"internalType": "address",
					"name": "",
					"type": "address"
				}
			],
			"stateMutability": "view",
			"type": "function"
		},
		{
			"inputs": [
				{
					"internalType": "bytes32",
					"name": "role",
					"type": "bytes32"
				}
			],
			"name": "getRoleMemberCount",
			"outputs": [
				{
					"internalType": "uint256",
					"name": "",
					"type": "uint256"
				}
			],
			"stateMutability": "view",
			"type": "function"
		},
		{
			"inputs": [
				{
					"internalType": "uint256",
					"name": "_tokenId",
					"type": "uint256"
				}
			],
			"name": "getRoyaltyInfoForToken",
			"outputs": [
				{
					"internalType": "address",
					"name": "",
					"type": "address"
				},
				{
					"internalType": "uint16",
					"name": "",
					"type": "uint16"
				}
			],
			"stateMutability": "view",
			"type": "function"
		},
		{
			"inputs": [
				{
					"internalType": "bytes32",
					"name": "role",
					"type": "bytes32"
				},
				{
					"internalType": "address",
					"name": "account",
					"type": "address"
				}
			],
			"name": "grantRole",
			"outputs": [],
			"stateMutability": "nonpayable",
			"type": "function"
		},
		{
			"inputs": [
				{
					"internalType": "bytes32",
					"name": "role",
					"type": "bytes32"
				},
				{
					"internalType": "address",
					"name": "account",
					"type": "address"
				}
			],
			"name": "hasRole",
			"outputs": [
				{
					"internalType": "bool",
					"name": "",
					"type": "bool"
				}
			],
			"stateMutability": "view",
			"type": "function"
		},
		{
			"inputs": [
				{
					"internalType": "address",
					"name": "_defaultAdmin",
					"type": "address"
				},
				{
					"internalType": "string",
					"name": "_name",
					"type": "string"
				},
				{
					"internalType": "string",
					"name": "_symbol",
					"type": "string"
				},
				{
					"internalType": "string",
					"name": "_contractURI",
					"type": "string"
				},
				{
					"internalType": "address[]",
					"name": "_trustedForwarders",
					"type": "address[]"
				},
				{
					"internalType": "address",
					"name": "_saleRecipient",
					"type": "address"
				},
				{
					"internalType": "address",
					"name": "_royaltyRecipient",
					"type": "address"
				},
				{
					"internalType": "uint128",
					"name": "_royaltyBps",
					"type": "uint128"
				},
				{
					"internalType": "uint128",
					"name": "_platformFeeBps",
					"type": "uint128"
				},
				{
					"internalType": "address",
					"name": "_platformFeeRecipient",
					"type": "address"
				}
			],
			"name": "initialize",
			"outputs": [],
			"stateMutability": "nonpayable",
			"type": "function"
		},
		{
			"inputs": [
				{
					"internalType": "address",
					"name": "owner",
					"type": "address"
				},
				{
					"internalType": "address",
					"name": "operator",
					"type": "address"
				}
			],
			"name": "isApprovedForAll",
			"outputs": [
				{
					"internalType": "bool",
					"name": "",
					"type": "bool"
				}
			],
			"stateMutability": "view",
			"type": "function"
		},
		{
			"inputs": [
				{
					"internalType": "address",
					"name": "forwarder",
					"type": "address"
				}
			],
			"name": "isTrustedForwarder",
			"outputs": [
				{
					"internalType": "bool",
					"name": "",
					"type": "bool"
				}
			],
			"stateMutability": "view",
			"type": "function"
		},
		{
			"inputs": [
				{
					"internalType": "address",
					"name": "_to",
					"type": "address"
				},
				{
					"internalType": "string",
					"name": "_uri",
					"type": "string"
				}
			],
			"name": "mintTo",
			"outputs": [
				{
					"internalType": "uint256",
					"name": "",
					"type": "uint256"
				}
			],
			"stateMutability": "nonpayable",
			"type": "function"
		},
		{
			"inputs": [
				{
					"components": [
						{
							"internalType": "address",
							"name": "to",
							"type": "address"
						},
						{
							"internalType": "address",
							"name": "royaltyRecipient",
							"type": "address"
						},
						{
							"internalType": "uint256",
							"name": "royaltyBps",
							"type": "uint256"
						},
						{
							"internalType": "address",
							"name": "primarySaleRecipient",
							"type": "address"
						},
						{
							"internalType": "string",
							"name": "uri",
							"type": "string"
						},
						{
							"internalType": "uint256",
							"name": "price",
							"type": "uint256"
						},
						{
							"internalType": "address",
							"name": "currency",
							"type": "address"
						},
						{
							"internalType": "uint128",
							"name": "validityStartTimestamp",
							"type": "uint128"
						},
						{
							"internalType": "uint128",
							"name": "validityEndTimestamp",
							"type": "uint128"
						},
						{
							"internalType": "bytes32",
							"name": "uid",
							"type": "bytes32"
						}
					],
					"internalType": "struct ITokenERC721.MintRequest",
					"name": "_req",
					"type": "tuple"
				},
				{
					"internalType": "bytes",
					"name": "_signature",
					"type": "bytes"
				}
			],
			"name": "mintWithSignature",
			"outputs": [
				{
					"internalType": "uint256",
					"name": "tokenIdMinted",
					"type": "uint256"
				}
			],
			"stateMutability": "payable",
			"type": "function"
		},
		{
			"inputs": [
				{
					"internalType": "bytes[]",
					"name": "data",
					"type": "bytes[]"
				}
			],
			"name": "multicall",
			"outputs": [
				{
					"internalType": "bytes[]",
					"name": "results",
					"type": "bytes[]"
				}
			],
			"stateMutability": "nonpayable",
			"type": "function"
		},
		{
			"inputs": [],
			"name": "name",
			"outputs": [
				{
					"internalType": "string",
					"name": "",
					"type": "string"
				}
			],
			"stateMutability": "view",
			"type": "function"
		},
		{
			"inputs": [],
			"name": "nextTokenIdToMint",
			"outputs": [
				{
					"internalType": "uint256",
					"name": "",
					"type": "uint256"
				}
			],
			"stateMutability": "view",
			"type": "function"
		},
		{
			"inputs": [],
			"name": "owner",
			"outputs": [
				{
					"internalType": "address",
					"name": "",
					"type": "address"
				}
			],
			"stateMutability": "view",
			"type": "function"
		},
		{
			"inputs": [
				{
					"internalType": "uint256",
					"name": "tokenId",
					"type": "uint256"
				}
			],
			"name": "ownerOf",
			"outputs": [
				{
					"internalType": "address",
					"name": "",
					"type": "address"
				}
			],
			"stateMutability": "view",
			"type": "function"
		},
		{
			"inputs": [],
			"name": "platformFeeBps",
			"outputs": [
				{
					"internalType": "uint128",
					"name": "",
					"type": "uint128"
				}
			],
			"stateMutability": "view",
			"type": "function"
		},
		{
			"inputs": [],
			"name": "platformFeeRecipient",
			"outputs": [
				{
					"internalType": "address",
					"name": "",
					"type": "address"
				}
			],
			"stateMutability": "view",
			"type": "function"
		},
		{
			"inputs": [],
			"name": "primarySaleRecipient",
			"outputs": [
				{
					"internalType": "address",
					"name": "",
					"type": "address"
				}
			],
			"stateMutability": "view",
			"type": "function"
		},
		{
			"inputs": [
				{
					"internalType": "bytes32",
					"name": "role",
					"type": "bytes32"
				},
				{
					"internalType": "address",
					"name": "account",
					"type": "address"
				}
			],
			"name": "renounceRole",
			"outputs": [],
			"stateMutability": "nonpayable",
			"type": "function"
		},
		{
			"inputs": [
				{
					"internalType": "bytes32",
					"name": "role",
					"type": "bytes32"
				},
				{
					"internalType": "address",
					"name": "account",
					"type": "address"
				}
			],
			"name": "revokeRole",
			"outputs": [],
			"stateMutability": "nonpayable",
			"type": "function"
		},
		{
			"inputs": [
				{
					"internalType": "uint256",
					"name": "tokenId",
					"type": "uint256"
				},
				{
					"internalType": "uint256",
					"name": "salePrice",
					"type": "uint256"
				}
			],
			"name": "royaltyInfo",
			"outputs": [
				{
					"internalType": "address",
					"name": "receiver",
					"type": "address"
				},
				{
					"internalType": "uint256",
					"name": "royaltyAmount",
					"type": "uint256"
				}
			],
			"stateMutability": "view",
			"type": "function"
		},
		{
			"inputs": [
				{
					"internalType": "address",
					"name": "from",
					"type": "address"
				},
				{
					"internalType": "address",
					"name": "to",
					"type": "address"
				},
				{
					"internalType": "uint256",
					"name": "tokenId",
					"type": "uint256"
				}
			],
			"name": "safeTransferFrom",
			"outputs": [],
			"stateMutability": "nonpayable",
			"type": "function"
		},
		{
			"inputs": [
				{
					"internalType": "address",
					"name": "from",
					"type": "address"
				},
				{
					"internalType": "address",
					"name": "to",
					"type": "address"
				},
				{
					"internalType": "uint256",
					"name": "tokenId",
					"type": "uint256"
				},
				{
					"internalType": "bytes",
					"name": "_data",
					"type": "bytes"
				}
			],
			"name": "safeTransferFrom",
			"outputs": [],
			"stateMutability": "nonpayable",
			"type": "function"
		},
		{
			"inputs": [
				{
					"internalType": "address",
					"name": "operator",
					"type": "address"
				},
				{
					"internalType": "bool",
					"name": "approved",
					"type": "bool"
				}
			],
			"name": "setApprovalForAll",
			"outputs": [],
			"stateMutability": "nonpayable",
			"type": "function"
		},
		{
			"inputs": [
				{
					"internalType": "string",
					"name": "_uri",
					"type": "string"
				}
			],
			"name": "setContractURI",
			"outputs": [],
			"stateMutability": "nonpayable",
			"type": "function"
		},
		{
			"inputs": [
				{
					"internalType": "address",
					"name": "_royaltyRecipient",
					"type": "address"
				},
				{
					"internalType": "uint256",
					"name": "_royaltyBps",
					"type": "uint256"
				}
			],
			"name": "setDefaultRoyaltyInfo",
			"outputs": [],
			"stateMutability": "nonpayable",
			"type": "function"
		},
		{
			"inputs": [
				{
					"internalType": "address",
					"name": "_newOwner",
					"type": "address"
				}
			],
			"name": "setOwner",
			"outputs": [],
			"stateMutability": "nonpayable",
			"type": "function"
		},
		{
			"inputs": [
				{
					"internalType": "address",
					"name": "_platformFeeRecipient",
					"type": "address"
				},
				{
					"internalType": "uint256",
					"name": "_platformFeeBps",
					"type": "uint256"
				}
			],
			"name": "setPlatformFeeInfo",
			"outputs": [],
			"stateMutability": "nonpayable",
			"type": "function"
		},
		{
			"inputs": [
				{
					"internalType": "address",
					"name": "_saleRecipient",
					"type": "address"
				}
			],
			"name": "setPrimarySaleRecipient",
			"outputs": [],
			"stateMutability": "nonpayable",
			"type": "function"
		},
		{
			"inputs": [
				{
					"internalType": "uint256",
					"name": "_tokenId",
					"type": "uint256"
				},
				{
					"internalType": "address",
					"name": "_recipient",
					"type": "address"
				},
				{
					"internalType": "uint256",
					"name": "_bps",
					"type": "uint256"
				}
			],
			"name": "setRoyaltyInfoForToken",
			"outputs": [],
			"stateMutability": "nonpayable",
			"type": "function"
		},
		{
			"inputs": [
				{
					"internalType": "bytes4",
					"name": "interfaceId",
					"type": "bytes4"
				}
			],
			"name": "supportsInterface",
			"outputs": [
				{
					"internalType": "bool",
					"name": "",
					"type": "bool"
				}
			],
			"stateMutability": "view",
			"type": "function"
		},
		{
			"inputs": [],
			"name": "symbol",
			"outputs": [
				{
					"internalType": "string",
					"name": "",
					"type": "string"
				}
			],
			"stateMutability": "view",
			"type": "function"
		},
		{
			"inputs": [],
			"name": "thirdwebFee",
			"outputs": [
				{
					"internalType": "contract ITWFee",
					"name": "",
					"type": "address"
				}
			],
			"stateMutability": "view",
			"type": "function"
		},
		{
			"inputs": [
				{
					"internalType": "uint256",
					"name": "index",
					"type": "uint256"
				}
			],
			"name": "tokenByIndex",
			"outputs": [
				{
					"internalType": "uint256",
					"name": "",
					"type": "uint256"
				}
			],
			"stateMutability": "view",
			"type": "function"
		},
		{
			"inputs": [
				{
					"internalType": "address",
					"name": "owner",
					"type": "address"
				},
				{
					"internalType": "uint256",
					"name": "index",
					"type": "uint256"
				}
			],
			"name": "tokenOfOwnerByIndex",
			"outputs": [
				{
					"internalType": "uint256",
					"name": "",
					"type": "uint256"
				}
			],
			"stateMutability": "view",
			"type": "function"
		},
		{
			"inputs": [
				{
					"internalType": "uint256",
					"name": "_tokenId",
					"type": "uint256"
				}
			],
			"name": "tokenURI",
			"outputs": [
				{
					"internalType": "string",
					"name": "",
					"type": "string"
				}
			],
			"stateMutability": "view",
			"type": "function"
		},
		{
			"inputs": [],
			"name": "totalSupply",
			"outputs": [
				{
					"internalType": "uint256",
					"name": "",
					"type": "uint256"
				}
			],
			"stateMutability": "view",
			"type": "function"
		},
		{
			"inputs": [
				{
					"internalType": "address",
					"name": "from",
					"type": "address"
				},
				{
					"internalType": "address",
					"name": "to",
					"type": "address"
				},
				{
					"internalType": "uint256",
					"name": "tokenId",
					"type": "uint256"
				}
			],
			"name": "transferFrom",
			"outputs": [],
			"stateMutability": "nonpayable",
			"type": "function"
		},
		{
			"inputs": [
				{
					"components": [
						{
							"internalType": "address",
							"name": "to",
							"type": "address"
						},
						{
							"internalType": "address",
							"name": "royaltyRecipient",
							"type": "address"
						},
						{
							"internalType": "uint256",
							"name": "royaltyBps",
							"type": "uint256"
						},
						{
							"internalType": "address",
							"name": "primarySaleRecipient",
							"type": "address"
						},
						{
							"internalType": "string",
							"name": "uri",
							"type": "string"
						},
						{
							"internalType": "uint256",
							"name": "price",
							"type": "uint256"
						},
						{
							"internalType": "address",
							"name": "currency",
							"type": "address"
						},
						{
							"internalType": "uint128",
							"name": "validityStartTimestamp",
							"type": "uint128"
						},
						{
							"internalType": "uint128",
							"name": "validityEndTimestamp",
							"type": "uint128"
						},
						{
							"internalType": "bytes32",
							"name": "uid",
							"type": "bytes32"
						}
					],
					"internalType": "struct ITokenERC721.MintRequest",
					"name": "_req",
					"type": "tuple"
				},
				{
					"internalType": "bytes",
					"name": "_signature",
					"type": "bytes"
				}
			],
			"name": "verify",
			"outputs": [
				{
					"internalType": "bool",
					"name": "",
					"type": "bool"
				},
				{
					"internalType": "address",
					"name": "",
					"type": "address"
				}
			],
			"stateMutability": "view",
			"type": "function"
		}
	]
}